{
	"contracts/MyToken.sol": {
		"MyToken": {
			"abi": [
				{
					"inputs": [
						{
							"internalType": "address",
							"name": "initialOwner",
							"type": "address"
						}
					],
					"stateMutability": "nonpayable",
					"type": "constructor"
				},
				{
					"inputs": [],
					"name": "ECDSAInvalidSignature",
					"type": "error"
				},
				{
					"inputs": [
						{
							"internalType": "uint256",
							"name": "length",
							"type": "uint256"
						}
					],
					"name": "ECDSAInvalidSignatureLength",
					"type": "error"
				},
				{
					"inputs": [
						{
							"internalType": "bytes32",
							"name": "s",
							"type": "bytes32"
						}
					],
					"name": "ECDSAInvalidSignatureS",
					"type": "error"
				},
				{
					"inputs": [
						{
							"internalType": "address",
							"name": "spender",
							"type": "address"
						},
						{
							"internalType": "uint256",
							"name": "allowance",
							"type": "uint256"
						},
						{
							"internalType": "uint256",
							"name": "needed",
							"type": "uint256"
						}
					],
					"name": "ERC20InsufficientAllowance",
					"type": "error"
				},
				{
					"inputs": [
						{
							"internalType": "address",
							"name": "sender",
							"type": "address"
						},
						{
							"internalType": "uint256",
							"name": "balance",
							"type": "uint256"
						},
						{
							"internalType": "uint256",
							"name": "needed",
							"type": "uint256"
						}
					],
					"name": "ERC20InsufficientBalance",
					"type": "error"
				},
				{
					"inputs": [
						{
							"internalType": "address",
							"name": "approver",
							"type": "address"
						}
					],
					"name": "ERC20InvalidApprover",
					"type": "error"
				},
				{
					"inputs": [
						{
							"internalType": "address",
							"name": "receiver",
							"type": "address"
						}
					],
					"name": "ERC20InvalidReceiver",
					"type": "error"
				},
				{
					"inputs": [
						{
							"internalType": "address",
							"name": "sender",
							"type": "address"
						}
					],
					"name": "ERC20InvalidSender",
					"type": "error"
				},
				{
					"inputs": [
						{
							"internalType": "address",
							"name": "spender",
							"type": "address"
						}
					],
					"name": "ERC20InvalidSpender",
					"type": "error"
				},
				{
					"inputs": [
						{
							"internalType": "uint256",
							"name": "deadline",
							"type": "uint256"
						}
					],
					"name": "ERC2612ExpiredSignature",
					"type": "error"
				},
				{
					"inputs": [
						{
							"internalType": "address",
							"name": "signer",
							"type": "address"
						},
						{
							"internalType": "address",
							"name": "owner",
							"type": "address"
						}
					],
					"name": "ERC2612InvalidSigner",
					"type": "error"
				},
				{
					"inputs": [],
					"name": "EnforcedPause",
					"type": "error"
				},
				{
					"inputs": [],
					"name": "ExpectedPause",
					"type": "error"
				},
				{
					"inputs": [
						{
							"internalType": "address",
							"name": "account",
							"type": "address"
						},
						{
							"internalType": "uint256",
							"name": "currentNonce",
							"type": "uint256"
						}
					],
					"name": "InvalidAccountNonce",
					"type": "error"
				},
				{
					"inputs": [],
					"name": "InvalidShortString",
					"type": "error"
				},
				{
					"inputs": [
						{
							"internalType": "address",
							"name": "owner",
							"type": "address"
						}
					],
					"name": "OwnableInvalidOwner",
					"type": "error"
				},
				{
					"inputs": [
						{
							"internalType": "address",
							"name": "account",
							"type": "address"
						}
					],
					"name": "OwnableUnauthorizedAccount",
					"type": "error"
				},
				{
					"inputs": [
						{
							"internalType": "string",
							"name": "str",
							"type": "string"
						}
					],
					"name": "StringTooLong",
					"type": "error"
				},
				{
					"anonymous": false,
					"inputs": [
						{
							"indexed": true,
							"internalType": "address",
							"name": "owner",
							"type": "address"
						},
						{
							"indexed": true,
							"internalType": "address",
							"name": "spender",
							"type": "address"
						},
						{
							"indexed": false,
							"internalType": "uint256",
							"name": "value",
							"type": "uint256"
						}
					],
					"name": "Approval",
					"type": "event"
				},
				{
					"anonymous": false,
					"inputs": [],
					"name": "EIP712DomainChanged",
					"type": "event"
				},
				{
					"anonymous": false,
					"inputs": [
						{
							"indexed": true,
							"internalType": "address",
							"name": "previousOwner",
							"type": "address"
						},
						{
							"indexed": true,
							"internalType": "address",
							"name": "newOwner",
							"type": "address"
						}
					],
					"name": "OwnershipTransferred",
					"type": "event"
				},
				{
					"anonymous": false,
					"inputs": [
						{
							"indexed": false,
							"internalType": "address",
							"name": "account",
							"type": "address"
						}
					],
					"name": "Paused",
					"type": "event"
				},
				{
					"anonymous": false,
					"inputs": [
						{
							"indexed": true,
							"internalType": "address",
							"name": "from",
							"type": "address"
						},
						{
							"indexed": true,
							"internalType": "address",
							"name": "to",
							"type": "address"
						},
						{
							"indexed": false,
							"internalType": "uint256",
							"name": "value",
							"type": "uint256"
						}
					],
					"name": "Transfer",
					"type": "event"
				},
				{
					"anonymous": false,
					"inputs": [
						{
							"indexed": false,
							"internalType": "address",
							"name": "account",
							"type": "address"
						}
					],
					"name": "Unpaused",
					"type": "event"
				},
				{
					"inputs": [],
					"name": "DOMAIN_SEPARATOR",
					"outputs": [
						{
							"internalType": "bytes32",
							"name": "",
							"type": "bytes32"
						}
					],
					"stateMutability": "view",
					"type": "function"
				},
				{
					"inputs": [
						{
							"internalType": "address",
							"name": "owner",
							"type": "address"
						},
						{
							"internalType": "address",
							"name": "spender",
							"type": "address"
						}
					],
					"name": "allowance",
					"outputs": [
						{
							"internalType": "uint256",
							"name": "",
							"type": "uint256"
						}
					],
					"stateMutability": "view",
					"type": "function"
				},
				{
					"inputs": [
						{
							"internalType": "address",
							"name": "spender",
							"type": "address"
						},
						{
							"internalType": "uint256",
							"name": "value",
							"type": "uint256"
						}
					],
					"name": "approve",
					"outputs": [
						{
							"internalType": "bool",
							"name": "",
							"type": "bool"
						}
					],
					"stateMutability": "nonpayable",
					"type": "function"
				},
				{
					"inputs": [
						{
							"internalType": "address",
							"name": "account",
							"type": "address"
						}
					],
					"name": "balanceOf",
					"outputs": [
						{
							"internalType": "uint256",
							"name": "",
							"type": "uint256"
						}
					],
					"stateMutability": "view",
					"type": "function"
				},
				{
					"inputs": [
						{
							"internalType": "uint256",
							"name": "value",
							"type": "uint256"
						}
					],
					"name": "burn",
					"outputs": [],
					"stateMutability": "nonpayable",
					"type": "function"
				},
				{
					"inputs": [
						{
							"internalType": "address",
							"name": "account",
							"type": "address"
						},
						{
							"internalType": "uint256",
							"name": "value",
							"type": "uint256"
						}
					],
					"name": "burnFrom",
					"outputs": [],
					"stateMutability": "nonpayable",
					"type": "function"
				},
				{
					"inputs": [],
					"name": "decimals",
					"outputs": [
						{
							"internalType": "uint8",
							"name": "",
							"type": "uint8"
						}
					],
					"stateMutability": "view",
					"type": "function"
				},
				{
					"inputs": [],
					"name": "eip712Domain",
					"outputs": [
						{
							"internalType": "bytes1",
							"name": "fields",
							"type": "bytes1"
						},
						{
							"internalType": "string",
							"name": "name",
							"type": "string"
						},
						{
							"internalType": "string",
							"name": "version",
							"type": "string"
						},
						{
							"internalType": "uint256",
							"name": "chainId",
							"type": "uint256"
						},
						{
							"internalType": "address",
							"name": "verifyingContract",
							"type": "address"
						},
						{
							"internalType": "bytes32",
							"name": "salt",
							"type": "bytes32"
						},
						{
							"internalType": "uint256[]",
							"name": "extensions",
							"type": "uint256[]"
						}
					],
					"stateMutability": "view",
					"type": "function"
				},
				{
					"inputs": [
						{
							"internalType": "address",
							"name": "to",
							"type": "address"
						},
						{
							"internalType": "uint256",
							"name": "amount",
							"type": "uint256"
						}
					],
					"name": "mint",
					"outputs": [],
					"stateMutability": "nonpayable",
					"type": "function"
				},
				{
					"inputs": [],
					"name": "name",
					"outputs": [
						{
							"internalType": "string",
							"name": "",
							"type": "string"
						}
					],
					"stateMutability": "view",
					"type": "function"
				},
				{
					"inputs": [
						{
							"internalType": "address",
							"name": "owner",
							"type": "address"
						}
					],
					"name": "nonces",
					"outputs": [
						{
							"internalType": "uint256",
							"name": "",
							"type": "uint256"
						}
					],
					"stateMutability": "view",
					"type": "function"
				},
				{
					"inputs": [],
					"name": "owner",
					"outputs": [
						{
							"internalType": "address",
							"name": "",
							"type": "address"
						}
					],
					"stateMutability": "view",
					"type": "function"
				},
				{
					"inputs": [],
					"name": "pause",
					"outputs": [],
					"stateMutability": "nonpayable",
					"type": "function"
				},
				{
					"inputs": [],
					"name": "paused",
					"outputs": [
						{
							"internalType": "bool",
							"name": "",
							"type": "bool"
						}
					],
					"stateMutability": "view",
					"type": "function"
				},
				{
					"inputs": [
						{
							"internalType": "address",
							"name": "owner",
							"type": "address"
						},
						{
							"internalType": "address",
							"name": "spender",
							"type": "address"
						},
						{
							"internalType": "uint256",
							"name": "value",
							"type": "uint256"
						},
						{
							"internalType": "uint256",
							"name": "deadline",
							"type": "uint256"
						},
						{
							"internalType": "uint8",
							"name": "v",
							"type": "uint8"
						},
						{
							"internalType": "bytes32",
							"name": "r",
							"type": "bytes32"
						},
						{
							"internalType": "bytes32",
							"name": "s",
							"type": "bytes32"
						}
					],
					"name": "permit",
					"outputs": [],
					"stateMutability": "nonpayable",
					"type": "function"
				},
				{
					"inputs": [],
					"name": "renounceOwnership",
					"outputs": [],
					"stateMutability": "nonpayable",
					"type": "function"
				},
				{
					"inputs": [],
					"name": "symbol",
					"outputs": [
						{
							"internalType": "string",
							"name": "",
							"type": "string"
						}
					],
					"stateMutability": "view",
					"type": "function"
				},
				{
					"inputs": [],
					"name": "totalSupply",
					"outputs": [
						{
							"internalType": "uint256",
							"name": "",
							"type": "uint256"
						}
					],
					"stateMutability": "view",
					"type": "function"
				},
				{
					"inputs": [
						{
							"internalType": "address",
							"name": "to",
							"type": "address"
						},
						{
							"internalType": "uint256",
							"name": "value",
							"type": "uint256"
						}
					],
					"name": "transfer",
					"outputs": [
						{
							"internalType": "bool",
							"name": "",
							"type": "bool"
						}
					],
					"stateMutability": "nonpayable",
					"type": "function"
				},
				{
					"inputs": [
						{
							"internalType": "address",
							"name": "from",
							"type": "address"
						},
						{
							"internalType": "address",
							"name": "to",
							"type": "address"
						},
						{
							"internalType": "uint256",
							"name": "value",
							"type": "uint256"
						}
					],
					"name": "transferFrom",
					"outputs": [
						{
							"internalType": "bool",
							"name": "",
							"type": "bool"
						}
					],
					"stateMutability": "nonpayable",
					"type": "function"
				},
				{
					"inputs": [
						{
							"internalType": "address",
							"name": "newOwner",
							"type": "address"
						}
					],
					"name": "transferOwnership",
					"outputs": [],
					"stateMutability": "nonpayable",
					"type": "function"
				},
				{
					"inputs": [],
					"name": "unpause",
					"outputs": [],
					"stateMutability": "nonpayable",
					"type": "function"
				}
			],
			"devdoc": {
				"errors": {
					"ECDSAInvalidSignature()": [
						{
							"details": "The signature derives the `address(0)`."
						}
					],
					"ECDSAInvalidSignatureLength(uint256)": [
						{
							"details": "The signature has an invalid length."
						}
					],
					"ECDSAInvalidSignatureS(bytes32)": [
						{
							"details": "The signature has an S value that is in the upper half order."
						}
					],
					"ERC20InsufficientAllowance(address,uint256,uint256)": [
						{
							"details": "Indicates a failure with the `spender`’s `allowance`. Used in transfers.",
							"params": {
								"allowance": "Amount of tokens a `spender` is allowed to operate with.",
								"needed": "Minimum amount required to perform a transfer.",
								"spender": "Address that may be allowed to operate on tokens without being their owner."
							}
						}
					],
					"ERC20InsufficientBalance(address,uint256,uint256)": [
						{
							"details": "Indicates an error related to the current `balance` of a `sender`. Used in transfers.",
							"params": {
								"balance": "Current balance for the interacting account.",
								"needed": "Minimum amount required to perform a transfer.",
								"sender": "Address whose tokens are being transferred."
							}
						}
					],
					"ERC20InvalidApprover(address)": [
						{
							"details": "Indicates a failure with the `approver` of a token to be approved. Used in approvals.",
							"params": {
								"approver": "Address initiating an approval operation."
							}
						}
					],
					"ERC20InvalidReceiver(address)": [
						{
							"details": "Indicates a failure with the token `receiver`. Used in transfers.",
							"params": {
								"receiver": "Address to which tokens are being transferred."
							}
						}
					],
					"ERC20InvalidSender(address)": [
						{
							"details": "Indicates a failure with the token `sender`. Used in transfers.",
							"params": {
								"sender": "Address whose tokens are being transferred."
							}
						}
					],
					"ERC20InvalidSpender(address)": [
						{
							"details": "Indicates a failure with the `spender` to be approved. Used in approvals.",
							"params": {
								"spender": "Address that may be allowed to operate on tokens without being their owner."
							}
						}
					],
					"ERC2612ExpiredSignature(uint256)": [
						{
							"details": "Permit deadline has expired."
						}
					],
					"ERC2612InvalidSigner(address,address)": [
						{
							"details": "Mismatched signature."
						}
					],
					"EnforcedPause()": [
						{
							"details": "The operation failed because the contract is paused."
						}
					],
					"ExpectedPause()": [
						{
							"details": "The operation failed because the contract is not paused."
						}
					],
					"InvalidAccountNonce(address,uint256)": [
						{
							"details": "The nonce used for an `account` is not the expected current nonce."
						}
					],
					"OwnableInvalidOwner(address)": [
						{
							"details": "The owner is not a valid owner account. (eg. `address(0)`)"
						}
					],
					"OwnableUnauthorizedAccount(address)": [
						{
							"details": "The caller account is not authorized to perform an operation."
						}
					]
				},
				"events": {
					"Approval(address,address,uint256)": {
						"details": "Emitted when the allowance of a `spender` for an `owner` is set by a call to {approve}. `value` is the new allowance."
					},
					"EIP712DomainChanged()": {
						"details": "MAY be emitted to signal that the domain could have changed."
					},
					"Paused(address)": {
						"details": "Emitted when the pause is triggered by `account`."
					},
					"Transfer(address,address,uint256)": {
						"details": "Emitted when `value` tokens are moved from one account (`from`) to another (`to`). Note that `value` may be zero."
					},
					"Unpaused(address)": {
						"details": "Emitted when the pause is lifted by `account`."
					}
				},
				"kind": "dev",
				"methods": {
					"DOMAIN_SEPARATOR()": {
						"details": "Returns the domain separator used in the encoding of the signature for {permit}, as defined by {EIP712}."
					},
					"allowance(address,address)": {
						"details": "See {IERC20-allowance}."
					},
					"approve(address,uint256)": {
						"details": "See {IERC20-approve}. NOTE: If `value` is the maximum `uint256`, the allowance is not updated on `transferFrom`. This is semantically equivalent to an infinite approval. Requirements: - `spender` cannot be the zero address."
					},
					"balanceOf(address)": {
						"details": "See {IERC20-balanceOf}."
					},
					"burn(uint256)": {
						"details": "Destroys a `value` amount of tokens from the caller. See {ERC20-_burn}."
					},
					"burnFrom(address,uint256)": {
						"details": "Destroys a `value` amount of tokens from `account`, deducting from the caller's allowance. See {ERC20-_burn} and {ERC20-allowance}. Requirements: - the caller must have allowance for ``accounts``'s tokens of at least `value`."
					},
					"decimals()": {
						"details": "Returns the number of decimals used to get its user representation. For example, if `decimals` equals `2`, a balance of `505` tokens should be displayed to a user as `5.05` (`505 / 10 ** 2`). Tokens usually opt for a value of 18, imitating the relationship between Ether and Wei. This is the default value returned by this function, unless it's overridden. NOTE: This information is only used for _display_ purposes: it in no way affects any of the arithmetic of the contract, including {IERC20-balanceOf} and {IERC20-transfer}."
					},
					"eip712Domain()": {
						"details": "See {IERC-5267}."
					},
					"name()": {
						"details": "Returns the name of the token."
					},
					"nonces(address)": {
						"details": "Returns the current nonce for `owner`. This value must be included whenever a signature is generated for {permit}. Every successful call to {permit} increases ``owner``'s nonce by one. This prevents a signature from being used multiple times."
					},
					"owner()": {
						"details": "Returns the address of the current owner."
					},
					"paused()": {
						"details": "Returns true if the contract is paused, and false otherwise."
					},
					"permit(address,address,uint256,uint256,uint8,bytes32,bytes32)": {
						"details": "Sets `value` as the allowance of `spender` over ``owner``'s tokens, given ``owner``'s signed approval. IMPORTANT: The same issues {IERC20-approve} has related to transaction ordering also apply here. Emits an {Approval} event. Requirements: - `spender` cannot be the zero address. - `deadline` must be a timestamp in the future. - `v`, `r` and `s` must be a valid `secp256k1` signature from `owner` over the EIP712-formatted function arguments. - the signature must use ``owner``'s current nonce (see {nonces}). For more information on the signature format, see the https://eips.ethereum.org/EIPS/eip-2612#specification[relevant EIP section]. CAUTION: See Security Considerations above."
					},
					"renounceOwnership()": {
						"details": "Leaves the contract without owner. It will not be possible to call `onlyOwner` functions. Can only be called by the current owner. NOTE: Renouncing ownership will leave the contract without an owner, thereby disabling any functionality that is only available to the owner."
					},
					"symbol()": {
						"details": "Returns the symbol of the token, usually a shorter version of the name."
					},
					"totalSupply()": {
						"details": "See {IERC20-totalSupply}."
					},
					"transfer(address,uint256)": {
						"details": "See {IERC20-transfer}. Requirements: - `to` cannot be the zero address. - the caller must have a balance of at least `value`."
					},
					"transferFrom(address,address,uint256)": {
						"details": "See {IERC20-transferFrom}. Emits an {Approval} event indicating the updated allowance. This is not required by the EIP. See the note at the beginning of {ERC20}. NOTE: Does not update the allowance if the current allowance is the maximum `uint256`. Requirements: - `from` and `to` cannot be the zero address. - `from` must have a balance of at least `value`. - the caller must have allowance for ``from``'s tokens of at least `value`."
					},
					"transferOwnership(address)": {
						"details": "Transfers ownership of the contract to a new account (`newOwner`). Can only be called by the current owner."
					}
				},
				"version": 1
			},
			"evm": {
				"assembly": "    /* \"contracts/MyToken.sol\":391:1181  contract MyToken is ERC20, ERC20Burnable, ERC20Pausable, Ownable, ERC20Permit {... */\n  mstore(0x40, 0x0160)\n    /* \"contracts/MyToken.sol\":475:608  constructor(address initialOwner)... */\n  callvalue\n  dup1\n  iszero\n  tag_1\n  jumpi\n  0x00\n  dup1\n  revert\ntag_1:\n  pop\n  mload(0x40)\n  sub(codesize, bytecodeSize)\n  dup1\n  bytecodeSize\n  dup4\n  codecopy\n  dup2\n  dup2\n  add\n  0x40\n  mstore\n  dup2\n  add\n  swap1\n  tag_2\n  swap2\n  swap1\n  tag_3\n  jump\t// in\ntag_2:\n    /* \"@openzeppelin/contracts/token/ERC20/extensions/ERC20Permit.sol\":1574:1626  constructor(string memory name) EIP712(name, \"1\") {} */\n  mload(0x40)\n  dup1\n  0x40\n  add\n  0x40\n  mstore\n  dup1\n  0x07\n  dup2\n  mstore\n  0x20\n  add\n  0x4d79546f6b656e00000000000000000000000000000000000000000000000000\n  dup2\n  mstore\n  pop\n    /* \"@openzeppelin/contracts/token/ERC20/extensions/ERC20Permit.sol\":1613:1617  name */\n  dup1\n    /* \"@openzeppelin/contracts/utils/cryptography/EIP712.sol\":3328:3759  constructor(string memory name, string memory version) {... */\n  mload(0x40)\n  dup1\n  0x40\n  add\n  0x40\n  mstore\n  dup1\n  0x01\n  dup2\n  mstore\n  0x20\n  add\n  0x3100000000000000000000000000000000000000000000000000000000000000\n  dup2\n  mstore\n  pop\n    /* \"contracts/MyToken.sol\":557:569  initialOwner */\n  dup4\n    /* \"@openzeppelin/contracts/token/ERC20/ERC20.sol\":1896:2009  constructor(string memory name_, string memory symbol_) {... */\n  mload(0x40)\n  dup1\n  0x40\n  add\n  0x40\n  mstore\n  dup1\n  0x07\n  dup2\n  mstore\n  0x20\n  add\n  0x4d79546f6b656e00000000000000000000000000000000000000000000000000\n  dup2\n  mstore\n  pop\n  mload(0x40)\n  dup1\n  0x40\n  add\n  0x40\n  mstore\n  dup1\n  0x03\n  dup2\n  mstore\n  0x20\n  add\n  0x4d544b0000000000000000000000000000000000000000000000000000000000\n  dup2\n  mstore\n  pop\n    /* \"@openzeppelin/contracts/token/ERC20/ERC20.sol\":1970:1975  name_ */\n  dup2\n    /* \"@openzeppelin/contracts/token/ERC20/ERC20.sol\":1962:1967  _name */\n  0x03\n    /* \"@openzeppelin/contracts/token/ERC20/ERC20.sol\":1962:1975  _name = name_ */\n  swap1\n  dup2\n  tag_11\n  swap2\n  swap1\n  tag_12\n  jump\t// in\ntag_11:\n  pop\n    /* \"@openzeppelin/contracts/token/ERC20/ERC20.sol\":1995:2002  symbol_ */\n  dup1\n    /* \"@openzeppelin/contracts/token/ERC20/ERC20.sol\":1985:1992  _symbol */\n  0x04\n    /* \"@openzeppelin/contracts/token/ERC20/ERC20.sol\":1985:2002  _symbol = symbol_ */\n  swap1\n  dup2\n  tag_13\n  swap2\n  swap1\n  tag_12\n  jump\t// in\ntag_13:\n  pop\n    /* \"@openzeppelin/contracts/token/ERC20/ERC20.sol\":1896:2009  constructor(string memory name_, string memory symbol_) {... */\n  pop\n  pop\n    /* \"@openzeppelin/contracts/utils/Pausable.sol\":1241:1246  false */\n  0x00\n    /* \"@openzeppelin/contracts/utils/Pausable.sol\":1231:1238  _paused */\n  0x05\n  0x00\n    /* \"@openzeppelin/contracts/utils/Pausable.sol\":1231:1246  _paused = false */\n  0x0100\n  exp\n  dup2\n  sload\n  dup2\n  0xff\n  mul\n  not\n  and\n  swap1\n  dup4\n  iszero\n  iszero\n  mul\n  or\n  swap1\n  sstore\n  pop\n    /* \"@openzeppelin/contracts/access/Ownable.sol\":1297:1298  0 */\n  0x00\n    /* \"@openzeppelin/contracts/access/Ownable.sol\":1273:1299  initialOwner == address(0) */\n  0xffffffffffffffffffffffffffffffffffffffff\n  and\n    /* \"@openzeppelin/contracts/access/Ownable.sol\":1273:1285  initialOwner */\n  dup2\n    /* \"@openzeppelin/contracts/access/Ownable.sol\":1273:1299  initialOwner == address(0) */\n  0xffffffffffffffffffffffffffffffffffffffff\n  and\n  sub\n    /* \"@openzeppelin/contracts/access/Ownable.sol\":1269:1364  if (initialOwner == address(0)) {... */\n  tag_16\n  jumpi\n    /* \"@openzeppelin/contracts/access/Ownable.sol\":1350:1351  0 */\n  0x00\n    /* \"@openzeppelin/contracts/access/Ownable.sol\":1322:1353  OwnableInvalidOwner(address(0)) */\n  mload(0x40)\n  0x1e4fbdf700000000000000000000000000000000000000000000000000000000\n  dup2\n  mstore\n  0x04\n  add\n  tag_17\n  swap2\n  swap1\n  tag_18\n  jump\t// in\ntag_17:\n  mload(0x40)\n  dup1\n  swap2\n  sub\n  swap1\n  revert\n    /* \"@openzeppelin/contracts/access/Ownable.sol\":1269:1364  if (initialOwner == address(0)) {... */\ntag_16:\n    /* \"@openzeppelin/contracts/access/Ownable.sol\":1373:1405  _transferOwnership(initialOwner) */\n  tag_19\n    /* \"@openzeppelin/contracts/access/Ownable.sol\":1392:1404  initialOwner */\n  dup2\n    /* \"@openzeppelin/contracts/access/Ownable.sol\":1373:1391  _transferOwnership */\n  shl(0x20, tag_20)\n    /* \"@openzeppelin/contracts/access/Ownable.sol\":1373:1405  _transferOwnership(initialOwner) */\n  0x20\n  shr\n  jump\t// in\ntag_19:\n    /* \"@openzeppelin/contracts/access/Ownable.sol\":1225:1412  constructor(address initialOwner) {... */\n  pop\n    /* \"@openzeppelin/contracts/utils/cryptography/EIP712.sol\":3401:3446  name.toShortStringWithFallback(_nameFallback) */\n  tag_22\n    /* \"@openzeppelin/contracts/utils/cryptography/EIP712.sol\":3432:3445  _nameFallback */\n  0x06\n    /* \"@openzeppelin/contracts/utils/cryptography/EIP712.sol\":3401:3405  name */\n  dup4\n    /* \"@openzeppelin/contracts/utils/cryptography/EIP712.sol\":3401:3431  name.toShortStringWithFallback */\n  shl(0x20, tag_23)\n  swap1\n    /* \"@openzeppelin/contracts/utils/cryptography/EIP712.sol\":3401:3446  name.toShortStringWithFallback(_nameFallback) */\n  swap2\n  swap1\n  0x20\n  shr\n  jump\t// in\ntag_22:\n    /* \"@openzeppelin/contracts/utils/cryptography/EIP712.sol\":3393:3446  _name = name.toShortStringWithFallback(_nameFallback) */\n  0x0120\n  dup2\n  dup2\n  mstore\n  pop\n  pop\n    /* \"@openzeppelin/contracts/utils/cryptography/EIP712.sol\":3467:3518  version.toShortStringWithFallback(_versionFallback) */\n  tag_24\n    /* \"@openzeppelin/contracts/utils/cryptography/EIP712.sol\":3501:3517  _versionFallback */\n  0x07\n    /* \"@openzeppelin/contracts/utils/cryptography/EIP712.sol\":3467:3474  version */\n  dup3\n    /* \"@openzeppelin/contracts/utils/cryptography/EIP712.sol\":3467:3500  version.toShortStringWithFallback */\n  shl(0x20, tag_23)\n  swap1\n    /* \"@openzeppelin/contracts/utils/cryptography/EIP712.sol\":3467:3518  version.toShortStringWithFallback(_versionFallback) */\n  swap2\n  swap1\n  0x20\n  shr\n  jump\t// in\ntag_24:\n    /* \"@openzeppelin/contracts/utils/cryptography/EIP712.sol\":3456:3518  _version = version.toShortStringWithFallback(_versionFallback) */\n  0x0140\n  dup2\n  dup2\n  mstore\n  pop\n  pop\n    /* \"@openzeppelin/contracts/utils/cryptography/EIP712.sol\":3558:3562  name */\n  dup2\n    /* \"@openzeppelin/contracts/utils/cryptography/EIP712.sol\":3542:3564  keccak256(bytes(name)) */\n  dup1\n  mload\n  swap1\n  0x20\n  add\n  keccak256\n    /* \"@openzeppelin/contracts/utils/cryptography/EIP712.sol\":3528:3564  _hashedName = keccak256(bytes(name)) */\n  0xe0\n  dup2\n  dup2\n  mstore\n  pop\n  pop\n    /* \"@openzeppelin/contracts/utils/cryptography/EIP712.sol\":3607:3614  version */\n  dup1\n    /* \"@openzeppelin/contracts/utils/cryptography/EIP712.sol\":3591:3616  keccak256(bytes(version)) */\n  dup1\n  mload\n  swap1\n  0x20\n  add\n  keccak256\n    /* \"@openzeppelin/contracts/utils/cryptography/EIP712.sol\":3574:3616  _hashedVersion = keccak256(bytes(version)) */\n  0x0100\n  dup2\n  dup2\n  mstore\n  pop\n  pop\n    /* \"@openzeppelin/contracts/utils/cryptography/EIP712.sol\":3644:3657  block.chainid */\n  chainid\n    /* \"@openzeppelin/contracts/utils/cryptography/EIP712.sol\":3627:3657  _cachedChainId = block.chainid */\n  0xa0\n  dup2\n  dup2\n  mstore\n  pop\n  pop\n    /* \"@openzeppelin/contracts/utils/cryptography/EIP712.sol\":3692:3715  _buildDomainSeparator() */\n  tag_25\n    /* \"@openzeppelin/contracts/utils/cryptography/EIP712.sol\":3692:3713  _buildDomainSeparator */\n  shl(0x20, tag_26)\n    /* \"@openzeppelin/contracts/utils/cryptography/EIP712.sol\":3692:3715  _buildDomainSeparator() */\n  0x20\n  shr\n  jump\t// in\ntag_25:\n    /* \"@openzeppelin/contracts/utils/cryptography/EIP712.sol\":3667:3715  _cachedDomainSeparator = _buildDomainSeparator() */\n  0x80\n  dup2\n  dup2\n  mstore\n  pop\n  pop\n    /* \"@openzeppelin/contracts/utils/cryptography/EIP712.sol\":3747:3751  this */\n  address\n    /* \"@openzeppelin/contracts/utils/cryptography/EIP712.sol\":3725:3752  _cachedThis = address(this) */\n  0xffffffffffffffffffffffffffffffffffffffff\n  and\n  0xc0\n  dup2\n  0xffffffffffffffffffffffffffffffffffffffff\n  and\n  dup2\n  mstore\n  pop\n  pop\n    /* \"@openzeppelin/contracts/utils/cryptography/EIP712.sol\":3328:3759  constructor(string memory name, string memory version) {... */\n  pop\n  pop\n    /* \"@openzeppelin/contracts/token/ERC20/extensions/ERC20Permit.sol\":1574:1626  constructor(string memory name) EIP712(name, \"1\") {} */\n  pop\n    /* \"contracts/MyToken.sol\":475:608  constructor(address initialOwner)... */\n  pop\n    /* \"contracts/MyToken.sol\":391:1181  contract MyToken is ERC20, ERC20Burnable, ERC20Pausable, Ownable, ERC20Permit {... */\n  jump(tag_29)\n    /* \"@openzeppelin/contracts/access/Ownable.sol\":2912:3099  function _transferOwnership(address newOwner) internal virtual {... */\ntag_20:\n    /* \"@openzeppelin/contracts/access/Ownable.sol\":2985:3001  address oldOwner */\n  0x00\n    /* \"@openzeppelin/contracts/access/Ownable.sol\":3004:3010  _owner */\n  0x05\n  0x01\n  swap1\n  sload\n  swap1\n  0x0100\n  exp\n  swap1\n  div\n  0xffffffffffffffffffffffffffffffffffffffff\n  and\n    /* \"@openzeppelin/contracts/access/Ownable.sol\":2985:3010  address oldOwner = _owner */\n  swap1\n  pop\n    /* \"@openzeppelin/contracts/access/Ownable.sol\":3029:3037  newOwner */\n  dup2\n    /* \"@openzeppelin/contracts/access/Ownable.sol\":3020:3026  _owner */\n  0x05\n  0x01\n    /* \"@openzeppelin/contracts/access/Ownable.sol\":3020:3037  _owner = newOwner */\n  0x0100\n  exp\n  dup2\n  sload\n  dup2\n  0xffffffffffffffffffffffffffffffffffffffff\n  mul\n  not\n  and\n  swap1\n  dup4\n  0xffffffffffffffffffffffffffffffffffffffff\n  and\n  mul\n  or\n  swap1\n  sstore\n  pop\n    /* \"@openzeppelin/contracts/access/Ownable.sol\":3083:3091  newOwner */\n  dup2\n    /* \"@openzeppelin/contracts/access/Ownable.sol\":3052:3092  OwnershipTransferred(oldOwner, newOwner) */\n  0xffffffffffffffffffffffffffffffffffffffff\n  and\n    /* \"@openzeppelin/contracts/access/Ownable.sol\":3073:3081  oldOwner */\n  dup2\n    /* \"@openzeppelin/contracts/access/Ownable.sol\":3052:3092  OwnershipTransferred(oldOwner, newOwner) */\n  0xffffffffffffffffffffffffffffffffffffffff\n  and\n  0x8be0079c531659141344cd1fd0a4f28419497f9722a3daafe3b4186f6b6457e0\n  mload(0x40)\n  mload(0x40)\n  dup1\n  swap2\n  sub\n  swap1\n  log3\n    /* \"@openzeppelin/contracts/access/Ownable.sol\":2975:3099  {... */\n  pop\n    /* \"@openzeppelin/contracts/access/Ownable.sol\":2912:3099  function _transferOwnership(address newOwner) internal virtual {... */\n  pop\n  jump\t// out\n    /* \"@openzeppelin/contracts/utils/ShortStrings.sol\":2914:3254  function toShortStringWithFallback(string memory value, string storage store) internal returns (ShortString) {... */\ntag_23:\n    /* \"@openzeppelin/contracts/utils/ShortStrings.sol\":3010:3021  ShortString */\n  0x00\n    /* \"@openzeppelin/contracts/utils/ShortStrings.sol\":3059:3061  32 */\n  0x20\n    /* \"@openzeppelin/contracts/utils/ShortStrings.sol\":3043:3048  value */\n  dup4\n    /* \"@openzeppelin/contracts/utils/ShortStrings.sol\":3037:3056  bytes(value).length */\n  mload\n    /* \"@openzeppelin/contracts/utils/ShortStrings.sol\":3037:3061  bytes(value).length < 32 */\n  lt\n    /* \"@openzeppelin/contracts/utils/ShortStrings.sol\":3033:3248  if (bytes(value).length < 32) {... */\n  iszero\n  tag_32\n  jumpi\n    /* \"@openzeppelin/contracts/utils/ShortStrings.sol\":3084:3104  toShortString(value) */\n  tag_33\n    /* \"@openzeppelin/contracts/utils/ShortStrings.sol\":3098:3103  value */\n  dup4\n    /* \"@openzeppelin/contracts/utils/ShortStrings.sol\":3084:3097  toShortString */\n  shl(0x20, tag_34)\n    /* \"@openzeppelin/contracts/utils/ShortStrings.sol\":3084:3104  toShortString(value) */\n  0x20\n  shr\n  jump\t// in\ntag_33:\n    /* \"@openzeppelin/contracts/utils/ShortStrings.sol\":3077:3104  return toShortString(value) */\n  swap1\n  pop\n  jump(tag_31)\n    /* \"@openzeppelin/contracts/utils/ShortStrings.sol\":3033:3248  if (bytes(value).length < 32) {... */\ntag_32:\n    /* \"@openzeppelin/contracts/utils/ShortStrings.sol\":3176:3181  value */\n  dup3\n    /* \"@openzeppelin/contracts/utils/ShortStrings.sol\":3135:3167  StorageSlot.getStringSlot(store) */\n  tag_36\n    /* \"@openzeppelin/contracts/utils/ShortStrings.sol\":3161:3166  store */\n  dup4\n    /* \"@openzeppelin/contracts/utils/ShortStrings.sol\":3135:3160  StorageSlot.getStringSlot */\n  shl(0x20, tag_37)\n    /* \"@openzeppelin/contracts/utils/ShortStrings.sol\":3135:3167  StorageSlot.getStringSlot(store) */\n  0x20\n  shr\n  jump\t// in\ntag_36:\n    /* \"@openzeppelin/contracts/utils/ShortStrings.sol\":3135:3173  StorageSlot.getStringSlot(store).value */\n  0x00\n  add\n    /* \"@openzeppelin/contracts/utils/ShortStrings.sol\":3135:3181  StorageSlot.getStringSlot(store).value = value */\n  swap1\n  dup2\n  tag_38\n  swap2\n  swap1\n  tag_12\n  jump\t// in\ntag_38:\n  pop\n    /* \"@openzeppelin/contracts/utils/ShortStrings.sol\":1390:1456  0x00000000000000000000000000000000000000000000000000000000000000FF */\n  0xff\n    /* \"@openzeppelin/contracts/utils/ShortStrings.sol\":3219:3236  FALLBACK_SENTINEL */\n  0x00\n  shl\n    /* \"@openzeppelin/contracts/utils/ShortStrings.sol\":3195:3237  return ShortString.wrap(FALLBACK_SENTINEL) */\n  swap1\n  pop\n    /* \"@openzeppelin/contracts/utils/ShortStrings.sol\":2914:3254  function toShortStringWithFallback(string memory value, string storage store) internal returns (ShortString) {... */\ntag_31:\n  swap3\n  swap2\n  pop\n  pop\n  jump\t// out\n    /* \"@openzeppelin/contracts/utils/cryptography/EIP712.sol\":4113:4292  function _buildDomainSeparator() private view returns (bytes32) {... */\ntag_26:\n    /* \"@openzeppelin/contracts/utils/cryptography/EIP712.sol\":4168:4175  bytes32 */\n  0x00\n    /* \"@openzeppelin/contracts/utils/cryptography/EIP712.sol\":2079:2174  keccak256(\"EIP712Domain(string name,string version,uint256 chainId,address verifyingContract)\") */\n  0x8b73c3c69bb8fe3d512ecc4cf759cc79239f7b179b0ffacaa9a75d522b39400f\n    /* \"@openzeppelin/contracts/utils/cryptography/EIP712.sol\":4226:4237  _hashedName */\n  mload(0xe0)\n    /* \"@openzeppelin/contracts/utils/cryptography/EIP712.sol\":4239:4253  _hashedVersion */\n  mload(0x0100)\n    /* \"@openzeppelin/contracts/utils/cryptography/EIP712.sol\":4255:4268  block.chainid */\n  chainid\n    /* \"@openzeppelin/contracts/utils/cryptography/EIP712.sol\":4278:4282  this */\n  address\n    /* \"@openzeppelin/contracts/utils/cryptography/EIP712.sol\":4204:4284  abi.encode(TYPE_HASH, _hashedName, _hashedVersion, block.chainid, address(this)) */\n  add(0x20, mload(0x40))\n  tag_40\n  swap6\n  swap5\n  swap4\n  swap3\n  swap2\n  swap1\n  tag_41\n  jump\t// in\ntag_40:\n  mload(0x40)\n  0x20\n  dup2\n  dup4\n  sub\n  sub\n  dup2\n  mstore\n  swap1\n  0x40\n  mstore\n    /* \"@openzeppelin/contracts/utils/cryptography/EIP712.sol\":4194:4285  keccak256(abi.encode(TYPE_HASH, _hashedName, _hashedVersion, block.chainid, address(this))) */\n  dup1\n  mload\n  swap1\n  0x20\n  add\n  keccak256\n    /* \"@openzeppelin/contracts/utils/cryptography/EIP712.sol\":4187:4285  return keccak256(abi.encode(TYPE_HASH, _hashedName, _hashedVersion, block.chainid, address(this))) */\n  swap1\n  pop\n    /* \"@openzeppelin/contracts/utils/cryptography/EIP712.sol\":4113:4292  function _buildDomainSeparator() private view returns (bytes32) {... */\n  swap1\n  jump\t// out\n    /* \"@openzeppelin/contracts/utils/ShortStrings.sol\":1708:1994  function toShortString(string memory str) internal pure returns (ShortString) {... */\ntag_34:\n    /* \"@openzeppelin/contracts/utils/ShortStrings.sol\":1773:1784  ShortString */\n  0x00\n    /* \"@openzeppelin/contracts/utils/ShortStrings.sol\":1796:1813  bytes memory bstr */\n  dup1\n    /* \"@openzeppelin/contracts/utils/ShortStrings.sol\":1822:1825  str */\n  dup3\n    /* \"@openzeppelin/contracts/utils/ShortStrings.sol\":1796:1826  bytes memory bstr = bytes(str) */\n  swap1\n  pop\n    /* \"@openzeppelin/contracts/utils/ShortStrings.sol\":1854:1856  31 */\n  0x1f\n    /* \"@openzeppelin/contracts/utils/ShortStrings.sol\":1840:1844  bstr */\n  dup2\n    /* \"@openzeppelin/contracts/utils/ShortStrings.sol\":1840:1851  bstr.length */\n  mload\n    /* \"@openzeppelin/contracts/utils/ShortStrings.sol\":1840:1856  bstr.length > 31 */\n  gt\n    /* \"@openzeppelin/contracts/utils/ShortStrings.sol\":1836:1908  if (bstr.length > 31) {... */\n  iszero\n  tag_43\n  jumpi\n    /* \"@openzeppelin/contracts/utils/ShortStrings.sol\":1893:1896  str */\n  dup3\n    /* \"@openzeppelin/contracts/utils/ShortStrings.sol\":1879:1897  StringTooLong(str) */\n  mload(0x40)\n  0x305a27a900000000000000000000000000000000000000000000000000000000\n  dup2\n  mstore\n  0x04\n  add\n  tag_44\n  swap2\n  swap1\n  tag_45\n  jump\t// in\ntag_44:\n  mload(0x40)\n  dup1\n  swap2\n  sub\n  swap1\n  revert\n    /* \"@openzeppelin/contracts/utils/ShortStrings.sol\":1836:1908  if (bstr.length > 31) {... */\ntag_43:\n    /* \"@openzeppelin/contracts/utils/ShortStrings.sol\":1974:1978  bstr */\n  dup1\n    /* \"@openzeppelin/contracts/utils/ShortStrings.sol\":1974:1985  bstr.length */\n  mload\n    /* \"@openzeppelin/contracts/utils/ShortStrings.sol\":1965:1969  bstr */\n  dup2\n    /* \"@openzeppelin/contracts/utils/ShortStrings.sol\":1957:1970  bytes32(bstr) */\n  tag_46\n  swap1\n  tag_47\n  jump\t// in\ntag_46:\n    /* \"@openzeppelin/contracts/utils/ShortStrings.sol\":1949:1971  uint256(bytes32(bstr)) */\n  0x00\n  shr\n    /* \"@openzeppelin/contracts/utils/ShortStrings.sol\":1949:1985  uint256(bytes32(bstr)) | bstr.length */\n  or\n    /* \"@openzeppelin/contracts/utils/ShortStrings.sol\":1941:1986  bytes32(uint256(bytes32(bstr)) | bstr.length) */\n  0x00\n  shl\n    /* \"@openzeppelin/contracts/utils/ShortStrings.sol\":1917:1987  return ShortString.wrap(bytes32(uint256(bytes32(bstr)) | bstr.length)) */\n  swap2\n  pop\n  pop\n    /* \"@openzeppelin/contracts/utils/ShortStrings.sol\":1708:1994  function toShortString(string memory str) internal pure returns (ShortString) {... */\n  swap2\n  swap1\n  pop\n  jump\t// out\n    /* \"@openzeppelin/contracts/utils/StorageSlot.sol\":3135:3337  function getStringSlot(string storage store) internal pure returns (StringSlot storage r) {... */\ntag_37:\n    /* \"@openzeppelin/contracts/utils/StorageSlot.sol\":3203:3223  StringSlot storage r */\n  0x00\n    /* \"@openzeppelin/contracts/utils/StorageSlot.sol\":3311:3321  store.slot */\n  dup2\n    /* \"@openzeppelin/contracts/utils/StorageSlot.sol\":3301:3321  r.slot := store.slot */\n  swap1\n  pop\n    /* \"@openzeppelin/contracts/utils/StorageSlot.sol\":3135:3337  function getStringSlot(string storage store) internal pure returns (StringSlot storage r) {... */\n  swap2\n  swap1\n  pop\n  jump\t// out\n    /* \"#utility.yul\":88:205   */\ntag_50:\n    /* \"#utility.yul\":197:198   */\n  0x00\n    /* \"#utility.yul\":194:195   */\n  dup1\n    /* \"#utility.yul\":187:199   */\n  revert\n    /* \"#utility.yul\":334:460   */\ntag_52:\n    /* \"#utility.yul\":371:378   */\n  0x00\n    /* \"#utility.yul\":411:453   */\n  0xffffffffffffffffffffffffffffffffffffffff\n    /* \"#utility.yul\":404:409   */\n  dup3\n    /* \"#utility.yul\":400:454   */\n  and\n    /* \"#utility.yul\":389:454   */\n  swap1\n  pop\n    /* \"#utility.yul\":334:460   */\n  swap2\n  swap1\n  pop\n  jump\t// out\n    /* \"#utility.yul\":466:562   */\ntag_53:\n    /* \"#utility.yul\":503:510   */\n  0x00\n    /* \"#utility.yul\":532:556   */\n  tag_93\n    /* \"#utility.yul\":550:555   */\n  dup3\n    /* \"#utility.yul\":532:556   */\n  tag_52\n  jump\t// in\ntag_93:\n    /* \"#utility.yul\":521:556   */\n  swap1\n  pop\n    /* \"#utility.yul\":466:562   */\n  swap2\n  swap1\n  pop\n  jump\t// out\n    /* \"#utility.yul\":568:690   */\ntag_54:\n    /* \"#utility.yul\":641:665   */\n  tag_95\n    /* \"#utility.yul\":659:664   */\n  dup2\n    /* \"#utility.yul\":641:665   */\n  tag_53\n  jump\t// in\ntag_95:\n    /* \"#utility.yul\":634:639   */\n  dup2\n    /* \"#utility.yul\":631:666   */\n  eq\n    /* \"#utility.yul\":621:684   */\n  tag_96\n  jumpi\n    /* \"#utility.yul\":680:681   */\n  0x00\n    /* \"#utility.yul\":677:678   */\n  dup1\n    /* \"#utility.yul\":670:682   */\n  revert\n    /* \"#utility.yul\":621:684   */\ntag_96:\n    /* \"#utility.yul\":568:690   */\n  pop\n  jump\t// out\n    /* \"#utility.yul\":696:839   */\ntag_55:\n    /* \"#utility.yul\":753:758   */\n  0x00\n    /* \"#utility.yul\":784:790   */\n  dup2\n    /* \"#utility.yul\":778:791   */\n  mload\n    /* \"#utility.yul\":769:791   */\n  swap1\n  pop\n    /* \"#utility.yul\":800:833   */\n  tag_98\n    /* \"#utility.yul\":827:832   */\n  dup2\n    /* \"#utility.yul\":800:833   */\n  tag_54\n  jump\t// in\ntag_98:\n    /* \"#utility.yul\":696:839   */\n  swap3\n  swap2\n  pop\n  pop\n  jump\t// out\n    /* \"#utility.yul\":845:1196   */\ntag_3:\n    /* \"#utility.yul\":915:921   */\n  0x00\n    /* \"#utility.yul\":964:966   */\n  0x20\n    /* \"#utility.yul\":952:961   */\n  dup3\n    /* \"#utility.yul\":943:950   */\n  dup5\n    /* \"#utility.yul\":939:962   */\n  sub\n    /* \"#utility.yul\":935:967   */\n  slt\n    /* \"#utility.yul\":932:1051   */\n  iszero\n  tag_100\n  jumpi\n    /* \"#utility.yul\":970:1049   */\n  tag_101\n  tag_50\n  jump\t// in\ntag_101:\n    /* \"#utility.yul\":932:1051   */\ntag_100:\n    /* \"#utility.yul\":1090:1091   */\n  0x00\n    /* \"#utility.yul\":1115:1179   */\n  tag_102\n    /* \"#utility.yul\":1171:1178   */\n  dup5\n    /* \"#utility.yul\":1162:1168   */\n  dup3\n    /* \"#utility.yul\":1151:1160   */\n  dup6\n    /* \"#utility.yul\":1147:1169   */\n  add\n    /* \"#utility.yul\":1115:1179   */\n  tag_55\n  jump\t// in\ntag_102:\n    /* \"#utility.yul\":1105:1179   */\n  swap2\n  pop\n    /* \"#utility.yul\":1061:1189   */\n  pop\n    /* \"#utility.yul\":845:1196   */\n  swap3\n  swap2\n  pop\n  pop\n  jump\t// out\n    /* \"#utility.yul\":1202:1301   */\ntag_56:\n    /* \"#utility.yul\":1254:1260   */\n  0x00\n    /* \"#utility.yul\":1288:1293   */\n  dup2\n    /* \"#utility.yul\":1282:1294   */\n  mload\n    /* \"#utility.yul\":1272:1294   */\n  swap1\n  pop\n    /* \"#utility.yul\":1202:1301   */\n  swap2\n  swap1\n  pop\n  jump\t// out\n    /* \"#utility.yul\":1307:1487   */\ntag_57:\n    /* \"#utility.yul\":1355:1432   */\n  0x4e487b7100000000000000000000000000000000000000000000000000000000\n    /* \"#utility.yul\":1352:1353   */\n  0x00\n    /* \"#utility.yul\":1345:1433   */\n  mstore\n    /* \"#utility.yul\":1452:1456   */\n  0x41\n    /* \"#utility.yul\":1449:1450   */\n  0x04\n    /* \"#utility.yul\":1442:1457   */\n  mstore\n    /* \"#utility.yul\":1476:1480   */\n  0x24\n    /* \"#utility.yul\":1473:1474   */\n  0x00\n    /* \"#utility.yul\":1466:1481   */\n  revert\n    /* \"#utility.yul\":1493:1673   */\ntag_58:\n    /* \"#utility.yul\":1541:1618   */\n  0x4e487b7100000000000000000000000000000000000000000000000000000000\n    /* \"#utility.yul\":1538:1539   */\n  0x00\n    /* \"#utility.yul\":1531:1619   */\n  mstore\n    /* \"#utility.yul\":1638:1642   */\n  0x22\n    /* \"#utility.yul\":1635:1636   */\n  0x04\n    /* \"#utility.yul\":1628:1643   */\n  mstore\n    /* \"#utility.yul\":1662:1666   */\n  0x24\n    /* \"#utility.yul\":1659:1660   */\n  0x00\n    /* \"#utility.yul\":1652:1667   */\n  revert\n    /* \"#utility.yul\":1679:1999   */\ntag_59:\n    /* \"#utility.yul\":1723:1729   */\n  0x00\n    /* \"#utility.yul\":1760:1761   */\n  0x02\n    /* \"#utility.yul\":1754:1758   */\n  dup3\n    /* \"#utility.yul\":1750:1762   */\n  div\n    /* \"#utility.yul\":1740:1762   */\n  swap1\n  pop\n    /* \"#utility.yul\":1807:1808   */\n  0x01\n    /* \"#utility.yul\":1801:1805   */\n  dup3\n    /* \"#utility.yul\":1797:1809   */\n  and\n    /* \"#utility.yul\":1828:1846   */\n  dup1\n    /* \"#utility.yul\":1818:1899   */\n  tag_107\n  jumpi\n    /* \"#utility.yul\":1884:1888   */\n  0x7f\n    /* \"#utility.yul\":1876:1882   */\n  dup3\n    /* \"#utility.yul\":1872:1889   */\n  and\n    /* \"#utility.yul\":1862:1889   */\n  swap2\n  pop\n    /* \"#utility.yul\":1818:1899   */\ntag_107:\n    /* \"#utility.yul\":1946:1948   */\n  0x20\n    /* \"#utility.yul\":1938:1944   */\n  dup3\n    /* \"#utility.yul\":1935:1949   */\n  lt\n    /* \"#utility.yul\":1915:1933   */\n  dup2\n    /* \"#utility.yul\":1912:1950   */\n  sub\n    /* \"#utility.yul\":1909:1993   */\n  tag_108\n  jumpi\n    /* \"#utility.yul\":1965:1983   */\n  tag_109\n  tag_58\n  jump\t// in\ntag_109:\n    /* \"#utility.yul\":1909:1993   */\ntag_108:\n    /* \"#utility.yul\":1730:1999   */\n  pop\n    /* \"#utility.yul\":1679:1999   */\n  swap2\n  swap1\n  pop\n  jump\t// out\n    /* \"#utility.yul\":2005:2146   */\ntag_60:\n    /* \"#utility.yul\":2054:2058   */\n  0x00\n    /* \"#utility.yul\":2077:2080   */\n  dup2\n    /* \"#utility.yul\":2069:2080   */\n  swap1\n  pop\n    /* \"#utility.yul\":2100:2103   */\n  dup2\n    /* \"#utility.yul\":2097:2098   */\n  0x00\n    /* \"#utility.yul\":2090:2104   */\n  mstore\n    /* \"#utility.yul\":2134:2138   */\n  0x20\n    /* \"#utility.yul\":2131:2132   */\n  0x00\n    /* \"#utility.yul\":2121:2139   */\n  keccak256\n    /* \"#utility.yul\":2113:2139   */\n  swap1\n  pop\n    /* \"#utility.yul\":2005:2146   */\n  swap2\n  swap1\n  pop\n  jump\t// out\n    /* \"#utility.yul\":2152:2245   */\ntag_61:\n    /* \"#utility.yul\":2189:2195   */\n  0x00\n    /* \"#utility.yul\":2236:2238   */\n  0x20\n    /* \"#utility.yul\":2231:2233   */\n  0x1f\n    /* \"#utility.yul\":2224:2229   */\n  dup4\n    /* \"#utility.yul\":2220:2234   */\n  add\n    /* \"#utility.yul\":2216:2239   */\n  div\n    /* \"#utility.yul\":2206:2239   */\n  swap1\n  pop\n    /* \"#utility.yul\":2152:2245   */\n  swap2\n  swap1\n  pop\n  jump\t// out\n    /* \"#utility.yul\":2251:2358   */\ntag_62:\n    /* \"#utility.yul\":2295:2303   */\n  0x00\n    /* \"#utility.yul\":2345:2350   */\n  dup3\n    /* \"#utility.yul\":2339:2343   */\n  dup3\n    /* \"#utility.yul\":2335:2351   */\n  shl\n    /* \"#utility.yul\":2314:2351   */\n  swap1\n  pop\n    /* \"#utility.yul\":2251:2358   */\n  swap3\n  swap2\n  pop\n  pop\n  jump\t// out\n    /* \"#utility.yul\":2364:2757   */\ntag_63:\n    /* \"#utility.yul\":2433:2439   */\n  0x00\n    /* \"#utility.yul\":2483:2484   */\n  0x08\n    /* \"#utility.yul\":2471:2481   */\n  dup4\n    /* \"#utility.yul\":2467:2485   */\n  mul\n    /* \"#utility.yul\":2506:2603   */\n  tag_114\n    /* \"#utility.yul\":2536:2602   */\n  0xffffffffffffffffffffffffffffffffffffffffffffffffffffffffffffffff\n    /* \"#utility.yul\":2525:2534   */\n  dup3\n    /* \"#utility.yul\":2506:2603   */\n  tag_62\n  jump\t// in\ntag_114:\n    /* \"#utility.yul\":2624:2663   */\n  tag_115\n    /* \"#utility.yul\":2654:2662   */\n  dup7\n    /* \"#utility.yul\":2643:2652   */\n  dup4\n    /* \"#utility.yul\":2624:2663   */\n  tag_62\n  jump\t// in\ntag_115:\n    /* \"#utility.yul\":2612:2663   */\n  swap6\n  pop\n    /* \"#utility.yul\":2696:2700   */\n  dup1\n    /* \"#utility.yul\":2692:2701   */\n  not\n    /* \"#utility.yul\":2685:2690   */\n  dup5\n    /* \"#utility.yul\":2681:2702   */\n  and\n    /* \"#utility.yul\":2672:2702   */\n  swap4\n  pop\n    /* \"#utility.yul\":2745:2749   */\n  dup1\n    /* \"#utility.yul\":2735:2743   */\n  dup7\n    /* \"#utility.yul\":2731:2750   */\n  and\n    /* \"#utility.yul\":2724:2729   */\n  dup5\n    /* \"#utility.yul\":2721:2751   */\n  or\n    /* \"#utility.yul\":2711:2751   */\n  swap3\n  pop\n    /* \"#utility.yul\":2440:2757   */\n  pop\n  pop\n    /* \"#utility.yul\":2364:2757   */\n  swap4\n  swap3\n  pop\n  pop\n  pop\n  jump\t// out\n    /* \"#utility.yul\":2763:2840   */\ntag_64:\n    /* \"#utility.yul\":2800:2807   */\n  0x00\n    /* \"#utility.yul\":2829:2834   */\n  dup2\n    /* \"#utility.yul\":2818:2834   */\n  swap1\n  pop\n    /* \"#utility.yul\":2763:2840   */\n  swap2\n  swap1\n  pop\n  jump\t// out\n    /* \"#utility.yul\":2846:2906   */\ntag_65:\n    /* \"#utility.yul\":2874:2877   */\n  0x00\n    /* \"#utility.yul\":2895:2900   */\n  dup2\n    /* \"#utility.yul\":2888:2900   */\n  swap1\n  pop\n    /* \"#utility.yul\":2846:2906   */\n  swap2\n  swap1\n  pop\n  jump\t// out\n    /* \"#utility.yul\":2912:3054   */\ntag_66:\n    /* \"#utility.yul\":2962:2971   */\n  0x00\n    /* \"#utility.yul\":2995:3048   */\n  tag_119\n    /* \"#utility.yul\":3013:3047   */\n  tag_120\n    /* \"#utility.yul\":3022:3046   */\n  tag_121\n    /* \"#utility.yul\":3040:3045   */\n  dup5\n    /* \"#utility.yul\":3022:3046   */\n  tag_64\n  jump\t// in\ntag_121:\n    /* \"#utility.yul\":3013:3047   */\n  tag_65\n  jump\t// in\ntag_120:\n    /* \"#utility.yul\":2995:3048   */\n  tag_64\n  jump\t// in\ntag_119:\n    /* \"#utility.yul\":2982:3048   */\n  swap1\n  pop\n    /* \"#utility.yul\":2912:3054   */\n  swap2\n  swap1\n  pop\n  jump\t// out\n    /* \"#utility.yul\":3060:3135   */\ntag_67:\n    /* \"#utility.yul\":3103:3106   */\n  0x00\n    /* \"#utility.yul\":3124:3129   */\n  dup2\n    /* \"#utility.yul\":3117:3129   */\n  swap1\n  pop\n    /* \"#utility.yul\":3060:3135   */\n  swap2\n  swap1\n  pop\n  jump\t// out\n    /* \"#utility.yul\":3141:3410   */\ntag_68:\n    /* \"#utility.yul\":3251:3290   */\n  tag_124\n    /* \"#utility.yul\":3282:3289   */\n  dup4\n    /* \"#utility.yul\":3251:3290   */\n  tag_66\n  jump\t// in\ntag_124:\n    /* \"#utility.yul\":3312:3403   */\n  tag_125\n    /* \"#utility.yul\":3361:3402   */\n  tag_126\n    /* \"#utility.yul\":3385:3401   */\n  dup3\n    /* \"#utility.yul\":3361:3402   */\n  tag_67\n  jump\t// in\ntag_126:\n    /* \"#utility.yul\":3353:3359   */\n  dup5\n    /* \"#utility.yul\":3346:3350   */\n  dup5\n    /* \"#utility.yul\":3340:3351   */\n  sload\n    /* \"#utility.yul\":3312:3403   */\n  tag_63\n  jump\t// in\ntag_125:\n    /* \"#utility.yul\":3306:3310   */\n  dup3\n    /* \"#utility.yul\":3299:3404   */\n  sstore\n    /* \"#utility.yul\":3217:3410   */\n  pop\n    /* \"#utility.yul\":3141:3410   */\n  pop\n  pop\n  pop\n  jump\t// out\n    /* \"#utility.yul\":3416:3489   */\ntag_69:\n    /* \"#utility.yul\":3461:3464   */\n  0x00\n    /* \"#utility.yul\":3416:3489   */\n  swap1\n  jump\t// out\n    /* \"#utility.yul\":3495:3684   */\ntag_70:\n    /* \"#utility.yul\":3572:3604   */\n  tag_129\n  tag_69\n  jump\t// in\ntag_129:\n    /* \"#utility.yul\":3613:3678   */\n  tag_130\n    /* \"#utility.yul\":3671:3677   */\n  dup2\n    /* \"#utility.yul\":3663:3669   */\n  dup5\n    /* \"#utility.yul\":3657:3661   */\n  dup5\n    /* \"#utility.yul\":3613:3678   */\n  tag_68\n  jump\t// in\ntag_130:\n    /* \"#utility.yul\":3548:3684   */\n  pop\n    /* \"#utility.yul\":3495:3684   */\n  pop\n  pop\n  jump\t// out\n    /* \"#utility.yul\":3690:3876   */\ntag_71:\n    /* \"#utility.yul\":3750:3870   */\ntag_132:\n    /* \"#utility.yul\":3767:3770   */\n  dup2\n    /* \"#utility.yul\":3760:3765   */\n  dup2\n    /* \"#utility.yul\":3757:3771   */\n  lt\n    /* \"#utility.yul\":3750:3870   */\n  iszero\n  tag_134\n  jumpi\n    /* \"#utility.yul\":3821:3860   */\n  tag_135\n    /* \"#utility.yul\":3858:3859   */\n  0x00\n    /* \"#utility.yul\":3851:3856   */\n  dup3\n    /* \"#utility.yul\":3821:3860   */\n  tag_70\n  jump\t// in\ntag_135:\n    /* \"#utility.yul\":3794:3795   */\n  0x01\n    /* \"#utility.yul\":3787:3792   */\n  dup2\n    /* \"#utility.yul\":3783:3796   */\n  add\n    /* \"#utility.yul\":3774:3796   */\n  swap1\n  pop\n    /* \"#utility.yul\":3750:3870   */\n  jump(tag_132)\ntag_134:\n    /* \"#utility.yul\":3690:3876   */\n  pop\n  pop\n  jump\t// out\n    /* \"#utility.yul\":3882:4425   */\ntag_72:\n    /* \"#utility.yul\":3983:3985   */\n  0x1f\n    /* \"#utility.yul\":3978:3981   */\n  dup3\n    /* \"#utility.yul\":3975:3986   */\n  gt\n    /* \"#utility.yul\":3972:4418   */\n  iszero\n  tag_137\n  jumpi\n    /* \"#utility.yul\":4017:4055   */\n  tag_138\n    /* \"#utility.yul\":4049:4054   */\n  dup2\n    /* \"#utility.yul\":4017:4055   */\n  tag_60\n  jump\t// in\ntag_138:\n    /* \"#utility.yul\":4101:4130   */\n  tag_139\n    /* \"#utility.yul\":4119:4129   */\n  dup5\n    /* \"#utility.yul\":4101:4130   */\n  tag_61\n  jump\t// in\ntag_139:\n    /* \"#utility.yul\":4091:4099   */\n  dup2\n    /* \"#utility.yul\":4087:4131   */\n  add\n    /* \"#utility.yul\":4284:4286   */\n  0x20\n    /* \"#utility.yul\":4272:4282   */\n  dup6\n    /* \"#utility.yul\":4269:4287   */\n  lt\n    /* \"#utility.yul\":4266:4315   */\n  iszero\n  tag_140\n  jumpi\n    /* \"#utility.yul\":4305:4313   */\n  dup2\n    /* \"#utility.yul\":4290:4313   */\n  swap1\n  pop\n    /* \"#utility.yul\":4266:4315   */\ntag_140:\n    /* \"#utility.yul\":4328:4408   */\n  tag_141\n    /* \"#utility.yul\":4384:4406   */\n  tag_142\n    /* \"#utility.yul\":4402:4405   */\n  dup6\n    /* \"#utility.yul\":4384:4406   */\n  tag_61\n  jump\t// in\ntag_142:\n    /* \"#utility.yul\":4374:4382   */\n  dup4\n    /* \"#utility.yul\":4370:4407   */\n  add\n    /* \"#utility.yul\":4357:4368   */\n  dup3\n    /* \"#utility.yul\":4328:4408   */\n  tag_71\n  jump\t// in\ntag_141:\n    /* \"#utility.yul\":3987:4418   */\n  pop\n  pop\n    /* \"#utility.yul\":3972:4418   */\ntag_137:\n    /* \"#utility.yul\":3882:4425   */\n  pop\n  pop\n  pop\n  jump\t// out\n    /* \"#utility.yul\":4431:4548   */\ntag_73:\n    /* \"#utility.yul\":4485:4493   */\n  0x00\n    /* \"#utility.yul\":4535:4540   */\n  dup3\n    /* \"#utility.yul\":4529:4533   */\n  dup3\n    /* \"#utility.yul\":4525:4541   */\n  shr\n    /* \"#utility.yul\":4504:4541   */\n  swap1\n  pop\n    /* \"#utility.yul\":4431:4548   */\n  swap3\n  swap2\n  pop\n  pop\n  jump\t// out\n    /* \"#utility.yul\":4554:4723   */\ntag_74:\n    /* \"#utility.yul\":4598:4604   */\n  0x00\n    /* \"#utility.yul\":4631:4682   */\n  tag_145\n    /* \"#utility.yul\":4679:4680   */\n  0x00\n    /* \"#utility.yul\":4675:4681   */\n  not\n    /* \"#utility.yul\":4667:4672   */\n  dup5\n    /* \"#utility.yul\":4664:4665   */\n  0x08\n    /* \"#utility.yul\":4660:4673   */\n  mul\n    /* \"#utility.yul\":4631:4682   */\n  tag_73\n  jump\t// in\ntag_145:\n    /* \"#utility.yul\":4627:4683   */\n  not\n    /* \"#utility.yul\":4712:4716   */\n  dup1\n    /* \"#utility.yul\":4706:4710   */\n  dup4\n    /* \"#utility.yul\":4702:4717   */\n  and\n    /* \"#utility.yul\":4692:4717   */\n  swap2\n  pop\n    /* \"#utility.yul\":4605:4723   */\n  pop\n    /* \"#utility.yul\":4554:4723   */\n  swap3\n  swap2\n  pop\n  pop\n  jump\t// out\n    /* \"#utility.yul\":4728:5023   */\ntag_75:\n    /* \"#utility.yul\":4804:4808   */\n  0x00\n    /* \"#utility.yul\":4950:4979   */\n  tag_147\n    /* \"#utility.yul\":4975:4978   */\n  dup4\n    /* \"#utility.yul\":4969:4973   */\n  dup4\n    /* \"#utility.yul\":4950:4979   */\n  tag_74\n  jump\t// in\ntag_147:\n    /* \"#utility.yul\":4942:4979   */\n  swap2\n  pop\n    /* \"#utility.yul\":5012:5015   */\n  dup3\n    /* \"#utility.yul\":5009:5010   */\n  0x02\n    /* \"#utility.yul\":5005:5016   */\n  mul\n    /* \"#utility.yul\":4999:5003   */\n  dup3\n    /* \"#utility.yul\":4996:5017   */\n  or\n    /* \"#utility.yul\":4988:5017   */\n  swap1\n  pop\n    /* \"#utility.yul\":4728:5023   */\n  swap3\n  swap2\n  pop\n  pop\n  jump\t// out\n    /* \"#utility.yul\":5028:6423   */\ntag_12:\n    /* \"#utility.yul\":5145:5182   */\n  tag_149\n    /* \"#utility.yul\":5178:5181   */\n  dup3\n    /* \"#utility.yul\":5145:5182   */\n  tag_56\n  jump\t// in\ntag_149:\n    /* \"#utility.yul\":5247:5265   */\n  0xffffffffffffffff\n    /* \"#utility.yul\":5239:5245   */\n  dup2\n    /* \"#utility.yul\":5236:5266   */\n  gt\n    /* \"#utility.yul\":5233:5289   */\n  iszero\n  tag_150\n  jumpi\n    /* \"#utility.yul\":5269:5287   */\n  tag_151\n  tag_57\n  jump\t// in\ntag_151:\n    /* \"#utility.yul\":5233:5289   */\ntag_150:\n    /* \"#utility.yul\":5313:5351   */\n  tag_152\n    /* \"#utility.yul\":5345:5349   */\n  dup3\n    /* \"#utility.yul\":5339:5350   */\n  sload\n    /* \"#utility.yul\":5313:5351   */\n  tag_59\n  jump\t// in\ntag_152:\n    /* \"#utility.yul\":5398:5465   */\n  tag_153\n    /* \"#utility.yul\":5458:5464   */\n  dup3\n    /* \"#utility.yul\":5450:5456   */\n  dup3\n    /* \"#utility.yul\":5444:5448   */\n  dup6\n    /* \"#utility.yul\":5398:5465   */\n  tag_72\n  jump\t// in\ntag_153:\n    /* \"#utility.yul\":5492:5493   */\n  0x00\n    /* \"#utility.yul\":5516:5520   */\n  0x20\n    /* \"#utility.yul\":5503:5520   */\n  swap1\n  pop\n    /* \"#utility.yul\":5548:5550   */\n  0x1f\n    /* \"#utility.yul\":5540:5546   */\n  dup4\n    /* \"#utility.yul\":5537:5551   */\n  gt\n    /* \"#utility.yul\":5565:5566   */\n  0x01\n    /* \"#utility.yul\":5560:6178   */\n  dup2\n  eq\n  tag_155\n  jumpi\n    /* \"#utility.yul\":6222:6223   */\n  0x00\n    /* \"#utility.yul\":6239:6245   */\n  dup5\n    /* \"#utility.yul\":6236:6313   */\n  iszero\n  tag_156\n  jumpi\n    /* \"#utility.yul\":6288:6297   */\n  dup3\n    /* \"#utility.yul\":6283:6286   */\n  dup8\n    /* \"#utility.yul\":6279:6298   */\n  add\n    /* \"#utility.yul\":6273:6299   */\n  mload\n    /* \"#utility.yul\":6264:6299   */\n  swap1\n  pop\n    /* \"#utility.yul\":6236:6313   */\ntag_156:\n    /* \"#utility.yul\":6339:6406   */\n  tag_157\n    /* \"#utility.yul\":6399:6405   */\n  dup6\n    /* \"#utility.yul\":6392:6397   */\n  dup3\n    /* \"#utility.yul\":6339:6406   */\n  tag_75\n  jump\t// in\ntag_157:\n    /* \"#utility.yul\":6333:6337   */\n  dup7\n    /* \"#utility.yul\":6326:6407   */\n  sstore\n    /* \"#utility.yul\":6195:6417   */\n  pop\n    /* \"#utility.yul\":5530:6417   */\n  jump(tag_154)\n    /* \"#utility.yul\":5560:6178   */\ntag_155:\n    /* \"#utility.yul\":5612:5616   */\n  0x1f\n    /* \"#utility.yul\":5608:5617   */\n  not\n    /* \"#utility.yul\":5600:5606   */\n  dup5\n    /* \"#utility.yul\":5596:5618   */\n  and\n    /* \"#utility.yul\":5646:5683   */\n  tag_158\n    /* \"#utility.yul\":5678:5682   */\n  dup7\n    /* \"#utility.yul\":5646:5683   */\n  tag_60\n  jump\t// in\ntag_158:\n    /* \"#utility.yul\":5705:5706   */\n  0x00\n    /* \"#utility.yul\":5719:5927   */\ntag_159:\n    /* \"#utility.yul\":5733:5740   */\n  dup3\n    /* \"#utility.yul\":5730:5731   */\n  dup2\n    /* \"#utility.yul\":5727:5741   */\n  lt\n    /* \"#utility.yul\":5719:5927   */\n  iszero\n  tag_161\n  jumpi\n    /* \"#utility.yul\":5812:5821   */\n  dup5\n    /* \"#utility.yul\":5807:5810   */\n  dup10\n    /* \"#utility.yul\":5803:5822   */\n  add\n    /* \"#utility.yul\":5797:5823   */\n  mload\n    /* \"#utility.yul\":5789:5795   */\n  dup3\n    /* \"#utility.yul\":5782:5824   */\n  sstore\n    /* \"#utility.yul\":5863:5864   */\n  0x01\n    /* \"#utility.yul\":5855:5861   */\n  dup3\n    /* \"#utility.yul\":5851:5865   */\n  add\n    /* \"#utility.yul\":5841:5865   */\n  swap2\n  pop\n    /* \"#utility.yul\":5910:5912   */\n  0x20\n    /* \"#utility.yul\":5899:5908   */\n  dup6\n    /* \"#utility.yul\":5895:5913   */\n  add\n    /* \"#utility.yul\":5882:5913   */\n  swap5\n  pop\n    /* \"#utility.yul\":5756:5760   */\n  0x20\n    /* \"#utility.yul\":5753:5754   */\n  dup2\n    /* \"#utility.yul\":5749:5761   */\n  add\n    /* \"#utility.yul\":5744:5761   */\n  swap1\n  pop\n    /* \"#utility.yul\":5719:5927   */\n  jump(tag_159)\ntag_161:\n    /* \"#utility.yul\":5955:5961   */\n  dup7\n    /* \"#utility.yul\":5946:5953   */\n  dup4\n    /* \"#utility.yul\":5943:5962   */\n  lt\n    /* \"#utility.yul\":5940:6119   */\n  iszero\n  tag_162\n  jumpi\n    /* \"#utility.yul\":6013:6022   */\n  dup5\n    /* \"#utility.yul\":6008:6011   */\n  dup10\n    /* \"#utility.yul\":6004:6023   */\n  add\n    /* \"#utility.yul\":5998:6024   */\n  mload\n    /* \"#utility.yul\":6056:6104   */\n  tag_163\n    /* \"#utility.yul\":6098:6102   */\n  0x1f\n    /* \"#utility.yul\":6090:6096   */\n  dup10\n    /* \"#utility.yul\":6086:6103   */\n  and\n    /* \"#utility.yul\":6075:6084   */\n  dup3\n    /* \"#utility.yul\":6056:6104   */\n  tag_74\n  jump\t// in\ntag_163:\n    /* \"#utility.yul\":6048:6054   */\n  dup4\n    /* \"#utility.yul\":6041:6105   */\n  sstore\n    /* \"#utility.yul\":5963:6119   */\n  pop\n    /* \"#utility.yul\":5940:6119   */\ntag_162:\n    /* \"#utility.yul\":6165:6166   */\n  0x01\n    /* \"#utility.yul\":6161:6162   */\n  0x02\n    /* \"#utility.yul\":6153:6159   */\n  dup9\n    /* \"#utility.yul\":6149:6163   */\n  mul\n    /* \"#utility.yul\":6145:6167   */\n  add\n    /* \"#utility.yul\":6139:6143   */\n  dup9\n    /* \"#utility.yul\":6132:6168   */\n  sstore\n    /* \"#utility.yul\":5567:6178   */\n  pop\n  pop\n  pop\n    /* \"#utility.yul\":5530:6417   */\ntag_154:\n  pop\n    /* \"#utility.yul\":5120:6423   */\n  pop\n  pop\n  pop\n    /* \"#utility.yul\":5028:6423   */\n  pop\n  pop\n  jump\t// out\n    /* \"#utility.yul\":6429:6547   */\ntag_76:\n    /* \"#utility.yul\":6516:6540   */\n  tag_165\n    /* \"#utility.yul\":6534:6539   */\n  dup2\n    /* \"#utility.yul\":6516:6540   */\n  tag_53\n  jump\t// in\ntag_165:\n    /* \"#utility.yul\":6511:6514   */\n  dup3\n    /* \"#utility.yul\":6504:6541   */\n  mstore\n    /* \"#utility.yul\":6429:6547   */\n  pop\n  pop\n  jump\t// out\n    /* \"#utility.yul\":6553:6775   */\ntag_18:\n    /* \"#utility.yul\":6646:6650   */\n  0x00\n    /* \"#utility.yul\":6684:6686   */\n  0x20\n    /* \"#utility.yul\":6673:6682   */\n  dup3\n    /* \"#utility.yul\":6669:6687   */\n  add\n    /* \"#utility.yul\":6661:6687   */\n  swap1\n  pop\n    /* \"#utility.yul\":6697:6768   */\n  tag_167\n    /* \"#utility.yul\":6765:6766   */\n  0x00\n    /* \"#utility.yul\":6754:6763   */\n  dup4\n    /* \"#utility.yul\":6750:6767   */\n  add\n    /* \"#utility.yul\":6741:6747   */\n  dup5\n    /* \"#utility.yul\":6697:6768   */\n  tag_76\n  jump\t// in\ntag_167:\n    /* \"#utility.yul\":6553:6775   */\n  swap3\n  swap2\n  pop\n  pop\n  jump\t// out\n    /* \"#utility.yul\":6781:6858   */\ntag_77:\n    /* \"#utility.yul\":6818:6825   */\n  0x00\n    /* \"#utility.yul\":6847:6852   */\n  dup2\n    /* \"#utility.yul\":6836:6852   */\n  swap1\n  pop\n    /* \"#utility.yul\":6781:6858   */\n  swap2\n  swap1\n  pop\n  jump\t// out\n    /* \"#utility.yul\":6864:6982   */\ntag_78:\n    /* \"#utility.yul\":6951:6975   */\n  tag_170\n    /* \"#utility.yul\":6969:6974   */\n  dup2\n    /* \"#utility.yul\":6951:6975   */\n  tag_77\n  jump\t// in\ntag_170:\n    /* \"#utility.yul\":6946:6949   */\n  dup3\n    /* \"#utility.yul\":6939:6976   */\n  mstore\n    /* \"#utility.yul\":6864:6982   */\n  pop\n  pop\n  jump\t// out\n    /* \"#utility.yul\":6988:7106   */\ntag_79:\n    /* \"#utility.yul\":7075:7099   */\n  tag_172\n    /* \"#utility.yul\":7093:7098   */\n  dup2\n    /* \"#utility.yul\":7075:7099   */\n  tag_64\n  jump\t// in\ntag_172:\n    /* \"#utility.yul\":7070:7073   */\n  dup3\n    /* \"#utility.yul\":7063:7100   */\n  mstore\n    /* \"#utility.yul\":6988:7106   */\n  pop\n  pop\n  jump\t// out\n    /* \"#utility.yul\":7112:7776   */\ntag_41:\n    /* \"#utility.yul\":7317:7321   */\n  0x00\n    /* \"#utility.yul\":7355:7358   */\n  0xa0\n    /* \"#utility.yul\":7344:7353   */\n  dup3\n    /* \"#utility.yul\":7340:7359   */\n  add\n    /* \"#utility.yul\":7332:7359   */\n  swap1\n  pop\n    /* \"#utility.yul\":7369:7440   */\n  tag_174\n    /* \"#utility.yul\":7437:7438   */\n  0x00\n    /* \"#utility.yul\":7426:7435   */\n  dup4\n    /* \"#utility.yul\":7422:7439   */\n  add\n    /* \"#utility.yul\":7413:7419   */\n  dup9\n    /* \"#utility.yul\":7369:7440   */\n  tag_78\n  jump\t// in\ntag_174:\n    /* \"#utility.yul\":7450:7522   */\n  tag_175\n    /* \"#utility.yul\":7518:7520   */\n  0x20\n    /* \"#utility.yul\":7507:7516   */\n  dup4\n    /* \"#utility.yul\":7503:7521   */\n  add\n    /* \"#utility.yul\":7494:7500   */\n  dup8\n    /* \"#utility.yul\":7450:7522   */\n  tag_78\n  jump\t// in\ntag_175:\n    /* \"#utility.yul\":7532:7604   */\n  tag_176\n    /* \"#utility.yul\":7600:7602   */\n  0x40\n    /* \"#utility.yul\":7589:7598   */\n  dup4\n    /* \"#utility.yul\":7585:7603   */\n  add\n    /* \"#utility.yul\":7576:7582   */\n  dup7\n    /* \"#utility.yul\":7532:7604   */\n  tag_78\n  jump\t// in\ntag_176:\n    /* \"#utility.yul\":7614:7686   */\n  tag_177\n    /* \"#utility.yul\":7682:7684   */\n  0x60\n    /* \"#utility.yul\":7671:7680   */\n  dup4\n    /* \"#utility.yul\":7667:7685   */\n  add\n    /* \"#utility.yul\":7658:7664   */\n  dup6\n    /* \"#utility.yul\":7614:7686   */\n  tag_79\n  jump\t// in\ntag_177:\n    /* \"#utility.yul\":7696:7769   */\n  tag_178\n    /* \"#utility.yul\":7764:7767   */\n  0x80\n    /* \"#utility.yul\":7753:7762   */\n  dup4\n    /* \"#utility.yul\":7749:7768   */\n  add\n    /* \"#utility.yul\":7740:7746   */\n  dup5\n    /* \"#utility.yul\":7696:7769   */\n  tag_76\n  jump\t// in\ntag_178:\n    /* \"#utility.yul\":7112:7776   */\n  swap7\n  swap6\n  pop\n  pop\n  pop\n  pop\n  pop\n  pop\n  jump\t// out\n    /* \"#utility.yul\":7782:7951   */\ntag_80:\n    /* \"#utility.yul\":7866:7877   */\n  0x00\n    /* \"#utility.yul\":7900:7906   */\n  dup3\n    /* \"#utility.yul\":7895:7898   */\n  dup3\n    /* \"#utility.yul\":7888:7907   */\n  mstore\n    /* \"#utility.yul\":7940:7944   */\n  0x20\n    /* \"#utility.yul\":7935:7938   */\n  dup3\n    /* \"#utility.yul\":7931:7945   */\n  add\n    /* \"#utility.yul\":7916:7945   */\n  swap1\n  pop\n    /* \"#utility.yul\":7782:7951   */\n  swap3\n  swap2\n  pop\n  pop\n  jump\t// out\n    /* \"#utility.yul\":7957:8203   */\ntag_81:\n    /* \"#utility.yul\":8038:8039   */\n  0x00\n    /* \"#utility.yul\":8048:8161   */\ntag_181:\n    /* \"#utility.yul\":8062:8068   */\n  dup4\n    /* \"#utility.yul\":8059:8060   */\n  dup2\n    /* \"#utility.yul\":8056:8069   */\n  lt\n    /* \"#utility.yul\":8048:8161   */\n  iszero\n  tag_183\n  jumpi\n    /* \"#utility.yul\":8147:8148   */\n  dup1\n    /* \"#utility.yul\":8142:8145   */\n  dup3\n    /* \"#utility.yul\":8138:8149   */\n  add\n    /* \"#utility.yul\":8132:8150   */\n  mload\n    /* \"#utility.yul\":8128:8129   */\n  dup2\n    /* \"#utility.yul\":8123:8126   */\n  dup5\n    /* \"#utility.yul\":8119:8130   */\n  add\n    /* \"#utility.yul\":8112:8151   */\n  mstore\n    /* \"#utility.yul\":8084:8086   */\n  0x20\n    /* \"#utility.yul\":8081:8082   */\n  dup2\n    /* \"#utility.yul\":8077:8087   */\n  add\n    /* \"#utility.yul\":8072:8087   */\n  swap1\n  pop\n    /* \"#utility.yul\":8048:8161   */\n  jump(tag_181)\ntag_183:\n    /* \"#utility.yul\":8195:8196   */\n  0x00\n    /* \"#utility.yul\":8186:8192   */\n  dup5\n    /* \"#utility.yul\":8181:8184   */\n  dup5\n    /* \"#utility.yul\":8177:8193   */\n  add\n    /* \"#utility.yul\":8170:8197   */\n  mstore\n    /* \"#utility.yul\":8019:8203   */\n  pop\n    /* \"#utility.yul\":7957:8203   */\n  pop\n  pop\n  pop\n  jump\t// out\n    /* \"#utility.yul\":8209:8311   */\ntag_82:\n    /* \"#utility.yul\":8250:8256   */\n  0x00\n    /* \"#utility.yul\":8301:8303   */\n  0x1f\n    /* \"#utility.yul\":8297:8304   */\n  not\n    /* \"#utility.yul\":8292:8294   */\n  0x1f\n    /* \"#utility.yul\":8285:8290   */\n  dup4\n    /* \"#utility.yul\":8281:8295   */\n  add\n    /* \"#utility.yul\":8277:8305   */\n  and\n    /* \"#utility.yul\":8267:8305   */\n  swap1\n  pop\n    /* \"#utility.yul\":8209:8311   */\n  swap2\n  swap1\n  pop\n  jump\t// out\n    /* \"#utility.yul\":8317:8694   */\ntag_83:\n    /* \"#utility.yul\":8405:8408   */\n  0x00\n    /* \"#utility.yul\":8433:8472   */\n  tag_186\n    /* \"#utility.yul\":8466:8471   */\n  dup3\n    /* \"#utility.yul\":8433:8472   */\n  tag_56\n  jump\t// in\ntag_186:\n    /* \"#utility.yul\":8488:8559   */\n  tag_187\n    /* \"#utility.yul\":8552:8558   */\n  dup2\n    /* \"#utility.yul\":8547:8550   */\n  dup6\n    /* \"#utility.yul\":8488:8559   */\n  tag_80\n  jump\t// in\ntag_187:\n    /* \"#utility.yul\":8481:8559   */\n  swap4\n  pop\n    /* \"#utility.yul\":8568:8633   */\n  tag_188\n    /* \"#utility.yul\":8626:8632   */\n  dup2\n    /* \"#utility.yul\":8621:8624   */\n  dup6\n    /* \"#utility.yul\":8614:8618   */\n  0x20\n    /* \"#utility.yul\":8607:8612   */\n  dup7\n    /* \"#utility.yul\":8603:8619   */\n  add\n    /* \"#utility.yul\":8568:8633   */\n  tag_81\n  jump\t// in\ntag_188:\n    /* \"#utility.yul\":8658:8687   */\n  tag_189\n    /* \"#utility.yul\":8680:8686   */\n  dup2\n    /* \"#utility.yul\":8658:8687   */\n  tag_82\n  jump\t// in\ntag_189:\n    /* \"#utility.yul\":8653:8656   */\n  dup5\n    /* \"#utility.yul\":8649:8688   */\n  add\n    /* \"#utility.yul\":8642:8688   */\n  swap2\n  pop\n    /* \"#utility.yul\":8409:8694   */\n  pop\n    /* \"#utility.yul\":8317:8694   */\n  swap3\n  swap2\n  pop\n  pop\n  jump\t// out\n    /* \"#utility.yul\":8700:9013   */\ntag_45:\n    /* \"#utility.yul\":8813:8817   */\n  0x00\n    /* \"#utility.yul\":8851:8853   */\n  0x20\n    /* \"#utility.yul\":8840:8849   */\n  dup3\n    /* \"#utility.yul\":8836:8854   */\n  add\n    /* \"#utility.yul\":8828:8854   */\n  swap1\n  pop\n    /* \"#utility.yul\":8900:8909   */\n  dup2\n    /* \"#utility.yul\":8894:8898   */\n  dup2\n    /* \"#utility.yul\":8890:8910   */\n  sub\n    /* \"#utility.yul\":8886:8887   */\n  0x00\n    /* \"#utility.yul\":8875:8884   */\n  dup4\n    /* \"#utility.yul\":8871:8888   */\n  add\n    /* \"#utility.yul\":8864:8911   */\n  mstore\n    /* \"#utility.yul\":8928:9006   */\n  tag_191\n    /* \"#utility.yul\":9001:9005   */\n  dup2\n    /* \"#utility.yul\":8992:8998   */\n  dup5\n    /* \"#utility.yul\":8928:9006   */\n  tag_83\n  jump\t// in\ntag_191:\n    /* \"#utility.yul\":8920:9006   */\n  swap1\n  pop\n    /* \"#utility.yul\":8700:9013   */\n  swap3\n  swap2\n  pop\n  pop\n  jump\t// out\n    /* \"#utility.yul\":9019:9117   */\ntag_84:\n    /* \"#utility.yul\":9070:9076   */\n  0x00\n    /* \"#utility.yul\":9104:9109   */\n  dup2\n    /* \"#utility.yul\":9098:9110   */\n  mload\n    /* \"#utility.yul\":9088:9110   */\n  swap1\n  pop\n    /* \"#utility.yul\":9019:9117   */\n  swap2\n  swap1\n  pop\n  jump\t// out\n    /* \"#utility.yul\":9123:9239   */\ntag_85:\n    /* \"#utility.yul\":9174:9178   */\n  0x00\n    /* \"#utility.yul\":9197:9200   */\n  dup2\n    /* \"#utility.yul\":9189:9200   */\n  swap1\n  pop\n    /* \"#utility.yul\":9227:9231   */\n  0x20\n    /* \"#utility.yul\":9222:9225   */\n  dup3\n    /* \"#utility.yul\":9218:9232   */\n  add\n    /* \"#utility.yul\":9210:9232   */\n  swap1\n  pop\n    /* \"#utility.yul\":9123:9239   */\n  swap2\n  swap1\n  pop\n  jump\t// out\n    /* \"#utility.yul\":9245:9399   */\ntag_86:\n    /* \"#utility.yul\":9288:9299   */\n  0x00\n    /* \"#utility.yul\":9324:9353   */\n  tag_195\n    /* \"#utility.yul\":9348:9351   */\n  dup3\n    /* \"#utility.yul\":9342:9352   */\n  mload\n    /* \"#utility.yul\":9324:9353   */\n  tag_77\n  jump\t// in\ntag_195:\n    /* \"#utility.yul\":9387:9392   */\n  dup1\n    /* \"#utility.yul\":9363:9392   */\n  swap2\n  pop\n    /* \"#utility.yul\":9300:9399   */\n  pop\n    /* \"#utility.yul\":9245:9399   */\n  swap2\n  swap1\n  pop\n  jump\t// out\n    /* \"#utility.yul\":9405:9999   */\ntag_47:\n    /* \"#utility.yul\":9489:9494   */\n  0x00\n    /* \"#utility.yul\":9520:9558   */\n  tag_197\n    /* \"#utility.yul\":9552:9557   */\n  dup3\n    /* \"#utility.yul\":9520:9558   */\n  tag_84\n  jump\t// in\ntag_197:\n    /* \"#utility.yul\":9583:9588   */\n  dup3\n    /* \"#utility.yul\":9610:9650   */\n  tag_198\n    /* \"#utility.yul\":9644:9649   */\n  dup5\n    /* \"#utility.yul\":9610:9650   */\n  tag_85\n  jump\t// in\ntag_198:\n    /* \"#utility.yul\":9598:9650   */\n  swap1\n  pop\n    /* \"#utility.yul\":9669:9704   */\n  tag_199\n    /* \"#utility.yul\":9695:9703   */\n  dup2\n    /* \"#utility.yul\":9669:9704   */\n  tag_86\n  jump\t// in\ntag_199:\n    /* \"#utility.yul\":9660:9704   */\n  swap3\n  pop\n    /* \"#utility.yul\":9728:9730   */\n  0x20\n    /* \"#utility.yul\":9720:9726   */\n  dup3\n    /* \"#utility.yul\":9717:9731   */\n  lt\n    /* \"#utility.yul\":9714:9992   */\n  iszero\n  tag_200\n  jumpi\n    /* \"#utility.yul\":9799:9968   */\n  tag_201\n    /* \"#utility.yul\":9884:9950   */\n  0xffffffffffffffffffffffffffffffffffffffffffffffffffffffffffffffff\n    /* \"#utility.yul\":9854:9860   */\n  dup4\n    /* \"#utility.yul\":9850:9852   */\n  0x20\n    /* \"#utility.yul\":9846:9861   */\n  sub\n    /* \"#utility.yul\":9843:9844   */\n  0x08\n    /* \"#utility.yul\":9839:9862   */\n  mul\n    /* \"#utility.yul\":9799:9968   */\n  tag_62\n  jump\t// in\ntag_201:\n    /* \"#utility.yul\":9776:9781   */\n  dup4\n    /* \"#utility.yul\":9755:9982   */\n  and\n    /* \"#utility.yul\":9746:9982   */\n  swap3\n  pop\n    /* \"#utility.yul\":9714:9992   */\ntag_200:\n    /* \"#utility.yul\":9495:9999   */\n  pop\n  pop\n    /* \"#utility.yul\":9405:9999   */\n  swap2\n  swap1\n  pop\n  jump\t// out\n    /* \"contracts/MyToken.sol\":391:1181  contract MyToken is ERC20, ERC20Burnable, ERC20Pausable, Ownable, ERC20Permit {... */\ntag_29:\n  mload(0x80)\n  mload(0xa0)\n  mload(0xc0)\n  mload(0xe0)\n  mload(0x0100)\n  mload(0x0120)\n  mload(0x0140)\n  codecopy(0x00, dataOffset(sub_0), dataSize(sub_0))\n  0x00\n  assignImmutable(\"0xc81bfac384a0ec543c77e5176d9b9eb40c3af8fefa4e3c7657dda11321657778\")\n  0x00\n  assignImmutable(\"0x7d81e85b4a2af4bd6246fd18e1213d6d70ceeba70466178b3c6e4c0f6381e850\")\n  0x00\n  assignImmutable(\"0xbce8897c1d3546db005567607154841ec10937e6a225e4ea07cfbf9a6b139dea\")\n  0x00\n  assignImmutable(\"0x65c288f20bdeec3b8068bce0cb7c6a17051020d09717e451b984f80af474ef00\")\n  0x00\n  assignImmutable(\"0xcb7b5834b7e5299c6704f53d971bda2c8ab8a394d0e13e911296a3f1ed3f075e\")\n  0x00\n  assignImmutable(\"0x65281ed8ccefade9b86c81750599de18d311b92b65fa2f9574f29bea17eeada2\")\n  0x00\n  assignImmutable(\"0x637044082104a0df38c56ebf385c4c88ba9376eb8d65439329a06208e4517c88\")\n  return(0x00, dataSize(sub_0))\nstop\n\nsub_0: assembly {\n        /* \"contracts/MyToken.sol\":391:1181  contract MyToken is ERC20, ERC20Burnable, ERC20Pausable, Ownable, ERC20Permit {... */\n      mstore(0x40, 0x80)\n      callvalue\n      dup1\n      iszero\n      tag_1\n      jumpi\n      0x00\n      dup1\n      revert\n    tag_1:\n      pop\n      jumpi(tag_2, lt(calldatasize, 0x04))\n      shr(0xe0, calldataload(0x00))\n      dup1\n      0x715018a6\n      gt\n      tag_25\n      jumpi\n      dup1\n      0x8da5cb5b\n      gt\n      tag_26\n      jumpi\n      dup1\n      0x8da5cb5b\n      eq\n      tag_19\n      jumpi\n      dup1\n      0x95d89b41\n      eq\n      tag_20\n      jumpi\n      dup1\n      0xa9059cbb\n      eq\n      tag_21\n      jumpi\n      dup1\n      0xd505accf\n      eq\n      tag_22\n      jumpi\n      dup1\n      0xdd62ed3e\n      eq\n      tag_23\n      jumpi\n      dup1\n      0xf2fde38b\n      eq\n      tag_24\n      jumpi\n      jump(tag_2)\n    tag_26:\n      dup1\n      0x715018a6\n      eq\n      tag_14\n      jumpi\n      dup1\n      0x79cc6790\n      eq\n      tag_15\n      jumpi\n      dup1\n      0x7ecebe00\n      eq\n      tag_16\n      jumpi\n      dup1\n      0x8456cb59\n      eq\n      tag_17\n      jumpi\n      dup1\n      0x84b0196e\n      eq\n      tag_18\n      jumpi\n      jump(tag_2)\n    tag_25:\n      dup1\n      0x3644e515\n      gt\n      tag_27\n      jumpi\n      dup1\n      0x3644e515\n      eq\n      tag_8\n      jumpi\n      dup1\n      0x3f4ba83a\n      eq\n      tag_9\n      jumpi\n      dup1\n      0x40c10f19\n      eq\n      tag_10\n      jumpi\n      dup1\n      0x42966c68\n      eq\n      tag_11\n      jumpi\n      dup1\n      0x5c975abb\n      eq\n      tag_12\n      jumpi\n      dup1\n      0x70a08231\n      eq\n      tag_13\n      jumpi\n      jump(tag_2)\n    tag_27:\n      dup1\n      0x06fdde03\n      eq\n      tag_3\n      jumpi\n      dup1\n      0x095ea7b3\n      eq\n      tag_4\n      jumpi\n      dup1\n      0x18160ddd\n      eq\n      tag_5\n      jumpi\n      dup1\n      0x23b872dd\n      eq\n      tag_6\n      jumpi\n      dup1\n      0x313ce567\n      eq\n      tag_7\n      jumpi\n    tag_2:\n      0x00\n      dup1\n      revert\n        /* \"@openzeppelin/contracts/token/ERC20/ERC20.sol\":2074:2163  function name() public view virtual returns (string memory) {... */\n    tag_3:\n      tag_28\n      tag_29\n      jump\t// in\n    tag_28:\n      mload(0x40)\n      tag_30\n      swap2\n      swap1\n      tag_31\n      jump\t// in\n    tag_30:\n      mload(0x40)\n      dup1\n      swap2\n      sub\n      swap1\n      return\n        /* \"@openzeppelin/contracts/token/ERC20/ERC20.sol\":4293:4479  function approve(address spender, uint256 value) public virtual returns (bool) {... */\n    tag_4:\n      tag_32\n      0x04\n      dup1\n      calldatasize\n      sub\n      dup2\n      add\n      swap1\n      tag_33\n      swap2\n      swap1\n      tag_34\n      jump\t// in\n    tag_33:\n      tag_35\n      jump\t// in\n    tag_32:\n      mload(0x40)\n      tag_36\n      swap2\n      swap1\n      tag_37\n      jump\t// in\n    tag_36:\n      mload(0x40)\n      dup1\n      swap2\n      sub\n      swap1\n      return\n        /* \"@openzeppelin/contracts/token/ERC20/ERC20.sol\":3144:3241  function totalSupply() public view virtual returns (uint256) {... */\n    tag_5:\n      tag_38\n      tag_39\n      jump\t// in\n    tag_38:\n      mload(0x40)\n      tag_40\n      swap2\n      swap1\n      tag_41\n      jump\t// in\n    tag_40:\n      mload(0x40)\n      dup1\n      swap2\n      sub\n      swap1\n      return\n        /* \"@openzeppelin/contracts/token/ERC20/ERC20.sol\":5039:5283  function transferFrom(address from, address to, uint256 value) public virtual returns (bool) {... */\n    tag_6:\n      tag_42\n      0x04\n      dup1\n      calldatasize\n      sub\n      dup2\n      add\n      swap1\n      tag_43\n      swap2\n      swap1\n      tag_44\n      jump\t// in\n    tag_43:\n      tag_45\n      jump\t// in\n    tag_42:\n      mload(0x40)\n      tag_46\n      swap2\n      swap1\n      tag_37\n      jump\t// in\n    tag_46:\n      mload(0x40)\n      dup1\n      swap2\n      sub\n      swap1\n      return\n        /* \"@openzeppelin/contracts/token/ERC20/ERC20.sol\":3002:3084  function decimals() public view virtual returns (uint8) {... */\n    tag_7:\n      tag_47\n      tag_48\n      jump\t// in\n    tag_47:\n      mload(0x40)\n      tag_49\n      swap2\n      swap1\n      tag_50\n      jump\t// in\n    tag_49:\n      mload(0x40)\n      dup1\n      swap2\n      sub\n      swap1\n      return\n        /* \"@openzeppelin/contracts/token/ERC20/extensions/ERC20Permit.sol\":2656:2768  function DOMAIN_SEPARATOR() external view virtual returns (bytes32) {... */\n    tag_8:\n      tag_51\n      tag_52\n      jump\t// in\n    tag_51:\n      mload(0x40)\n      tag_53\n      swap2\n      swap1\n      tag_54\n      jump\t// in\n    tag_53:\n      mload(0x40)\n      dup1\n      swap2\n      sub\n      swap1\n      return\n        /* \"contracts/MyToken.sol\":679:742  function unpause() public onlyOwner {... */\n    tag_9:\n      tag_55\n      tag_56\n      jump\t// in\n    tag_55:\n      stop\n        /* \"contracts/MyToken.sol\":748:841  function mint(address to, uint256 amount) public onlyOwner {... */\n    tag_10:\n      tag_57\n      0x04\n      dup1\n      calldatasize\n      sub\n      dup2\n      add\n      swap1\n      tag_58\n      swap2\n      swap1\n      tag_34\n      jump\t// in\n    tag_58:\n      tag_59\n      jump\t// in\n    tag_57:\n      stop\n        /* \"@openzeppelin/contracts/token/ERC20/extensions/ERC20Burnable.sol\":618:705  function burn(uint256 value) public virtual {... */\n    tag_11:\n      tag_60\n      0x04\n      dup1\n      calldatasize\n      sub\n      dup2\n      add\n      swap1\n      tag_61\n      swap2\n      swap1\n      tag_62\n      jump\t// in\n    tag_61:\n      tag_63\n      jump\t// in\n    tag_60:\n      stop\n        /* \"@openzeppelin/contracts/utils/Pausable.sol\":1850:1934  function paused() public view virtual returns (bool) {... */\n    tag_12:\n      tag_64\n      tag_65\n      jump\t// in\n    tag_64:\n      mload(0x40)\n      tag_66\n      swap2\n      swap1\n      tag_37\n      jump\t// in\n    tag_66:\n      mload(0x40)\n      dup1\n      swap2\n      sub\n      swap1\n      return\n        /* \"@openzeppelin/contracts/token/ERC20/ERC20.sol\":3299:3415  function balanceOf(address account) public view virtual returns (uint256) {... */\n    tag_13:\n      tag_67\n      0x04\n      dup1\n      calldatasize\n      sub\n      dup2\n      add\n      swap1\n      tag_68\n      swap2\n      swap1\n      tag_69\n      jump\t// in\n    tag_68:\n      tag_70\n      jump\t// in\n    tag_67:\n      mload(0x40)\n      tag_71\n      swap2\n      swap1\n      tag_41\n      jump\t// in\n    tag_71:\n      mload(0x40)\n      dup1\n      swap2\n      sub\n      swap1\n      return\n        /* \"@openzeppelin/contracts/access/Ownable.sol\":2293:2394  function renounceOwnership() public virtual onlyOwner {... */\n    tag_14:\n      tag_72\n      tag_73\n      jump\t// in\n    tag_72:\n      stop\n        /* \"@openzeppelin/contracts/token/ERC20/extensions/ERC20Burnable.sol\":1021:1179  function burnFrom(address account, uint256 value) public virtual {... */\n    tag_15:\n      tag_74\n      0x04\n      dup1\n      calldatasize\n      sub\n      dup2\n      add\n      swap1\n      tag_75\n      swap2\n      swap1\n      tag_34\n      jump\t// in\n    tag_75:\n      tag_76\n      jump\t// in\n    tag_74:\n      stop\n        /* \"@openzeppelin/contracts/token/ERC20/extensions/ERC20Permit.sol\":2406:2549  function nonces(address owner) public view virtual override(IERC20Permit, Nonces) returns (uint256) {... */\n    tag_16:\n      tag_77\n      0x04\n      dup1\n      calldatasize\n      sub\n      dup2\n      add\n      swap1\n      tag_78\n      swap2\n      swap1\n      tag_69\n      jump\t// in\n    tag_78:\n      tag_79\n      jump\t// in\n    tag_77:\n      mload(0x40)\n      tag_80\n      swap2\n      swap1\n      tag_41\n      jump\t// in\n    tag_80:\n      mload(0x40)\n      dup1\n      swap2\n      sub\n      swap1\n      return\n        /* \"contracts/MyToken.sol\":614:673  function pause() public onlyOwner {... */\n    tag_17:\n      tag_81\n      tag_82\n      jump\t// in\n    tag_81:\n      stop\n        /* \"@openzeppelin/contracts/utils/cryptography/EIP712.sol\":5144:5701  function eip712Domain()... */\n    tag_18:\n      tag_83\n      tag_84\n      jump\t// in\n    tag_83:\n      mload(0x40)\n      tag_85\n      swap8\n      swap7\n      swap6\n      swap5\n      swap4\n      swap3\n      swap2\n      swap1\n      tag_86\n      jump\t// in\n    tag_85:\n      mload(0x40)\n      dup1\n      swap2\n      sub\n      swap1\n      return\n        /* \"@openzeppelin/contracts/access/Ownable.sol\":1638:1723  function owner() public view virtual returns (address) {... */\n    tag_19:\n      tag_87\n      tag_88\n      jump\t// in\n    tag_87:\n      mload(0x40)\n      tag_89\n      swap2\n      swap1\n      tag_90\n      jump\t// in\n    tag_89:\n      mload(0x40)\n      dup1\n      swap2\n      sub\n      swap1\n      return\n        /* \"@openzeppelin/contracts/token/ERC20/ERC20.sol\":2276:2369  function symbol() public view virtual returns (string memory) {... */\n    tag_20:\n      tag_91\n      tag_92\n      jump\t// in\n    tag_91:\n      mload(0x40)\n      tag_93\n      swap2\n      swap1\n      tag_31\n      jump\t// in\n    tag_93:\n      mload(0x40)\n      dup1\n      swap2\n      sub\n      swap1\n      return\n        /* \"@openzeppelin/contracts/token/ERC20/ERC20.sol\":3610:3788  function transfer(address to, uint256 value) public virtual returns (bool) {... */\n    tag_21:\n      tag_94\n      0x04\n      dup1\n      calldatasize\n      sub\n      dup2\n      add\n      swap1\n      tag_95\n      swap2\n      swap1\n      tag_34\n      jump\t// in\n    tag_95:\n      tag_96\n      jump\t// in\n    tag_94:\n      mload(0x40)\n      tag_97\n      swap2\n      swap1\n      tag_37\n      jump\t// in\n    tag_97:\n      mload(0x40)\n      dup1\n      swap2\n      sub\n      swap1\n      return\n        /* \"@openzeppelin/contracts/token/ERC20/extensions/ERC20Permit.sol\":1680:2352  function permit(... */\n    tag_22:\n      tag_98\n      0x04\n      dup1\n      calldatasize\n      sub\n      dup2\n      add\n      swap1\n      tag_99\n      swap2\n      swap1\n      tag_100\n      jump\t// in\n    tag_99:\n      tag_101\n      jump\t// in\n    tag_98:\n      stop\n        /* \"@openzeppelin/contracts/token/ERC20/ERC20.sol\":3846:3986  function allowance(address owner, address spender) public view virtual returns (uint256) {... */\n    tag_23:\n      tag_102\n      0x04\n      dup1\n      calldatasize\n      sub\n      dup2\n      add\n      swap1\n      tag_103\n      swap2\n      swap1\n      tag_104\n      jump\t// in\n    tag_103:\n      tag_105\n      jump\t// in\n    tag_102:\n      mload(0x40)\n      tag_106\n      swap2\n      swap1\n      tag_41\n      jump\t// in\n    tag_106:\n      mload(0x40)\n      dup1\n      swap2\n      sub\n      swap1\n      return\n        /* \"@openzeppelin/contracts/access/Ownable.sol\":2543:2758  function transferOwnership(address newOwner) public virtual onlyOwner {... */\n    tag_24:\n      tag_107\n      0x04\n      dup1\n      calldatasize\n      sub\n      dup2\n      add\n      swap1\n      tag_108\n      swap2\n      swap1\n      tag_69\n      jump\t// in\n    tag_108:\n      tag_109\n      jump\t// in\n    tag_107:\n      stop\n        /* \"@openzeppelin/contracts/token/ERC20/ERC20.sol\":2074:2163  function name() public view virtual returns (string memory) {... */\n    tag_29:\n        /* \"@openzeppelin/contracts/token/ERC20/ERC20.sol\":2119:2132  string memory */\n      0x60\n        /* \"@openzeppelin/contracts/token/ERC20/ERC20.sol\":2151:2156  _name */\n      0x03\n        /* \"@openzeppelin/contracts/token/ERC20/ERC20.sol\":2144:2156  return _name */\n      dup1\n      sload\n      tag_111\n      swap1\n      tag_112\n      jump\t// in\n    tag_111:\n      dup1\n      0x1f\n      add\n      0x20\n      dup1\n      swap2\n      div\n      mul\n      0x20\n      add\n      mload(0x40)\n      swap1\n      dup2\n      add\n      0x40\n      mstore\n      dup1\n      swap3\n      swap2\n      swap1\n      dup2\n      dup2\n      mstore\n      0x20\n      add\n      dup3\n      dup1\n      sload\n      tag_113\n      swap1\n      tag_112\n      jump\t// in\n    tag_113:\n      dup1\n      iszero\n      tag_114\n      jumpi\n      dup1\n      0x1f\n      lt\n      tag_115\n      jumpi\n      0x0100\n      dup1\n      dup4\n      sload\n      div\n      mul\n      dup4\n      mstore\n      swap2\n      0x20\n      add\n      swap2\n      jump(tag_114)\n    tag_115:\n      dup3\n      add\n      swap2\n      swap1\n      0x00\n      mstore\n      keccak256(0x00, 0x20)\n      swap1\n    tag_116:\n      dup2\n      sload\n      dup2\n      mstore\n      swap1\n      0x01\n      add\n      swap1\n      0x20\n      add\n      dup1\n      dup4\n      gt\n      tag_116\n      jumpi\n      dup3\n      swap1\n      sub\n      0x1f\n      and\n      dup3\n      add\n      swap2\n    tag_114:\n      pop\n      pop\n      pop\n      pop\n      pop\n      swap1\n      pop\n        /* \"@openzeppelin/contracts/token/ERC20/ERC20.sol\":2074:2163  function name() public view virtual returns (string memory) {... */\n      swap1\n      jump\t// out\n        /* \"@openzeppelin/contracts/token/ERC20/ERC20.sol\":4293:4479  function approve(address spender, uint256 value) public virtual returns (bool) {... */\n    tag_35:\n        /* \"@openzeppelin/contracts/token/ERC20/ERC20.sol\":4366:4370  bool */\n      0x00\n        /* \"@openzeppelin/contracts/token/ERC20/ERC20.sol\":4382:4395  address owner */\n      dup1\n        /* \"@openzeppelin/contracts/token/ERC20/ERC20.sol\":4398:4410  _msgSender() */\n      tag_118\n        /* \"@openzeppelin/contracts/token/ERC20/ERC20.sol\":4398:4408  _msgSender */\n      tag_119\n        /* \"@openzeppelin/contracts/token/ERC20/ERC20.sol\":4398:4410  _msgSender() */\n      jump\t// in\n    tag_118:\n        /* \"@openzeppelin/contracts/token/ERC20/ERC20.sol\":4382:4410  address owner = _msgSender() */\n      swap1\n      pop\n        /* \"@openzeppelin/contracts/token/ERC20/ERC20.sol\":4420:4451  _approve(owner, spender, value) */\n      tag_120\n        /* \"@openzeppelin/contracts/token/ERC20/ERC20.sol\":4429:4434  owner */\n      dup2\n        /* \"@openzeppelin/contracts/token/ERC20/ERC20.sol\":4436:4443  spender */\n      dup6\n        /* \"@openzeppelin/contracts/token/ERC20/ERC20.sol\":4445:4450  value */\n      dup6\n        /* \"@openzeppelin/contracts/token/ERC20/ERC20.sol\":4420:4428  _approve */\n      tag_121\n        /* \"@openzeppelin/contracts/token/ERC20/ERC20.sol\":4420:4451  _approve(owner, spender, value) */\n      jump\t// in\n    tag_120:\n        /* \"@openzeppelin/contracts/token/ERC20/ERC20.sol\":4468:4472  true */\n      0x01\n        /* \"@openzeppelin/contracts/token/ERC20/ERC20.sol\":4461:4472  return true */\n      swap2\n      pop\n      pop\n        /* \"@openzeppelin/contracts/token/ERC20/ERC20.sol\":4293:4479  function approve(address spender, uint256 value) public virtual returns (bool) {... */\n      swap3\n      swap2\n      pop\n      pop\n      jump\t// out\n        /* \"@openzeppelin/contracts/token/ERC20/ERC20.sol\":3144:3241  function totalSupply() public view virtual returns (uint256) {... */\n    tag_39:\n        /* \"@openzeppelin/contracts/token/ERC20/ERC20.sol\":3196:3203  uint256 */\n      0x00\n        /* \"@openzeppelin/contracts/token/ERC20/ERC20.sol\":3222:3234  _totalSupply */\n      sload(0x02)\n        /* \"@openzeppelin/contracts/token/ERC20/ERC20.sol\":3215:3234  return _totalSupply */\n      swap1\n      pop\n        /* \"@openzeppelin/contracts/token/ERC20/ERC20.sol\":3144:3241  function totalSupply() public view virtual returns (uint256) {... */\n      swap1\n      jump\t// out\n        /* \"@openzeppelin/contracts/token/ERC20/ERC20.sol\":5039:5283  function transferFrom(address from, address to, uint256 value) public virtual returns (bool) {... */\n    tag_45:\n        /* \"@openzeppelin/contracts/token/ERC20/ERC20.sol\":5126:5130  bool */\n      0x00\n        /* \"@openzeppelin/contracts/token/ERC20/ERC20.sol\":5142:5157  address spender */\n      dup1\n        /* \"@openzeppelin/contracts/token/ERC20/ERC20.sol\":5160:5172  _msgSender() */\n      tag_124\n        /* \"@openzeppelin/contracts/token/ERC20/ERC20.sol\":5160:5170  _msgSender */\n      tag_119\n        /* \"@openzeppelin/contracts/token/ERC20/ERC20.sol\":5160:5172  _msgSender() */\n      jump\t// in\n    tag_124:\n        /* \"@openzeppelin/contracts/token/ERC20/ERC20.sol\":5142:5172  address spender = _msgSender() */\n      swap1\n      pop\n        /* \"@openzeppelin/contracts/token/ERC20/ERC20.sol\":5182:5219  _spendAllowance(from, spender, value) */\n      tag_125\n        /* \"@openzeppelin/contracts/token/ERC20/ERC20.sol\":5198:5202  from */\n      dup6\n        /* \"@openzeppelin/contracts/token/ERC20/ERC20.sol\":5204:5211  spender */\n      dup3\n        /* \"@openzeppelin/contracts/token/ERC20/ERC20.sol\":5213:5218  value */\n      dup6\n        /* \"@openzeppelin/contracts/token/ERC20/ERC20.sol\":5182:5197  _spendAllowance */\n      tag_126\n        /* \"@openzeppelin/contracts/token/ERC20/ERC20.sol\":5182:5219  _spendAllowance(from, spender, value) */\n      jump\t// in\n    tag_125:\n        /* \"@openzeppelin/contracts/token/ERC20/ERC20.sol\":5229:5255  _transfer(from, to, value) */\n      tag_127\n        /* \"@openzeppelin/contracts/token/ERC20/ERC20.sol\":5239:5243  from */\n      dup6\n        /* \"@openzeppelin/contracts/token/ERC20/ERC20.sol\":5245:5247  to */\n      dup6\n        /* \"@openzeppelin/contracts/token/ERC20/ERC20.sol\":5249:5254  value */\n      dup6\n        /* \"@openzeppelin/contracts/token/ERC20/ERC20.sol\":5229:5238  _transfer */\n      tag_128\n        /* \"@openzeppelin/contracts/token/ERC20/ERC20.sol\":5229:5255  _transfer(from, to, value) */\n      jump\t// in\n    tag_127:\n        /* \"@openzeppelin/contracts/token/ERC20/ERC20.sol\":5272:5276  true */\n      0x01\n        /* \"@openzeppelin/contracts/token/ERC20/ERC20.sol\":5265:5276  return true */\n      swap2\n      pop\n      pop\n        /* \"@openzeppelin/contracts/token/ERC20/ERC20.sol\":5039:5283  function transferFrom(address from, address to, uint256 value) public virtual returns (bool) {... */\n      swap4\n      swap3\n      pop\n      pop\n      pop\n      jump\t// out\n        /* \"@openzeppelin/contracts/token/ERC20/ERC20.sol\":3002:3084  function decimals() public view virtual returns (uint8) {... */\n    tag_48:\n        /* \"@openzeppelin/contracts/token/ERC20/ERC20.sol\":3051:3056  uint8 */\n      0x00\n        /* \"@openzeppelin/contracts/token/ERC20/ERC20.sol\":3075:3077  18 */\n      0x12\n        /* \"@openzeppelin/contracts/token/ERC20/ERC20.sol\":3068:3077  return 18 */\n      swap1\n      pop\n        /* \"@openzeppelin/contracts/token/ERC20/ERC20.sol\":3002:3084  function decimals() public view virtual returns (uint8) {... */\n      swap1\n      jump\t// out\n        /* \"@openzeppelin/contracts/token/ERC20/extensions/ERC20Permit.sol\":2656:2768  function DOMAIN_SEPARATOR() external view virtual returns (bytes32) {... */\n    tag_52:\n        /* \"@openzeppelin/contracts/token/ERC20/extensions/ERC20Permit.sol\":2715:2722  bytes32 */\n      0x00\n        /* \"@openzeppelin/contracts/token/ERC20/extensions/ERC20Permit.sol\":2741:2761  _domainSeparatorV4() */\n      tag_131\n        /* \"@openzeppelin/contracts/token/ERC20/extensions/ERC20Permit.sol\":2741:2759  _domainSeparatorV4 */\n      tag_132\n        /* \"@openzeppelin/contracts/token/ERC20/extensions/ERC20Permit.sol\":2741:2761  _domainSeparatorV4() */\n      jump\t// in\n    tag_131:\n        /* \"@openzeppelin/contracts/token/ERC20/extensions/ERC20Permit.sol\":2734:2761  return _domainSeparatorV4() */\n      swap1\n      pop\n        /* \"@openzeppelin/contracts/token/ERC20/extensions/ERC20Permit.sol\":2656:2768  function DOMAIN_SEPARATOR() external view virtual returns (bytes32) {... */\n      swap1\n      jump\t// out\n        /* \"contracts/MyToken.sol\":679:742  function unpause() public onlyOwner {... */\n    tag_56:\n        /* \"@openzeppelin/contracts/access/Ownable.sol\":1531:1544  _checkOwner() */\n      tag_134\n        /* \"@openzeppelin/contracts/access/Ownable.sol\":1531:1542  _checkOwner */\n      tag_135\n        /* \"@openzeppelin/contracts/access/Ownable.sol\":1531:1544  _checkOwner() */\n      jump\t// in\n    tag_134:\n        /* \"contracts/MyToken.sol\":725:735  _unpause() */\n      tag_137\n        /* \"contracts/MyToken.sol\":725:733  _unpause */\n      tag_138\n        /* \"contracts/MyToken.sol\":725:735  _unpause() */\n      jump\t// in\n    tag_137:\n        /* \"contracts/MyToken.sol\":679:742  function unpause() public onlyOwner {... */\n      jump\t// out\n        /* \"contracts/MyToken.sol\":748:841  function mint(address to, uint256 amount) public onlyOwner {... */\n    tag_59:\n        /* \"@openzeppelin/contracts/access/Ownable.sol\":1531:1544  _checkOwner() */\n      tag_140\n        /* \"@openzeppelin/contracts/access/Ownable.sol\":1531:1542  _checkOwner */\n      tag_135\n        /* \"@openzeppelin/contracts/access/Ownable.sol\":1531:1544  _checkOwner() */\n      jump\t// in\n    tag_140:\n        /* \"contracts/MyToken.sol\":817:834  _mint(to, amount) */\n      tag_142\n        /* \"contracts/MyToken.sol\":823:825  to */\n      dup3\n        /* \"contracts/MyToken.sol\":827:833  amount */\n      dup3\n        /* \"contracts/MyToken.sol\":817:822  _mint */\n      tag_143\n        /* \"contracts/MyToken.sol\":817:834  _mint(to, amount) */\n      jump\t// in\n    tag_142:\n        /* \"contracts/MyToken.sol\":748:841  function mint(address to, uint256 amount) public onlyOwner {... */\n      pop\n      pop\n      jump\t// out\n        /* \"@openzeppelin/contracts/token/ERC20/extensions/ERC20Burnable.sol\":618:705  function burn(uint256 value) public virtual {... */\n    tag_63:\n        /* \"@openzeppelin/contracts/token/ERC20/extensions/ERC20Burnable.sol\":672:698  _burn(_msgSender(), value) */\n      tag_145\n        /* \"@openzeppelin/contracts/token/ERC20/extensions/ERC20Burnable.sol\":678:690  _msgSender() */\n      tag_146\n        /* \"@openzeppelin/contracts/token/ERC20/extensions/ERC20Burnable.sol\":678:688  _msgSender */\n      tag_119\n        /* \"@openzeppelin/contracts/token/ERC20/extensions/ERC20Burnable.sol\":678:690  _msgSender() */\n      jump\t// in\n    tag_146:\n        /* \"@openzeppelin/contracts/token/ERC20/extensions/ERC20Burnable.sol\":692:697  value */\n      dup3\n        /* \"@openzeppelin/contracts/token/ERC20/extensions/ERC20Burnable.sol\":672:677  _burn */\n      tag_147\n        /* \"@openzeppelin/contracts/token/ERC20/extensions/ERC20Burnable.sol\":672:698  _burn(_msgSender(), value) */\n      jump\t// in\n    tag_145:\n        /* \"@openzeppelin/contracts/token/ERC20/extensions/ERC20Burnable.sol\":618:705  function burn(uint256 value) public virtual {... */\n      pop\n      jump\t// out\n        /* \"@openzeppelin/contracts/utils/Pausable.sol\":1850:1934  function paused() public view virtual returns (bool) {... */\n    tag_65:\n        /* \"@openzeppelin/contracts/utils/Pausable.sol\":1897:1901  bool */\n      0x00\n        /* \"@openzeppelin/contracts/utils/Pausable.sol\":1920:1927  _paused */\n      0x05\n      0x00\n      swap1\n      sload\n      swap1\n      0x0100\n      exp\n      swap1\n      div\n      0xff\n      and\n        /* \"@openzeppelin/contracts/utils/Pausable.sol\":1913:1927  return _paused */\n      swap1\n      pop\n        /* \"@openzeppelin/contracts/utils/Pausable.sol\":1850:1934  function paused() public view virtual returns (bool) {... */\n      swap1\n      jump\t// out\n        /* \"@openzeppelin/contracts/token/ERC20/ERC20.sol\":3299:3415  function balanceOf(address account) public view virtual returns (uint256) {... */\n    tag_70:\n        /* \"@openzeppelin/contracts/token/ERC20/ERC20.sol\":3364:3371  uint256 */\n      0x00\n        /* \"@openzeppelin/contracts/token/ERC20/ERC20.sol\":3390:3399  _balances */\n      dup1\n        /* \"@openzeppelin/contracts/token/ERC20/ERC20.sol\":3390:3408  _balances[account] */\n      0x00\n        /* \"@openzeppelin/contracts/token/ERC20/ERC20.sol\":3400:3407  account */\n      dup4\n        /* \"@openzeppelin/contracts/token/ERC20/ERC20.sol\":3390:3408  _balances[account] */\n      0xffffffffffffffffffffffffffffffffffffffff\n      and\n      0xffffffffffffffffffffffffffffffffffffffff\n      and\n      dup2\n      mstore\n      0x20\n      add\n      swap1\n      dup2\n      mstore\n      0x20\n      add\n      0x00\n      keccak256\n      sload\n        /* \"@openzeppelin/contracts/token/ERC20/ERC20.sol\":3383:3408  return _balances[account] */\n      swap1\n      pop\n        /* \"@openzeppelin/contracts/token/ERC20/ERC20.sol\":3299:3415  function balanceOf(address account) public view virtual returns (uint256) {... */\n      swap2\n      swap1\n      pop\n      jump\t// out\n        /* \"@openzeppelin/contracts/access/Ownable.sol\":2293:2394  function renounceOwnership() public virtual onlyOwner {... */\n    tag_73:\n        /* \"@openzeppelin/contracts/access/Ownable.sol\":1531:1544  _checkOwner() */\n      tag_151\n        /* \"@openzeppelin/contracts/access/Ownable.sol\":1531:1542  _checkOwner */\n      tag_135\n        /* \"@openzeppelin/contracts/access/Ownable.sol\":1531:1544  _checkOwner() */\n      jump\t// in\n    tag_151:\n        /* \"@openzeppelin/contracts/access/Ownable.sol\":2357:2387  _transferOwnership(address(0)) */\n      tag_153\n        /* \"@openzeppelin/contracts/access/Ownable.sol\":2384:2385  0 */\n      0x00\n        /* \"@openzeppelin/contracts/access/Ownable.sol\":2357:2375  _transferOwnership */\n      tag_154\n        /* \"@openzeppelin/contracts/access/Ownable.sol\":2357:2387  _transferOwnership(address(0)) */\n      jump\t// in\n    tag_153:\n        /* \"@openzeppelin/contracts/access/Ownable.sol\":2293:2394  function renounceOwnership() public virtual onlyOwner {... */\n      jump\t// out\n        /* \"@openzeppelin/contracts/token/ERC20/extensions/ERC20Burnable.sol\":1021:1179  function burnFrom(address account, uint256 value) public virtual {... */\n    tag_76:\n        /* \"@openzeppelin/contracts/token/ERC20/extensions/ERC20Burnable.sol\":1096:1141  _spendAllowance(account, _msgSender(), value) */\n      tag_156\n        /* \"@openzeppelin/contracts/token/ERC20/extensions/ERC20Burnable.sol\":1112:1119  account */\n      dup3\n        /* \"@openzeppelin/contracts/token/ERC20/extensions/ERC20Burnable.sol\":1121:1133  _msgSender() */\n      tag_157\n        /* \"@openzeppelin/contracts/token/ERC20/extensions/ERC20Burnable.sol\":1121:1131  _msgSender */\n      tag_119\n        /* \"@openzeppelin/contracts/token/ERC20/extensions/ERC20Burnable.sol\":1121:1133  _msgSender() */\n      jump\t// in\n    tag_157:\n        /* \"@openzeppelin/contracts/token/ERC20/extensions/ERC20Burnable.sol\":1135:1140  value */\n      dup4\n        /* \"@openzeppelin/contracts/token/ERC20/extensions/ERC20Burnable.sol\":1096:1111  _spendAllowance */\n      tag_126\n        /* \"@openzeppelin/contracts/token/ERC20/extensions/ERC20Burnable.sol\":1096:1141  _spendAllowance(account, _msgSender(), value) */\n      jump\t// in\n    tag_156:\n        /* \"@openzeppelin/contracts/token/ERC20/extensions/ERC20Burnable.sol\":1151:1172  _burn(account, value) */\n      tag_158\n        /* \"@openzeppelin/contracts/token/ERC20/extensions/ERC20Burnable.sol\":1157:1164  account */\n      dup3\n        /* \"@openzeppelin/contracts/token/ERC20/extensions/ERC20Burnable.sol\":1166:1171  value */\n      dup3\n        /* \"@openzeppelin/contracts/token/ERC20/extensions/ERC20Burnable.sol\":1151:1156  _burn */\n      tag_147\n        /* \"@openzeppelin/contracts/token/ERC20/extensions/ERC20Burnable.sol\":1151:1172  _burn(account, value) */\n      jump\t// in\n    tag_158:\n        /* \"@openzeppelin/contracts/token/ERC20/extensions/ERC20Burnable.sol\":1021:1179  function burnFrom(address account, uint256 value) public virtual {... */\n      pop\n      pop\n      jump\t// out\n        /* \"@openzeppelin/contracts/token/ERC20/extensions/ERC20Permit.sol\":2406:2549  function nonces(address owner) public view virtual override(IERC20Permit, Nonces) returns (uint256) {... */\n    tag_79:\n        /* \"@openzeppelin/contracts/token/ERC20/extensions/ERC20Permit.sol\":2497:2504  uint256 */\n      0x00\n        /* \"@openzeppelin/contracts/token/ERC20/extensions/ERC20Permit.sol\":2523:2542  super.nonces(owner) */\n      tag_160\n        /* \"@openzeppelin/contracts/token/ERC20/extensions/ERC20Permit.sol\":2536:2541  owner */\n      dup3\n        /* \"@openzeppelin/contracts/token/ERC20/extensions/ERC20Permit.sol\":2523:2535  super.nonces */\n      tag_161\n        /* \"@openzeppelin/contracts/token/ERC20/extensions/ERC20Permit.sol\":2523:2542  super.nonces(owner) */\n      jump\t// in\n    tag_160:\n        /* \"@openzeppelin/contracts/token/ERC20/extensions/ERC20Permit.sol\":2516:2542  return super.nonces(owner) */\n      swap1\n      pop\n        /* \"@openzeppelin/contracts/token/ERC20/extensions/ERC20Permit.sol\":2406:2549  function nonces(address owner) public view virtual override(IERC20Permit, Nonces) returns (uint256) {... */\n      swap2\n      swap1\n      pop\n      jump\t// out\n        /* \"contracts/MyToken.sol\":614:673  function pause() public onlyOwner {... */\n    tag_82:\n        /* \"@openzeppelin/contracts/access/Ownable.sol\":1531:1544  _checkOwner() */\n      tag_163\n        /* \"@openzeppelin/contracts/access/Ownable.sol\":1531:1542  _checkOwner */\n      tag_135\n        /* \"@openzeppelin/contracts/access/Ownable.sol\":1531:1544  _checkOwner() */\n      jump\t// in\n    tag_163:\n        /* \"contracts/MyToken.sol\":658:666  _pause() */\n      tag_165\n        /* \"contracts/MyToken.sol\":658:664  _pause */\n      tag_166\n        /* \"contracts/MyToken.sol\":658:666  _pause() */\n      jump\t// in\n    tag_165:\n        /* \"contracts/MyToken.sol\":614:673  function pause() public onlyOwner {... */\n      jump\t// out\n        /* \"@openzeppelin/contracts/utils/cryptography/EIP712.sol\":5144:5701  function eip712Domain()... */\n    tag_84:\n        /* \"@openzeppelin/contracts/utils/cryptography/EIP712.sol\":5242:5255  bytes1 fields */\n      0x00\n        /* \"@openzeppelin/contracts/utils/cryptography/EIP712.sol\":5269:5287  string memory name */\n      0x60\n        /* \"@openzeppelin/contracts/utils/cryptography/EIP712.sol\":5301:5322  string memory version */\n      dup1\n        /* \"@openzeppelin/contracts/utils/cryptography/EIP712.sol\":5336:5351  uint256 chainId */\n      0x00\n        /* \"@openzeppelin/contracts/utils/cryptography/EIP712.sol\":5365:5390  address verifyingContract */\n      dup1\n        /* \"@openzeppelin/contracts/utils/cryptography/EIP712.sol\":5404:5416  bytes32 salt */\n      0x00\n        /* \"@openzeppelin/contracts/utils/cryptography/EIP712.sol\":5430:5457  uint256[] memory extensions */\n      0x60\n        /* \"@openzeppelin/contracts/utils/cryptography/EIP712.sol\":5533:5546  _EIP712Name() */\n      tag_168\n        /* \"@openzeppelin/contracts/utils/cryptography/EIP712.sol\":5533:5544  _EIP712Name */\n      tag_169\n        /* \"@openzeppelin/contracts/utils/cryptography/EIP712.sol\":5533:5546  _EIP712Name() */\n      jump\t// in\n    tag_168:\n        /* \"@openzeppelin/contracts/utils/cryptography/EIP712.sol\":5560:5576  _EIP712Version() */\n      tag_170\n        /* \"@openzeppelin/contracts/utils/cryptography/EIP712.sol\":5560:5574  _EIP712Version */\n      tag_171\n        /* \"@openzeppelin/contracts/utils/cryptography/EIP712.sol\":5560:5576  _EIP712Version() */\n      jump\t// in\n    tag_170:\n        /* \"@openzeppelin/contracts/utils/cryptography/EIP712.sol\":5590:5603  block.chainid */\n      chainid\n        /* \"@openzeppelin/contracts/utils/cryptography/EIP712.sol\":5625:5629  this */\n      address\n        /* \"@openzeppelin/contracts/utils/cryptography/EIP712.sol\":5652:5653  0 */\n      0x00\n        /* \"@openzeppelin/contracts/utils/cryptography/EIP712.sol\":5644:5654  bytes32(0) */\n      dup1\n      shl\n        /* \"@openzeppelin/contracts/utils/cryptography/EIP712.sol\":5682:5683  0 */\n      0x00\n        /* \"@openzeppelin/contracts/utils/cryptography/EIP712.sol\":5668:5684  new uint256[](0) */\n      0xffffffffffffffff\n      dup2\n      gt\n      iszero\n      tag_172\n      jumpi\n      tag_173\n      tag_174\n      jump\t// in\n    tag_173:\n    tag_172:\n      mload(0x40)\n      swap1\n      dup1\n      dup3\n      mstore\n      dup1\n      0x20\n      mul\n      0x20\n      add\n      dup3\n      add\n      0x40\n      mstore\n      dup1\n      iszero\n      tag_175\n      jumpi\n      dup2\n      0x20\n      add\n      0x20\n      dup3\n      mul\n      dup1\n      calldatasize\n      dup4\n      calldatacopy\n      dup1\n      dup3\n      add\n      swap2\n      pop\n      pop\n      swap1\n      pop\n    tag_175:\n      pop\n        /* \"@openzeppelin/contracts/utils/cryptography/EIP712.sol\":5482:5694  return (... */\n      0x0f00000000000000000000000000000000000000000000000000000000000000\n      swap6\n      swap5\n      swap4\n      swap3\n      swap2\n      swap1\n      swap7\n      pop\n      swap7\n      pop\n      swap7\n      pop\n      swap7\n      pop\n      swap7\n      pop\n      swap7\n      pop\n      swap7\n      pop\n        /* \"@openzeppelin/contracts/utils/cryptography/EIP712.sol\":5144:5701  function eip712Domain()... */\n      swap1\n      swap2\n      swap3\n      swap4\n      swap5\n      swap6\n      swap7\n      jump\t// out\n        /* \"@openzeppelin/contracts/access/Ownable.sol\":1638:1723  function owner() public view virtual returns (address) {... */\n    tag_88:\n        /* \"@openzeppelin/contracts/access/Ownable.sol\":1684:1691  address */\n      0x00\n        /* \"@openzeppelin/contracts/access/Ownable.sol\":1710:1716  _owner */\n      0x05\n      0x01\n      swap1\n      sload\n      swap1\n      0x0100\n      exp\n      swap1\n      div\n      0xffffffffffffffffffffffffffffffffffffffff\n      and\n        /* \"@openzeppelin/contracts/access/Ownable.sol\":1703:1716  return _owner */\n      swap1\n      pop\n        /* \"@openzeppelin/contracts/access/Ownable.sol\":1638:1723  function owner() public view virtual returns (address) {... */\n      swap1\n      jump\t// out\n        /* \"@openzeppelin/contracts/token/ERC20/ERC20.sol\":2276:2369  function symbol() public view virtual returns (string memory) {... */\n    tag_92:\n        /* \"@openzeppelin/contracts/token/ERC20/ERC20.sol\":2323:2336  string memory */\n      0x60\n        /* \"@openzeppelin/contracts/token/ERC20/ERC20.sol\":2355:2362  _symbol */\n      0x04\n        /* \"@openzeppelin/contracts/token/ERC20/ERC20.sol\":2348:2362  return _symbol */\n      dup1\n      sload\n      tag_178\n      swap1\n      tag_112\n      jump\t// in\n    tag_178:\n      dup1\n      0x1f\n      add\n      0x20\n      dup1\n      swap2\n      div\n      mul\n      0x20\n      add\n      mload(0x40)\n      swap1\n      dup2\n      add\n      0x40\n      mstore\n      dup1\n      swap3\n      swap2\n      swap1\n      dup2\n      dup2\n      mstore\n      0x20\n      add\n      dup3\n      dup1\n      sload\n      tag_179\n      swap1\n      tag_112\n      jump\t// in\n    tag_179:\n      dup1\n      iszero\n      tag_180\n      jumpi\n      dup1\n      0x1f\n      lt\n      tag_181\n      jumpi\n      0x0100\n      dup1\n      dup4\n      sload\n      div\n      mul\n      dup4\n      mstore\n      swap2\n      0x20\n      add\n      swap2\n      jump(tag_180)\n    tag_181:\n      dup3\n      add\n      swap2\n      swap1\n      0x00\n      mstore\n      keccak256(0x00, 0x20)\n      swap1\n    tag_182:\n      dup2\n      sload\n      dup2\n      mstore\n      swap1\n      0x01\n      add\n      swap1\n      0x20\n      add\n      dup1\n      dup4\n      gt\n      tag_182\n      jumpi\n      dup3\n      swap1\n      sub\n      0x1f\n      and\n      dup3\n      add\n      swap2\n    tag_180:\n      pop\n      pop\n      pop\n      pop\n      pop\n      swap1\n      pop\n        /* \"@openzeppelin/contracts/token/ERC20/ERC20.sol\":2276:2369  function symbol() public view virtual returns (string memory) {... */\n      swap1\n      jump\t// out\n        /* \"@openzeppelin/contracts/token/ERC20/ERC20.sol\":3610:3788  function transfer(address to, uint256 value) public virtual returns (bool) {... */\n    tag_96:\n        /* \"@openzeppelin/contracts/token/ERC20/ERC20.sol\":3679:3683  bool */\n      0x00\n        /* \"@openzeppelin/contracts/token/ERC20/ERC20.sol\":3695:3708  address owner */\n      dup1\n        /* \"@openzeppelin/contracts/token/ERC20/ERC20.sol\":3711:3723  _msgSender() */\n      tag_184\n        /* \"@openzeppelin/contracts/token/ERC20/ERC20.sol\":3711:3721  _msgSender */\n      tag_119\n        /* \"@openzeppelin/contracts/token/ERC20/ERC20.sol\":3711:3723  _msgSender() */\n      jump\t// in\n    tag_184:\n        /* \"@openzeppelin/contracts/token/ERC20/ERC20.sol\":3695:3723  address owner = _msgSender() */\n      swap1\n      pop\n        /* \"@openzeppelin/contracts/token/ERC20/ERC20.sol\":3733:3760  _transfer(owner, to, value) */\n      tag_185\n        /* \"@openzeppelin/contracts/token/ERC20/ERC20.sol\":3743:3748  owner */\n      dup2\n        /* \"@openzeppelin/contracts/token/ERC20/ERC20.sol\":3750:3752  to */\n      dup6\n        /* \"@openzeppelin/contracts/token/ERC20/ERC20.sol\":3754:3759  value */\n      dup6\n        /* \"@openzeppelin/contracts/token/ERC20/ERC20.sol\":3733:3742  _transfer */\n      tag_128\n        /* \"@openzeppelin/contracts/token/ERC20/ERC20.sol\":3733:3760  _transfer(owner, to, value) */\n      jump\t// in\n    tag_185:\n        /* \"@openzeppelin/contracts/token/ERC20/ERC20.sol\":3777:3781  true */\n      0x01\n        /* \"@openzeppelin/contracts/token/ERC20/ERC20.sol\":3770:3781  return true */\n      swap2\n      pop\n      pop\n        /* \"@openzeppelin/contracts/token/ERC20/ERC20.sol\":3610:3788  function transfer(address to, uint256 value) public virtual returns (bool) {... */\n      swap3\n      swap2\n      pop\n      pop\n      jump\t// out\n        /* \"@openzeppelin/contracts/token/ERC20/extensions/ERC20Permit.sol\":1680:2352  function permit(... */\n    tag_101:\n        /* \"@openzeppelin/contracts/token/ERC20/extensions/ERC20Permit.sol\":1901:1909  deadline */\n      dup4\n        /* \"@openzeppelin/contracts/token/ERC20/extensions/ERC20Permit.sol\":1883:1898  block.timestamp */\n      timestamp\n        /* \"@openzeppelin/contracts/token/ERC20/extensions/ERC20Permit.sol\":1883:1909  block.timestamp > deadline */\n      gt\n        /* \"@openzeppelin/contracts/token/ERC20/extensions/ERC20Permit.sol\":1879:1976  if (block.timestamp > deadline) {... */\n      iszero\n      tag_187\n      jumpi\n        /* \"@openzeppelin/contracts/token/ERC20/extensions/ERC20Permit.sol\":1956:1964  deadline */\n      dup4\n        /* \"@openzeppelin/contracts/token/ERC20/extensions/ERC20Permit.sol\":1932:1965  ERC2612ExpiredSignature(deadline) */\n      mload(0x40)\n      0x6279130200000000000000000000000000000000000000000000000000000000\n      dup2\n      mstore\n      0x04\n      add\n      tag_188\n      swap2\n      swap1\n      tag_41\n      jump\t// in\n    tag_188:\n      mload(0x40)\n      dup1\n      swap2\n      sub\n      swap1\n      revert\n        /* \"@openzeppelin/contracts/token/ERC20/extensions/ERC20Permit.sol\":1879:1976  if (block.timestamp > deadline) {... */\n    tag_187:\n        /* \"@openzeppelin/contracts/token/ERC20/extensions/ERC20Permit.sol\":1986:2004  bytes32 structHash */\n      0x00\n        /* \"@openzeppelin/contracts/token/ERC20/extensions/ERC20Permit.sol\":1022:1117  keccak256(\"Permit(address owner,address spender,uint256 value,uint256 nonce,uint256 deadline)\") */\n      0x6e71edae12b1b97f4d1f60370fef10105fa2faae0126114a169c64845d6126c9\n        /* \"@openzeppelin/contracts/token/ERC20/extensions/ERC20Permit.sol\":2045:2050  owner */\n      dup9\n        /* \"@openzeppelin/contracts/token/ERC20/extensions/ERC20Permit.sol\":2052:2059  spender */\n      dup9\n        /* \"@openzeppelin/contracts/token/ERC20/extensions/ERC20Permit.sol\":2061:2066  value */\n      dup9\n        /* \"@openzeppelin/contracts/token/ERC20/extensions/ERC20Permit.sol\":2068:2084  _useNonce(owner) */\n      tag_189\n        /* \"@openzeppelin/contracts/token/ERC20/extensions/ERC20Permit.sol\":2078:2083  owner */\n      dup13\n        /* \"@openzeppelin/contracts/token/ERC20/extensions/ERC20Permit.sol\":2068:2077  _useNonce */\n      tag_190\n        /* \"@openzeppelin/contracts/token/ERC20/extensions/ERC20Permit.sol\":2068:2084  _useNonce(owner) */\n      jump\t// in\n    tag_189:\n        /* \"@openzeppelin/contracts/token/ERC20/extensions/ERC20Permit.sol\":2086:2094  deadline */\n      dup10\n        /* \"@openzeppelin/contracts/token/ERC20/extensions/ERC20Permit.sol\":2017:2095  abi.encode(PERMIT_TYPEHASH, owner, spender, value, _useNonce(owner), deadline) */\n      add(0x20, mload(0x40))\n      tag_191\n      swap7\n      swap6\n      swap5\n      swap4\n      swap3\n      swap2\n      swap1\n      tag_192\n      jump\t// in\n    tag_191:\n      mload(0x40)\n      0x20\n      dup2\n      dup4\n      sub\n      sub\n      dup2\n      mstore\n      swap1\n      0x40\n      mstore\n        /* \"@openzeppelin/contracts/token/ERC20/extensions/ERC20Permit.sol\":2007:2096  keccak256(abi.encode(PERMIT_TYPEHASH, owner, spender, value, _useNonce(owner), deadline)) */\n      dup1\n      mload\n      swap1\n      0x20\n      add\n      keccak256\n        /* \"@openzeppelin/contracts/token/ERC20/extensions/ERC20Permit.sol\":1986:2096  bytes32 structHash = keccak256(abi.encode(PERMIT_TYPEHASH, owner, spender, value, _useNonce(owner), deadline)) */\n      swap1\n      pop\n        /* \"@openzeppelin/contracts/token/ERC20/extensions/ERC20Permit.sol\":2107:2119  bytes32 hash */\n      0x00\n        /* \"@openzeppelin/contracts/token/ERC20/extensions/ERC20Permit.sol\":2122:2150  _hashTypedDataV4(structHash) */\n      tag_193\n        /* \"@openzeppelin/contracts/token/ERC20/extensions/ERC20Permit.sol\":2139:2149  structHash */\n      dup3\n        /* \"@openzeppelin/contracts/token/ERC20/extensions/ERC20Permit.sol\":2122:2138  _hashTypedDataV4 */\n      tag_194\n        /* \"@openzeppelin/contracts/token/ERC20/extensions/ERC20Permit.sol\":2122:2150  _hashTypedDataV4(structHash) */\n      jump\t// in\n    tag_193:\n        /* \"@openzeppelin/contracts/token/ERC20/extensions/ERC20Permit.sol\":2107:2150  bytes32 hash = _hashTypedDataV4(structHash) */\n      swap1\n      pop\n        /* \"@openzeppelin/contracts/token/ERC20/extensions/ERC20Permit.sol\":2161:2175  address signer */\n      0x00\n        /* \"@openzeppelin/contracts/token/ERC20/extensions/ERC20Permit.sol\":2178:2206  ECDSA.recover(hash, v, r, s) */\n      tag_195\n        /* \"@openzeppelin/contracts/token/ERC20/extensions/ERC20Permit.sol\":2192:2196  hash */\n      dup3\n        /* \"@openzeppelin/contracts/token/ERC20/extensions/ERC20Permit.sol\":2198:2199  v */\n      dup8\n        /* \"@openzeppelin/contracts/token/ERC20/extensions/ERC20Permit.sol\":2201:2202  r */\n      dup8\n        /* \"@openzeppelin/contracts/token/ERC20/extensions/ERC20Permit.sol\":2204:2205  s */\n      dup8\n        /* \"@openzeppelin/contracts/token/ERC20/extensions/ERC20Permit.sol\":2178:2191  ECDSA.recover */\n      tag_196\n        /* \"@openzeppelin/contracts/token/ERC20/extensions/ERC20Permit.sol\":2178:2206  ECDSA.recover(hash, v, r, s) */\n      jump\t// in\n    tag_195:\n        /* \"@openzeppelin/contracts/token/ERC20/extensions/ERC20Permit.sol\":2161:2206  address signer = ECDSA.recover(hash, v, r, s) */\n      swap1\n      pop\n        /* \"@openzeppelin/contracts/token/ERC20/extensions/ERC20Permit.sol\":2230:2235  owner */\n      dup10\n        /* \"@openzeppelin/contracts/token/ERC20/extensions/ERC20Permit.sol\":2220:2235  signer != owner */\n      0xffffffffffffffffffffffffffffffffffffffff\n      and\n        /* \"@openzeppelin/contracts/token/ERC20/extensions/ERC20Permit.sol\":2220:2226  signer */\n      dup2\n        /* \"@openzeppelin/contracts/token/ERC20/extensions/ERC20Permit.sol\":2220:2235  signer != owner */\n      0xffffffffffffffffffffffffffffffffffffffff\n      and\n      eq\n        /* \"@openzeppelin/contracts/token/ERC20/extensions/ERC20Permit.sol\":2216:2304  if (signer != owner) {... */\n      tag_197\n      jumpi\n        /* \"@openzeppelin/contracts/token/ERC20/extensions/ERC20Permit.sol\":2279:2285  signer */\n      dup1\n        /* \"@openzeppelin/contracts/token/ERC20/extensions/ERC20Permit.sol\":2287:2292  owner */\n      dup11\n        /* \"@openzeppelin/contracts/token/ERC20/extensions/ERC20Permit.sol\":2258:2293  ERC2612InvalidSigner(signer, owner) */\n      mload(0x40)\n      0x4b800e4600000000000000000000000000000000000000000000000000000000\n      dup2\n      mstore\n      0x04\n      add\n      tag_198\n      swap3\n      swap2\n      swap1\n      tag_199\n      jump\t// in\n    tag_198:\n      mload(0x40)\n      dup1\n      swap2\n      sub\n      swap1\n      revert\n        /* \"@openzeppelin/contracts/token/ERC20/extensions/ERC20Permit.sol\":2216:2304  if (signer != owner) {... */\n    tag_197:\n        /* \"@openzeppelin/contracts/token/ERC20/extensions/ERC20Permit.sol\":2314:2345  _approve(owner, spender, value) */\n      tag_200\n        /* \"@openzeppelin/contracts/token/ERC20/extensions/ERC20Permit.sol\":2323:2328  owner */\n      dup11\n        /* \"@openzeppelin/contracts/token/ERC20/extensions/ERC20Permit.sol\":2330:2337  spender */\n      dup11\n        /* \"@openzeppelin/contracts/token/ERC20/extensions/ERC20Permit.sol\":2339:2344  value */\n      dup11\n        /* \"@openzeppelin/contracts/token/ERC20/extensions/ERC20Permit.sol\":2314:2322  _approve */\n      tag_121\n        /* \"@openzeppelin/contracts/token/ERC20/extensions/ERC20Permit.sol\":2314:2345  _approve(owner, spender, value) */\n      jump\t// in\n    tag_200:\n        /* \"@openzeppelin/contracts/token/ERC20/extensions/ERC20Permit.sol\":1869:2352  {... */\n      pop\n      pop\n      pop\n        /* \"@openzeppelin/contracts/token/ERC20/extensions/ERC20Permit.sol\":1680:2352  function permit(... */\n      pop\n      pop\n      pop\n      pop\n      pop\n      pop\n      pop\n      jump\t// out\n        /* \"@openzeppelin/contracts/token/ERC20/ERC20.sol\":3846:3986  function allowance(address owner, address spender) public view virtual returns (uint256) {... */\n    tag_105:\n        /* \"@openzeppelin/contracts/token/ERC20/ERC20.sol\":3926:3933  uint256 */\n      0x00\n        /* \"@openzeppelin/contracts/token/ERC20/ERC20.sol\":3952:3963  _allowances */\n      0x01\n        /* \"@openzeppelin/contracts/token/ERC20/ERC20.sol\":3952:3970  _allowances[owner] */\n      0x00\n        /* \"@openzeppelin/contracts/token/ERC20/ERC20.sol\":3964:3969  owner */\n      dup5\n        /* \"@openzeppelin/contracts/token/ERC20/ERC20.sol\":3952:3970  _allowances[owner] */\n      0xffffffffffffffffffffffffffffffffffffffff\n      and\n      0xffffffffffffffffffffffffffffffffffffffff\n      and\n      dup2\n      mstore\n      0x20\n      add\n      swap1\n      dup2\n      mstore\n      0x20\n      add\n      0x00\n      keccak256\n        /* \"@openzeppelin/contracts/token/ERC20/ERC20.sol\":3952:3979  _allowances[owner][spender] */\n      0x00\n        /* \"@openzeppelin/contracts/token/ERC20/ERC20.sol\":3971:3978  spender */\n      dup4\n        /* \"@openzeppelin/contracts/token/ERC20/ERC20.sol\":3952:3979  _allowances[owner][spender] */\n      0xffffffffffffffffffffffffffffffffffffffff\n      and\n      0xffffffffffffffffffffffffffffffffffffffff\n      and\n      dup2\n      mstore\n      0x20\n      add\n      swap1\n      dup2\n      mstore\n      0x20\n      add\n      0x00\n      keccak256\n      sload\n        /* \"@openzeppelin/contracts/token/ERC20/ERC20.sol\":3945:3979  return _allowances[owner][spender] */\n      swap1\n      pop\n        /* \"@openzeppelin/contracts/token/ERC20/ERC20.sol\":3846:3986  function allowance(address owner, address spender) public view virtual returns (uint256) {... */\n      swap3\n      swap2\n      pop\n      pop\n      jump\t// out\n        /* \"@openzeppelin/contracts/access/Ownable.sol\":2543:2758  function transferOwnership(address newOwner) public virtual onlyOwner {... */\n    tag_109:\n        /* \"@openzeppelin/contracts/access/Ownable.sol\":1531:1544  _checkOwner() */\n      tag_203\n        /* \"@openzeppelin/contracts/access/Ownable.sol\":1531:1542  _checkOwner */\n      tag_135\n        /* \"@openzeppelin/contracts/access/Ownable.sol\":1531:1544  _checkOwner() */\n      jump\t// in\n    tag_203:\n        /* \"@openzeppelin/contracts/access/Ownable.sol\":2647:2648  0 */\n      0x00\n        /* \"@openzeppelin/contracts/access/Ownable.sol\":2627:2649  newOwner == address(0) */\n      0xffffffffffffffffffffffffffffffffffffffff\n      and\n        /* \"@openzeppelin/contracts/access/Ownable.sol\":2627:2635  newOwner */\n      dup2\n        /* \"@openzeppelin/contracts/access/Ownable.sol\":2627:2649  newOwner == address(0) */\n      0xffffffffffffffffffffffffffffffffffffffff\n      and\n      sub\n        /* \"@openzeppelin/contracts/access/Ownable.sol\":2623:2714  if (newOwner == address(0)) {... */\n      tag_205\n      jumpi\n        /* \"@openzeppelin/contracts/access/Ownable.sol\":2700:2701  0 */\n      0x00\n        /* \"@openzeppelin/contracts/access/Ownable.sol\":2672:2703  OwnableInvalidOwner(address(0)) */\n      mload(0x40)\n      0x1e4fbdf700000000000000000000000000000000000000000000000000000000\n      dup2\n      mstore\n      0x04\n      add\n      tag_206\n      swap2\n      swap1\n      tag_90\n      jump\t// in\n    tag_206:\n      mload(0x40)\n      dup1\n      swap2\n      sub\n      swap1\n      revert\n        /* \"@openzeppelin/contracts/access/Ownable.sol\":2623:2714  if (newOwner == address(0)) {... */\n    tag_205:\n        /* \"@openzeppelin/contracts/access/Ownable.sol\":2723:2751  _transferOwnership(newOwner) */\n      tag_207\n        /* \"@openzeppelin/contracts/access/Ownable.sol\":2742:2750  newOwner */\n      dup2\n        /* \"@openzeppelin/contracts/access/Ownable.sol\":2723:2741  _transferOwnership */\n      tag_154\n        /* \"@openzeppelin/contracts/access/Ownable.sol\":2723:2751  _transferOwnership(newOwner) */\n      jump\t// in\n    tag_207:\n        /* \"@openzeppelin/contracts/access/Ownable.sol\":2543:2758  function transferOwnership(address newOwner) public virtual onlyOwner {... */\n      pop\n      jump\t// out\n        /* \"@openzeppelin/contracts/utils/Context.sol\":656:752  function _msgSender() internal view virtual returns (address) {... */\n    tag_119:\n        /* \"@openzeppelin/contracts/utils/Context.sol\":709:716  address */\n      0x00\n        /* \"@openzeppelin/contracts/utils/Context.sol\":735:745  msg.sender */\n      caller\n        /* \"@openzeppelin/contracts/utils/Context.sol\":728:745  return msg.sender */\n      swap1\n      pop\n        /* \"@openzeppelin/contracts/utils/Context.sol\":656:752  function _msgSender() internal view virtual returns (address) {... */\n      swap1\n      jump\t// out\n        /* \"@openzeppelin/contracts/token/ERC20/ERC20.sol\":8989:9117  function _approve(address owner, address spender, uint256 value) internal {... */\n    tag_121:\n        /* \"@openzeppelin/contracts/token/ERC20/ERC20.sol\":9073:9110  _approve(owner, spender, value, true) */\n      tag_210\n        /* \"@openzeppelin/contracts/token/ERC20/ERC20.sol\":9082:9087  owner */\n      dup4\n        /* \"@openzeppelin/contracts/token/ERC20/ERC20.sol\":9089:9096  spender */\n      dup4\n        /* \"@openzeppelin/contracts/token/ERC20/ERC20.sol\":9098:9103  value */\n      dup4\n        /* \"@openzeppelin/contracts/token/ERC20/ERC20.sol\":9105:9109  true */\n      0x01\n        /* \"@openzeppelin/contracts/token/ERC20/ERC20.sol\":9073:9081  _approve */\n      tag_211\n        /* \"@openzeppelin/contracts/token/ERC20/ERC20.sol\":9073:9110  _approve(owner, spender, value, true) */\n      jump\t// in\n    tag_210:\n        /* \"@openzeppelin/contracts/token/ERC20/ERC20.sol\":8989:9117  function _approve(address owner, address spender, uint256 value) internal {... */\n      pop\n      pop\n      pop\n      jump\t// out\n        /* \"@openzeppelin/contracts/token/ERC20/ERC20.sol\":10663:11140  function _spendAllowance(address owner, address spender, uint256 value) internal virtual {... */\n    tag_126:\n        /* \"@openzeppelin/contracts/token/ERC20/ERC20.sol\":10762:10786  uint256 currentAllowance */\n      0x00\n        /* \"@openzeppelin/contracts/token/ERC20/ERC20.sol\":10789:10814  allowance(owner, spender) */\n      tag_213\n        /* \"@openzeppelin/contracts/token/ERC20/ERC20.sol\":10799:10804  owner */\n      dup5\n        /* \"@openzeppelin/contracts/token/ERC20/ERC20.sol\":10806:10813  spender */\n      dup5\n        /* \"@openzeppelin/contracts/token/ERC20/ERC20.sol\":10789:10798  allowance */\n      tag_105\n        /* \"@openzeppelin/contracts/token/ERC20/ERC20.sol\":10789:10814  allowance(owner, spender) */\n      jump\t// in\n    tag_213:\n        /* \"@openzeppelin/contracts/token/ERC20/ERC20.sol\":10762:10814  uint256 currentAllowance = allowance(owner, spender) */\n      swap1\n      pop\n        /* \"@openzeppelin/contracts/token/ERC20/ERC20.sol\":10848:10865  type(uint256).max */\n      0xffffffffffffffffffffffffffffffffffffffffffffffffffffffffffffffff\n        /* \"@openzeppelin/contracts/token/ERC20/ERC20.sol\":10828:10844  currentAllowance */\n      dup2\n        /* \"@openzeppelin/contracts/token/ERC20/ERC20.sol\":10828:10865  currentAllowance != type(uint256).max */\n      eq\n        /* \"@openzeppelin/contracts/token/ERC20/ERC20.sol\":10824:11134  if (currentAllowance != type(uint256).max) {... */\n      tag_214\n      jumpi\n        /* \"@openzeppelin/contracts/token/ERC20/ERC20.sol\":10904:10909  value */\n      dup2\n        /* \"@openzeppelin/contracts/token/ERC20/ERC20.sol\":10885:10901  currentAllowance */\n      dup2\n        /* \"@openzeppelin/contracts/token/ERC20/ERC20.sol\":10885:10909  currentAllowance < value */\n      lt\n        /* \"@openzeppelin/contracts/token/ERC20/ERC20.sol\":10881:11011  if (currentAllowance < value) {... */\n      iszero\n      tag_215\n      jumpi\n        /* \"@openzeppelin/contracts/token/ERC20/ERC20.sol\":10963:10970  spender */\n      dup3\n        /* \"@openzeppelin/contracts/token/ERC20/ERC20.sol\":10972:10988  currentAllowance */\n      dup2\n        /* \"@openzeppelin/contracts/token/ERC20/ERC20.sol\":10990:10995  value */\n      dup4\n        /* \"@openzeppelin/contracts/token/ERC20/ERC20.sol\":10936:10996  ERC20InsufficientAllowance(spender, currentAllowance, value) */\n      mload(0x40)\n      0xfb8f41b200000000000000000000000000000000000000000000000000000000\n      dup2\n      mstore\n      0x04\n      add\n      tag_216\n      swap4\n      swap3\n      swap2\n      swap1\n      tag_217\n      jump\t// in\n    tag_216:\n      mload(0x40)\n      dup1\n      swap2\n      sub\n      swap1\n      revert\n        /* \"@openzeppelin/contracts/token/ERC20/ERC20.sol\":10881:11011  if (currentAllowance < value) {... */\n    tag_215:\n        /* \"@openzeppelin/contracts/token/ERC20/ERC20.sol\":11052:11109  _approve(owner, spender, currentAllowance - value, false) */\n      tag_218\n        /* \"@openzeppelin/contracts/token/ERC20/ERC20.sol\":11061:11066  owner */\n      dup5\n        /* \"@openzeppelin/contracts/token/ERC20/ERC20.sol\":11068:11075  spender */\n      dup5\n        /* \"@openzeppelin/contracts/token/ERC20/ERC20.sol\":11096:11101  value */\n      dup5\n        /* \"@openzeppelin/contracts/token/ERC20/ERC20.sol\":11077:11093  currentAllowance */\n      dup5\n        /* \"@openzeppelin/contracts/token/ERC20/ERC20.sol\":11077:11101  currentAllowance - value */\n      sub\n        /* \"@openzeppelin/contracts/token/ERC20/ERC20.sol\":11103:11108  false */\n      0x00\n        /* \"@openzeppelin/contracts/token/ERC20/ERC20.sol\":11052:11060  _approve */\n      tag_211\n        /* \"@openzeppelin/contracts/token/ERC20/ERC20.sol\":11052:11109  _approve(owner, spender, currentAllowance - value, false) */\n      jump\t// in\n    tag_218:\n        /* \"@openzeppelin/contracts/token/ERC20/ERC20.sol\":10824:11134  if (currentAllowance != type(uint256).max) {... */\n    tag_214:\n        /* \"@openzeppelin/contracts/token/ERC20/ERC20.sol\":10752:11140  {... */\n      pop\n        /* \"@openzeppelin/contracts/token/ERC20/ERC20.sol\":10663:11140  function _spendAllowance(address owner, address spender, uint256 value) internal virtual {... */\n      pop\n      pop\n      pop\n      jump\t// out\n        /* \"@openzeppelin/contracts/token/ERC20/ERC20.sol\":5656:5956  function _transfer(address from, address to, uint256 value) internal {... */\n    tag_128:\n        /* \"@openzeppelin/contracts/token/ERC20/ERC20.sol\":5755:5756  0 */\n      0x00\n        /* \"@openzeppelin/contracts/token/ERC20/ERC20.sol\":5739:5757  from == address(0) */\n      0xffffffffffffffffffffffffffffffffffffffff\n      and\n        /* \"@openzeppelin/contracts/token/ERC20/ERC20.sol\":5739:5743  from */\n      dup4\n        /* \"@openzeppelin/contracts/token/ERC20/ERC20.sol\":5739:5757  from == address(0) */\n      0xffffffffffffffffffffffffffffffffffffffff\n      and\n      sub\n        /* \"@openzeppelin/contracts/token/ERC20/ERC20.sol\":5735:5821  if (from == address(0)) {... */\n      tag_220\n      jumpi\n        /* \"@openzeppelin/contracts/token/ERC20/ERC20.sol\":5807:5808  0 */\n      0x00\n        /* \"@openzeppelin/contracts/token/ERC20/ERC20.sol\":5780:5810  ERC20InvalidSender(address(0)) */\n      mload(0x40)\n      0x96c6fd1e00000000000000000000000000000000000000000000000000000000\n      dup2\n      mstore\n      0x04\n      add\n      tag_221\n      swap2\n      swap1\n      tag_90\n      jump\t// in\n    tag_221:\n      mload(0x40)\n      dup1\n      swap2\n      sub\n      swap1\n      revert\n        /* \"@openzeppelin/contracts/token/ERC20/ERC20.sol\":5735:5821  if (from == address(0)) {... */\n    tag_220:\n        /* \"@openzeppelin/contracts/token/ERC20/ERC20.sol\":5848:5849  0 */\n      0x00\n        /* \"@openzeppelin/contracts/token/ERC20/ERC20.sol\":5834:5850  to == address(0) */\n      0xffffffffffffffffffffffffffffffffffffffff\n      and\n        /* \"@openzeppelin/contracts/token/ERC20/ERC20.sol\":5834:5836  to */\n      dup3\n        /* \"@openzeppelin/contracts/token/ERC20/ERC20.sol\":5834:5850  to == address(0) */\n      0xffffffffffffffffffffffffffffffffffffffff\n      and\n      sub\n        /* \"@openzeppelin/contracts/token/ERC20/ERC20.sol\":5830:5916  if (to == address(0)) {... */\n      tag_222\n      jumpi\n        /* \"@openzeppelin/contracts/token/ERC20/ERC20.sol\":5902:5903  0 */\n      0x00\n        /* \"@openzeppelin/contracts/token/ERC20/ERC20.sol\":5873:5905  ERC20InvalidReceiver(address(0)) */\n      mload(0x40)\n      0xec442f0500000000000000000000000000000000000000000000000000000000\n      dup2\n      mstore\n      0x04\n      add\n      tag_223\n      swap2\n      swap1\n      tag_90\n      jump\t// in\n    tag_223:\n      mload(0x40)\n      dup1\n      swap2\n      sub\n      swap1\n      revert\n        /* \"@openzeppelin/contracts/token/ERC20/ERC20.sol\":5830:5916  if (to == address(0)) {... */\n    tag_222:\n        /* \"@openzeppelin/contracts/token/ERC20/ERC20.sol\":5925:5949  _update(from, to, value) */\n      tag_224\n        /* \"@openzeppelin/contracts/token/ERC20/ERC20.sol\":5933:5937  from */\n      dup4\n        /* \"@openzeppelin/contracts/token/ERC20/ERC20.sol\":5939:5941  to */\n      dup4\n        /* \"@openzeppelin/contracts/token/ERC20/ERC20.sol\":5943:5948  value */\n      dup4\n        /* \"@openzeppelin/contracts/token/ERC20/ERC20.sol\":5925:5932  _update */\n      tag_225\n        /* \"@openzeppelin/contracts/token/ERC20/ERC20.sol\":5925:5949  _update(from, to, value) */\n      jump\t// in\n    tag_224:\n        /* \"@openzeppelin/contracts/token/ERC20/ERC20.sol\":5656:5956  function _transfer(address from, address to, uint256 value) internal {... */\n      pop\n      pop\n      pop\n      jump\t// out\n        /* \"@openzeppelin/contracts/utils/cryptography/EIP712.sol\":3845:4107  function _domainSeparatorV4() internal view returns (bytes32) {... */\n    tag_132:\n        /* \"@openzeppelin/contracts/utils/cryptography/EIP712.sol\":3898:3905  bytes32 */\n      0x00\n        /* \"@openzeppelin/contracts/utils/cryptography/EIP712.sol\":3938:3949  _cachedThis */\n      immutable(\"0xcb7b5834b7e5299c6704f53d971bda2c8ab8a394d0e13e911296a3f1ed3f075e\")\n        /* \"@openzeppelin/contracts/utils/cryptography/EIP712.sol\":3921:3949  address(this) == _cachedThis */\n      0xffffffffffffffffffffffffffffffffffffffff\n      and\n        /* \"@openzeppelin/contracts/utils/cryptography/EIP712.sol\":3929:3933  this */\n      address\n        /* \"@openzeppelin/contracts/utils/cryptography/EIP712.sol\":3921:3949  address(this) == _cachedThis */\n      0xffffffffffffffffffffffffffffffffffffffff\n      and\n      eq\n        /* \"@openzeppelin/contracts/utils/cryptography/EIP712.sol\":3921:3984  address(this) == _cachedThis && block.chainid == _cachedChainId */\n      dup1\n      iszero\n      tag_227\n      jumpi\n      pop\n        /* \"@openzeppelin/contracts/utils/cryptography/EIP712.sol\":3970:3984  _cachedChainId */\n      immutable(\"0x65281ed8ccefade9b86c81750599de18d311b92b65fa2f9574f29bea17eeada2\")\n        /* \"@openzeppelin/contracts/utils/cryptography/EIP712.sol\":3953:3966  block.chainid */\n      chainid\n        /* \"@openzeppelin/contracts/utils/cryptography/EIP712.sol\":3953:3984  block.chainid == _cachedChainId */\n      eq\n        /* \"@openzeppelin/contracts/utils/cryptography/EIP712.sol\":3921:3984  address(this) == _cachedThis && block.chainid == _cachedChainId */\n    tag_227:\n        /* \"@openzeppelin/contracts/utils/cryptography/EIP712.sol\":3917:4101  if (address(this) == _cachedThis && block.chainid == _cachedChainId) {... */\n      iszero\n      tag_228\n      jumpi\n        /* \"@openzeppelin/contracts/utils/cryptography/EIP712.sol\":4007:4029  _cachedDomainSeparator */\n      immutable(\"0x637044082104a0df38c56ebf385c4c88ba9376eb8d65439329a06208e4517c88\")\n        /* \"@openzeppelin/contracts/utils/cryptography/EIP712.sol\":4000:4029  return _cachedDomainSeparator */\n      swap1\n      pop\n      jump(tag_226)\n        /* \"@openzeppelin/contracts/utils/cryptography/EIP712.sol\":3917:4101  if (address(this) == _cachedThis && block.chainid == _cachedChainId) {... */\n    tag_228:\n        /* \"@openzeppelin/contracts/utils/cryptography/EIP712.sol\":4067:4090  _buildDomainSeparator() */\n      tag_230\n        /* \"@openzeppelin/contracts/utils/cryptography/EIP712.sol\":4067:4088  _buildDomainSeparator */\n      tag_231\n        /* \"@openzeppelin/contracts/utils/cryptography/EIP712.sol\":4067:4090  _buildDomainSeparator() */\n      jump\t// in\n    tag_230:\n        /* \"@openzeppelin/contracts/utils/cryptography/EIP712.sol\":4060:4090  return _buildDomainSeparator() */\n      swap1\n      pop\n        /* \"@openzeppelin/contracts/utils/cryptography/EIP712.sol\":3845:4107  function _domainSeparatorV4() internal view returns (bytes32) {... */\n    tag_226:\n      swap1\n      jump\t// out\n        /* \"@openzeppelin/contracts/access/Ownable.sol\":1796:1958  function _checkOwner() internal view virtual {... */\n    tag_135:\n        /* \"@openzeppelin/contracts/access/Ownable.sol\":1866:1878  _msgSender() */\n      tag_233\n        /* \"@openzeppelin/contracts/access/Ownable.sol\":1866:1876  _msgSender */\n      tag_119\n        /* \"@openzeppelin/contracts/access/Ownable.sol\":1866:1878  _msgSender() */\n      jump\t// in\n    tag_233:\n        /* \"@openzeppelin/contracts/access/Ownable.sol\":1855:1878  owner() != _msgSender() */\n      0xffffffffffffffffffffffffffffffffffffffff\n      and\n        /* \"@openzeppelin/contracts/access/Ownable.sol\":1855:1862  owner() */\n      tag_234\n        /* \"@openzeppelin/contracts/access/Ownable.sol\":1855:1860  owner */\n      tag_88\n        /* \"@openzeppelin/contracts/access/Ownable.sol\":1855:1862  owner() */\n      jump\t// in\n    tag_234:\n        /* \"@openzeppelin/contracts/access/Ownable.sol\":1855:1878  owner() != _msgSender() */\n      0xffffffffffffffffffffffffffffffffffffffff\n      and\n      eq\n        /* \"@openzeppelin/contracts/access/Ownable.sol\":1851:1952  if (owner() != _msgSender()) {... */\n      tag_235\n      jumpi\n        /* \"@openzeppelin/contracts/access/Ownable.sol\":1928:1940  _msgSender() */\n      tag_236\n        /* \"@openzeppelin/contracts/access/Ownable.sol\":1928:1938  _msgSender */\n      tag_119\n        /* \"@openzeppelin/contracts/access/Ownable.sol\":1928:1940  _msgSender() */\n      jump\t// in\n    tag_236:\n        /* \"@openzeppelin/contracts/access/Ownable.sol\":1901:1941  OwnableUnauthorizedAccount(_msgSender()) */\n      mload(0x40)\n      0x118cdaa700000000000000000000000000000000000000000000000000000000\n      dup2\n      mstore\n      0x04\n      add\n      tag_237\n      swap2\n      swap1\n      tag_90\n      jump\t// in\n    tag_237:\n      mload(0x40)\n      dup1\n      swap2\n      sub\n      swap1\n      revert\n        /* \"@openzeppelin/contracts/access/Ownable.sol\":1851:1952  if (owner() != _msgSender()) {... */\n    tag_235:\n        /* \"@openzeppelin/contracts/access/Ownable.sol\":1796:1958  function _checkOwner() internal view virtual {... */\n      jump\t// out\n        /* \"@openzeppelin/contracts/utils/Pausable.sol\":2710:2827  function _unpause() internal virtual whenPaused {... */\n    tag_138:\n        /* \"@openzeppelin/contracts/utils/Pausable.sol\":1721:1737  _requirePaused() */\n      tag_239\n        /* \"@openzeppelin/contracts/utils/Pausable.sol\":1721:1735  _requirePaused */\n      tag_240\n        /* \"@openzeppelin/contracts/utils/Pausable.sol\":1721:1737  _requirePaused() */\n      jump\t// in\n    tag_239:\n        /* \"@openzeppelin/contracts/utils/Pausable.sol\":2778:2783  false */\n      0x00\n        /* \"@openzeppelin/contracts/utils/Pausable.sol\":2768:2775  _paused */\n      0x05\n      0x00\n        /* \"@openzeppelin/contracts/utils/Pausable.sol\":2768:2783  _paused = false */\n      0x0100\n      exp\n      dup2\n      sload\n      dup2\n      0xff\n      mul\n      not\n      and\n      swap1\n      dup4\n      iszero\n      iszero\n      mul\n      or\n      swap1\n      sstore\n      pop\n        /* \"@openzeppelin/contracts/utils/Pausable.sol\":2798:2820  Unpaused(_msgSender()) */\n      0x5db9ee0a495bf2e6ff9c91a7834c1ba4fdd244a5e8aa4e537bd38aeae4b073aa\n        /* \"@openzeppelin/contracts/utils/Pausable.sol\":2807:2819  _msgSender() */\n      tag_242\n        /* \"@openzeppelin/contracts/utils/Pausable.sol\":2807:2817  _msgSender */\n      tag_119\n        /* \"@openzeppelin/contracts/utils/Pausable.sol\":2807:2819  _msgSender() */\n      jump\t// in\n    tag_242:\n        /* \"@openzeppelin/contracts/utils/Pausable.sol\":2798:2820  Unpaused(_msgSender()) */\n      mload(0x40)\n      tag_243\n      swap2\n      swap1\n      tag_90\n      jump\t// in\n    tag_243:\n      mload(0x40)\n      dup1\n      swap2\n      sub\n      swap1\n      log1\n        /* \"@openzeppelin/contracts/utils/Pausable.sol\":2710:2827  function _unpause() internal virtual whenPaused {... */\n      jump\t// out\n        /* \"@openzeppelin/contracts/token/ERC20/ERC20.sol\":7721:7929  function _mint(address account, uint256 value) internal {... */\n    tag_143:\n        /* \"@openzeppelin/contracts/token/ERC20/ERC20.sol\":7810:7811  0 */\n      0x00\n        /* \"@openzeppelin/contracts/token/ERC20/ERC20.sol\":7791:7812  account == address(0) */\n      0xffffffffffffffffffffffffffffffffffffffff\n      and\n        /* \"@openzeppelin/contracts/token/ERC20/ERC20.sol\":7791:7798  account */\n      dup3\n        /* \"@openzeppelin/contracts/token/ERC20/ERC20.sol\":7791:7812  account == address(0) */\n      0xffffffffffffffffffffffffffffffffffffffff\n      and\n      sub\n        /* \"@openzeppelin/contracts/token/ERC20/ERC20.sol\":7787:7878  if (account == address(0)) {... */\n      tag_245\n      jumpi\n        /* \"@openzeppelin/contracts/token/ERC20/ERC20.sol\":7864:7865  0 */\n      0x00\n        /* \"@openzeppelin/contracts/token/ERC20/ERC20.sol\":7835:7867  ERC20InvalidReceiver(address(0)) */\n      mload(0x40)\n      0xec442f0500000000000000000000000000000000000000000000000000000000\n      dup2\n      mstore\n      0x04\n      add\n      tag_246\n      swap2\n      swap1\n      tag_90\n      jump\t// in\n    tag_246:\n      mload(0x40)\n      dup1\n      swap2\n      sub\n      swap1\n      revert\n        /* \"@openzeppelin/contracts/token/ERC20/ERC20.sol\":7787:7878  if (account == address(0)) {... */\n    tag_245:\n        /* \"@openzeppelin/contracts/token/ERC20/ERC20.sol\":7887:7922  _update(address(0), account, value) */\n      tag_247\n        /* \"@openzeppelin/contracts/token/ERC20/ERC20.sol\":7903:7904  0 */\n      0x00\n        /* \"@openzeppelin/contracts/token/ERC20/ERC20.sol\":7907:7914  account */\n      dup4\n        /* \"@openzeppelin/contracts/token/ERC20/ERC20.sol\":7916:7921  value */\n      dup4\n        /* \"@openzeppelin/contracts/token/ERC20/ERC20.sol\":7887:7894  _update */\n      tag_225\n        /* \"@openzeppelin/contracts/token/ERC20/ERC20.sol\":7887:7922  _update(address(0), account, value) */\n      jump\t// in\n    tag_247:\n        /* \"@openzeppelin/contracts/token/ERC20/ERC20.sol\":7721:7929  function _mint(address account, uint256 value) internal {... */\n      pop\n      pop\n      jump\t// out\n        /* \"@openzeppelin/contracts/token/ERC20/ERC20.sol\":8247:8453  function _burn(address account, uint256 value) internal {... */\n    tag_147:\n        /* \"@openzeppelin/contracts/token/ERC20/ERC20.sol\":8336:8337  0 */\n      0x00\n        /* \"@openzeppelin/contracts/token/ERC20/ERC20.sol\":8317:8338  account == address(0) */\n      0xffffffffffffffffffffffffffffffffffffffff\n      and\n        /* \"@openzeppelin/contracts/token/ERC20/ERC20.sol\":8317:8324  account */\n      dup3\n        /* \"@openzeppelin/contracts/token/ERC20/ERC20.sol\":8317:8338  account == address(0) */\n      0xffffffffffffffffffffffffffffffffffffffff\n      and\n      sub\n        /* \"@openzeppelin/contracts/token/ERC20/ERC20.sol\":8313:8402  if (account == address(0)) {... */\n      tag_249\n      jumpi\n        /* \"@openzeppelin/contracts/token/ERC20/ERC20.sol\":8388:8389  0 */\n      0x00\n        /* \"@openzeppelin/contracts/token/ERC20/ERC20.sol\":8361:8391  ERC20InvalidSender(address(0)) */\n      mload(0x40)\n      0x96c6fd1e00000000000000000000000000000000000000000000000000000000\n      dup2\n      mstore\n      0x04\n      add\n      tag_250\n      swap2\n      swap1\n      tag_90\n      jump\t// in\n    tag_250:\n      mload(0x40)\n      dup1\n      swap2\n      sub\n      swap1\n      revert\n        /* \"@openzeppelin/contracts/token/ERC20/ERC20.sol\":8313:8402  if (account == address(0)) {... */\n    tag_249:\n        /* \"@openzeppelin/contracts/token/ERC20/ERC20.sol\":8411:8446  _update(account, address(0), value) */\n      tag_251\n        /* \"@openzeppelin/contracts/token/ERC20/ERC20.sol\":8419:8426  account */\n      dup3\n        /* \"@openzeppelin/contracts/token/ERC20/ERC20.sol\":8436:8437  0 */\n      0x00\n        /* \"@openzeppelin/contracts/token/ERC20/ERC20.sol\":8440:8445  value */\n      dup4\n        /* \"@openzeppelin/contracts/token/ERC20/ERC20.sol\":8411:8418  _update */\n      tag_225\n        /* \"@openzeppelin/contracts/token/ERC20/ERC20.sol\":8411:8446  _update(account, address(0), value) */\n      jump\t// in\n    tag_251:\n        /* \"@openzeppelin/contracts/token/ERC20/ERC20.sol\":8247:8453  function _burn(address account, uint256 value) internal {... */\n      pop\n      pop\n      jump\t// out\n        /* \"@openzeppelin/contracts/access/Ownable.sol\":2912:3099  function _transferOwnership(address newOwner) internal virtual {... */\n    tag_154:\n        /* \"@openzeppelin/contracts/access/Ownable.sol\":2985:3001  address oldOwner */\n      0x00\n        /* \"@openzeppelin/contracts/access/Ownable.sol\":3004:3010  _owner */\n      0x05\n      0x01\n      swap1\n      sload\n      swap1\n      0x0100\n      exp\n      swap1\n      div\n      0xffffffffffffffffffffffffffffffffffffffff\n      and\n        /* \"@openzeppelin/contracts/access/Ownable.sol\":2985:3010  address oldOwner = _owner */\n      swap1\n      pop\n        /* \"@openzeppelin/contracts/access/Ownable.sol\":3029:3037  newOwner */\n      dup2\n        /* \"@openzeppelin/contracts/access/Ownable.sol\":3020:3026  _owner */\n      0x05\n      0x01\n        /* \"@openzeppelin/contracts/access/Ownable.sol\":3020:3037  _owner = newOwner */\n      0x0100\n      exp\n      dup2\n      sload\n      dup2\n      0xffffffffffffffffffffffffffffffffffffffff\n      mul\n      not\n      and\n      swap1\n      dup4\n      0xffffffffffffffffffffffffffffffffffffffff\n      and\n      mul\n      or\n      swap1\n      sstore\n      pop\n        /* \"@openzeppelin/contracts/access/Ownable.sol\":3083:3091  newOwner */\n      dup2\n        /* \"@openzeppelin/contracts/access/Ownable.sol\":3052:3092  OwnershipTransferred(oldOwner, newOwner) */\n      0xffffffffffffffffffffffffffffffffffffffff\n      and\n        /* \"@openzeppelin/contracts/access/Ownable.sol\":3073:3081  oldOwner */\n      dup2\n        /* \"@openzeppelin/contracts/access/Ownable.sol\":3052:3092  OwnershipTransferred(oldOwner, newOwner) */\n      0xffffffffffffffffffffffffffffffffffffffff\n      and\n      0x8be0079c531659141344cd1fd0a4f28419497f9722a3daafe3b4186f6b6457e0\n      mload(0x40)\n      mload(0x40)\n      dup1\n      swap2\n      sub\n      swap1\n      log3\n        /* \"@openzeppelin/contracts/access/Ownable.sol\":2975:3099  {... */\n      pop\n        /* \"@openzeppelin/contracts/access/Ownable.sol\":2912:3099  function _transferOwnership(address newOwner) internal virtual {... */\n      pop\n      jump\t// out\n        /* \"@openzeppelin/contracts/utils/Nonces.sol\":538:645  function nonces(address owner) public view virtual returns (uint256) {... */\n    tag_161:\n        /* \"@openzeppelin/contracts/utils/Nonces.sol\":598:605  uint256 */\n      0x00\n        /* \"@openzeppelin/contracts/utils/Nonces.sol\":624:631  _nonces */\n      0x08\n        /* \"@openzeppelin/contracts/utils/Nonces.sol\":624:638  _nonces[owner] */\n      0x00\n        /* \"@openzeppelin/contracts/utils/Nonces.sol\":632:637  owner */\n      dup4\n        /* \"@openzeppelin/contracts/utils/Nonces.sol\":624:638  _nonces[owner] */\n      0xffffffffffffffffffffffffffffffffffffffff\n      and\n      0xffffffffffffffffffffffffffffffffffffffff\n      and\n      dup2\n      mstore\n      0x20\n      add\n      swap1\n      dup2\n      mstore\n      0x20\n      add\n      0x00\n      keccak256\n      sload\n        /* \"@openzeppelin/contracts/utils/Nonces.sol\":617:638  return _nonces[owner] */\n      swap1\n      pop\n        /* \"@openzeppelin/contracts/utils/Nonces.sol\":538:645  function nonces(address owner) public view virtual returns (uint256) {... */\n      swap2\n      swap1\n      pop\n      jump\t// out\n        /* \"@openzeppelin/contracts/utils/Pausable.sol\":2463:2578  function _pause() internal virtual whenNotPaused {... */\n    tag_166:\n        /* \"@openzeppelin/contracts/utils/Pausable.sol\":1474:1493  _requireNotPaused() */\n      tag_255\n        /* \"@openzeppelin/contracts/utils/Pausable.sol\":1474:1491  _requireNotPaused */\n      tag_256\n        /* \"@openzeppelin/contracts/utils/Pausable.sol\":1474:1493  _requireNotPaused() */\n      jump\t// in\n    tag_255:\n        /* \"@openzeppelin/contracts/utils/Pausable.sol\":2532:2536  true */\n      0x01\n        /* \"@openzeppelin/contracts/utils/Pausable.sol\":2522:2529  _paused */\n      0x05\n      0x00\n        /* \"@openzeppelin/contracts/utils/Pausable.sol\":2522:2536  _paused = true */\n      0x0100\n      exp\n      dup2\n      sload\n      dup2\n      0xff\n      mul\n      not\n      and\n      swap1\n      dup4\n      iszero\n      iszero\n      mul\n      or\n      swap1\n      sstore\n      pop\n        /* \"@openzeppelin/contracts/utils/Pausable.sol\":2551:2571  Paused(_msgSender()) */\n      0x62e78cea01bee320cd4e420270b5ea74000d11b0c9f74754ebdbfc544b05a258\n        /* \"@openzeppelin/contracts/utils/Pausable.sol\":2558:2570  _msgSender() */\n      tag_258\n        /* \"@openzeppelin/contracts/utils/Pausable.sol\":2558:2568  _msgSender */\n      tag_119\n        /* \"@openzeppelin/contracts/utils/Pausable.sol\":2558:2570  _msgSender() */\n      jump\t// in\n    tag_258:\n        /* \"@openzeppelin/contracts/utils/Pausable.sol\":2551:2571  Paused(_msgSender()) */\n      mload(0x40)\n      tag_259\n      swap2\n      swap1\n      tag_90\n      jump\t// in\n    tag_259:\n      mload(0x40)\n      dup1\n      swap2\n      sub\n      swap1\n      log1\n        /* \"@openzeppelin/contracts/utils/Pausable.sol\":2463:2578  function _pause() internal virtual whenNotPaused {... */\n      jump\t// out\n        /* \"@openzeppelin/contracts/utils/cryptography/EIP712.sol\":6021:6147  function _EIP712Name() internal view returns (string memory) {... */\n    tag_169:\n        /* \"@openzeppelin/contracts/utils/cryptography/EIP712.sol\":6067:6080  string memory */\n      0x60\n        /* \"@openzeppelin/contracts/utils/cryptography/EIP712.sol\":6099:6140  _name.toStringWithFallback(_nameFallback) */\n      tag_261\n        /* \"@openzeppelin/contracts/utils/cryptography/EIP712.sol\":6126:6139  _nameFallback */\n      0x06\n        /* \"@openzeppelin/contracts/utils/cryptography/EIP712.sol\":6099:6104  _name */\n      immutable(\"0x7d81e85b4a2af4bd6246fd18e1213d6d70ceeba70466178b3c6e4c0f6381e850\")\n        /* \"@openzeppelin/contracts/utils/cryptography/EIP712.sol\":6099:6125  _name.toStringWithFallback */\n      tag_262\n      swap1\n        /* \"@openzeppelin/contracts/utils/cryptography/EIP712.sol\":6099:6140  _name.toStringWithFallback(_nameFallback) */\n      swap2\n      swap1\n      0xffffffff\n      and\n      jump\t// in\n    tag_261:\n        /* \"@openzeppelin/contracts/utils/cryptography/EIP712.sol\":6092:6140  return _name.toStringWithFallback(_nameFallback) */\n      swap1\n      pop\n        /* \"@openzeppelin/contracts/utils/cryptography/EIP712.sol\":6021:6147  function _EIP712Name() internal view returns (string memory) {... */\n      swap1\n      jump\t// out\n        /* \"@openzeppelin/contracts/utils/cryptography/EIP712.sol\":6473:6608  function _EIP712Version() internal view returns (string memory) {... */\n    tag_171:\n        /* \"@openzeppelin/contracts/utils/cryptography/EIP712.sol\":6522:6535  string memory */\n      0x60\n        /* \"@openzeppelin/contracts/utils/cryptography/EIP712.sol\":6554:6601  _version.toStringWithFallback(_versionFallback) */\n      tag_264\n        /* \"@openzeppelin/contracts/utils/cryptography/EIP712.sol\":6584:6600  _versionFallback */\n      0x07\n        /* \"@openzeppelin/contracts/utils/cryptography/EIP712.sol\":6554:6562  _version */\n      immutable(\"0xc81bfac384a0ec543c77e5176d9b9eb40c3af8fefa4e3c7657dda11321657778\")\n        /* \"@openzeppelin/contracts/utils/cryptography/EIP712.sol\":6554:6583  _version.toStringWithFallback */\n      tag_262\n      swap1\n        /* \"@openzeppelin/contracts/utils/cryptography/EIP712.sol\":6554:6601  _version.toStringWithFallback(_versionFallback) */\n      swap2\n      swap1\n      0xffffffff\n      and\n      jump\t// in\n    tag_264:\n        /* \"@openzeppelin/contracts/utils/cryptography/EIP712.sol\":6547:6601  return _version.toStringWithFallback(_versionFallback) */\n      swap1\n      pop\n        /* \"@openzeppelin/contracts/utils/cryptography/EIP712.sol\":6473:6608  function _EIP712Version() internal view returns (string memory) {... */\n      swap1\n      jump\t// out\n        /* \"@openzeppelin/contracts/utils/Nonces.sol\":759:1154  function _useNonce(address owner) internal virtual returns (uint256) {... */\n    tag_190:\n        /* \"@openzeppelin/contracts/utils/Nonces.sol\":819:826  uint256 */\n      0x00\n        /* \"@openzeppelin/contracts/utils/Nonces.sol\":1121:1128  _nonces */\n      0x08\n        /* \"@openzeppelin/contracts/utils/Nonces.sol\":1121:1135  _nonces[owner] */\n      0x00\n        /* \"@openzeppelin/contracts/utils/Nonces.sol\":1129:1134  owner */\n      dup4\n        /* \"@openzeppelin/contracts/utils/Nonces.sol\":1121:1135  _nonces[owner] */\n      0xffffffffffffffffffffffffffffffffffffffff\n      and\n      0xffffffffffffffffffffffffffffffffffffffff\n      and\n      dup2\n      mstore\n      0x20\n      add\n      swap1\n      dup2\n      mstore\n      0x20\n      add\n      0x00\n      keccak256\n      0x00\n        /* \"@openzeppelin/contracts/utils/Nonces.sol\":1121:1137  _nonces[owner]++ */\n      dup2\n      sload\n      dup1\n      swap3\n      swap2\n      swap1\n      0x01\n      add\n      swap2\n      swap1\n      pop\n      sstore\n        /* \"@openzeppelin/contracts/utils/Nonces.sol\":1114:1137  return _nonces[owner]++ */\n      swap1\n      pop\n        /* \"@openzeppelin/contracts/utils/Nonces.sol\":759:1154  function _useNonce(address owner) internal virtual returns (uint256) {... */\n      swap2\n      swap1\n      pop\n      jump\t// out\n        /* \"@openzeppelin/contracts/utils/cryptography/EIP712.sol\":4917:5093  function _hashTypedDataV4(bytes32 structHash) internal view virtual returns (bytes32) {... */\n    tag_194:\n        /* \"@openzeppelin/contracts/utils/cryptography/EIP712.sol\":4994:5001  bytes32 */\n      0x00\n        /* \"@openzeppelin/contracts/utils/cryptography/EIP712.sol\":5020:5086  MessageHashUtils.toTypedDataHash(_domainSeparatorV4(), structHash) */\n      tag_267\n        /* \"@openzeppelin/contracts/utils/cryptography/EIP712.sol\":5053:5073  _domainSeparatorV4() */\n      tag_268\n        /* \"@openzeppelin/contracts/utils/cryptography/EIP712.sol\":5053:5071  _domainSeparatorV4 */\n      tag_132\n        /* \"@openzeppelin/contracts/utils/cryptography/EIP712.sol\":5053:5073  _domainSeparatorV4() */\n      jump\t// in\n    tag_268:\n        /* \"@openzeppelin/contracts/utils/cryptography/EIP712.sol\":5075:5085  structHash */\n      dup4\n        /* \"@openzeppelin/contracts/utils/cryptography/EIP712.sol\":5020:5052  MessageHashUtils.toTypedDataHash */\n      tag_269\n        /* \"@openzeppelin/contracts/utils/cryptography/EIP712.sol\":5020:5086  MessageHashUtils.toTypedDataHash(_domainSeparatorV4(), structHash) */\n      jump\t// in\n    tag_267:\n        /* \"@openzeppelin/contracts/utils/cryptography/EIP712.sol\":5013:5086  return MessageHashUtils.toTypedDataHash(_domainSeparatorV4(), structHash) */\n      swap1\n      pop\n        /* \"@openzeppelin/contracts/utils/cryptography/EIP712.sol\":4917:5093  function _hashTypedDataV4(bytes32 structHash) internal view virtual returns (bytes32) {... */\n      swap2\n      swap1\n      pop\n      jump\t// out\n        /* \"@openzeppelin/contracts/utils/cryptography/ECDSA.sol\":6803:7063  function recover(bytes32 hash, uint8 v, bytes32 r, bytes32 s) internal pure returns (address) {... */\n    tag_196:\n        /* \"@openzeppelin/contracts/utils/cryptography/ECDSA.sol\":6888:6895  address */\n      0x00\n        /* \"@openzeppelin/contracts/utils/cryptography/ECDSA.sol\":6908:6925  address recovered */\n      dup1\n        /* \"@openzeppelin/contracts/utils/cryptography/ECDSA.sol\":6927:6945  RecoverError error */\n      0x00\n        /* \"@openzeppelin/contracts/utils/cryptography/ECDSA.sol\":6947:6963  bytes32 errorArg */\n      dup1\n        /* \"@openzeppelin/contracts/utils/cryptography/ECDSA.sol\":6967:6992  tryRecover(hash, v, r, s) */\n      tag_271\n        /* \"@openzeppelin/contracts/utils/cryptography/ECDSA.sol\":6978:6982  hash */\n      dup9\n        /* \"@openzeppelin/contracts/utils/cryptography/ECDSA.sol\":6984:6985  v */\n      dup9\n        /* \"@openzeppelin/contracts/utils/cryptography/ECDSA.sol\":6987:6988  r */\n      dup9\n        /* \"@openzeppelin/contracts/utils/cryptography/ECDSA.sol\":6990:6991  s */\n      dup9\n        /* \"@openzeppelin/contracts/utils/cryptography/ECDSA.sol\":6967:6977  tryRecover */\n      tag_272\n        /* \"@openzeppelin/contracts/utils/cryptography/ECDSA.sol\":6967:6992  tryRecover(hash, v, r, s) */\n      jump\t// in\n    tag_271:\n        /* \"@openzeppelin/contracts/utils/cryptography/ECDSA.sol\":6907:6992  (address recovered, RecoverError error, bytes32 errorArg) = tryRecover(hash, v, r, s) */\n      swap3\n      pop\n      swap3\n      pop\n      swap3\n      pop\n        /* \"@openzeppelin/contracts/utils/cryptography/ECDSA.sol\":7002:7030  _throwError(error, errorArg) */\n      tag_273\n        /* \"@openzeppelin/contracts/utils/cryptography/ECDSA.sol\":7014:7019  error */\n      dup3\n        /* \"@openzeppelin/contracts/utils/cryptography/ECDSA.sol\":7021:7029  errorArg */\n      dup3\n        /* \"@openzeppelin/contracts/utils/cryptography/ECDSA.sol\":7002:7013  _throwError */\n      tag_274\n        /* \"@openzeppelin/contracts/utils/cryptography/ECDSA.sol\":7002:7030  _throwError(error, errorArg) */\n      jump\t// in\n    tag_273:\n        /* \"@openzeppelin/contracts/utils/cryptography/ECDSA.sol\":7047:7056  recovered */\n      dup3\n        /* \"@openzeppelin/contracts/utils/cryptography/ECDSA.sol\":7040:7056  return recovered */\n      swap4\n      pop\n      pop\n      pop\n      pop\n        /* \"@openzeppelin/contracts/utils/cryptography/ECDSA.sol\":6803:7063  function recover(bytes32 hash, uint8 v, bytes32 r, bytes32 s) internal pure returns (address) {... */\n      swap5\n      swap4\n      pop\n      pop\n      pop\n      pop\n      jump\t// out\n        /* \"@openzeppelin/contracts/token/ERC20/ERC20.sol\":9949:10381  function _approve(address owner, address spender, uint256 value, bool emitEvent) internal virtual {... */\n    tag_211:\n        /* \"@openzeppelin/contracts/token/ERC20/ERC20.sol\":10078:10079  0 */\n      0x00\n        /* \"@openzeppelin/contracts/token/ERC20/ERC20.sol\":10061:10080  owner == address(0) */\n      0xffffffffffffffffffffffffffffffffffffffff\n      and\n        /* \"@openzeppelin/contracts/token/ERC20/ERC20.sol\":10061:10066  owner */\n      dup5\n        /* \"@openzeppelin/contracts/token/ERC20/ERC20.sol\":10061:10080  owner == address(0) */\n      0xffffffffffffffffffffffffffffffffffffffff\n      and\n      sub\n        /* \"@openzeppelin/contracts/token/ERC20/ERC20.sol\":10057:10146  if (owner == address(0)) {... */\n      tag_276\n      jumpi\n        /* \"@openzeppelin/contracts/token/ERC20/ERC20.sol\":10132:10133  0 */\n      0x00\n        /* \"@openzeppelin/contracts/token/ERC20/ERC20.sol\":10103:10135  ERC20InvalidApprover(address(0)) */\n      mload(0x40)\n      0xe602df0500000000000000000000000000000000000000000000000000000000\n      dup2\n      mstore\n      0x04\n      add\n      tag_277\n      swap2\n      swap1\n      tag_90\n      jump\t// in\n    tag_277:\n      mload(0x40)\n      dup1\n      swap2\n      sub\n      swap1\n      revert\n        /* \"@openzeppelin/contracts/token/ERC20/ERC20.sol\":10057:10146  if (owner == address(0)) {... */\n    tag_276:\n        /* \"@openzeppelin/contracts/token/ERC20/ERC20.sol\":10178:10179  0 */\n      0x00\n        /* \"@openzeppelin/contracts/token/ERC20/ERC20.sol\":10159:10180  spender == address(0) */\n      0xffffffffffffffffffffffffffffffffffffffff\n      and\n        /* \"@openzeppelin/contracts/token/ERC20/ERC20.sol\":10159:10166  spender */\n      dup4\n        /* \"@openzeppelin/contracts/token/ERC20/ERC20.sol\":10159:10180  spender == address(0) */\n      0xffffffffffffffffffffffffffffffffffffffff\n      and\n      sub\n        /* \"@openzeppelin/contracts/token/ERC20/ERC20.sol\":10155:10245  if (spender == address(0)) {... */\n      tag_278\n      jumpi\n        /* \"@openzeppelin/contracts/token/ERC20/ERC20.sol\":10231:10232  0 */\n      0x00\n        /* \"@openzeppelin/contracts/token/ERC20/ERC20.sol\":10203:10234  ERC20InvalidSpender(address(0)) */\n      mload(0x40)\n      0x94280d6200000000000000000000000000000000000000000000000000000000\n      dup2\n      mstore\n      0x04\n      add\n      tag_279\n      swap2\n      swap1\n      tag_90\n      jump\t// in\n    tag_279:\n      mload(0x40)\n      dup1\n      swap2\n      sub\n      swap1\n      revert\n        /* \"@openzeppelin/contracts/token/ERC20/ERC20.sol\":10155:10245  if (spender == address(0)) {... */\n    tag_278:\n        /* \"@openzeppelin/contracts/token/ERC20/ERC20.sol\":10284:10289  value */\n      dup2\n        /* \"@openzeppelin/contracts/token/ERC20/ERC20.sol\":10254:10265  _allowances */\n      0x01\n        /* \"@openzeppelin/contracts/token/ERC20/ERC20.sol\":10254:10272  _allowances[owner] */\n      0x00\n        /* \"@openzeppelin/contracts/token/ERC20/ERC20.sol\":10266:10271  owner */\n      dup7\n        /* \"@openzeppelin/contracts/token/ERC20/ERC20.sol\":10254:10272  _allowances[owner] */\n      0xffffffffffffffffffffffffffffffffffffffff\n      and\n      0xffffffffffffffffffffffffffffffffffffffff\n      and\n      dup2\n      mstore\n      0x20\n      add\n      swap1\n      dup2\n      mstore\n      0x20\n      add\n      0x00\n      keccak256\n        /* \"@openzeppelin/contracts/token/ERC20/ERC20.sol\":10254:10281  _allowances[owner][spender] */\n      0x00\n        /* \"@openzeppelin/contracts/token/ERC20/ERC20.sol\":10273:10280  spender */\n      dup6\n        /* \"@openzeppelin/contracts/token/ERC20/ERC20.sol\":10254:10281  _allowances[owner][spender] */\n      0xffffffffffffffffffffffffffffffffffffffff\n      and\n      0xffffffffffffffffffffffffffffffffffffffff\n      and\n      dup2\n      mstore\n      0x20\n      add\n      swap1\n      dup2\n      mstore\n      0x20\n      add\n      0x00\n      keccak256\n        /* \"@openzeppelin/contracts/token/ERC20/ERC20.sol\":10254:10289  _allowances[owner][spender] = value */\n      dup2\n      swap1\n      sstore\n      pop\n        /* \"@openzeppelin/contracts/token/ERC20/ERC20.sol\":10303:10312  emitEvent */\n      dup1\n        /* \"@openzeppelin/contracts/token/ERC20/ERC20.sol\":10299:10375  if (emitEvent) {... */\n      iszero\n      tag_280\n      jumpi\n        /* \"@openzeppelin/contracts/token/ERC20/ERC20.sol\":10349:10356  spender */\n      dup3\n        /* \"@openzeppelin/contracts/token/ERC20/ERC20.sol\":10333:10364  Approval(owner, spender, value) */\n      0xffffffffffffffffffffffffffffffffffffffff\n      and\n        /* \"@openzeppelin/contracts/token/ERC20/ERC20.sol\":10342:10347  owner */\n      dup5\n        /* \"@openzeppelin/contracts/token/ERC20/ERC20.sol\":10333:10364  Approval(owner, spender, value) */\n      0xffffffffffffffffffffffffffffffffffffffff\n      and\n      0x8c5be1e5ebec7d5bd14f71427d1e84f3dd0314c0f7b2291e5b200ac8c7c3b925\n        /* \"@openzeppelin/contracts/token/ERC20/ERC20.sol\":10358:10363  value */\n      dup5\n        /* \"@openzeppelin/contracts/token/ERC20/ERC20.sol\":10333:10364  Approval(owner, spender, value) */\n      mload(0x40)\n      tag_281\n      swap2\n      swap1\n      tag_41\n      jump\t// in\n    tag_281:\n      mload(0x40)\n      dup1\n      swap2\n      sub\n      swap1\n      log3\n        /* \"@openzeppelin/contracts/token/ERC20/ERC20.sol\":10299:10375  if (emitEvent) {... */\n    tag_280:\n        /* \"@openzeppelin/contracts/token/ERC20/ERC20.sol\":9949:10381  function _approve(address owner, address spender, uint256 value, bool emitEvent) internal virtual {... */\n      pop\n      pop\n      pop\n      pop\n      jump\t// out\n        /* \"contracts/MyToken.sol\":915:1179  function _update(address from, address to, uint256 value)... */\n    tag_225:\n        /* \"contracts/MyToken.sol\":1063:1064  0 */\n      0x00\n        /* \"contracts/MyToken.sol\":1047:1065  from != address(0) */\n      0xffffffffffffffffffffffffffffffffffffffff\n      and\n        /* \"contracts/MyToken.sol\":1047:1051  from */\n      dup4\n        /* \"contracts/MyToken.sol\":1047:1065  from != address(0) */\n      0xffffffffffffffffffffffffffffffffffffffff\n      and\n      eq\n        /* \"contracts/MyToken.sol\":1043:1133  if (from != address(0)){... */\n      tag_283\n      jumpi\n        /* \"contracts/MyToken.sol\":1097:1100  100 */\n      0x64\n        /* \"contracts/MyToken.sol\":1088:1093  value */\n      dup2\n        /* \"contracts/MyToken.sol\":1088:1100  value <= 100 */\n      gt\n      iszero\n        /* \"contracts/MyToken.sol\":1080:1122  require(value <= 100,\"value is too more!\") */\n      tag_284\n      jumpi\n      mload(0x40)\n      0x08c379a000000000000000000000000000000000000000000000000000000000\n      dup2\n      mstore\n      0x04\n      add\n      tag_285\n      swap1\n      tag_286\n      jump\t// in\n    tag_285:\n      mload(0x40)\n      dup1\n      swap2\n      sub\n      swap1\n      revert\n    tag_284:\n        /* \"contracts/MyToken.sol\":1043:1133  if (from != address(0)){... */\n    tag_283:\n        /* \"contracts/MyToken.sol\":1142:1172  super._update(from, to, value) */\n      tag_287\n        /* \"contracts/MyToken.sol\":1156:1160  from */\n      dup4\n        /* \"contracts/MyToken.sol\":1162:1164  to */\n      dup4\n        /* \"contracts/MyToken.sol\":1166:1171  value */\n      dup4\n        /* \"contracts/MyToken.sol\":1142:1155  super._update */\n      tag_288\n        /* \"contracts/MyToken.sol\":1142:1172  super._update(from, to, value) */\n      jump\t// in\n    tag_287:\n        /* \"contracts/MyToken.sol\":915:1179  function _update(address from, address to, uint256 value)... */\n      pop\n      pop\n      pop\n      jump\t// out\n        /* \"@openzeppelin/contracts/utils/cryptography/EIP712.sol\":4113:4292  function _buildDomainSeparator() private view returns (bytes32) {... */\n    tag_231:\n        /* \"@openzeppelin/contracts/utils/cryptography/EIP712.sol\":4168:4175  bytes32 */\n      0x00\n        /* \"@openzeppelin/contracts/utils/cryptography/EIP712.sol\":2079:2174  keccak256(\"EIP712Domain(string name,string version,uint256 chainId,address verifyingContract)\") */\n      0x8b73c3c69bb8fe3d512ecc4cf759cc79239f7b179b0ffacaa9a75d522b39400f\n        /* \"@openzeppelin/contracts/utils/cryptography/EIP712.sol\":4226:4237  _hashedName */\n      immutable(\"0x65c288f20bdeec3b8068bce0cb7c6a17051020d09717e451b984f80af474ef00\")\n        /* \"@openzeppelin/contracts/utils/cryptography/EIP712.sol\":4239:4253  _hashedVersion */\n      immutable(\"0xbce8897c1d3546db005567607154841ec10937e6a225e4ea07cfbf9a6b139dea\")\n        /* \"@openzeppelin/contracts/utils/cryptography/EIP712.sol\":4255:4268  block.chainid */\n      chainid\n        /* \"@openzeppelin/contracts/utils/cryptography/EIP712.sol\":4278:4282  this */\n      address\n        /* \"@openzeppelin/contracts/utils/cryptography/EIP712.sol\":4204:4284  abi.encode(TYPE_HASH, _hashedName, _hashedVersion, block.chainid, address(this)) */\n      add(0x20, mload(0x40))\n      tag_290\n      swap6\n      swap5\n      swap4\n      swap3\n      swap2\n      swap1\n      tag_291\n      jump\t// in\n    tag_290:\n      mload(0x40)\n      0x20\n      dup2\n      dup4\n      sub\n      sub\n      dup2\n      mstore\n      swap1\n      0x40\n      mstore\n        /* \"@openzeppelin/contracts/utils/cryptography/EIP712.sol\":4194:4285  keccak256(abi.encode(TYPE_HASH, _hashedName, _hashedVersion, block.chainid, address(this))) */\n      dup1\n      mload\n      swap1\n      0x20\n      add\n      keccak256\n        /* \"@openzeppelin/contracts/utils/cryptography/EIP712.sol\":4187:4285  return keccak256(abi.encode(TYPE_HASH, _hashedName, _hashedVersion, block.chainid, address(this))) */\n      swap1\n      pop\n        /* \"@openzeppelin/contracts/utils/cryptography/EIP712.sol\":4113:4292  function _buildDomainSeparator() private view returns (bytes32) {... */\n      swap1\n      jump\t// out\n        /* \"@openzeppelin/contracts/utils/Pausable.sol\":2202:2328  function _requirePaused() internal view virtual {... */\n    tag_240:\n        /* \"@openzeppelin/contracts/utils/Pausable.sol\":2265:2273  paused() */\n      tag_293\n        /* \"@openzeppelin/contracts/utils/Pausable.sol\":2265:2271  paused */\n      tag_65\n        /* \"@openzeppelin/contracts/utils/Pausable.sol\":2265:2273  paused() */\n      jump\t// in\n    tag_293:\n        /* \"@openzeppelin/contracts/utils/Pausable.sol\":2260:2322  if (!paused()) {... */\n      tag_294\n      jumpi\n        /* \"@openzeppelin/contracts/utils/Pausable.sol\":2296:2311  ExpectedPause() */\n      mload(0x40)\n      0x8dfc202b00000000000000000000000000000000000000000000000000000000\n      dup2\n      mstore\n      0x04\n      add\n      mload(0x40)\n      dup1\n      swap2\n      sub\n      swap1\n      revert\n        /* \"@openzeppelin/contracts/utils/Pausable.sol\":2260:2322  if (!paused()) {... */\n    tag_294:\n        /* \"@openzeppelin/contracts/utils/Pausable.sol\":2202:2328  function _requirePaused() internal view virtual {... */\n      jump\t// out\n        /* \"@openzeppelin/contracts/utils/Pausable.sol\":2002:2130  function _requireNotPaused() internal view virtual {... */\n    tag_256:\n        /* \"@openzeppelin/contracts/utils/Pausable.sol\":2067:2075  paused() */\n      tag_296\n        /* \"@openzeppelin/contracts/utils/Pausable.sol\":2067:2073  paused */\n      tag_65\n        /* \"@openzeppelin/contracts/utils/Pausable.sol\":2067:2075  paused() */\n      jump\t// in\n    tag_296:\n        /* \"@openzeppelin/contracts/utils/Pausable.sol\":2063:2124  if (paused()) {... */\n      iszero\n      tag_297\n      jumpi\n        /* \"@openzeppelin/contracts/utils/Pausable.sol\":2098:2113  EnforcedPause() */\n      mload(0x40)\n      0xd93c066500000000000000000000000000000000000000000000000000000000\n      dup2\n      mstore\n      0x04\n      add\n      mload(0x40)\n      dup1\n      swap2\n      sub\n      swap1\n      revert\n        /* \"@openzeppelin/contracts/utils/Pausable.sol\":2063:2124  if (paused()) {... */\n    tag_297:\n        /* \"@openzeppelin/contracts/utils/Pausable.sol\":2002:2130  function _requireNotPaused() internal view virtual {... */\n      jump\t// out\n        /* \"@openzeppelin/contracts/utils/ShortStrings.sol\":3385:3652  function toStringWithFallback(ShortString value, string storage store) internal pure returns (string memory) {... */\n    tag_262:\n        /* \"@openzeppelin/contracts/utils/ShortStrings.sol\":3479:3492  string memory */\n      0x60\n        /* \"@openzeppelin/contracts/utils/ShortStrings.sol\":1390:1456  0x00000000000000000000000000000000000000000000000000000000000000FF */\n      0xff\n        /* \"@openzeppelin/contracts/utils/ShortStrings.sol\":3537:3554  FALLBACK_SENTINEL */\n      0x00\n      shl\n        /* \"@openzeppelin/contracts/utils/ShortStrings.sol\":3527:3532  value */\n      dup4\n        /* \"@openzeppelin/contracts/utils/ShortStrings.sol\":3508:3554  ShortString.unwrap(value) != FALLBACK_SENTINEL */\n      eq\n        /* \"@openzeppelin/contracts/utils/ShortStrings.sol\":3504:3646  if (ShortString.unwrap(value) != FALLBACK_SENTINEL) {... */\n      tag_299\n      jumpi\n        /* \"@openzeppelin/contracts/utils/ShortStrings.sol\":3577:3592  toString(value) */\n      tag_300\n        /* \"@openzeppelin/contracts/utils/ShortStrings.sol\":3586:3591  value */\n      dup4\n        /* \"@openzeppelin/contracts/utils/ShortStrings.sol\":3577:3585  toString */\n      tag_301\n        /* \"@openzeppelin/contracts/utils/ShortStrings.sol\":3577:3592  toString(value) */\n      jump\t// in\n    tag_300:\n        /* \"@openzeppelin/contracts/utils/ShortStrings.sol\":3570:3592  return toString(value) */\n      swap1\n      pop\n      jump(tag_298)\n        /* \"@openzeppelin/contracts/utils/ShortStrings.sol\":3504:3646  if (ShortString.unwrap(value) != FALLBACK_SENTINEL) {... */\n    tag_299:\n        /* \"@openzeppelin/contracts/utils/ShortStrings.sol\":3630:3635  store */\n      dup2\n        /* \"@openzeppelin/contracts/utils/ShortStrings.sol\":3623:3635  return store */\n      dup1\n      sload\n      tag_303\n      swap1\n      tag_112\n      jump\t// in\n    tag_303:\n      dup1\n      0x1f\n      add\n      0x20\n      dup1\n      swap2\n      div\n      mul\n      0x20\n      add\n      mload(0x40)\n      swap1\n      dup2\n      add\n      0x40\n      mstore\n      dup1\n      swap3\n      swap2\n      swap1\n      dup2\n      dup2\n      mstore\n      0x20\n      add\n      dup3\n      dup1\n      sload\n      tag_304\n      swap1\n      tag_112\n      jump\t// in\n    tag_304:\n      dup1\n      iszero\n      tag_305\n      jumpi\n      dup1\n      0x1f\n      lt\n      tag_306\n      jumpi\n      0x0100\n      dup1\n      dup4\n      sload\n      div\n      mul\n      dup4\n      mstore\n      swap2\n      0x20\n      add\n      swap2\n      jump(tag_305)\n    tag_306:\n      dup3\n      add\n      swap2\n      swap1\n      0x00\n      mstore\n      keccak256(0x00, 0x20)\n      swap1\n    tag_307:\n      dup2\n      sload\n      dup2\n      mstore\n      swap1\n      0x01\n      add\n      swap1\n      0x20\n      add\n      dup1\n      dup4\n      gt\n      tag_307\n      jumpi\n      dup3\n      swap1\n      sub\n      0x1f\n      and\n      dup3\n      add\n      swap2\n    tag_305:\n      pop\n      pop\n      pop\n      pop\n      pop\n      swap1\n      pop\n        /* \"@openzeppelin/contracts/utils/ShortStrings.sol\":3385:3652  function toStringWithFallback(ShortString value, string storage store) internal pure returns (string memory) {... */\n    tag_298:\n      swap3\n      swap2\n      pop\n      pop\n      jump\t// out\n        /* \"@openzeppelin/contracts/utils/cryptography/MessageHashUtils.sol\":3353:3754  function toTypedDataHash(bytes32 domainSeparator, bytes32 structHash) internal pure returns (bytes32 digest) {... */\n    tag_269:\n        /* \"@openzeppelin/contracts/utils/cryptography/MessageHashUtils.sol\":3446:3460  bytes32 digest */\n      0x00\n        /* \"@openzeppelin/contracts/utils/cryptography/MessageHashUtils.sol\":3555:3559  0x40 */\n      0x40\n        /* \"@openzeppelin/contracts/utils/cryptography/MessageHashUtils.sol\":3549:3560  mload(0x40) */\n      mload\n        /* \"@openzeppelin/contracts/utils/cryptography/MessageHashUtils.sol\":3585:3595  hex\"19_01\" */\n      0x1901000000000000000000000000000000000000000000000000000000000000\n        /* \"@openzeppelin/contracts/utils/cryptography/MessageHashUtils.sol\":3580:3583  ptr */\n      dup2\n        /* \"@openzeppelin/contracts/utils/cryptography/MessageHashUtils.sol\":3573:3596  mstore(ptr, hex\"19_01\") */\n      mstore\n        /* \"@openzeppelin/contracts/utils/cryptography/MessageHashUtils.sol\":3632:3647  domainSeparator */\n      dup4\n        /* \"@openzeppelin/contracts/utils/cryptography/MessageHashUtils.sol\":3625:3629  0x02 */\n      0x02\n        /* \"@openzeppelin/contracts/utils/cryptography/MessageHashUtils.sol\":3620:3623  ptr */\n      dup3\n        /* \"@openzeppelin/contracts/utils/cryptography/MessageHashUtils.sol\":3616:3630  add(ptr, 0x02) */\n      add\n        /* \"@openzeppelin/contracts/utils/cryptography/MessageHashUtils.sol\":3609:3648  mstore(add(ptr, 0x02), domainSeparator) */\n      mstore\n        /* \"@openzeppelin/contracts/utils/cryptography/MessageHashUtils.sol\":3684:3694  structHash */\n      dup3\n        /* \"@openzeppelin/contracts/utils/cryptography/MessageHashUtils.sol\":3677:3681  0x22 */\n      0x22\n        /* \"@openzeppelin/contracts/utils/cryptography/MessageHashUtils.sol\":3672:3675  ptr */\n      dup3\n        /* \"@openzeppelin/contracts/utils/cryptography/MessageHashUtils.sol\":3668:3682  add(ptr, 0x22) */\n      add\n        /* \"@openzeppelin/contracts/utils/cryptography/MessageHashUtils.sol\":3661:3695  mstore(add(ptr, 0x22), structHash) */\n      mstore\n        /* \"@openzeppelin/contracts/utils/cryptography/MessageHashUtils.sol\":3733:3737  0x42 */\n      0x42\n        /* \"@openzeppelin/contracts/utils/cryptography/MessageHashUtils.sol\":3728:3731  ptr */\n      dup2\n        /* \"@openzeppelin/contracts/utils/cryptography/MessageHashUtils.sol\":3718:3738  keccak256(ptr, 0x42) */\n      keccak256\n        /* \"@openzeppelin/contracts/utils/cryptography/MessageHashUtils.sol\":3708:3738  digest := keccak256(ptr, 0x42) */\n      swap2\n      pop\n        /* \"@openzeppelin/contracts/utils/cryptography/MessageHashUtils.sol\":3524:3748  {... */\n      pop\n        /* \"@openzeppelin/contracts/utils/cryptography/MessageHashUtils.sol\":3353:3754  function toTypedDataHash(bytes32 domainSeparator, bytes32 structHash) internal pure returns (bytes32 digest) {... */\n      swap3\n      swap2\n      pop\n      pop\n      jump\t// out\n        /* \"@openzeppelin/contracts/utils/cryptography/ECDSA.sol\":5140:6670  function tryRecover(... */\n    tag_272:\n        /* \"@openzeppelin/contracts/utils/cryptography/ECDSA.sol\":5266:5273  address */\n      0x00\n        /* \"@openzeppelin/contracts/utils/cryptography/ECDSA.sol\":5275:5287  RecoverError */\n      dup1\n        /* \"@openzeppelin/contracts/utils/cryptography/ECDSA.sol\":5289:5296  bytes32 */\n      0x00\n        /* \"@openzeppelin/contracts/utils/cryptography/ECDSA.sol\":6199:6265  0x7FFFFFFFFFFFFFFFFFFFFFFFFFFFFFFF5D576E7357A4501DDFE92F46681B20A0 */\n      0x7fffffffffffffffffffffffffffffff5d576e7357a4501ddfe92f46681b20a0\n        /* \"@openzeppelin/contracts/utils/cryptography/ECDSA.sol\":6194:6195  s */\n      dup5\n        /* \"@openzeppelin/contracts/utils/cryptography/ECDSA.sol\":6186:6196  uint256(s) */\n      0x00\n      shr\n        /* \"@openzeppelin/contracts/utils/cryptography/ECDSA.sol\":6186:6265  uint256(s) > 0x7FFFFFFFFFFFFFFFFFFFFFFFFFFFFFFF5D576E7357A4501DDFE92F46681B20A0 */\n      gt\n        /* \"@openzeppelin/contracts/utils/cryptography/ECDSA.sol\":6182:6346  if (uint256(s) > 0x7FFFFFFFFFFFFFFFFFFFFFFFFFFFFFFF5D576E7357A4501DDFE92F46681B20A0) {... */\n      iszero\n      tag_310\n      jumpi\n        /* \"@openzeppelin/contracts/utils/cryptography/ECDSA.sol\":6297:6298  0 */\n      0x00\n        /* \"@openzeppelin/contracts/utils/cryptography/ECDSA.sol\":6301:6331  RecoverError.InvalidSignatureS */\n      0x03\n        /* \"@openzeppelin/contracts/utils/cryptography/ECDSA.sol\":6333:6334  s */\n      dup6\n        /* \"@openzeppelin/contracts/utils/cryptography/ECDSA.sol\":6281:6335  return (address(0), RecoverError.InvalidSignatureS, s) */\n      swap3\n      pop\n      swap3\n      pop\n      swap3\n      pop\n      jump(tag_309)\n        /* \"@openzeppelin/contracts/utils/cryptography/ECDSA.sol\":6182:6346  if (uint256(s) > 0x7FFFFFFFFFFFFFFFFFFFFFFFFFFFFFFF5D576E7357A4501DDFE92F46681B20A0) {... */\n    tag_310:\n        /* \"@openzeppelin/contracts/utils/cryptography/ECDSA.sol\":6440:6454  address signer */\n      0x00\n        /* \"@openzeppelin/contracts/utils/cryptography/ECDSA.sol\":6457:6481  ecrecover(hash, v, r, s) */\n      0x01\n        /* \"@openzeppelin/contracts/utils/cryptography/ECDSA.sol\":6467:6471  hash */\n      dup9\n        /* \"@openzeppelin/contracts/utils/cryptography/ECDSA.sol\":6473:6474  v */\n      dup9\n        /* \"@openzeppelin/contracts/utils/cryptography/ECDSA.sol\":6476:6477  r */\n      dup9\n        /* \"@openzeppelin/contracts/utils/cryptography/ECDSA.sol\":6479:6480  s */\n      dup9\n        /* \"@openzeppelin/contracts/utils/cryptography/ECDSA.sol\":6457:6481  ecrecover(hash, v, r, s) */\n      mload(0x40)\n      0x00\n      dup2\n      mstore\n      0x20\n      add\n      0x40\n      mstore\n      mload(0x40)\n      tag_311\n      swap5\n      swap4\n      swap3\n      swap2\n      swap1\n      tag_312\n      jump\t// in\n    tag_311:\n      0x20\n      mload(0x40)\n      0x20\n      dup2\n      sub\n      swap1\n      dup1\n      dup5\n      sub\n      swap1\n      dup6\n      gas\n      staticcall\n      iszero\n      dup1\n      iszero\n      tag_314\n      jumpi\n      returndatasize\n      0x00\n      dup1\n      returndatacopy\n      revert(0x00, returndatasize)\n    tag_314:\n      pop\n      pop\n      pop\n      mload(sub(mload(0x40), 0x20))\n        /* \"@openzeppelin/contracts/utils/cryptography/ECDSA.sol\":6440:6481  address signer = ecrecover(hash, v, r, s) */\n      swap1\n      pop\n        /* \"@openzeppelin/contracts/utils/cryptography/ECDSA.sol\":6513:6514  0 */\n      0x00\n        /* \"@openzeppelin/contracts/utils/cryptography/ECDSA.sol\":6495:6515  signer == address(0) */\n      0xffffffffffffffffffffffffffffffffffffffff\n      and\n        /* \"@openzeppelin/contracts/utils/cryptography/ECDSA.sol\":6495:6501  signer */\n      dup2\n        /* \"@openzeppelin/contracts/utils/cryptography/ECDSA.sol\":6495:6515  signer == address(0) */\n      0xffffffffffffffffffffffffffffffffffffffff\n      and\n      sub\n        /* \"@openzeppelin/contracts/utils/cryptography/ECDSA.sol\":6491:6604  if (signer == address(0)) {... */\n      tag_315\n      jumpi\n        /* \"@openzeppelin/contracts/utils/cryptography/ECDSA.sol\":6547:6548  0 */\n      0x00\n        /* \"@openzeppelin/contracts/utils/cryptography/ECDSA.sol\":6551:6580  RecoverError.InvalidSignature */\n      0x01\n        /* \"@openzeppelin/contracts/utils/cryptography/ECDSA.sol\":6590:6591  0 */\n      0x00\n        /* \"@openzeppelin/contracts/utils/cryptography/ECDSA.sol\":6582:6592  bytes32(0) */\n      dup1\n      shl\n        /* \"@openzeppelin/contracts/utils/cryptography/ECDSA.sol\":6531:6593  return (address(0), RecoverError.InvalidSignature, bytes32(0)) */\n      swap4\n      pop\n      swap4\n      pop\n      swap4\n      pop\n      pop\n      jump(tag_309)\n        /* \"@openzeppelin/contracts/utils/cryptography/ECDSA.sol\":6491:6604  if (signer == address(0)) {... */\n    tag_315:\n        /* \"@openzeppelin/contracts/utils/cryptography/ECDSA.sol\":6622:6628  signer */\n      dup1\n        /* \"@openzeppelin/contracts/utils/cryptography/ECDSA.sol\":6630:6650  RecoverError.NoError */\n      0x00\n        /* \"@openzeppelin/contracts/utils/cryptography/ECDSA.sol\":6660:6661  0 */\n      dup1\n        /* \"@openzeppelin/contracts/utils/cryptography/ECDSA.sol\":6652:6662  bytes32(0) */\n      0x00\n      shl\n        /* \"@openzeppelin/contracts/utils/cryptography/ECDSA.sol\":6614:6663  return (signer, RecoverError.NoError, bytes32(0)) */\n      swap4\n      pop\n      swap4\n      pop\n      swap4\n      pop\n      pop\n        /* \"@openzeppelin/contracts/utils/cryptography/ECDSA.sol\":5140:6670  function tryRecover(... */\n    tag_309:\n      swap5\n      pop\n      swap5\n      pop\n      swap5\n      swap2\n      pop\n      pop\n      jump\t// out\n        /* \"@openzeppelin/contracts/utils/cryptography/ECDSA.sol\":7196:7728  function _throwError(RecoverError error, bytes32 errorArg) private pure {... */\n    tag_274:\n        /* \"@openzeppelin/contracts/utils/cryptography/ECDSA.sol\":7291:7311  RecoverError.NoError */\n      0x00\n        /* \"@openzeppelin/contracts/utils/cryptography/ECDSA.sol\":7282:7311  error == RecoverError.NoError */\n      0x03\n      dup2\n      gt\n      iszero\n      tag_317\n      jumpi\n      tag_318\n      tag_319\n      jump\t// in\n    tag_318:\n    tag_317:\n        /* \"@openzeppelin/contracts/utils/cryptography/ECDSA.sol\":7282:7287  error */\n      dup3\n        /* \"@openzeppelin/contracts/utils/cryptography/ECDSA.sol\":7282:7311  error == RecoverError.NoError */\n      0x03\n      dup2\n      gt\n      iszero\n      tag_320\n      jumpi\n      tag_321\n      tag_319\n      jump\t// in\n    tag_321:\n    tag_320:\n      sub\n        /* \"@openzeppelin/contracts/utils/cryptography/ECDSA.sol\":7278:7722  if (error == RecoverError.NoError) {... */\n      iszero\n        /* \"@openzeppelin/contracts/utils/cryptography/ECDSA.sol\":7327:7334  return; */\n      tag_316\n        /* \"@openzeppelin/contracts/utils/cryptography/ECDSA.sol\":7278:7722  if (error == RecoverError.NoError) {... */\n      jumpi\n        /* \"@openzeppelin/contracts/utils/cryptography/ECDSA.sol\":7387:7416  RecoverError.InvalidSignature */\n      0x01\n        /* \"@openzeppelin/contracts/utils/cryptography/ECDSA.sol\":7378:7416  error == RecoverError.InvalidSignature */\n      0x03\n      dup2\n      gt\n      iszero\n      tag_324\n      jumpi\n      tag_325\n      tag_319\n      jump\t// in\n    tag_325:\n    tag_324:\n        /* \"@openzeppelin/contracts/utils/cryptography/ECDSA.sol\":7378:7383  error */\n      dup3\n        /* \"@openzeppelin/contracts/utils/cryptography/ECDSA.sol\":7378:7416  error == RecoverError.InvalidSignature */\n      0x03\n      dup2\n      gt\n      iszero\n      tag_326\n      jumpi\n      tag_327\n      tag_319\n      jump\t// in\n    tag_327:\n    tag_326:\n      sub\n        /* \"@openzeppelin/contracts/utils/cryptography/ECDSA.sol\":7374:7722  if (error == RecoverError.InvalidSignature) {... */\n      tag_328\n      jumpi\n        /* \"@openzeppelin/contracts/utils/cryptography/ECDSA.sol\":7439:7462  ECDSAInvalidSignature() */\n      mload(0x40)\n      0xf645eedf00000000000000000000000000000000000000000000000000000000\n      dup2\n      mstore\n      0x04\n      add\n      mload(0x40)\n      dup1\n      swap2\n      sub\n      swap1\n      revert\n        /* \"@openzeppelin/contracts/utils/cryptography/ECDSA.sol\":7374:7722  if (error == RecoverError.InvalidSignature) {... */\n    tag_328:\n        /* \"@openzeppelin/contracts/utils/cryptography/ECDSA.sol\":7492:7527  RecoverError.InvalidSignatureLength */\n      0x02\n        /* \"@openzeppelin/contracts/utils/cryptography/ECDSA.sol\":7483:7527  error == RecoverError.InvalidSignatureLength */\n      0x03\n      dup2\n      gt\n      iszero\n      tag_330\n      jumpi\n      tag_331\n      tag_319\n      jump\t// in\n    tag_331:\n    tag_330:\n        /* \"@openzeppelin/contracts/utils/cryptography/ECDSA.sol\":7483:7488  error */\n      dup3\n        /* \"@openzeppelin/contracts/utils/cryptography/ECDSA.sol\":7483:7527  error == RecoverError.InvalidSignatureLength */\n      0x03\n      dup2\n      gt\n      iszero\n      tag_332\n      jumpi\n      tag_333\n      tag_319\n      jump\t// in\n    tag_333:\n    tag_332:\n      sub\n        /* \"@openzeppelin/contracts/utils/cryptography/ECDSA.sol\":7479:7722  if (error == RecoverError.InvalidSignatureLength) {... */\n      tag_334\n      jumpi\n        /* \"@openzeppelin/contracts/utils/cryptography/ECDSA.sol\":7586:7594  errorArg */\n      dup1\n        /* \"@openzeppelin/contracts/utils/cryptography/ECDSA.sol\":7578:7595  uint256(errorArg) */\n      0x00\n      shr\n        /* \"@openzeppelin/contracts/utils/cryptography/ECDSA.sol\":7550:7596  ECDSAInvalidSignatureLength(uint256(errorArg)) */\n      mload(0x40)\n      0xfce698f700000000000000000000000000000000000000000000000000000000\n      dup2\n      mstore\n      0x04\n      add\n      tag_335\n      swap2\n      swap1\n      tag_41\n      jump\t// in\n    tag_335:\n      mload(0x40)\n      dup1\n      swap2\n      sub\n      swap1\n      revert\n        /* \"@openzeppelin/contracts/utils/cryptography/ECDSA.sol\":7479:7722  if (error == RecoverError.InvalidSignatureLength) {... */\n    tag_334:\n        /* \"@openzeppelin/contracts/utils/cryptography/ECDSA.sol\":7626:7656  RecoverError.InvalidSignatureS */\n      0x03\n        /* \"@openzeppelin/contracts/utils/cryptography/ECDSA.sol\":7617:7656  error == RecoverError.InvalidSignatureS */\n      dup1\n      dup2\n      gt\n      iszero\n      tag_337\n      jumpi\n      tag_338\n      tag_319\n      jump\t// in\n    tag_338:\n    tag_337:\n        /* \"@openzeppelin/contracts/utils/cryptography/ECDSA.sol\":7617:7622  error */\n      dup3\n        /* \"@openzeppelin/contracts/utils/cryptography/ECDSA.sol\":7617:7656  error == RecoverError.InvalidSignatureS */\n      0x03\n      dup2\n      gt\n      iszero\n      tag_339\n      jumpi\n      tag_340\n      tag_319\n      jump\t// in\n    tag_340:\n    tag_339:\n      sub\n        /* \"@openzeppelin/contracts/utils/cryptography/ECDSA.sol\":7613:7722  if (error == RecoverError.InvalidSignatureS) {... */\n      tag_341\n      jumpi\n        /* \"@openzeppelin/contracts/utils/cryptography/ECDSA.sol\":7702:7710  errorArg */\n      dup1\n        /* \"@openzeppelin/contracts/utils/cryptography/ECDSA.sol\":7679:7711  ECDSAInvalidSignatureS(errorArg) */\n      mload(0x40)\n      0xd78bce0c00000000000000000000000000000000000000000000000000000000\n      dup2\n      mstore\n      0x04\n      add\n      tag_342\n      swap2\n      swap1\n      tag_54\n      jump\t// in\n    tag_342:\n      mload(0x40)\n      dup1\n      swap2\n      sub\n      swap1\n      revert\n        /* \"@openzeppelin/contracts/utils/cryptography/ECDSA.sol\":7613:7722  if (error == RecoverError.InvalidSignatureS) {... */\n    tag_341:\n        /* \"@openzeppelin/contracts/utils/cryptography/ECDSA.sol\":7196:7728  function _throwError(RecoverError error, bytes32 errorArg) private pure {... */\n    tag_316:\n      pop\n      pop\n      jump\t// out\n        /* \"@openzeppelin/contracts/token/ERC20/extensions/ERC20Pausable.sol\":1112:1257  function _update(address from, address to, uint256 value) internal virtual override whenNotPaused {... */\n    tag_288:\n        /* \"@openzeppelin/contracts/utils/Pausable.sol\":1474:1493  _requireNotPaused() */\n      tag_344\n        /* \"@openzeppelin/contracts/utils/Pausable.sol\":1474:1491  _requireNotPaused */\n      tag_256\n        /* \"@openzeppelin/contracts/utils/Pausable.sol\":1474:1493  _requireNotPaused() */\n      jump\t// in\n    tag_344:\n        /* \"@openzeppelin/contracts/token/ERC20/extensions/ERC20Pausable.sol\":1220:1250  super._update(from, to, value) */\n      tag_346\n        /* \"@openzeppelin/contracts/token/ERC20/extensions/ERC20Pausable.sol\":1234:1238  from */\n      dup4\n        /* \"@openzeppelin/contracts/token/ERC20/extensions/ERC20Pausable.sol\":1240:1242  to */\n      dup4\n        /* \"@openzeppelin/contracts/token/ERC20/extensions/ERC20Pausable.sol\":1244:1249  value */\n      dup4\n        /* \"@openzeppelin/contracts/token/ERC20/extensions/ERC20Pausable.sol\":1220:1233  super._update */\n      tag_347\n        /* \"@openzeppelin/contracts/token/ERC20/extensions/ERC20Pausable.sol\":1220:1250  super._update(from, to, value) */\n      jump\t// in\n    tag_346:\n        /* \"@openzeppelin/contracts/token/ERC20/extensions/ERC20Pausable.sol\":1112:1257  function _update(address from, address to, uint256 value) internal virtual override whenNotPaused {... */\n      pop\n      pop\n      pop\n      jump\t// out\n        /* \"@openzeppelin/contracts/utils/ShortStrings.sol\":2078:2483  function toString(ShortString sstr) internal pure returns (string memory) {... */\n    tag_301:\n        /* \"@openzeppelin/contracts/utils/ShortStrings.sol\":2137:2150  string memory */\n      0x60\n        /* \"@openzeppelin/contracts/utils/ShortStrings.sol\":2162:2173  uint256 len */\n      0x00\n        /* \"@openzeppelin/contracts/utils/ShortStrings.sol\":2176:2192  byteLength(sstr) */\n      tag_349\n        /* \"@openzeppelin/contracts/utils/ShortStrings.sol\":2187:2191  sstr */\n      dup4\n        /* \"@openzeppelin/contracts/utils/ShortStrings.sol\":2176:2186  byteLength */\n      tag_350\n        /* \"@openzeppelin/contracts/utils/ShortStrings.sol\":2176:2192  byteLength(sstr) */\n      jump\t// in\n    tag_349:\n        /* \"@openzeppelin/contracts/utils/ShortStrings.sol\":2162:2192  uint256 len = byteLength(sstr) */\n      swap1\n      pop\n        /* \"@openzeppelin/contracts/utils/ShortStrings.sol\":2280:2297  string memory str */\n      0x00\n        /* \"@openzeppelin/contracts/utils/ShortStrings.sol\":2311:2313  32 */\n      0x20\n        /* \"@openzeppelin/contracts/utils/ShortStrings.sol\":2300:2314  new string(32) */\n      0xffffffffffffffff\n      dup2\n      gt\n      iszero\n      tag_351\n      jumpi\n      tag_352\n      tag_174\n      jump\t// in\n    tag_352:\n    tag_351:\n      mload(0x40)\n      swap1\n      dup1\n      dup3\n      mstore\n      dup1\n      0x1f\n      add\n      not(0x1f)\n      and\n      0x20\n      add\n      dup3\n      add\n      0x40\n      mstore\n      dup1\n      iszero\n      tag_353\n      jumpi\n      dup2\n      0x20\n      add\n      0x01\n      dup3\n      mul\n      dup1\n      calldatasize\n      dup4\n      calldatacopy\n      dup1\n      dup3\n      add\n      swap2\n      pop\n      pop\n      swap1\n      pop\n    tag_353:\n      pop\n        /* \"@openzeppelin/contracts/utils/ShortStrings.sol\":2280:2314  string memory str = new string(32) */\n      swap1\n      pop\n        /* \"@openzeppelin/contracts/utils/ShortStrings.sol\":2402:2405  len */\n      dup2\n        /* \"@openzeppelin/contracts/utils/ShortStrings.sol\":2397:2400  str */\n      dup2\n        /* \"@openzeppelin/contracts/utils/ShortStrings.sol\":2390:2406  mstore(str, len) */\n      mstore\n        /* \"@openzeppelin/contracts/utils/ShortStrings.sol\":2442:2446  sstr */\n      dup4\n        /* \"@openzeppelin/contracts/utils/ShortStrings.sol\":2435:2439  0x20 */\n      0x20\n        /* \"@openzeppelin/contracts/utils/ShortStrings.sol\":2430:2433  str */\n      dup3\n        /* \"@openzeppelin/contracts/utils/ShortStrings.sol\":2426:2440  add(str, 0x20) */\n      add\n        /* \"@openzeppelin/contracts/utils/ShortStrings.sol\":2419:2447  mstore(add(str, 0x20), sstr) */\n      mstore\n        /* \"@openzeppelin/contracts/utils/ShortStrings.sol\":2473:2476  str */\n      dup1\n        /* \"@openzeppelin/contracts/utils/ShortStrings.sol\":2466:2476  return str */\n      swap3\n      pop\n      pop\n      pop\n        /* \"@openzeppelin/contracts/utils/ShortStrings.sol\":2078:2483  function toString(ShortString sstr) internal pure returns (string memory) {... */\n      swap2\n      swap1\n      pop\n      jump\t// out\n        /* \"@openzeppelin/contracts/token/ERC20/ERC20.sol\":6271:7378  function _update(address from, address to, uint256 value) internal virtual {... */\n    tag_347:\n        /* \"@openzeppelin/contracts/token/ERC20/ERC20.sol\":6376:6377  0 */\n      0x00\n        /* \"@openzeppelin/contracts/token/ERC20/ERC20.sol\":6360:6378  from == address(0) */\n      0xffffffffffffffffffffffffffffffffffffffff\n      and\n        /* \"@openzeppelin/contracts/token/ERC20/ERC20.sol\":6360:6364  from */\n      dup4\n        /* \"@openzeppelin/contracts/token/ERC20/ERC20.sol\":6360:6378  from == address(0) */\n      0xffffffffffffffffffffffffffffffffffffffff\n      and\n      sub\n        /* \"@openzeppelin/contracts/token/ERC20/ERC20.sol\":6356:6896  if (from == address(0)) {... */\n      tag_355\n      jumpi\n        /* \"@openzeppelin/contracts/token/ERC20/ERC20.sol\":6512:6517  value */\n      dup1\n        /* \"@openzeppelin/contracts/token/ERC20/ERC20.sol\":6496:6508  _totalSupply */\n      0x02\n      0x00\n        /* \"@openzeppelin/contracts/token/ERC20/ERC20.sol\":6496:6517  _totalSupply += value */\n      dup3\n      dup3\n      sload\n      tag_356\n      swap2\n      swap1\n      tag_357\n      jump\t// in\n    tag_356:\n      swap3\n      pop\n      pop\n      dup2\n      swap1\n      sstore\n      pop\n        /* \"@openzeppelin/contracts/token/ERC20/ERC20.sol\":6356:6896  if (from == address(0)) {... */\n      jump(tag_358)\n    tag_355:\n        /* \"@openzeppelin/contracts/token/ERC20/ERC20.sol\":6548:6567  uint256 fromBalance */\n      0x00\n        /* \"@openzeppelin/contracts/token/ERC20/ERC20.sol\":6570:6579  _balances */\n      dup1\n        /* \"@openzeppelin/contracts/token/ERC20/ERC20.sol\":6570:6585  _balances[from] */\n      0x00\n        /* \"@openzeppelin/contracts/token/ERC20/ERC20.sol\":6580:6584  from */\n      dup6\n        /* \"@openzeppelin/contracts/token/ERC20/ERC20.sol\":6570:6585  _balances[from] */\n      0xffffffffffffffffffffffffffffffffffffffff\n      and\n      0xffffffffffffffffffffffffffffffffffffffff\n      and\n      dup2\n      mstore\n      0x20\n      add\n      swap1\n      dup2\n      mstore\n      0x20\n      add\n      0x00\n      keccak256\n      sload\n        /* \"@openzeppelin/contracts/token/ERC20/ERC20.sol\":6548:6585  uint256 fromBalance = _balances[from] */\n      swap1\n      pop\n        /* \"@openzeppelin/contracts/token/ERC20/ERC20.sol\":6617:6622  value */\n      dup2\n        /* \"@openzeppelin/contracts/token/ERC20/ERC20.sol\":6603:6614  fromBalance */\n      dup2\n        /* \"@openzeppelin/contracts/token/ERC20/ERC20.sol\":6603:6622  fromBalance < value */\n      lt\n        /* \"@openzeppelin/contracts/token/ERC20/ERC20.sol\":6599:6714  if (fromBalance < value) {... */\n      iszero\n      tag_359\n      jumpi\n        /* \"@openzeppelin/contracts/token/ERC20/ERC20.sol\":6674:6678  from */\n      dup4\n        /* \"@openzeppelin/contracts/token/ERC20/ERC20.sol\":6680:6691  fromBalance */\n      dup2\n        /* \"@openzeppelin/contracts/token/ERC20/ERC20.sol\":6693:6698  value */\n      dup4\n        /* \"@openzeppelin/contracts/token/ERC20/ERC20.sol\":6649:6699  ERC20InsufficientBalance(from, fromBalance, value) */\n      mload(0x40)\n      0xe450d38c00000000000000000000000000000000000000000000000000000000\n      dup2\n      mstore\n      0x04\n      add\n      tag_360\n      swap4\n      swap3\n      swap2\n      swap1\n      tag_217\n      jump\t// in\n    tag_360:\n      mload(0x40)\n      dup1\n      swap2\n      sub\n      swap1\n      revert\n        /* \"@openzeppelin/contracts/token/ERC20/ERC20.sol\":6599:6714  if (fromBalance < value) {... */\n    tag_359:\n        /* \"@openzeppelin/contracts/token/ERC20/ERC20.sol\":6866:6871  value */\n      dup2\n        /* \"@openzeppelin/contracts/token/ERC20/ERC20.sol\":6852:6863  fromBalance */\n      dup2\n        /* \"@openzeppelin/contracts/token/ERC20/ERC20.sol\":6852:6871  fromBalance - value */\n      sub\n        /* \"@openzeppelin/contracts/token/ERC20/ERC20.sol\":6834:6843  _balances */\n      0x00\n        /* \"@openzeppelin/contracts/token/ERC20/ERC20.sol\":6834:6849  _balances[from] */\n      dup1\n        /* \"@openzeppelin/contracts/token/ERC20/ERC20.sol\":6844:6848  from */\n      dup7\n        /* \"@openzeppelin/contracts/token/ERC20/ERC20.sol\":6834:6849  _balances[from] */\n      0xffffffffffffffffffffffffffffffffffffffff\n      and\n      0xffffffffffffffffffffffffffffffffffffffff\n      and\n      dup2\n      mstore\n      0x20\n      add\n      swap1\n      dup2\n      mstore\n      0x20\n      add\n      0x00\n      keccak256\n        /* \"@openzeppelin/contracts/token/ERC20/ERC20.sol\":6834:6871  _balances[from] = fromBalance - value */\n      dup2\n      swap1\n      sstore\n      pop\n        /* \"@openzeppelin/contracts/token/ERC20/ERC20.sol\":6534:6896  {... */\n      pop\n        /* \"@openzeppelin/contracts/token/ERC20/ERC20.sol\":6356:6896  if (from == address(0)) {... */\n    tag_358:\n        /* \"@openzeppelin/contracts/token/ERC20/ERC20.sol\":6924:6925  0 */\n      0x00\n        /* \"@openzeppelin/contracts/token/ERC20/ERC20.sol\":6910:6926  to == address(0) */\n      0xffffffffffffffffffffffffffffffffffffffff\n      and\n        /* \"@openzeppelin/contracts/token/ERC20/ERC20.sol\":6910:6912  to */\n      dup3\n        /* \"@openzeppelin/contracts/token/ERC20/ERC20.sol\":6910:6926  to == address(0) */\n      0xffffffffffffffffffffffffffffffffffffffff\n      and\n      sub\n        /* \"@openzeppelin/contracts/token/ERC20/ERC20.sol\":6906:7331  if (to == address(0)) {... */\n      tag_361\n      jumpi\n        /* \"@openzeppelin/contracts/token/ERC20/ERC20.sol\":7089:7094  value */\n      dup1\n        /* \"@openzeppelin/contracts/token/ERC20/ERC20.sol\":7073:7085  _totalSupply */\n      0x02\n      0x00\n        /* \"@openzeppelin/contracts/token/ERC20/ERC20.sol\":7073:7094  _totalSupply -= value */\n      dup3\n      dup3\n      sload\n      sub\n      swap3\n      pop\n      pop\n      dup2\n      swap1\n      sstore\n      pop\n        /* \"@openzeppelin/contracts/token/ERC20/ERC20.sol\":6906:7331  if (to == address(0)) {... */\n      jump(tag_362)\n    tag_361:\n        /* \"@openzeppelin/contracts/token/ERC20/ERC20.sol\":7301:7306  value */\n      dup1\n        /* \"@openzeppelin/contracts/token/ERC20/ERC20.sol\":7284:7293  _balances */\n      0x00\n        /* \"@openzeppelin/contracts/token/ERC20/ERC20.sol\":7284:7297  _balances[to] */\n      dup1\n        /* \"@openzeppelin/contracts/token/ERC20/ERC20.sol\":7294:7296  to */\n      dup5\n        /* \"@openzeppelin/contracts/token/ERC20/ERC20.sol\":7284:7297  _balances[to] */\n      0xffffffffffffffffffffffffffffffffffffffff\n      and\n      0xffffffffffffffffffffffffffffffffffffffff\n      and\n      dup2\n      mstore\n      0x20\n      add\n      swap1\n      dup2\n      mstore\n      0x20\n      add\n      0x00\n      keccak256\n      0x00\n        /* \"@openzeppelin/contracts/token/ERC20/ERC20.sol\":7284:7306  _balances[to] += value */\n      dup3\n      dup3\n      sload\n      add\n      swap3\n      pop\n      pop\n      dup2\n      swap1\n      sstore\n      pop\n        /* \"@openzeppelin/contracts/token/ERC20/ERC20.sol\":6906:7331  if (to == address(0)) {... */\n    tag_362:\n        /* \"@openzeppelin/contracts/token/ERC20/ERC20.sol\":7361:7363  to */\n      dup2\n        /* \"@openzeppelin/contracts/token/ERC20/ERC20.sol\":7346:7371  Transfer(from, to, value) */\n      0xffffffffffffffffffffffffffffffffffffffff\n      and\n        /* \"@openzeppelin/contracts/token/ERC20/ERC20.sol\":7355:7359  from */\n      dup4\n        /* \"@openzeppelin/contracts/token/ERC20/ERC20.sol\":7346:7371  Transfer(from, to, value) */\n      0xffffffffffffffffffffffffffffffffffffffff\n      and\n      0xddf252ad1be2c89b69c2b068fc378daa952ba7f163c4a11628f55a4df523b3ef\n        /* \"@openzeppelin/contracts/token/ERC20/ERC20.sol\":7365:7370  value */\n      dup4\n        /* \"@openzeppelin/contracts/token/ERC20/ERC20.sol\":7346:7371  Transfer(from, to, value) */\n      mload(0x40)\n      tag_363\n      swap2\n      swap1\n      tag_41\n      jump\t// in\n    tag_363:\n      mload(0x40)\n      dup1\n      swap2\n      sub\n      swap1\n      log3\n        /* \"@openzeppelin/contracts/token/ERC20/ERC20.sol\":6271:7378  function _update(address from, address to, uint256 value) internal virtual {... */\n      pop\n      pop\n      pop\n      jump\t// out\n        /* \"@openzeppelin/contracts/utils/ShortStrings.sol\":2555:2800  function byteLength(ShortString sstr) internal pure returns (uint256) {... */\n    tag_350:\n        /* \"@openzeppelin/contracts/utils/ShortStrings.sol\":2616:2623  uint256 */\n      0x00\n        /* \"@openzeppelin/contracts/utils/ShortStrings.sol\":2635:2649  uint256 result */\n      dup1\n        /* \"@openzeppelin/contracts/utils/ShortStrings.sol\":2688:2692  0xFF */\n      0xff\n        /* \"@openzeppelin/contracts/utils/ShortStrings.sol\":2679:2683  sstr */\n      dup4\n        /* \"@openzeppelin/contracts/utils/ShortStrings.sol\":2652:2685  uint256(ShortString.unwrap(sstr)) */\n      0x00\n      shr\n        /* \"@openzeppelin/contracts/utils/ShortStrings.sol\":2652:2692  uint256(ShortString.unwrap(sstr)) & 0xFF */\n      and\n        /* \"@openzeppelin/contracts/utils/ShortStrings.sol\":2635:2692  uint256 result = uint256(ShortString.unwrap(sstr)) & 0xFF */\n      swap1\n      pop\n        /* \"@openzeppelin/contracts/utils/ShortStrings.sol\":2715:2717  31 */\n      0x1f\n        /* \"@openzeppelin/contracts/utils/ShortStrings.sol\":2706:2712  result */\n      dup2\n        /* \"@openzeppelin/contracts/utils/ShortStrings.sol\":2706:2717  result > 31 */\n      gt\n        /* \"@openzeppelin/contracts/utils/ShortStrings.sol\":2702:2771  if (result > 31) {... */\n      iszero\n      tag_365\n      jumpi\n        /* \"@openzeppelin/contracts/utils/ShortStrings.sol\":2740:2760  InvalidShortString() */\n      mload(0x40)\n      0xb3512b0c00000000000000000000000000000000000000000000000000000000\n      dup2\n      mstore\n      0x04\n      add\n      mload(0x40)\n      dup1\n      swap2\n      sub\n      swap1\n      revert\n        /* \"@openzeppelin/contracts/utils/ShortStrings.sol\":2702:2771  if (result > 31) {... */\n    tag_365:\n        /* \"@openzeppelin/contracts/utils/ShortStrings.sol\":2787:2793  result */\n      dup1\n        /* \"@openzeppelin/contracts/utils/ShortStrings.sol\":2780:2793  return result */\n      swap2\n      pop\n      pop\n        /* \"@openzeppelin/contracts/utils/ShortStrings.sol\":2555:2800  function byteLength(ShortString sstr) internal pure returns (uint256) {... */\n      swap2\n      swap1\n      pop\n      jump\t// out\n        /* \"#utility.yul\":7:106   */\n    tag_366:\n        /* \"#utility.yul\":59:65   */\n      0x00\n        /* \"#utility.yul\":93:98   */\n      dup2\n        /* \"#utility.yul\":87:99   */\n      mload\n        /* \"#utility.yul\":77:99   */\n      swap1\n      pop\n        /* \"#utility.yul\":7:106   */\n      swap2\n      swap1\n      pop\n      jump\t// out\n        /* \"#utility.yul\":112:281   */\n    tag_367:\n        /* \"#utility.yul\":196:207   */\n      0x00\n        /* \"#utility.yul\":230:236   */\n      dup3\n        /* \"#utility.yul\":225:228   */\n      dup3\n        /* \"#utility.yul\":218:237   */\n      mstore\n        /* \"#utility.yul\":270:274   */\n      0x20\n        /* \"#utility.yul\":265:268   */\n      dup3\n        /* \"#utility.yul\":261:275   */\n      add\n        /* \"#utility.yul\":246:275   */\n      swap1\n      pop\n        /* \"#utility.yul\":112:281   */\n      swap3\n      swap2\n      pop\n      pop\n      jump\t// out\n        /* \"#utility.yul\":287:533   */\n    tag_368:\n        /* \"#utility.yul\":368:369   */\n      0x00\n        /* \"#utility.yul\":378:491   */\n    tag_410:\n        /* \"#utility.yul\":392:398   */\n      dup4\n        /* \"#utility.yul\":389:390   */\n      dup2\n        /* \"#utility.yul\":386:399   */\n      lt\n        /* \"#utility.yul\":378:491   */\n      iszero\n      tag_412\n      jumpi\n        /* \"#utility.yul\":477:478   */\n      dup1\n        /* \"#utility.yul\":472:475   */\n      dup3\n        /* \"#utility.yul\":468:479   */\n      add\n        /* \"#utility.yul\":462:480   */\n      mload\n        /* \"#utility.yul\":458:459   */\n      dup2\n        /* \"#utility.yul\":453:456   */\n      dup5\n        /* \"#utility.yul\":449:460   */\n      add\n        /* \"#utility.yul\":442:481   */\n      mstore\n        /* \"#utility.yul\":414:416   */\n      0x20\n        /* \"#utility.yul\":411:412   */\n      dup2\n        /* \"#utility.yul\":407:417   */\n      add\n        /* \"#utility.yul\":402:417   */\n      swap1\n      pop\n        /* \"#utility.yul\":378:491   */\n      jump(tag_410)\n    tag_412:\n        /* \"#utility.yul\":525:526   */\n      0x00\n        /* \"#utility.yul\":516:522   */\n      dup5\n        /* \"#utility.yul\":511:514   */\n      dup5\n        /* \"#utility.yul\":507:523   */\n      add\n        /* \"#utility.yul\":500:527   */\n      mstore\n        /* \"#utility.yul\":349:533   */\n      pop\n        /* \"#utility.yul\":287:533   */\n      pop\n      pop\n      pop\n      jump\t// out\n        /* \"#utility.yul\":539:641   */\n    tag_369:\n        /* \"#utility.yul\":580:586   */\n      0x00\n        /* \"#utility.yul\":631:633   */\n      0x1f\n        /* \"#utility.yul\":627:634   */\n      not\n        /* \"#utility.yul\":622:624   */\n      0x1f\n        /* \"#utility.yul\":615:620   */\n      dup4\n        /* \"#utility.yul\":611:625   */\n      add\n        /* \"#utility.yul\":607:635   */\n      and\n        /* \"#utility.yul\":597:635   */\n      swap1\n      pop\n        /* \"#utility.yul\":539:641   */\n      swap2\n      swap1\n      pop\n      jump\t// out\n        /* \"#utility.yul\":647:1024   */\n    tag_370:\n        /* \"#utility.yul\":735:738   */\n      0x00\n        /* \"#utility.yul\":763:802   */\n      tag_415\n        /* \"#utility.yul\":796:801   */\n      dup3\n        /* \"#utility.yul\":763:802   */\n      tag_366\n      jump\t// in\n    tag_415:\n        /* \"#utility.yul\":818:889   */\n      tag_416\n        /* \"#utility.yul\":882:888   */\n      dup2\n        /* \"#utility.yul\":877:880   */\n      dup6\n        /* \"#utility.yul\":818:889   */\n      tag_367\n      jump\t// in\n    tag_416:\n        /* \"#utility.yul\":811:889   */\n      swap4\n      pop\n        /* \"#utility.yul\":898:963   */\n      tag_417\n        /* \"#utility.yul\":956:962   */\n      dup2\n        /* \"#utility.yul\":951:954   */\n      dup6\n        /* \"#utility.yul\":944:948   */\n      0x20\n        /* \"#utility.yul\":937:942   */\n      dup7\n        /* \"#utility.yul\":933:949   */\n      add\n        /* \"#utility.yul\":898:963   */\n      tag_368\n      jump\t// in\n    tag_417:\n        /* \"#utility.yul\":988:1017   */\n      tag_418\n        /* \"#utility.yul\":1010:1016   */\n      dup2\n        /* \"#utility.yul\":988:1017   */\n      tag_369\n      jump\t// in\n    tag_418:\n        /* \"#utility.yul\":983:986   */\n      dup5\n        /* \"#utility.yul\":979:1018   */\n      add\n        /* \"#utility.yul\":972:1018   */\n      swap2\n      pop\n        /* \"#utility.yul\":739:1024   */\n      pop\n        /* \"#utility.yul\":647:1024   */\n      swap3\n      swap2\n      pop\n      pop\n      jump\t// out\n        /* \"#utility.yul\":1030:1343   */\n    tag_31:\n        /* \"#utility.yul\":1143:1147   */\n      0x00\n        /* \"#utility.yul\":1181:1183   */\n      0x20\n        /* \"#utility.yul\":1170:1179   */\n      dup3\n        /* \"#utility.yul\":1166:1184   */\n      add\n        /* \"#utility.yul\":1158:1184   */\n      swap1\n      pop\n        /* \"#utility.yul\":1230:1239   */\n      dup2\n        /* \"#utility.yul\":1224:1228   */\n      dup2\n        /* \"#utility.yul\":1220:1240   */\n      sub\n        /* \"#utility.yul\":1216:1217   */\n      0x00\n        /* \"#utility.yul\":1205:1214   */\n      dup4\n        /* \"#utility.yul\":1201:1218   */\n      add\n        /* \"#utility.yul\":1194:1241   */\n      mstore\n        /* \"#utility.yul\":1258:1336   */\n      tag_420\n        /* \"#utility.yul\":1331:1335   */\n      dup2\n        /* \"#utility.yul\":1322:1328   */\n      dup5\n        /* \"#utility.yul\":1258:1336   */\n      tag_370\n      jump\t// in\n    tag_420:\n        /* \"#utility.yul\":1250:1336   */\n      swap1\n      pop\n        /* \"#utility.yul\":1030:1343   */\n      swap3\n      swap2\n      pop\n      pop\n      jump\t// out\n        /* \"#utility.yul\":1430:1547   */\n    tag_372:\n        /* \"#utility.yul\":1539:1540   */\n      0x00\n        /* \"#utility.yul\":1536:1537   */\n      dup1\n        /* \"#utility.yul\":1529:1541   */\n      revert\n        /* \"#utility.yul\":1676:1802   */\n    tag_374:\n        /* \"#utility.yul\":1713:1720   */\n      0x00\n        /* \"#utility.yul\":1753:1795   */\n      0xffffffffffffffffffffffffffffffffffffffff\n        /* \"#utility.yul\":1746:1751   */\n      dup3\n        /* \"#utility.yul\":1742:1796   */\n      and\n        /* \"#utility.yul\":1731:1796   */\n      swap1\n      pop\n        /* \"#utility.yul\":1676:1802   */\n      swap2\n      swap1\n      pop\n      jump\t// out\n        /* \"#utility.yul\":1808:1904   */\n    tag_375:\n        /* \"#utility.yul\":1845:1852   */\n      0x00\n        /* \"#utility.yul\":1874:1898   */\n      tag_426\n        /* \"#utility.yul\":1892:1897   */\n      dup3\n        /* \"#utility.yul\":1874:1898   */\n      tag_374\n      jump\t// in\n    tag_426:\n        /* \"#utility.yul\":1863:1898   */\n      swap1\n      pop\n        /* \"#utility.yul\":1808:1904   */\n      swap2\n      swap1\n      pop\n      jump\t// out\n        /* \"#utility.yul\":1910:2032   */\n    tag_376:\n        /* \"#utility.yul\":1983:2007   */\n      tag_428\n        /* \"#utility.yul\":2001:2006   */\n      dup2\n        /* \"#utility.yul\":1983:2007   */\n      tag_375\n      jump\t// in\n    tag_428:\n        /* \"#utility.yul\":1976:1981   */\n      dup2\n        /* \"#utility.yul\":1973:2008   */\n      eq\n        /* \"#utility.yul\":1963:2026   */\n      tag_429\n      jumpi\n        /* \"#utility.yul\":2022:2023   */\n      0x00\n        /* \"#utility.yul\":2019:2020   */\n      dup1\n        /* \"#utility.yul\":2012:2024   */\n      revert\n        /* \"#utility.yul\":1963:2026   */\n    tag_429:\n        /* \"#utility.yul\":1910:2032   */\n      pop\n      jump\t// out\n        /* \"#utility.yul\":2038:2177   */\n    tag_377:\n        /* \"#utility.yul\":2084:2089   */\n      0x00\n        /* \"#utility.yul\":2122:2128   */\n      dup2\n        /* \"#utility.yul\":2109:2129   */\n      calldataload\n        /* \"#utility.yul\":2100:2129   */\n      swap1\n      pop\n        /* \"#utility.yul\":2138:2171   */\n      tag_431\n        /* \"#utility.yul\":2165:2170   */\n      dup2\n        /* \"#utility.yul\":2138:2171   */\n      tag_376\n      jump\t// in\n    tag_431:\n        /* \"#utility.yul\":2038:2177   */\n      swap3\n      swap2\n      pop\n      pop\n      jump\t// out\n        /* \"#utility.yul\":2183:2260   */\n    tag_378:\n        /* \"#utility.yul\":2220:2227   */\n      0x00\n        /* \"#utility.yul\":2249:2254   */\n      dup2\n        /* \"#utility.yul\":2238:2254   */\n      swap1\n      pop\n        /* \"#utility.yul\":2183:2260   */\n      swap2\n      swap1\n      pop\n      jump\t// out\n        /* \"#utility.yul\":2266:2388   */\n    tag_379:\n        /* \"#utility.yul\":2339:2363   */\n      tag_434\n        /* \"#utility.yul\":2357:2362   */\n      dup2\n        /* \"#utility.yul\":2339:2363   */\n      tag_378\n      jump\t// in\n    tag_434:\n        /* \"#utility.yul\":2332:2337   */\n      dup2\n        /* \"#utility.yul\":2329:2364   */\n      eq\n        /* \"#utility.yul\":2319:2382   */\n      tag_435\n      jumpi\n        /* \"#utility.yul\":2378:2379   */\n      0x00\n        /* \"#utility.yul\":2375:2376   */\n      dup1\n        /* \"#utility.yul\":2368:2380   */\n      revert\n        /* \"#utility.yul\":2319:2382   */\n    tag_435:\n        /* \"#utility.yul\":2266:2388   */\n      pop\n      jump\t// out\n        /* \"#utility.yul\":2394:2533   */\n    tag_380:\n        /* \"#utility.yul\":2440:2445   */\n      0x00\n        /* \"#utility.yul\":2478:2484   */\n      dup2\n        /* \"#utility.yul\":2465:2485   */\n      calldataload\n        /* \"#utility.yul\":2456:2485   */\n      swap1\n      pop\n        /* \"#utility.yul\":2494:2527   */\n      tag_437\n        /* \"#utility.yul\":2521:2526   */\n      dup2\n        /* \"#utility.yul\":2494:2527   */\n      tag_379\n      jump\t// in\n    tag_437:\n        /* \"#utility.yul\":2394:2533   */\n      swap3\n      swap2\n      pop\n      pop\n      jump\t// out\n        /* \"#utility.yul\":2539:3013   */\n    tag_34:\n        /* \"#utility.yul\":2607:2613   */\n      0x00\n        /* \"#utility.yul\":2615:2621   */\n      dup1\n        /* \"#utility.yul\":2664:2666   */\n      0x40\n        /* \"#utility.yul\":2652:2661   */\n      dup4\n        /* \"#utility.yul\":2643:2650   */\n      dup6\n        /* \"#utility.yul\":2639:2662   */\n      sub\n        /* \"#utility.yul\":2635:2667   */\n      slt\n        /* \"#utility.yul\":2632:2751   */\n      iszero\n      tag_439\n      jumpi\n        /* \"#utility.yul\":2670:2749   */\n      tag_440\n      tag_372\n      jump\t// in\n    tag_440:\n        /* \"#utility.yul\":2632:2751   */\n    tag_439:\n        /* \"#utility.yul\":2790:2791   */\n      0x00\n        /* \"#utility.yul\":2815:2868   */\n      tag_441\n        /* \"#utility.yul\":2860:2867   */\n      dup6\n        /* \"#utility.yul\":2851:2857   */\n      dup3\n        /* \"#utility.yul\":2840:2849   */\n      dup7\n        /* \"#utility.yul\":2836:2858   */\n      add\n        /* \"#utility.yul\":2815:2868   */\n      tag_377\n      jump\t// in\n    tag_441:\n        /* \"#utility.yul\":2805:2868   */\n      swap3\n      pop\n        /* \"#utility.yul\":2761:2878   */\n      pop\n        /* \"#utility.yul\":2917:2919   */\n      0x20\n        /* \"#utility.yul\":2943:2996   */\n      tag_442\n        /* \"#utility.yul\":2988:2995   */\n      dup6\n        /* \"#utility.yul\":2979:2985   */\n      dup3\n        /* \"#utility.yul\":2968:2977   */\n      dup7\n        /* \"#utility.yul\":2964:2986   */\n      add\n        /* \"#utility.yul\":2943:2996   */\n      tag_380\n      jump\t// in\n    tag_442:\n        /* \"#utility.yul\":2933:2996   */\n      swap2\n      pop\n        /* \"#utility.yul\":2888:3006   */\n      pop\n        /* \"#utility.yul\":2539:3013   */\n      swap3\n      pop\n      swap3\n      swap1\n      pop\n      jump\t// out\n        /* \"#utility.yul\":3019:3109   */\n    tag_381:\n        /* \"#utility.yul\":3053:3060   */\n      0x00\n        /* \"#utility.yul\":3096:3101   */\n      dup2\n        /* \"#utility.yul\":3089:3102   */\n      iszero\n        /* \"#utility.yul\":3082:3103   */\n      iszero\n        /* \"#utility.yul\":3071:3103   */\n      swap1\n      pop\n        /* \"#utility.yul\":3019:3109   */\n      swap2\n      swap1\n      pop\n      jump\t// out\n        /* \"#utility.yul\":3115:3224   */\n    tag_382:\n        /* \"#utility.yul\":3196:3217   */\n      tag_445\n        /* \"#utility.yul\":3211:3216   */\n      dup2\n        /* \"#utility.yul\":3196:3217   */\n      tag_381\n      jump\t// in\n    tag_445:\n        /* \"#utility.yul\":3191:3194   */\n      dup3\n        /* \"#utility.yul\":3184:3218   */\n      mstore\n        /* \"#utility.yul\":3115:3224   */\n      pop\n      pop\n      jump\t// out\n        /* \"#utility.yul\":3230:3440   */\n    tag_37:\n        /* \"#utility.yul\":3317:3321   */\n      0x00\n        /* \"#utility.yul\":3355:3357   */\n      0x20\n        /* \"#utility.yul\":3344:3353   */\n      dup3\n        /* \"#utility.yul\":3340:3358   */\n      add\n        /* \"#utility.yul\":3332:3358   */\n      swap1\n      pop\n        /* \"#utility.yul\":3368:3433   */\n      tag_447\n        /* \"#utility.yul\":3430:3431   */\n      0x00\n        /* \"#utility.yul\":3419:3428   */\n      dup4\n        /* \"#utility.yul\":3415:3432   */\n      add\n        /* \"#utility.yul\":3406:3412   */\n      dup5\n        /* \"#utility.yul\":3368:3433   */\n      tag_382\n      jump\t// in\n    tag_447:\n        /* \"#utility.yul\":3230:3440   */\n      swap3\n      swap2\n      pop\n      pop\n      jump\t// out\n        /* \"#utility.yul\":3446:3564   */\n    tag_383:\n        /* \"#utility.yul\":3533:3557   */\n      tag_449\n        /* \"#utility.yul\":3551:3556   */\n      dup2\n        /* \"#utility.yul\":3533:3557   */\n      tag_378\n      jump\t// in\n    tag_449:\n        /* \"#utility.yul\":3528:3531   */\n      dup3\n        /* \"#utility.yul\":3521:3558   */\n      mstore\n        /* \"#utility.yul\":3446:3564   */\n      pop\n      pop\n      jump\t// out\n        /* \"#utility.yul\":3570:3792   */\n    tag_41:\n        /* \"#utility.yul\":3663:3667   */\n      0x00\n        /* \"#utility.yul\":3701:3703   */\n      0x20\n        /* \"#utility.yul\":3690:3699   */\n      dup3\n        /* \"#utility.yul\":3686:3704   */\n      add\n        /* \"#utility.yul\":3678:3704   */\n      swap1\n      pop\n        /* \"#utility.yul\":3714:3785   */\n      tag_451\n        /* \"#utility.yul\":3782:3783   */\n      0x00\n        /* \"#utility.yul\":3771:3780   */\n      dup4\n        /* \"#utility.yul\":3767:3784   */\n      add\n        /* \"#utility.yul\":3758:3764   */\n      dup5\n        /* \"#utility.yul\":3714:3785   */\n      tag_383\n      jump\t// in\n    tag_451:\n        /* \"#utility.yul\":3570:3792   */\n      swap3\n      swap2\n      pop\n      pop\n      jump\t// out\n        /* \"#utility.yul\":3798:4417   */\n    tag_44:\n        /* \"#utility.yul\":3875:3881   */\n      0x00\n        /* \"#utility.yul\":3883:3889   */\n      dup1\n        /* \"#utility.yul\":3891:3897   */\n      0x00\n        /* \"#utility.yul\":3940:3942   */\n      0x60\n        /* \"#utility.yul\":3928:3937   */\n      dup5\n        /* \"#utility.yul\":3919:3926   */\n      dup7\n        /* \"#utility.yul\":3915:3938   */\n      sub\n        /* \"#utility.yul\":3911:3943   */\n      slt\n        /* \"#utility.yul\":3908:4027   */\n      iszero\n      tag_453\n      jumpi\n        /* \"#utility.yul\":3946:4025   */\n      tag_454\n      tag_372\n      jump\t// in\n    tag_454:\n        /* \"#utility.yul\":3908:4027   */\n    tag_453:\n        /* \"#utility.yul\":4066:4067   */\n      0x00\n        /* \"#utility.yul\":4091:4144   */\n      tag_455\n        /* \"#utility.yul\":4136:4143   */\n      dup7\n        /* \"#utility.yul\":4127:4133   */\n      dup3\n        /* \"#utility.yul\":4116:4125   */\n      dup8\n        /* \"#utility.yul\":4112:4134   */\n      add\n        /* \"#utility.yul\":4091:4144   */\n      tag_377\n      jump\t// in\n    tag_455:\n        /* \"#utility.yul\":4081:4144   */\n      swap4\n      pop\n        /* \"#utility.yul\":4037:4154   */\n      pop\n        /* \"#utility.yul\":4193:4195   */\n      0x20\n        /* \"#utility.yul\":4219:4272   */\n      tag_456\n        /* \"#utility.yul\":4264:4271   */\n      dup7\n        /* \"#utility.yul\":4255:4261   */\n      dup3\n        /* \"#utility.yul\":4244:4253   */\n      dup8\n        /* \"#utility.yul\":4240:4262   */\n      add\n        /* \"#utility.yul\":4219:4272   */\n      tag_377\n      jump\t// in\n    tag_456:\n        /* \"#utility.yul\":4209:4272   */\n      swap3\n      pop\n        /* \"#utility.yul\":4164:4282   */\n      pop\n        /* \"#utility.yul\":4321:4323   */\n      0x40\n        /* \"#utility.yul\":4347:4400   */\n      tag_457\n        /* \"#utility.yul\":4392:4399   */\n      dup7\n        /* \"#utility.yul\":4383:4389   */\n      dup3\n        /* \"#utility.yul\":4372:4381   */\n      dup8\n        /* \"#utility.yul\":4368:4390   */\n      add\n        /* \"#utility.yul\":4347:4400   */\n      tag_380\n      jump\t// in\n    tag_457:\n        /* \"#utility.yul\":4337:4400   */\n      swap2\n      pop\n        /* \"#utility.yul\":4292:4410   */\n      pop\n        /* \"#utility.yul\":3798:4417   */\n      swap3\n      pop\n      swap3\n      pop\n      swap3\n      jump\t// out\n        /* \"#utility.yul\":4423:4509   */\n    tag_384:\n        /* \"#utility.yul\":4458:4465   */\n      0x00\n        /* \"#utility.yul\":4498:4502   */\n      0xff\n        /* \"#utility.yul\":4491:4496   */\n      dup3\n        /* \"#utility.yul\":4487:4503   */\n      and\n        /* \"#utility.yul\":4476:4503   */\n      swap1\n      pop\n        /* \"#utility.yul\":4423:4509   */\n      swap2\n      swap1\n      pop\n      jump\t// out\n        /* \"#utility.yul\":4515:4627   */\n    tag_385:\n        /* \"#utility.yul\":4598:4620   */\n      tag_460\n        /* \"#utility.yul\":4614:4619   */\n      dup2\n        /* \"#utility.yul\":4598:4620   */\n      tag_384\n      jump\t// in\n    tag_460:\n        /* \"#utility.yul\":4593:4596   */\n      dup3\n        /* \"#utility.yul\":4586:4621   */\n      mstore\n        /* \"#utility.yul\":4515:4627   */\n      pop\n      pop\n      jump\t// out\n        /* \"#utility.yul\":4633:4847   */\n    tag_50:\n        /* \"#utility.yul\":4722:4726   */\n      0x00\n        /* \"#utility.yul\":4760:4762   */\n      0x20\n        /* \"#utility.yul\":4749:4758   */\n      dup3\n        /* \"#utility.yul\":4745:4763   */\n      add\n        /* \"#utility.yul\":4737:4763   */\n      swap1\n      pop\n        /* \"#utility.yul\":4773:4840   */\n      tag_462\n        /* \"#utility.yul\":4837:4838   */\n      0x00\n        /* \"#utility.yul\":4826:4835   */\n      dup4\n        /* \"#utility.yul\":4822:4839   */\n      add\n        /* \"#utility.yul\":4813:4819   */\n      dup5\n        /* \"#utility.yul\":4773:4840   */\n      tag_385\n      jump\t// in\n    tag_462:\n        /* \"#utility.yul\":4633:4847   */\n      swap3\n      swap2\n      pop\n      pop\n      jump\t// out\n        /* \"#utility.yul\":4853:4930   */\n    tag_386:\n        /* \"#utility.yul\":4890:4897   */\n      0x00\n        /* \"#utility.yul\":4919:4924   */\n      dup2\n        /* \"#utility.yul\":4908:4924   */\n      swap1\n      pop\n        /* \"#utility.yul\":4853:4930   */\n      swap2\n      swap1\n      pop\n      jump\t// out\n        /* \"#utility.yul\":4936:5054   */\n    tag_387:\n        /* \"#utility.yul\":5023:5047   */\n      tag_465\n        /* \"#utility.yul\":5041:5046   */\n      dup2\n        /* \"#utility.yul\":5023:5047   */\n      tag_386\n      jump\t// in\n    tag_465:\n        /* \"#utility.yul\":5018:5021   */\n      dup3\n        /* \"#utility.yul\":5011:5048   */\n      mstore\n        /* \"#utility.yul\":4936:5054   */\n      pop\n      pop\n      jump\t// out\n        /* \"#utility.yul\":5060:5282   */\n    tag_54:\n        /* \"#utility.yul\":5153:5157   */\n      0x00\n        /* \"#utility.yul\":5191:5193   */\n      0x20\n        /* \"#utility.yul\":5180:5189   */\n      dup3\n        /* \"#utility.yul\":5176:5194   */\n      add\n        /* \"#utility.yul\":5168:5194   */\n      swap1\n      pop\n        /* \"#utility.yul\":5204:5275   */\n      tag_467\n        /* \"#utility.yul\":5272:5273   */\n      0x00\n        /* \"#utility.yul\":5261:5270   */\n      dup4\n        /* \"#utility.yul\":5257:5274   */\n      add\n        /* \"#utility.yul\":5248:5254   */\n      dup5\n        /* \"#utility.yul\":5204:5275   */\n      tag_387\n      jump\t// in\n    tag_467:\n        /* \"#utility.yul\":5060:5282   */\n      swap3\n      swap2\n      pop\n      pop\n      jump\t// out\n        /* \"#utility.yul\":5288:5617   */\n    tag_62:\n        /* \"#utility.yul\":5347:5353   */\n      0x00\n        /* \"#utility.yul\":5396:5398   */\n      0x20\n        /* \"#utility.yul\":5384:5393   */\n      dup3\n        /* \"#utility.yul\":5375:5382   */\n      dup5\n        /* \"#utility.yul\":5371:5394   */\n      sub\n        /* \"#utility.yul\":5367:5399   */\n      slt\n        /* \"#utility.yul\":5364:5483   */\n      iszero\n      tag_469\n      jumpi\n        /* \"#utility.yul\":5402:5481   */\n      tag_470\n      tag_372\n      jump\t// in\n    tag_470:\n        /* \"#utility.yul\":5364:5483   */\n    tag_469:\n        /* \"#utility.yul\":5522:5523   */\n      0x00\n        /* \"#utility.yul\":5547:5600   */\n      tag_471\n        /* \"#utility.yul\":5592:5599   */\n      dup5\n        /* \"#utility.yul\":5583:5589   */\n      dup3\n        /* \"#utility.yul\":5572:5581   */\n      dup6\n        /* \"#utility.yul\":5568:5590   */\n      add\n        /* \"#utility.yul\":5547:5600   */\n      tag_380\n      jump\t// in\n    tag_471:\n        /* \"#utility.yul\":5537:5600   */\n      swap2\n      pop\n        /* \"#utility.yul\":5493:5610   */\n      pop\n        /* \"#utility.yul\":5288:5617   */\n      swap3\n      swap2\n      pop\n      pop\n      jump\t// out\n        /* \"#utility.yul\":5623:5952   */\n    tag_69:\n        /* \"#utility.yul\":5682:5688   */\n      0x00\n        /* \"#utility.yul\":5731:5733   */\n      0x20\n        /* \"#utility.yul\":5719:5728   */\n      dup3\n        /* \"#utility.yul\":5710:5717   */\n      dup5\n        /* \"#utility.yul\":5706:5729   */\n      sub\n        /* \"#utility.yul\":5702:5734   */\n      slt\n        /* \"#utility.yul\":5699:5818   */\n      iszero\n      tag_473\n      jumpi\n        /* \"#utility.yul\":5737:5816   */\n      tag_474\n      tag_372\n      jump\t// in\n    tag_474:\n        /* \"#utility.yul\":5699:5818   */\n    tag_473:\n        /* \"#utility.yul\":5857:5858   */\n      0x00\n        /* \"#utility.yul\":5882:5935   */\n      tag_475\n        /* \"#utility.yul\":5927:5934   */\n      dup5\n        /* \"#utility.yul\":5918:5924   */\n      dup3\n        /* \"#utility.yul\":5907:5916   */\n      dup6\n        /* \"#utility.yul\":5903:5925   */\n      add\n        /* \"#utility.yul\":5882:5935   */\n      tag_377\n      jump\t// in\n    tag_475:\n        /* \"#utility.yul\":5872:5935   */\n      swap2\n      pop\n        /* \"#utility.yul\":5828:5945   */\n      pop\n        /* \"#utility.yul\":5623:5952   */\n      swap3\n      swap2\n      pop\n      pop\n      jump\t// out\n        /* \"#utility.yul\":5958:6107   */\n    tag_388:\n        /* \"#utility.yul\":5994:6001   */\n      0x00\n        /* \"#utility.yul\":6034:6100   */\n      0xff00000000000000000000000000000000000000000000000000000000000000\n        /* \"#utility.yul\":6027:6032   */\n      dup3\n        /* \"#utility.yul\":6023:6101   */\n      and\n        /* \"#utility.yul\":6012:6101   */\n      swap1\n      pop\n        /* \"#utility.yul\":5958:6107   */\n      swap2\n      swap1\n      pop\n      jump\t// out\n        /* \"#utility.yul\":6113:6228   */\n    tag_389:\n        /* \"#utility.yul\":6198:6221   */\n      tag_478\n        /* \"#utility.yul\":6215:6220   */\n      dup2\n        /* \"#utility.yul\":6198:6221   */\n      tag_388\n      jump\t// in\n    tag_478:\n        /* \"#utility.yul\":6193:6196   */\n      dup3\n        /* \"#utility.yul\":6186:6222   */\n      mstore\n        /* \"#utility.yul\":6113:6228   */\n      pop\n      pop\n      jump\t// out\n        /* \"#utility.yul\":6234:6352   */\n    tag_390:\n        /* \"#utility.yul\":6321:6345   */\n      tag_480\n        /* \"#utility.yul\":6339:6344   */\n      dup2\n        /* \"#utility.yul\":6321:6345   */\n      tag_375\n      jump\t// in\n    tag_480:\n        /* \"#utility.yul\":6316:6319   */\n      dup3\n        /* \"#utility.yul\":6309:6346   */\n      mstore\n        /* \"#utility.yul\":6234:6352   */\n      pop\n      pop\n      jump\t// out\n        /* \"#utility.yul\":6358:6472   */\n    tag_391:\n        /* \"#utility.yul\":6425:6431   */\n      0x00\n        /* \"#utility.yul\":6459:6464   */\n      dup2\n        /* \"#utility.yul\":6453:6465   */\n      mload\n        /* \"#utility.yul\":6443:6465   */\n      swap1\n      pop\n        /* \"#utility.yul\":6358:6472   */\n      swap2\n      swap1\n      pop\n      jump\t// out\n        /* \"#utility.yul\":6478:6662   */\n    tag_392:\n        /* \"#utility.yul\":6577:6588   */\n      0x00\n        /* \"#utility.yul\":6611:6617   */\n      dup3\n        /* \"#utility.yul\":6606:6609   */\n      dup3\n        /* \"#utility.yul\":6599:6618   */\n      mstore\n        /* \"#utility.yul\":6651:6655   */\n      0x20\n        /* \"#utility.yul\":6646:6649   */\n      dup3\n        /* \"#utility.yul\":6642:6656   */\n      add\n        /* \"#utility.yul\":6627:6656   */\n      swap1\n      pop\n        /* \"#utility.yul\":6478:6662   */\n      swap3\n      swap2\n      pop\n      pop\n      jump\t// out\n        /* \"#utility.yul\":6668:6800   */\n    tag_393:\n        /* \"#utility.yul\":6735:6739   */\n      0x00\n        /* \"#utility.yul\":6758:6761   */\n      dup2\n        /* \"#utility.yul\":6750:6761   */\n      swap1\n      pop\n        /* \"#utility.yul\":6788:6792   */\n      0x20\n        /* \"#utility.yul\":6783:6786   */\n      dup3\n        /* \"#utility.yul\":6779:6793   */\n      add\n        /* \"#utility.yul\":6771:6793   */\n      swap1\n      pop\n        /* \"#utility.yul\":6668:6800   */\n      swap2\n      swap1\n      pop\n      jump\t// out\n        /* \"#utility.yul\":6806:6914   */\n    tag_394:\n        /* \"#utility.yul\":6883:6907   */\n      tag_485\n        /* \"#utility.yul\":6901:6906   */\n      dup2\n        /* \"#utility.yul\":6883:6907   */\n      tag_378\n      jump\t// in\n    tag_485:\n        /* \"#utility.yul\":6878:6881   */\n      dup3\n        /* \"#utility.yul\":6871:6908   */\n      mstore\n        /* \"#utility.yul\":6806:6914   */\n      pop\n      pop\n      jump\t// out\n        /* \"#utility.yul\":6920:7099   */\n    tag_395:\n        /* \"#utility.yul\":6989:6999   */\n      0x00\n        /* \"#utility.yul\":7010:7056   */\n      tag_487\n        /* \"#utility.yul\":7052:7055   */\n      dup4\n        /* \"#utility.yul\":7044:7050   */\n      dup4\n        /* \"#utility.yul\":7010:7056   */\n      tag_394\n      jump\t// in\n    tag_487:\n        /* \"#utility.yul\":7088:7092   */\n      0x20\n        /* \"#utility.yul\":7083:7086   */\n      dup4\n        /* \"#utility.yul\":7079:7093   */\n      add\n        /* \"#utility.yul\":7065:7093   */\n      swap1\n      pop\n        /* \"#utility.yul\":6920:7099   */\n      swap3\n      swap2\n      pop\n      pop\n      jump\t// out\n        /* \"#utility.yul\":7105:7218   */\n    tag_396:\n        /* \"#utility.yul\":7175:7179   */\n      0x00\n        /* \"#utility.yul\":7207:7211   */\n      0x20\n        /* \"#utility.yul\":7202:7205   */\n      dup3\n        /* \"#utility.yul\":7198:7212   */\n      add\n        /* \"#utility.yul\":7190:7212   */\n      swap1\n      pop\n        /* \"#utility.yul\":7105:7218   */\n      swap2\n      swap1\n      pop\n      jump\t// out\n        /* \"#utility.yul\":7254:7986   */\n    tag_397:\n        /* \"#utility.yul\":7373:7376   */\n      0x00\n        /* \"#utility.yul\":7402:7456   */\n      tag_490\n        /* \"#utility.yul\":7450:7455   */\n      dup3\n        /* \"#utility.yul\":7402:7456   */\n      tag_391\n      jump\t// in\n    tag_490:\n        /* \"#utility.yul\":7472:7558   */\n      tag_491\n        /* \"#utility.yul\":7551:7557   */\n      dup2\n        /* \"#utility.yul\":7546:7549   */\n      dup6\n        /* \"#utility.yul\":7472:7558   */\n      tag_392\n      jump\t// in\n    tag_491:\n        /* \"#utility.yul\":7465:7558   */\n      swap4\n      pop\n        /* \"#utility.yul\":7582:7638   */\n      tag_492\n        /* \"#utility.yul\":7632:7637   */\n      dup4\n        /* \"#utility.yul\":7582:7638   */\n      tag_393\n      jump\t// in\n    tag_492:\n        /* \"#utility.yul\":7661:7668   */\n      dup1\n        /* \"#utility.yul\":7692:7693   */\n      0x00\n        /* \"#utility.yul\":7677:7961   */\n    tag_493:\n        /* \"#utility.yul\":7702:7708   */\n      dup4\n        /* \"#utility.yul\":7699:7700   */\n      dup2\n        /* \"#utility.yul\":7696:7709   */\n      lt\n        /* \"#utility.yul\":7677:7961   */\n      iszero\n      tag_495\n      jumpi\n        /* \"#utility.yul\":7778:7784   */\n      dup2\n        /* \"#utility.yul\":7772:7785   */\n      mload\n        /* \"#utility.yul\":7805:7868   */\n      tag_496\n        /* \"#utility.yul\":7864:7867   */\n      dup9\n        /* \"#utility.yul\":7849:7862   */\n      dup3\n        /* \"#utility.yul\":7805:7868   */\n      tag_395\n      jump\t// in\n    tag_496:\n        /* \"#utility.yul\":7798:7868   */\n      swap8\n      pop\n        /* \"#utility.yul\":7891:7951   */\n      tag_497\n        /* \"#utility.yul\":7944:7950   */\n      dup4\n        /* \"#utility.yul\":7891:7951   */\n      tag_396\n      jump\t// in\n    tag_497:\n        /* \"#utility.yul\":7881:7951   */\n      swap3\n      pop\n        /* \"#utility.yul\":7737:7961   */\n      pop\n        /* \"#utility.yul\":7724:7725   */\n      0x01\n        /* \"#utility.yul\":7721:7722   */\n      dup2\n        /* \"#utility.yul\":7717:7726   */\n      add\n        /* \"#utility.yul\":7712:7726   */\n      swap1\n      pop\n        /* \"#utility.yul\":7677:7961   */\n      jump(tag_493)\n    tag_495:\n        /* \"#utility.yul\":7681:7695   */\n      pop\n        /* \"#utility.yul\":7977:7980   */\n      dup6\n        /* \"#utility.yul\":7970:7980   */\n      swap4\n      pop\n        /* \"#utility.yul\":7378:7986   */\n      pop\n      pop\n      pop\n        /* \"#utility.yul\":7254:7986   */\n      swap3\n      swap2\n      pop\n      pop\n      jump\t// out\n        /* \"#utility.yul\":7992:9207   */\n    tag_86:\n        /* \"#utility.yul\":8341:8345   */\n      0x00\n        /* \"#utility.yul\":8379:8382   */\n      0xe0\n        /* \"#utility.yul\":8368:8377   */\n      dup3\n        /* \"#utility.yul\":8364:8383   */\n      add\n        /* \"#utility.yul\":8356:8383   */\n      swap1\n      pop\n        /* \"#utility.yul\":8393:8462   */\n      tag_499\n        /* \"#utility.yul\":8459:8460   */\n      0x00\n        /* \"#utility.yul\":8448:8457   */\n      dup4\n        /* \"#utility.yul\":8444:8461   */\n      add\n        /* \"#utility.yul\":8435:8441   */\n      dup11\n        /* \"#utility.yul\":8393:8462   */\n      tag_389\n      jump\t// in\n    tag_499:\n        /* \"#utility.yul\":8509:8518   */\n      dup2\n        /* \"#utility.yul\":8503:8507   */\n      dup2\n        /* \"#utility.yul\":8499:8519   */\n      sub\n        /* \"#utility.yul\":8494:8496   */\n      0x20\n        /* \"#utility.yul\":8483:8492   */\n      dup4\n        /* \"#utility.yul\":8479:8497   */\n      add\n        /* \"#utility.yul\":8472:8520   */\n      mstore\n        /* \"#utility.yul\":8537:8615   */\n      tag_500\n        /* \"#utility.yul\":8610:8614   */\n      dup2\n        /* \"#utility.yul\":8601:8607   */\n      dup10\n        /* \"#utility.yul\":8537:8615   */\n      tag_370\n      jump\t// in\n    tag_500:\n        /* \"#utility.yul\":8529:8615   */\n      swap1\n      pop\n        /* \"#utility.yul\":8662:8671   */\n      dup2\n        /* \"#utility.yul\":8656:8660   */\n      dup2\n        /* \"#utility.yul\":8652:8672   */\n      sub\n        /* \"#utility.yul\":8647:8649   */\n      0x40\n        /* \"#utility.yul\":8636:8645   */\n      dup4\n        /* \"#utility.yul\":8632:8650   */\n      add\n        /* \"#utility.yul\":8625:8673   */\n      mstore\n        /* \"#utility.yul\":8690:8768   */\n      tag_501\n        /* \"#utility.yul\":8763:8767   */\n      dup2\n        /* \"#utility.yul\":8754:8760   */\n      dup9\n        /* \"#utility.yul\":8690:8768   */\n      tag_370\n      jump\t// in\n    tag_501:\n        /* \"#utility.yul\":8682:8768   */\n      swap1\n      pop\n        /* \"#utility.yul\":8778:8850   */\n      tag_502\n        /* \"#utility.yul\":8846:8848   */\n      0x60\n        /* \"#utility.yul\":8835:8844   */\n      dup4\n        /* \"#utility.yul\":8831:8849   */\n      add\n        /* \"#utility.yul\":8822:8828   */\n      dup8\n        /* \"#utility.yul\":8778:8850   */\n      tag_383\n      jump\t// in\n    tag_502:\n        /* \"#utility.yul\":8860:8933   */\n      tag_503\n        /* \"#utility.yul\":8928:8931   */\n      0x80\n        /* \"#utility.yul\":8917:8926   */\n      dup4\n        /* \"#utility.yul\":8913:8932   */\n      add\n        /* \"#utility.yul\":8904:8910   */\n      dup7\n        /* \"#utility.yul\":8860:8933   */\n      tag_390\n      jump\t// in\n    tag_503:\n        /* \"#utility.yul\":8943:9016   */\n      tag_504\n        /* \"#utility.yul\":9011:9014   */\n      0xa0\n        /* \"#utility.yul\":9000:9009   */\n      dup4\n        /* \"#utility.yul\":8996:9015   */\n      add\n        /* \"#utility.yul\":8987:8993   */\n      dup6\n        /* \"#utility.yul\":8943:9016   */\n      tag_387\n      jump\t// in\n    tag_504:\n        /* \"#utility.yul\":9064:9073   */\n      dup2\n        /* \"#utility.yul\":9058:9062   */\n      dup2\n        /* \"#utility.yul\":9054:9074   */\n      sub\n        /* \"#utility.yul\":9048:9051   */\n      0xc0\n        /* \"#utility.yul\":9037:9046   */\n      dup4\n        /* \"#utility.yul\":9033:9052   */\n      add\n        /* \"#utility.yul\":9026:9075   */\n      mstore\n        /* \"#utility.yul\":9092:9200   */\n      tag_505\n        /* \"#utility.yul\":9195:9199   */\n      dup2\n        /* \"#utility.yul\":9186:9192   */\n      dup5\n        /* \"#utility.yul\":9092:9200   */\n      tag_397\n      jump\t// in\n    tag_505:\n        /* \"#utility.yul\":9084:9200   */\n      swap1\n      pop\n        /* \"#utility.yul\":7992:9207   */\n      swap9\n      swap8\n      pop\n      pop\n      pop\n      pop\n      pop\n      pop\n      pop\n      pop\n      jump\t// out\n        /* \"#utility.yul\":9213:9435   */\n    tag_90:\n        /* \"#utility.yul\":9306:9310   */\n      0x00\n        /* \"#utility.yul\":9344:9346   */\n      0x20\n        /* \"#utility.yul\":9333:9342   */\n      dup3\n        /* \"#utility.yul\":9329:9347   */\n      add\n        /* \"#utility.yul\":9321:9347   */\n      swap1\n      pop\n        /* \"#utility.yul\":9357:9428   */\n      tag_507\n        /* \"#utility.yul\":9425:9426   */\n      0x00\n        /* \"#utility.yul\":9414:9423   */\n      dup4\n        /* \"#utility.yul\":9410:9427   */\n      add\n        /* \"#utility.yul\":9401:9407   */\n      dup5\n        /* \"#utility.yul\":9357:9428   */\n      tag_390\n      jump\t// in\n    tag_507:\n        /* \"#utility.yul\":9213:9435   */\n      swap3\n      swap2\n      pop\n      pop\n      jump\t// out\n        /* \"#utility.yul\":9441:9559   */\n    tag_398:\n        /* \"#utility.yul\":9512:9534   */\n      tag_509\n        /* \"#utility.yul\":9528:9533   */\n      dup2\n        /* \"#utility.yul\":9512:9534   */\n      tag_384\n      jump\t// in\n    tag_509:\n        /* \"#utility.yul\":9505:9510   */\n      dup2\n        /* \"#utility.yul\":9502:9535   */\n      eq\n        /* \"#utility.yul\":9492:9553   */\n      tag_510\n      jumpi\n        /* \"#utility.yul\":9549:9550   */\n      0x00\n        /* \"#utility.yul\":9546:9547   */\n      dup1\n        /* \"#utility.yul\":9539:9551   */\n      revert\n        /* \"#utility.yul\":9492:9553   */\n    tag_510:\n        /* \"#utility.yul\":9441:9559   */\n      pop\n      jump\t// out\n        /* \"#utility.yul\":9565:9700   */\n    tag_399:\n        /* \"#utility.yul\":9609:9614   */\n      0x00\n        /* \"#utility.yul\":9647:9653   */\n      dup2\n        /* \"#utility.yul\":9634:9654   */\n      calldataload\n        /* \"#utility.yul\":9625:9654   */\n      swap1\n      pop\n        /* \"#utility.yul\":9663:9694   */\n      tag_512\n        /* \"#utility.yul\":9688:9693   */\n      dup2\n        /* \"#utility.yul\":9663:9694   */\n      tag_398\n      jump\t// in\n    tag_512:\n        /* \"#utility.yul\":9565:9700   */\n      swap3\n      swap2\n      pop\n      pop\n      jump\t// out\n        /* \"#utility.yul\":9706:9828   */\n    tag_400:\n        /* \"#utility.yul\":9779:9803   */\n      tag_514\n        /* \"#utility.yul\":9797:9802   */\n      dup2\n        /* \"#utility.yul\":9779:9803   */\n      tag_386\n      jump\t// in\n    tag_514:\n        /* \"#utility.yul\":9772:9777   */\n      dup2\n        /* \"#utility.yul\":9769:9804   */\n      eq\n        /* \"#utility.yul\":9759:9822   */\n      tag_515\n      jumpi\n        /* \"#utility.yul\":9818:9819   */\n      0x00\n        /* \"#utility.yul\":9815:9816   */\n      dup1\n        /* \"#utility.yul\":9808:9820   */\n      revert\n        /* \"#utility.yul\":9759:9822   */\n    tag_515:\n        /* \"#utility.yul\":9706:9828   */\n      pop\n      jump\t// out\n        /* \"#utility.yul\":9834:9973   */\n    tag_401:\n        /* \"#utility.yul\":9880:9885   */\n      0x00\n        /* \"#utility.yul\":9918:9924   */\n      dup2\n        /* \"#utility.yul\":9905:9925   */\n      calldataload\n        /* \"#utility.yul\":9896:9925   */\n      swap1\n      pop\n        /* \"#utility.yul\":9934:9967   */\n      tag_517\n        /* \"#utility.yul\":9961:9966   */\n      dup2\n        /* \"#utility.yul\":9934:9967   */\n      tag_400\n      jump\t// in\n    tag_517:\n        /* \"#utility.yul\":9834:9973   */\n      swap3\n      swap2\n      pop\n      pop\n      jump\t// out\n        /* \"#utility.yul\":9979:11178   */\n    tag_100:\n        /* \"#utility.yul\":10090:10096   */\n      0x00\n        /* \"#utility.yul\":10098:10104   */\n      dup1\n        /* \"#utility.yul\":10106:10112   */\n      0x00\n        /* \"#utility.yul\":10114:10120   */\n      dup1\n        /* \"#utility.yul\":10122:10128   */\n      0x00\n        /* \"#utility.yul\":10130:10136   */\n      dup1\n        /* \"#utility.yul\":10138:10144   */\n      0x00\n        /* \"#utility.yul\":10187:10190   */\n      0xe0\n        /* \"#utility.yul\":10175:10184   */\n      dup9\n        /* \"#utility.yul\":10166:10173   */\n      dup11\n        /* \"#utility.yul\":10162:10185   */\n      sub\n        /* \"#utility.yul\":10158:10191   */\n      slt\n        /* \"#utility.yul\":10155:10275   */\n      iszero\n      tag_519\n      jumpi\n        /* \"#utility.yul\":10194:10273   */\n      tag_520\n      tag_372\n      jump\t// in\n    tag_520:\n        /* \"#utility.yul\":10155:10275   */\n    tag_519:\n        /* \"#utility.yul\":10314:10315   */\n      0x00\n        /* \"#utility.yul\":10339:10392   */\n      tag_521\n        /* \"#utility.yul\":10384:10391   */\n      dup11\n        /* \"#utility.yul\":10375:10381   */\n      dup3\n        /* \"#utility.yul\":10364:10373   */\n      dup12\n        /* \"#utility.yul\":10360:10382   */\n      add\n        /* \"#utility.yul\":10339:10392   */\n      tag_377\n      jump\t// in\n    tag_521:\n        /* \"#utility.yul\":10329:10392   */\n      swap8\n      pop\n        /* \"#utility.yul\":10285:10402   */\n      pop\n        /* \"#utility.yul\":10441:10443   */\n      0x20\n        /* \"#utility.yul\":10467:10520   */\n      tag_522\n        /* \"#utility.yul\":10512:10519   */\n      dup11\n        /* \"#utility.yul\":10503:10509   */\n      dup3\n        /* \"#utility.yul\":10492:10501   */\n      dup12\n        /* \"#utility.yul\":10488:10510   */\n      add\n        /* \"#utility.yul\":10467:10520   */\n      tag_377\n      jump\t// in\n    tag_522:\n        /* \"#utility.yul\":10457:10520   */\n      swap7\n      pop\n        /* \"#utility.yul\":10412:10530   */\n      pop\n        /* \"#utility.yul\":10569:10571   */\n      0x40\n        /* \"#utility.yul\":10595:10648   */\n      tag_523\n        /* \"#utility.yul\":10640:10647   */\n      dup11\n        /* \"#utility.yul\":10631:10637   */\n      dup3\n        /* \"#utility.yul\":10620:10629   */\n      dup12\n        /* \"#utility.yul\":10616:10638   */\n      add\n        /* \"#utility.yul\":10595:10648   */\n      tag_380\n      jump\t// in\n    tag_523:\n        /* \"#utility.yul\":10585:10648   */\n      swap6\n      pop\n        /* \"#utility.yul\":10540:10658   */\n      pop\n        /* \"#utility.yul\":10697:10699   */\n      0x60\n        /* \"#utility.yul\":10723:10776   */\n      tag_524\n        /* \"#utility.yul\":10768:10775   */\n      dup11\n        /* \"#utility.yul\":10759:10765   */\n      dup3\n        /* \"#utility.yul\":10748:10757   */\n      dup12\n        /* \"#utility.yul\":10744:10766   */\n      add\n        /* \"#utility.yul\":10723:10776   */\n      tag_380\n      jump\t// in\n    tag_524:\n        /* \"#utility.yul\":10713:10776   */\n      swap5\n      pop\n        /* \"#utility.yul\":10668:10786   */\n      pop\n        /* \"#utility.yul\":10825:10828   */\n      0x80\n        /* \"#utility.yul\":10852:10903   */\n      tag_525\n        /* \"#utility.yul\":10895:10902   */\n      dup11\n        /* \"#utility.yul\":10886:10892   */\n      dup3\n        /* \"#utility.yul\":10875:10884   */\n      dup12\n        /* \"#utility.yul\":10871:10893   */\n      add\n        /* \"#utility.yul\":10852:10903   */\n      tag_399\n      jump\t// in\n    tag_525:\n        /* \"#utility.yul\":10842:10903   */\n      swap4\n      pop\n        /* \"#utility.yul\":10796:10913   */\n      pop\n        /* \"#utility.yul\":10952:10955   */\n      0xa0\n        /* \"#utility.yul\":10979:11032   */\n      tag_526\n        /* \"#utility.yul\":11024:11031   */\n      dup11\n        /* \"#utility.yul\":11015:11021   */\n      dup3\n        /* \"#utility.yul\":11004:11013   */\n      dup12\n        /* \"#utility.yul\":11000:11022   */\n      add\n        /* \"#utility.yul\":10979:11032   */\n      tag_401\n      jump\t// in\n    tag_526:\n        /* \"#utility.yul\":10969:11032   */\n      swap3\n      pop\n        /* \"#utility.yul\":10923:11042   */\n      pop\n        /* \"#utility.yul\":11081:11084   */\n      0xc0\n        /* \"#utility.yul\":11108:11161   */\n      tag_527\n        /* \"#utility.yul\":11153:11160   */\n      dup11\n        /* \"#utility.yul\":11144:11150   */\n      dup3\n        /* \"#utility.yul\":11133:11142   */\n      dup12\n        /* \"#utility.yul\":11129:11151   */\n      add\n        /* \"#utility.yul\":11108:11161   */\n      tag_401\n      jump\t// in\n    tag_527:\n        /* \"#utility.yul\":11098:11161   */\n      swap2\n      pop\n        /* \"#utility.yul\":11052:11171   */\n      pop\n        /* \"#utility.yul\":9979:11178   */\n      swap3\n      swap6\n      swap9\n      swap2\n      swap5\n      swap8\n      pop\n      swap3\n      swap6\n      pop\n      jump\t// out\n        /* \"#utility.yul\":11184:11658   */\n    tag_104:\n        /* \"#utility.yul\":11252:11258   */\n      0x00\n        /* \"#utility.yul\":11260:11266   */\n      dup1\n        /* \"#utility.yul\":11309:11311   */\n      0x40\n        /* \"#utility.yul\":11297:11306   */\n      dup4\n        /* \"#utility.yul\":11288:11295   */\n      dup6\n        /* \"#utility.yul\":11284:11307   */\n      sub\n        /* \"#utility.yul\":11280:11312   */\n      slt\n        /* \"#utility.yul\":11277:11396   */\n      iszero\n      tag_529\n      jumpi\n        /* \"#utility.yul\":11315:11394   */\n      tag_530\n      tag_372\n      jump\t// in\n    tag_530:\n        /* \"#utility.yul\":11277:11396   */\n    tag_529:\n        /* \"#utility.yul\":11435:11436   */\n      0x00\n        /* \"#utility.yul\":11460:11513   */\n      tag_531\n        /* \"#utility.yul\":11505:11512   */\n      dup6\n        /* \"#utility.yul\":11496:11502   */\n      dup3\n        /* \"#utility.yul\":11485:11494   */\n      dup7\n        /* \"#utility.yul\":11481:11503   */\n      add\n        /* \"#utility.yul\":11460:11513   */\n      tag_377\n      jump\t// in\n    tag_531:\n        /* \"#utility.yul\":11450:11513   */\n      swap3\n      pop\n        /* \"#utility.yul\":11406:11523   */\n      pop\n        /* \"#utility.yul\":11562:11564   */\n      0x20\n        /* \"#utility.yul\":11588:11641   */\n      tag_532\n        /* \"#utility.yul\":11633:11640   */\n      dup6\n        /* \"#utility.yul\":11624:11630   */\n      dup3\n        /* \"#utility.yul\":11613:11622   */\n      dup7\n        /* \"#utility.yul\":11609:11631   */\n      add\n        /* \"#utility.yul\":11588:11641   */\n      tag_377\n      jump\t// in\n    tag_532:\n        /* \"#utility.yul\":11578:11641   */\n      swap2\n      pop\n        /* \"#utility.yul\":11533:11651   */\n      pop\n        /* \"#utility.yul\":11184:11658   */\n      swap3\n      pop\n      swap3\n      swap1\n      pop\n      jump\t// out\n        /* \"#utility.yul\":11664:11844   */\n    tag_402:\n        /* \"#utility.yul\":11712:11789   */\n      0x4e487b7100000000000000000000000000000000000000000000000000000000\n        /* \"#utility.yul\":11709:11710   */\n      0x00\n        /* \"#utility.yul\":11702:11790   */\n      mstore\n        /* \"#utility.yul\":11809:11813   */\n      0x22\n        /* \"#utility.yul\":11806:11807   */\n      0x04\n        /* \"#utility.yul\":11799:11814   */\n      mstore\n        /* \"#utility.yul\":11833:11837   */\n      0x24\n        /* \"#utility.yul\":11830:11831   */\n      0x00\n        /* \"#utility.yul\":11823:11838   */\n      revert\n        /* \"#utility.yul\":11850:12170   */\n    tag_112:\n        /* \"#utility.yul\":11894:11900   */\n      0x00\n        /* \"#utility.yul\":11931:11932   */\n      0x02\n        /* \"#utility.yul\":11925:11929   */\n      dup3\n        /* \"#utility.yul\":11921:11933   */\n      div\n        /* \"#utility.yul\":11911:11933   */\n      swap1\n      pop\n        /* \"#utility.yul\":11978:11979   */\n      0x01\n        /* \"#utility.yul\":11972:11976   */\n      dup3\n        /* \"#utility.yul\":11968:11980   */\n      and\n        /* \"#utility.yul\":11999:12017   */\n      dup1\n        /* \"#utility.yul\":11989:12070   */\n      tag_535\n      jumpi\n        /* \"#utility.yul\":12055:12059   */\n      0x7f\n        /* \"#utility.yul\":12047:12053   */\n      dup3\n        /* \"#utility.yul\":12043:12060   */\n      and\n        /* \"#utility.yul\":12033:12060   */\n      swap2\n      pop\n        /* \"#utility.yul\":11989:12070   */\n    tag_535:\n        /* \"#utility.yul\":12117:12119   */\n      0x20\n        /* \"#utility.yul\":12109:12115   */\n      dup3\n        /* \"#utility.yul\":12106:12120   */\n      lt\n        /* \"#utility.yul\":12086:12104   */\n      dup2\n        /* \"#utility.yul\":12083:12121   */\n      sub\n        /* \"#utility.yul\":12080:12164   */\n      tag_536\n      jumpi\n        /* \"#utility.yul\":12136:12154   */\n      tag_537\n      tag_402\n      jump\t// in\n    tag_537:\n        /* \"#utility.yul\":12080:12164   */\n    tag_536:\n        /* \"#utility.yul\":11901:12170   */\n      pop\n        /* \"#utility.yul\":11850:12170   */\n      swap2\n      swap1\n      pop\n      jump\t// out\n        /* \"#utility.yul\":12176:12356   */\n    tag_174:\n        /* \"#utility.yul\":12224:12301   */\n      0x4e487b7100000000000000000000000000000000000000000000000000000000\n        /* \"#utility.yul\":12221:12222   */\n      0x00\n        /* \"#utility.yul\":12214:12302   */\n      mstore\n        /* \"#utility.yul\":12321:12325   */\n      0x41\n        /* \"#utility.yul\":12318:12319   */\n      0x04\n        /* \"#utility.yul\":12311:12326   */\n      mstore\n        /* \"#utility.yul\":12345:12349   */\n      0x24\n        /* \"#utility.yul\":12342:12343   */\n      0x00\n        /* \"#utility.yul\":12335:12350   */\n      revert\n        /* \"#utility.yul\":12362:13137   */\n    tag_192:\n        /* \"#utility.yul\":12595:12599   */\n      0x00\n        /* \"#utility.yul\":12633:12636   */\n      0xc0\n        /* \"#utility.yul\":12622:12631   */\n      dup3\n        /* \"#utility.yul\":12618:12637   */\n      add\n        /* \"#utility.yul\":12610:12637   */\n      swap1\n      pop\n        /* \"#utility.yul\":12647:12718   */\n      tag_540\n        /* \"#utility.yul\":12715:12716   */\n      0x00\n        /* \"#utility.yul\":12704:12713   */\n      dup4\n        /* \"#utility.yul\":12700:12717   */\n      add\n        /* \"#utility.yul\":12691:12697   */\n      dup10\n        /* \"#utility.yul\":12647:12718   */\n      tag_387\n      jump\t// in\n    tag_540:\n        /* \"#utility.yul\":12728:12800   */\n      tag_541\n        /* \"#utility.yul\":12796:12798   */\n      0x20\n        /* \"#utility.yul\":12785:12794   */\n      dup4\n        /* \"#utility.yul\":12781:12799   */\n      add\n        /* \"#utility.yul\":12772:12778   */\n      dup9\n        /* \"#utility.yul\":12728:12800   */\n      tag_390\n      jump\t// in\n    tag_541:\n        /* \"#utility.yul\":12810:12882   */\n      tag_542\n        /* \"#utility.yul\":12878:12880   */\n      0x40\n        /* \"#utility.yul\":12867:12876   */\n      dup4\n        /* \"#utility.yul\":12863:12881   */\n      add\n        /* \"#utility.yul\":12854:12860   */\n      dup8\n        /* \"#utility.yul\":12810:12882   */\n      tag_390\n      jump\t// in\n    tag_542:\n        /* \"#utility.yul\":12892:12964   */\n      tag_543\n        /* \"#utility.yul\":12960:12962   */\n      0x60\n        /* \"#utility.yul\":12949:12958   */\n      dup4\n        /* \"#utility.yul\":12945:12963   */\n      add\n        /* \"#utility.yul\":12936:12942   */\n      dup7\n        /* \"#utility.yul\":12892:12964   */\n      tag_383\n      jump\t// in\n    tag_543:\n        /* \"#utility.yul\":12974:13047   */\n      tag_544\n        /* \"#utility.yul\":13042:13045   */\n      0x80\n        /* \"#utility.yul\":13031:13040   */\n      dup4\n        /* \"#utility.yul\":13027:13046   */\n      add\n        /* \"#utility.yul\":13018:13024   */\n      dup6\n        /* \"#utility.yul\":12974:13047   */\n      tag_383\n      jump\t// in\n    tag_544:\n        /* \"#utility.yul\":13057:13130   */\n      tag_545\n        /* \"#utility.yul\":13125:13128   */\n      0xa0\n        /* \"#utility.yul\":13114:13123   */\n      dup4\n        /* \"#utility.yul\":13110:13129   */\n      add\n        /* \"#utility.yul\":13101:13107   */\n      dup5\n        /* \"#utility.yul\":13057:13130   */\n      tag_383\n      jump\t// in\n    tag_545:\n        /* \"#utility.yul\":12362:13137   */\n      swap8\n      swap7\n      pop\n      pop\n      pop\n      pop\n      pop\n      pop\n      pop\n      jump\t// out\n        /* \"#utility.yul\":13143:13475   */\n    tag_199:\n        /* \"#utility.yul\":13264:13268   */\n      0x00\n        /* \"#utility.yul\":13302:13304   */\n      0x40\n        /* \"#utility.yul\":13291:13300   */\n      dup3\n        /* \"#utility.yul\":13287:13305   */\n      add\n        /* \"#utility.yul\":13279:13305   */\n      swap1\n      pop\n        /* \"#utility.yul\":13315:13386   */\n      tag_547\n        /* \"#utility.yul\":13383:13384   */\n      0x00\n        /* \"#utility.yul\":13372:13381   */\n      dup4\n        /* \"#utility.yul\":13368:13385   */\n      add\n        /* \"#utility.yul\":13359:13365   */\n      dup6\n        /* \"#utility.yul\":13315:13386   */\n      tag_390\n      jump\t// in\n    tag_547:\n        /* \"#utility.yul\":13396:13468   */\n      tag_548\n        /* \"#utility.yul\":13464:13466   */\n      0x20\n        /* \"#utility.yul\":13453:13462   */\n      dup4\n        /* \"#utility.yul\":13449:13467   */\n      add\n        /* \"#utility.yul\":13440:13446   */\n      dup5\n        /* \"#utility.yul\":13396:13468   */\n      tag_390\n      jump\t// in\n    tag_548:\n        /* \"#utility.yul\":13143:13475   */\n      swap4\n      swap3\n      pop\n      pop\n      pop\n      jump\t// out\n        /* \"#utility.yul\":13481:13923   */\n    tag_217:\n        /* \"#utility.yul\":13630:13634   */\n      0x00\n        /* \"#utility.yul\":13668:13670   */\n      0x60\n        /* \"#utility.yul\":13657:13666   */\n      dup3\n        /* \"#utility.yul\":13653:13671   */\n      add\n        /* \"#utility.yul\":13645:13671   */\n      swap1\n      pop\n        /* \"#utility.yul\":13681:13752   */\n      tag_550\n        /* \"#utility.yul\":13749:13750   */\n      0x00\n        /* \"#utility.yul\":13738:13747   */\n      dup4\n        /* \"#utility.yul\":13734:13751   */\n      add\n        /* \"#utility.yul\":13725:13731   */\n      dup7\n        /* \"#utility.yul\":13681:13752   */\n      tag_390\n      jump\t// in\n    tag_550:\n        /* \"#utility.yul\":13762:13834   */\n      tag_551\n        /* \"#utility.yul\":13830:13832   */\n      0x20\n        /* \"#utility.yul\":13819:13828   */\n      dup4\n        /* \"#utility.yul\":13815:13833   */\n      add\n        /* \"#utility.yul\":13806:13812   */\n      dup6\n        /* \"#utility.yul\":13762:13834   */\n      tag_383\n      jump\t// in\n    tag_551:\n        /* \"#utility.yul\":13844:13916   */\n      tag_552\n        /* \"#utility.yul\":13912:13914   */\n      0x40\n        /* \"#utility.yul\":13901:13910   */\n      dup4\n        /* \"#utility.yul\":13897:13915   */\n      add\n        /* \"#utility.yul\":13888:13894   */\n      dup5\n        /* \"#utility.yul\":13844:13916   */\n      tag_383\n      jump\t// in\n    tag_552:\n        /* \"#utility.yul\":13481:13923   */\n      swap5\n      swap4\n      pop\n      pop\n      pop\n      pop\n      jump\t// out\n        /* \"#utility.yul\":13929:14097   */\n    tag_403:\n        /* \"#utility.yul\":14069:14089   */\n      0x76616c756520697320746f6f206d6f7265210000000000000000000000000000\n        /* \"#utility.yul\":14065:14066   */\n      0x00\n        /* \"#utility.yul\":14057:14063   */\n      dup3\n        /* \"#utility.yul\":14053:14067   */\n      add\n        /* \"#utility.yul\":14046:14090   */\n      mstore\n        /* \"#utility.yul\":13929:14097   */\n      pop\n      jump\t// out\n        /* \"#utility.yul\":14103:14469   */\n    tag_404:\n        /* \"#utility.yul\":14245:14248   */\n      0x00\n        /* \"#utility.yul\":14266:14333   */\n      tag_555\n        /* \"#utility.yul\":14330:14332   */\n      0x12\n        /* \"#utility.yul\":14325:14328   */\n      dup4\n        /* \"#utility.yul\":14266:14333   */\n      tag_367\n      jump\t// in\n    tag_555:\n        /* \"#utility.yul\":14259:14333   */\n      swap2\n      pop\n        /* \"#utility.yul\":14342:14435   */\n      tag_556\n        /* \"#utility.yul\":14431:14434   */\n      dup3\n        /* \"#utility.yul\":14342:14435   */\n      tag_403\n      jump\t// in\n    tag_556:\n        /* \"#utility.yul\":14460:14462   */\n      0x20\n        /* \"#utility.yul\":14455:14458   */\n      dup3\n        /* \"#utility.yul\":14451:14463   */\n      add\n        /* \"#utility.yul\":14444:14463   */\n      swap1\n      pop\n        /* \"#utility.yul\":14103:14469   */\n      swap2\n      swap1\n      pop\n      jump\t// out\n        /* \"#utility.yul\":14475:14894   */\n    tag_286:\n        /* \"#utility.yul\":14641:14645   */\n      0x00\n        /* \"#utility.yul\":14679:14681   */\n      0x20\n        /* \"#utility.yul\":14668:14677   */\n      dup3\n        /* \"#utility.yul\":14664:14682   */\n      add\n        /* \"#utility.yul\":14656:14682   */\n      swap1\n      pop\n        /* \"#utility.yul\":14728:14737   */\n      dup2\n        /* \"#utility.yul\":14722:14726   */\n      dup2\n        /* \"#utility.yul\":14718:14738   */\n      sub\n        /* \"#utility.yul\":14714:14715   */\n      0x00\n        /* \"#utility.yul\":14703:14712   */\n      dup4\n        /* \"#utility.yul\":14699:14716   */\n      add\n        /* \"#utility.yul\":14692:14739   */\n      mstore\n        /* \"#utility.yul\":14756:14887   */\n      tag_558\n        /* \"#utility.yul\":14882:14886   */\n      dup2\n        /* \"#utility.yul\":14756:14887   */\n      tag_404\n      jump\t// in\n    tag_558:\n        /* \"#utility.yul\":14748:14887   */\n      swap1\n      pop\n        /* \"#utility.yul\":14475:14894   */\n      swap2\n      swap1\n      pop\n      jump\t// out\n        /* \"#utility.yul\":14900:15564   */\n    tag_291:\n        /* \"#utility.yul\":15105:15109   */\n      0x00\n        /* \"#utility.yul\":15143:15146   */\n      0xa0\n        /* \"#utility.yul\":15132:15141   */\n      dup3\n        /* \"#utility.yul\":15128:15147   */\n      add\n        /* \"#utility.yul\":15120:15147   */\n      swap1\n      pop\n        /* \"#utility.yul\":15157:15228   */\n      tag_560\n        /* \"#utility.yul\":15225:15226   */\n      0x00\n        /* \"#utility.yul\":15214:15223   */\n      dup4\n        /* \"#utility.yul\":15210:15227   */\n      add\n        /* \"#utility.yul\":15201:15207   */\n      dup9\n        /* \"#utility.yul\":15157:15228   */\n      tag_387\n      jump\t// in\n    tag_560:\n        /* \"#utility.yul\":15238:15310   */\n      tag_561\n        /* \"#utility.yul\":15306:15308   */\n      0x20\n        /* \"#utility.yul\":15295:15304   */\n      dup4\n        /* \"#utility.yul\":15291:15309   */\n      add\n        /* \"#utility.yul\":15282:15288   */\n      dup8\n        /* \"#utility.yul\":15238:15310   */\n      tag_387\n      jump\t// in\n    tag_561:\n        /* \"#utility.yul\":15320:15392   */\n      tag_562\n        /* \"#utility.yul\":15388:15390   */\n      0x40\n        /* \"#utility.yul\":15377:15386   */\n      dup4\n        /* \"#utility.yul\":15373:15391   */\n      add\n        /* \"#utility.yul\":15364:15370   */\n      dup7\n        /* \"#utility.yul\":15320:15392   */\n      tag_387\n      jump\t// in\n    tag_562:\n        /* \"#utility.yul\":15402:15474   */\n      tag_563\n        /* \"#utility.yul\":15470:15472   */\n      0x60\n        /* \"#utility.yul\":15459:15468   */\n      dup4\n        /* \"#utility.yul\":15455:15473   */\n      add\n        /* \"#utility.yul\":15446:15452   */\n      dup6\n        /* \"#utility.yul\":15402:15474   */\n      tag_383\n      jump\t// in\n    tag_563:\n        /* \"#utility.yul\":15484:15557   */\n      tag_564\n        /* \"#utility.yul\":15552:15555   */\n      0x80\n        /* \"#utility.yul\":15541:15550   */\n      dup4\n        /* \"#utility.yul\":15537:15556   */\n      add\n        /* \"#utility.yul\":15528:15534   */\n      dup5\n        /* \"#utility.yul\":15484:15557   */\n      tag_390\n      jump\t// in\n    tag_564:\n        /* \"#utility.yul\":14900:15564   */\n      swap7\n      swap6\n      pop\n      pop\n      pop\n      pop\n      pop\n      pop\n      jump\t// out\n        /* \"#utility.yul\":15570:16115   */\n    tag_312:\n        /* \"#utility.yul\":15743:15747   */\n      0x00\n        /* \"#utility.yul\":15781:15784   */\n      0x80\n        /* \"#utility.yul\":15770:15779   */\n      dup3\n        /* \"#utility.yul\":15766:15785   */\n      add\n        /* \"#utility.yul\":15758:15785   */\n      swap1\n      pop\n        /* \"#utility.yul\":15795:15866   */\n      tag_566\n        /* \"#utility.yul\":15863:15864   */\n      0x00\n        /* \"#utility.yul\":15852:15861   */\n      dup4\n        /* \"#utility.yul\":15848:15865   */\n      add\n        /* \"#utility.yul\":15839:15845   */\n      dup8\n        /* \"#utility.yul\":15795:15866   */\n      tag_387\n      jump\t// in\n    tag_566:\n        /* \"#utility.yul\":15876:15944   */\n      tag_567\n        /* \"#utility.yul\":15940:15942   */\n      0x20\n        /* \"#utility.yul\":15929:15938   */\n      dup4\n        /* \"#utility.yul\":15925:15943   */\n      add\n        /* \"#utility.yul\":15916:15922   */\n      dup7\n        /* \"#utility.yul\":15876:15944   */\n      tag_385\n      jump\t// in\n    tag_567:\n        /* \"#utility.yul\":15954:16026   */\n      tag_568\n        /* \"#utility.yul\":16022:16024   */\n      0x40\n        /* \"#utility.yul\":16011:16020   */\n      dup4\n        /* \"#utility.yul\":16007:16025   */\n      add\n        /* \"#utility.yul\":15998:16004   */\n      dup6\n        /* \"#utility.yul\":15954:16026   */\n      tag_387\n      jump\t// in\n    tag_568:\n        /* \"#utility.yul\":16036:16108   */\n      tag_569\n        /* \"#utility.yul\":16104:16106   */\n      0x60\n        /* \"#utility.yul\":16093:16102   */\n      dup4\n        /* \"#utility.yul\":16089:16107   */\n      add\n        /* \"#utility.yul\":16080:16086   */\n      dup5\n        /* \"#utility.yul\":16036:16108   */\n      tag_387\n      jump\t// in\n    tag_569:\n        /* \"#utility.yul\":15570:16115   */\n      swap6\n      swap5\n      pop\n      pop\n      pop\n      pop\n      pop\n      jump\t// out\n        /* \"#utility.yul\":16121:16301   */\n    tag_319:\n        /* \"#utility.yul\":16169:16246   */\n      0x4e487b7100000000000000000000000000000000000000000000000000000000\n        /* \"#utility.yul\":16166:16167   */\n      0x00\n        /* \"#utility.yul\":16159:16247   */\n      mstore\n        /* \"#utility.yul\":16266:16270   */\n      0x21\n        /* \"#utility.yul\":16263:16264   */\n      0x04\n        /* \"#utility.yul\":16256:16271   */\n      mstore\n        /* \"#utility.yul\":16290:16294   */\n      0x24\n        /* \"#utility.yul\":16287:16288   */\n      0x00\n        /* \"#utility.yul\":16280:16295   */\n      revert\n        /* \"#utility.yul\":16307:16487   */\n    tag_405:\n        /* \"#utility.yul\":16355:16432   */\n      0x4e487b7100000000000000000000000000000000000000000000000000000000\n        /* \"#utility.yul\":16352:16353   */\n      0x00\n        /* \"#utility.yul\":16345:16433   */\n      mstore\n        /* \"#utility.yul\":16452:16456   */\n      0x11\n        /* \"#utility.yul\":16449:16450   */\n      0x04\n        /* \"#utility.yul\":16442:16457   */\n      mstore\n        /* \"#utility.yul\":16476:16480   */\n      0x24\n        /* \"#utility.yul\":16473:16474   */\n      0x00\n        /* \"#utility.yul\":16466:16481   */\n      revert\n        /* \"#utility.yul\":16493:16684   */\n    tag_357:\n        /* \"#utility.yul\":16533:16536   */\n      0x00\n        /* \"#utility.yul\":16552:16572   */\n      tag_573\n        /* \"#utility.yul\":16570:16571   */\n      dup3\n        /* \"#utility.yul\":16552:16572   */\n      tag_378\n      jump\t// in\n    tag_573:\n        /* \"#utility.yul\":16547:16572   */\n      swap2\n      pop\n        /* \"#utility.yul\":16586:16606   */\n      tag_574\n        /* \"#utility.yul\":16604:16605   */\n      dup4\n        /* \"#utility.yul\":16586:16606   */\n      tag_378\n      jump\t// in\n    tag_574:\n        /* \"#utility.yul\":16581:16606   */\n      swap3\n      pop\n        /* \"#utility.yul\":16629:16630   */\n      dup3\n        /* \"#utility.yul\":16626:16627   */\n      dup3\n        /* \"#utility.yul\":16622:16631   */\n      add\n        /* \"#utility.yul\":16615:16631   */\n      swap1\n      pop\n        /* \"#utility.yul\":16650:16653   */\n      dup1\n        /* \"#utility.yul\":16647:16648   */\n      dup3\n        /* \"#utility.yul\":16644:16654   */\n      gt\n        /* \"#utility.yul\":16641:16677   */\n      iszero\n      tag_575\n      jumpi\n        /* \"#utility.yul\":16657:16675   */\n      tag_576\n      tag_405\n      jump\t// in\n    tag_576:\n        /* \"#utility.yul\":16641:16677   */\n    tag_575:\n        /* \"#utility.yul\":16493:16684   */\n      swap3\n      swap2\n      pop\n      pop\n      jump\t// out\n\n    auxdata: 0xa2646970667358221220bd58f73d02c4b2cd1a9930b288e10e51c5e4e56da4e796e4925bc619861d729364736f6c63430008180033\n}\n",
				"bytecode": {
					"linkReferences": {},
					"object": "61016060405234801562000011575f80fd5b5060405162002d5038038062002d508339818101604052810190620000379190620004db565b6040518060400160405280600781526020017f4d79546f6b656e00000000000000000000000000000000000000000000000000815250806040518060400160405280600181526020017f3100000000000000000000000000000000000000000000000000000000000000815250836040518060400160405280600781526020017f4d79546f6b656e000000000000000000000000000000000000000000000000008152506040518060400160405280600381526020017f4d544b000000000000000000000000000000000000000000000000000000000081525081600390816200012291906200076f565b5080600490816200013491906200076f565b5050505f60055f6101000a81548160ff0219169083151502179055505f73ffffffffffffffffffffffffffffffffffffffff168173ffffffffffffffffffffffffffffffffffffffff1603620001c3575f6040517f1e4fbdf7000000000000000000000000000000000000000000000000000000008152600401620001ba919062000864565b60405180910390fd5b620001d4816200028d60201b60201c565b50620001eb6006836200035260201b90919060201c565b6101208181525050620002096007826200035260201b90919060201c565b6101408181525050818051906020012060e08181525050808051906020012061010081815250504660a0818152505062000248620003a760201b60201c565b608081815250503073ffffffffffffffffffffffffffffffffffffffff1660c08173ffffffffffffffffffffffffffffffffffffffff16815250505050505062000a4f565b5f600560019054906101000a900473ffffffffffffffffffffffffffffffffffffffff16905081600560016101000a81548173ffffffffffffffffffffffffffffffffffffffff021916908373ffffffffffffffffffffffffffffffffffffffff1602179055508173ffffffffffffffffffffffffffffffffffffffff168173ffffffffffffffffffffffffffffffffffffffff167f8be0079c531659141344cd1fd0a4f28419497f9722a3daafe3b4186f6b6457e060405160405180910390a35050565b5f60208351101562000377576200036f836200040360201b60201c565b9050620003a1565b8262000389836200046d60201b60201c565b5f0190816200039991906200076f565b5060ff5f1b90505b92915050565b5f7f8b73c3c69bb8fe3d512ecc4cf759cc79239f7b179b0ffacaa9a75d522b39400f60e051610100514630604051602001620003e8959493929190620008aa565b60405160208183030381529060405280519060200120905090565b5f80829050601f815111156200045257826040517f305a27a90000000000000000000000000000000000000000000000000000000081526004016200044991906200098f565b60405180910390fd5b8051816200046090620009e0565b5f1c175f1b915050919050565b5f819050919050565b5f80fd5b5f73ffffffffffffffffffffffffffffffffffffffff82169050919050565b5f620004a5826200047a565b9050919050565b620004b78162000499565b8114620004c2575f80fd5b50565b5f81519050620004d581620004ac565b92915050565b5f60208284031215620004f357620004f262000476565b5b5f6200050284828501620004c5565b91505092915050565b5f81519050919050565b7f4e487b71000000000000000000000000000000000000000000000000000000005f52604160045260245ffd5b7f4e487b71000000000000000000000000000000000000000000000000000000005f52602260045260245ffd5b5f60028204905060018216806200058757607f821691505b6020821081036200059d576200059c62000542565b5b50919050565b5f819050815f5260205f209050919050565b5f6020601f8301049050919050565b5f82821b905092915050565b5f60088302620006017fffffffffffffffffffffffffffffffffffffffffffffffffffffffffffffffff82620005c4565b6200060d8683620005c4565b95508019841693508086168417925050509392505050565b5f819050919050565b5f819050919050565b5f62000657620006516200064b8462000625565b6200062e565b62000625565b9050919050565b5f819050919050565b620006728362000637565b6200068a62000681826200065e565b848454620005d0565b825550505050565b5f90565b620006a062000692565b620006ad81848462000667565b505050565b5b81811015620006d457620006c85f8262000696565b600181019050620006b3565b5050565b601f8211156200072357620006ed81620005a3565b620006f884620005b5565b8101602085101562000708578190505b620007206200071785620005b5565b830182620006b2565b50505b505050565b5f82821c905092915050565b5f620007455f198460080262000728565b1980831691505092915050565b5f6200075f838362000734565b9150826002028217905092915050565b6200077a826200050b565b67ffffffffffffffff81111562000796576200079562000515565b5b620007a282546200056f565b620007af828285620006d8565b5f60209050601f831160018114620007e5575f8415620007d0578287015190505b620007dc858262000752565b8655506200084b565b601f198416620007f586620005a3565b5f5b828110156200081e57848901518255600182019150602085019450602081019050620007f7565b868310156200083e57848901516200083a601f89168262000734565b8355505b6001600288020188555050505b505050505050565b6200085e8162000499565b82525050565b5f602082019050620008795f83018462000853565b92915050565b5f819050919050565b62000893816200087f565b82525050565b620008a48162000625565b82525050565b5f60a082019050620008bf5f83018862000888565b620008ce602083018762000888565b620008dd604083018662000888565b620008ec606083018562000899565b620008fb608083018462000853565b9695505050505050565b5f82825260208201905092915050565b5f5b838110156200093457808201518184015260208101905062000917565b5f8484015250505050565b5f601f19601f8301169050919050565b5f6200095b826200050b565b62000967818562000905565b93506200097981856020860162000915565b62000984816200093f565b840191505092915050565b5f6020820190508181035f830152620009a981846200094f565b905092915050565b5f81519050919050565b5f819050602082019050919050565b5f620009d782516200087f565b80915050919050565b5f620009ec82620009b1565b82620009f884620009bb565b905062000a0581620009ca565b9250602082101562000a485762000a437fffffffffffffffffffffffffffffffffffffffffffffffffffffffffffffffff83602003600802620005c4565b831692505b5050919050565b60805160a05160c05160e0516101005161012051610140516122af62000aa15f395f610fa201525f610f6701525f61130a01525f6112e901525f610b5801525f610bae01525f610bd701526122af5ff3fe608060405234801561000f575f80fd5b5060043610610140575f3560e01c8063715018a6116100b65780638da5cb5b1161007a5780638da5cb5b1461033057806395d89b411461034e578063a9059cbb1461036c578063d505accf1461039c578063dd62ed3e146103b8578063f2fde38b146103e857610140565b8063715018a6146102ac57806379cc6790146102b65780637ecebe00146102d25780638456cb591461030257806384b0196e1461030c57610140565b80633644e515116101085780633644e515146101fe5780633f4ba83a1461021c57806340c10f191461022657806342966c68146102425780635c975abb1461025e57806370a082311461027c57610140565b806306fdde0314610144578063095ea7b31461016257806318160ddd1461019257806323b872dd146101b0578063313ce567146101e0575b5f80fd5b61014c610404565b6040516101599190611a8c565b60405180910390f35b61017c60048036038101906101779190611b3d565b610494565b6040516101899190611b95565b60405180910390f35b61019a6104b6565b6040516101a79190611bbd565b60405180910390f35b6101ca60048036038101906101c59190611bd6565b6104bf565b6040516101d79190611b95565b60405180910390f35b6101e86104ed565b6040516101f59190611c41565b60405180910390f35b6102066104f5565b6040516102139190611c72565b60405180910390f35b610224610503565b005b610240600480360381019061023b9190611b3d565b610515565b005b61025c60048036038101906102579190611c8b565b61052b565b005b61026661053f565b6040516102739190611b95565b60405180910390f35b61029660048036038101906102919190611cb6565b610554565b6040516102a39190611bbd565b60405180910390f35b6102b4610599565b005b6102d060048036038101906102cb9190611b3d565b6105ac565b005b6102ec60048036038101906102e79190611cb6565b6105cc565b6040516102f99190611bbd565b60405180910390f35b61030a6105dd565b005b6103146105ef565b6040516103279796959493929190611de1565b60405180910390f35b610338610694565b6040516103459190611e63565b60405180910390f35b6103566106bd565b6040516103639190611a8c565b60405180910390f35b61038660048036038101906103819190611b3d565b61074d565b6040516103939190611b95565b60405180910390f35b6103b660048036038101906103b19190611ed0565b61076f565b005b6103d260048036038101906103cd9190611f6d565b6108b4565b6040516103df9190611bbd565b60405180910390f35b61040260048036038101906103fd9190611cb6565b610936565b005b60606003805461041390611fd8565b80601f016020809104026020016040519081016040528092919081815260200182805461043f90611fd8565b801561048a5780601f106104615761010080835404028352916020019161048a565b820191905f5260205f20905b81548152906001019060200180831161046d57829003601f168201915b5050505050905090565b5f8061049e6109ba565b90506104ab8185856109c1565b600191505092915050565b5f600254905090565b5f806104c96109ba565b90506104d68582856109d3565b6104e1858585610a65565b60019150509392505050565b5f6012905090565b5f6104fe610b55565b905090565b61050b610c0b565b610513610c92565b565b61051d610c0b565b6105278282610cf3565b5050565b61053c6105366109ba565b82610d72565b50565b5f60055f9054906101000a900460ff16905090565b5f805f8373ffffffffffffffffffffffffffffffffffffffff1673ffffffffffffffffffffffffffffffffffffffff1681526020019081526020015f20549050919050565b6105a1610c0b565b6105aa5f610df1565b565b6105be826105b86109ba565b836109d3565b6105c88282610d72565b5050565b5f6105d682610eb6565b9050919050565b6105e5610c0b565b6105ed610efc565b565b5f6060805f805f6060610600610f5e565b610608610f99565b46305f801b5f67ffffffffffffffff81111561062757610626612008565b5b6040519080825280602002602001820160405280156106555781602001602082028036833780820191505090505b507f0f00000000000000000000000000000000000000000000000000000000000000959493929190965096509650965096509650965090919293949596565b5f600560019054906101000a900473ffffffffffffffffffffffffffffffffffffffff16905090565b6060600480546106cc90611fd8565b80601f01602080910402602001604051908101604052809291908181526020018280546106f890611fd8565b80156107435780601f1061071a57610100808354040283529160200191610743565b820191905f5260205f20905b81548152906001019060200180831161072657829003601f168201915b5050505050905090565b5f806107576109ba565b9050610764818585610a65565b600191505092915050565b834211156107b457836040517f627913020000000000000000000000000000000000000000000000000000000081526004016107ab9190611bbd565b60405180910390fd5b5f7f6e71edae12b1b97f4d1f60370fef10105fa2faae0126114a169c64845d6126c98888886107e28c610fd4565b896040516020016107f896959493929190612035565b6040516020818303038152906040528051906020012090505f61081a82611027565b90505f61082982878787611040565b90508973ffffffffffffffffffffffffffffffffffffffff168173ffffffffffffffffffffffffffffffffffffffff161461089d57808a6040517f4b800e46000000000000000000000000000000000000000000000000000000008152600401610894929190612094565b60405180910390fd5b6108a88a8a8a6109c1565b50505050505050505050565b5f60015f8473ffffffffffffffffffffffffffffffffffffffff1673ffffffffffffffffffffffffffffffffffffffff1681526020019081526020015f205f8373ffffffffffffffffffffffffffffffffffffffff1673ffffffffffffffffffffffffffffffffffffffff1681526020019081526020015f2054905092915050565b61093e610c0b565b5f73ffffffffffffffffffffffffffffffffffffffff168173ffffffffffffffffffffffffffffffffffffffff16036109ae575f6040517f1e4fbdf70000000000000000000000000000000000000000000000000000000081526004016109a59190611e63565b60405180910390fd5b6109b781610df1565b50565b5f33905090565b6109ce838383600161106e565b505050565b5f6109de84846108b4565b90507fffffffffffffffffffffffffffffffffffffffffffffffffffffffffffffffff8114610a5f5781811015610a50578281836040517ffb8f41b2000000000000000000000000000000000000000000000000000000008152600401610a47939291906120bb565b60405180910390fd5b610a5e84848484035f61106e565b5b50505050565b5f73ffffffffffffffffffffffffffffffffffffffff168373ffffffffffffffffffffffffffffffffffffffff1603610ad5575f6040517f96c6fd1e000000000000000000000000000000000000000000000000000000008152600401610acc9190611e63565b60405180910390fd5b5f73ffffffffffffffffffffffffffffffffffffffff168273ffffffffffffffffffffffffffffffffffffffff1603610b45575f6040517fec442f05000000000000000000000000000000000000000000000000000000008152600401610b3c9190611e63565b60405180910390fd5b610b5083838361123d565b505050565b5f7f000000000000000000000000000000000000000000000000000000000000000073ffffffffffffffffffffffffffffffffffffffff163073ffffffffffffffffffffffffffffffffffffffff16148015610bd057507f000000000000000000000000000000000000000000000000000000000000000046145b15610bfd577f00000000000000000000000000000000000000000000000000000000000000009050610c08565b610c056112c5565b90505b90565b610c136109ba565b73ffffffffffffffffffffffffffffffffffffffff16610c31610694565b73ffffffffffffffffffffffffffffffffffffffff1614610c9057610c546109ba565b6040517f118cdaa7000000000000000000000000000000000000000000000000000000008152600401610c879190611e63565b60405180910390fd5b565b610c9a61135a565b5f60055f6101000a81548160ff0219169083151502179055507f5db9ee0a495bf2e6ff9c91a7834c1ba4fdd244a5e8aa4e537bd38aeae4b073aa610cdc6109ba565b604051610ce99190611e63565b60405180910390a1565b5f73ffffffffffffffffffffffffffffffffffffffff168273ffffffffffffffffffffffffffffffffffffffff1603610d63575f6040517fec442f05000000000000000000000000000000000000000000000000000000008152600401610d5a9190611e63565b60405180910390fd5b610d6e5f838361123d565b5050565b5f73ffffffffffffffffffffffffffffffffffffffff168273ffffffffffffffffffffffffffffffffffffffff1603610de2575f6040517f96c6fd1e000000000000000000000000000000000000000000000000000000008152600401610dd99190611e63565b60405180910390fd5b610ded825f8361123d565b5050565b5f600560019054906101000a900473ffffffffffffffffffffffffffffffffffffffff16905081600560016101000a81548173ffffffffffffffffffffffffffffffffffffffff021916908373ffffffffffffffffffffffffffffffffffffffff1602179055508173ffffffffffffffffffffffffffffffffffffffff168173ffffffffffffffffffffffffffffffffffffffff167f8be0079c531659141344cd1fd0a4f28419497f9722a3daafe3b4186f6b6457e060405160405180910390a35050565b5f60085f8373ffffffffffffffffffffffffffffffffffffffff1673ffffffffffffffffffffffffffffffffffffffff1681526020019081526020015f20549050919050565b610f0461139a565b600160055f6101000a81548160ff0219169083151502179055507f62e78cea01bee320cd4e420270b5ea74000d11b0c9f74754ebdbfc544b05a258610f476109ba565b604051610f549190611e63565b60405180910390a1565b6060610f9460067f00000000000000000000000000000000000000000000000000000000000000006113db90919063ffffffff16565b905090565b6060610fcf60077f00000000000000000000000000000000000000000000000000000000000000006113db90919063ffffffff16565b905090565b5f60085f8373ffffffffffffffffffffffffffffffffffffffff1673ffffffffffffffffffffffffffffffffffffffff1681526020019081526020015f205f815480929190600101919050559050919050565b5f611039611033610b55565b83611488565b9050919050565b5f805f80611050888888886114c8565b92509250925061106082826115af565b829350505050949350505050565b5f73ffffffffffffffffffffffffffffffffffffffff168473ffffffffffffffffffffffffffffffffffffffff16036110de575f6040517fe602df050000000000000000000000000000000000000000000000000000000081526004016110d59190611e63565b60405180910390fd5b5f73ffffffffffffffffffffffffffffffffffffffff168373ffffffffffffffffffffffffffffffffffffffff160361114e575f6040517f94280d620000000000000000000000000000000000000000000000000000000081526004016111459190611e63565b60405180910390fd5b8160015f8673ffffffffffffffffffffffffffffffffffffffff1673ffffffffffffffffffffffffffffffffffffffff1681526020019081526020015f205f8573ffffffffffffffffffffffffffffffffffffffff1673ffffffffffffffffffffffffffffffffffffffff1681526020019081526020015f20819055508015611237578273ffffffffffffffffffffffffffffffffffffffff168473ffffffffffffffffffffffffffffffffffffffff167f8c5be1e5ebec7d5bd14f71427d1e84f3dd0314c0f7b2291e5b200ac8c7c3b9258460405161122e9190611bbd565b60405180910390a35b50505050565b5f73ffffffffffffffffffffffffffffffffffffffff168373ffffffffffffffffffffffffffffffffffffffff16146112b55760648111156112b4576040517f08c379a00000000000000000000000000000000000000000000000000000000081526004016112ab9061213a565b60405180910390fd5b5b6112c0838383611711565b505050565b5f7f8b73c3c69bb8fe3d512ecc4cf759cc79239f7b179b0ffacaa9a75d522b39400f7f00000000000000000000000000000000000000000000000000000000000000007f0000000000000000000000000000000000000000000000000000000000000000463060405160200161133f959493929190612158565b60405160208183030381529060405280519060200120905090565b61136261053f565b611398576040517f8dfc202b00000000000000000000000000000000000000000000000000000000815260040160405180910390fd5b565b6113a261053f565b156113d9576040517fd93c066500000000000000000000000000000000000000000000000000000000815260040160405180910390fd5b565b606060ff5f1b83146113f7576113f083611729565b9050611482565b81805461140390611fd8565b80601f016020809104026020016040519081016040528092919081815260200182805461142f90611fd8565b801561147a5780601f106114515761010080835404028352916020019161147a565b820191905f5260205f20905b81548152906001019060200180831161145d57829003601f168201915b505050505090505b92915050565b5f6040517f190100000000000000000000000000000000000000000000000000000000000081528360028201528260228201526042812091505092915050565b5f805f7f7fffffffffffffffffffffffffffffff5d576e7357a4501ddfe92f46681b20a0845f1c1115611504575f6003859250925092506115a5565b5f6001888888886040515f815260200160405260405161152794939291906121a9565b6020604051602081039080840390855afa158015611547573d5f803e3d5ffd5b5050506020604051035190505f73ffffffffffffffffffffffffffffffffffffffff168173ffffffffffffffffffffffffffffffffffffffff1603611598575f60015f801b935093509350506115a5565b805f805f1b935093509350505b9450945094915050565b5f60038111156115c2576115c16121ec565b5b8260038111156115d5576115d46121ec565b5b031561170d57600160038111156115ef576115ee6121ec565b5b826003811115611602576116016121ec565b5b03611639576040517ff645eedf00000000000000000000000000000000000000000000000000000000815260040160405180910390fd5b6002600381111561164d5761164c6121ec565b5b8260038111156116605761165f6121ec565b5b036116a457805f1c6040517ffce698f700000000000000000000000000000000000000000000000000000000815260040161169b9190611bbd565b60405180910390fd5b6003808111156116b7576116b66121ec565b5b8260038111156116ca576116c96121ec565b5b0361170c57806040517fd78bce0c0000000000000000000000000000000000000000000000000000000081526004016117039190611c72565b60405180910390fd5b5b5050565b61171961139a565b61172483838361179b565b505050565b60605f611735836119b4565b90505f602067ffffffffffffffff81111561175357611752612008565b5b6040519080825280601f01601f1916602001820160405280156117855781602001600182028036833780820191505090505b5090508181528360208201528092505050919050565b5f73ffffffffffffffffffffffffffffffffffffffff168373ffffffffffffffffffffffffffffffffffffffff16036117eb578060025f8282546117df9190612246565b925050819055506118b9565b5f805f8573ffffffffffffffffffffffffffffffffffffffff1673ffffffffffffffffffffffffffffffffffffffff1681526020019081526020015f2054905081811015611874578381836040517fe450d38c00000000000000000000000000000000000000000000000000000000815260040161186b939291906120bb565b60405180910390fd5b8181035f808673ffffffffffffffffffffffffffffffffffffffff1673ffffffffffffffffffffffffffffffffffffffff1681526020019081526020015f2081905550505b5f73ffffffffffffffffffffffffffffffffffffffff168273ffffffffffffffffffffffffffffffffffffffff1603611900578060025f828254039250508190555061194a565b805f808473ffffffffffffffffffffffffffffffffffffffff1673ffffffffffffffffffffffffffffffffffffffff1681526020019081526020015f205f82825401925050819055505b8173ffffffffffffffffffffffffffffffffffffffff168373ffffffffffffffffffffffffffffffffffffffff167fddf252ad1be2c89b69c2b068fc378daa952ba7f163c4a11628f55a4df523b3ef836040516119a79190611bbd565b60405180910390a3505050565b5f8060ff835f1c169050601f8111156119f9576040517fb3512b0c00000000000000000000000000000000000000000000000000000000815260040160405180910390fd5b80915050919050565b5f81519050919050565b5f82825260208201905092915050565b5f5b83811015611a39578082015181840152602081019050611a1e565b5f8484015250505050565b5f601f19601f8301169050919050565b5f611a5e82611a02565b611a688185611a0c565b9350611a78818560208601611a1c565b611a8181611a44565b840191505092915050565b5f6020820190508181035f830152611aa48184611a54565b905092915050565b5f80fd5b5f73ffffffffffffffffffffffffffffffffffffffff82169050919050565b5f611ad982611ab0565b9050919050565b611ae981611acf565b8114611af3575f80fd5b50565b5f81359050611b0481611ae0565b92915050565b5f819050919050565b611b1c81611b0a565b8114611b26575f80fd5b50565b5f81359050611b3781611b13565b92915050565b5f8060408385031215611b5357611b52611aac565b5b5f611b6085828601611af6565b9250506020611b7185828601611b29565b9150509250929050565b5f8115159050919050565b611b8f81611b7b565b82525050565b5f602082019050611ba85f830184611b86565b92915050565b611bb781611b0a565b82525050565b5f602082019050611bd05f830184611bae565b92915050565b5f805f60608486031215611bed57611bec611aac565b5b5f611bfa86828701611af6565b9350506020611c0b86828701611af6565b9250506040611c1c86828701611b29565b9150509250925092565b5f60ff82169050919050565b611c3b81611c26565b82525050565b5f602082019050611c545f830184611c32565b92915050565b5f819050919050565b611c6c81611c5a565b82525050565b5f602082019050611c855f830184611c63565b92915050565b5f60208284031215611ca057611c9f611aac565b5b5f611cad84828501611b29565b91505092915050565b5f60208284031215611ccb57611cca611aac565b5b5f611cd884828501611af6565b91505092915050565b5f7fff0000000000000000000000000000000000000000000000000000000000000082169050919050565b611d1581611ce1565b82525050565b611d2481611acf565b82525050565b5f81519050919050565b5f82825260208201905092915050565b5f819050602082019050919050565b611d5c81611b0a565b82525050565b5f611d6d8383611d53565b60208301905092915050565b5f602082019050919050565b5f611d8f82611d2a565b611d998185611d34565b9350611da483611d44565b805f5b83811015611dd4578151611dbb8882611d62565b9750611dc683611d79565b925050600181019050611da7565b5085935050505092915050565b5f60e082019050611df45f83018a611d0c565b8181036020830152611e068189611a54565b90508181036040830152611e1a8188611a54565b9050611e296060830187611bae565b611e366080830186611d1b565b611e4360a0830185611c63565b81810360c0830152611e558184611d85565b905098975050505050505050565b5f602082019050611e765f830184611d1b565b92915050565b611e8581611c26565b8114611e8f575f80fd5b50565b5f81359050611ea081611e7c565b92915050565b611eaf81611c5a565b8114611eb9575f80fd5b50565b5f81359050611eca81611ea6565b92915050565b5f805f805f805f60e0888a031215611eeb57611eea611aac565b5b5f611ef88a828b01611af6565b9750506020611f098a828b01611af6565b9650506040611f1a8a828b01611b29565b9550506060611f2b8a828b01611b29565b9450506080611f3c8a828b01611e92565b93505060a0611f4d8a828b01611ebc565b92505060c0611f5e8a828b01611ebc565b91505092959891949750929550565b5f8060408385031215611f8357611f82611aac565b5b5f611f9085828601611af6565b9250506020611fa185828601611af6565b9150509250929050565b7f4e487b71000000000000000000000000000000000000000000000000000000005f52602260045260245ffd5b5f6002820490506001821680611fef57607f821691505b60208210810361200257612001611fab565b5b50919050565b7f4e487b71000000000000000000000000000000000000000000000000000000005f52604160045260245ffd5b5f60c0820190506120485f830189611c63565b6120556020830188611d1b565b6120626040830187611d1b565b61206f6060830186611bae565b61207c6080830185611bae565b61208960a0830184611bae565b979650505050505050565b5f6040820190506120a75f830185611d1b565b6120b46020830184611d1b565b9392505050565b5f6060820190506120ce5f830186611d1b565b6120db6020830185611bae565b6120e86040830184611bae565b949350505050565b7f76616c756520697320746f6f206d6f72652100000000000000000000000000005f82015250565b5f612124601283611a0c565b915061212f826120f0565b602082019050919050565b5f6020820190508181035f83015261215181612118565b9050919050565b5f60a08201905061216b5f830188611c63565b6121786020830187611c63565b6121856040830186611c63565b6121926060830185611bae565b61219f6080830184611d1b565b9695505050505050565b5f6080820190506121bc5f830187611c63565b6121c96020830186611c32565b6121d66040830185611c63565b6121e36060830184611c63565b95945050505050565b7f4e487b71000000000000000000000000000000000000000000000000000000005f52602160045260245ffd5b7f4e487b71000000000000000000000000000000000000000000000000000000005f52601160045260245ffd5b5f61225082611b0a565b915061225b83611b0a565b925082820190508082111561227357612272612219565b5b9291505056fea2646970667358221220bd58f73d02c4b2cd1a9930b288e10e51c5e4e56da4e796e4925bc619861d729364736f6c63430008180033",
					"opcodes": "PUSH2 0x160 PUSH1 0x40 MSTORE CALLVALUE DUP1 ISZERO PUSH3 0x11 JUMPI PUSH0 DUP1 REVERT JUMPDEST POP PUSH1 0x40 MLOAD PUSH3 0x2D50 CODESIZE SUB DUP1 PUSH3 0x2D50 DUP4 CODECOPY DUP2 DUP2 ADD PUSH1 0x40 MSTORE DUP2 ADD SWAP1 PUSH3 0x37 SWAP2 SWAP1 PUSH3 0x4DB JUMP JUMPDEST PUSH1 0x40 MLOAD DUP1 PUSH1 0x40 ADD PUSH1 0x40 MSTORE DUP1 PUSH1 0x7 DUP2 MSTORE PUSH1 0x20 ADD PUSH32 0x4D79546F6B656E00000000000000000000000000000000000000000000000000 DUP2 MSTORE POP DUP1 PUSH1 0x40 MLOAD DUP1 PUSH1 0x40 ADD PUSH1 0x40 MSTORE DUP1 PUSH1 0x1 DUP2 MSTORE PUSH1 0x20 ADD PUSH32 0x3100000000000000000000000000000000000000000000000000000000000000 DUP2 MSTORE POP DUP4 PUSH1 0x40 MLOAD DUP1 PUSH1 0x40 ADD PUSH1 0x40 MSTORE DUP1 PUSH1 0x7 DUP2 MSTORE PUSH1 0x20 ADD PUSH32 0x4D79546F6B656E00000000000000000000000000000000000000000000000000 DUP2 MSTORE POP PUSH1 0x40 MLOAD DUP1 PUSH1 0x40 ADD PUSH1 0x40 MSTORE DUP1 PUSH1 0x3 DUP2 MSTORE PUSH1 0x20 ADD PUSH32 0x4D544B0000000000000000000000000000000000000000000000000000000000 DUP2 MSTORE POP DUP2 PUSH1 0x3 SWAP1 DUP2 PUSH3 0x122 SWAP2 SWAP1 PUSH3 0x76F JUMP JUMPDEST POP DUP1 PUSH1 0x4 SWAP1 DUP2 PUSH3 0x134 SWAP2 SWAP1 PUSH3 0x76F JUMP JUMPDEST POP POP POP PUSH0 PUSH1 0x5 PUSH0 PUSH2 0x100 EXP DUP2 SLOAD DUP2 PUSH1 0xFF MUL NOT AND SWAP1 DUP4 ISZERO ISZERO MUL OR SWAP1 SSTORE POP PUSH0 PUSH20 0xFFFFFFFFFFFFFFFFFFFFFFFFFFFFFFFFFFFFFFFF AND DUP2 PUSH20 0xFFFFFFFFFFFFFFFFFFFFFFFFFFFFFFFFFFFFFFFF AND SUB PUSH3 0x1C3 JUMPI PUSH0 PUSH1 0x40 MLOAD PUSH32 0x1E4FBDF700000000000000000000000000000000000000000000000000000000 DUP2 MSTORE PUSH1 0x4 ADD PUSH3 0x1BA SWAP2 SWAP1 PUSH3 0x864 JUMP JUMPDEST PUSH1 0x40 MLOAD DUP1 SWAP2 SUB SWAP1 REVERT JUMPDEST PUSH3 0x1D4 DUP2 PUSH3 0x28D PUSH1 0x20 SHL PUSH1 0x20 SHR JUMP JUMPDEST POP PUSH3 0x1EB PUSH1 0x6 DUP4 PUSH3 0x352 PUSH1 0x20 SHL SWAP1 SWAP2 SWAP1 PUSH1 0x20 SHR JUMP JUMPDEST PUSH2 0x120 DUP2 DUP2 MSTORE POP POP PUSH3 0x209 PUSH1 0x7 DUP3 PUSH3 0x352 PUSH1 0x20 SHL SWAP1 SWAP2 SWAP1 PUSH1 0x20 SHR JUMP JUMPDEST PUSH2 0x140 DUP2 DUP2 MSTORE POP POP DUP2 DUP1 MLOAD SWAP1 PUSH1 0x20 ADD KECCAK256 PUSH1 0xE0 DUP2 DUP2 MSTORE POP POP DUP1 DUP1 MLOAD SWAP1 PUSH1 0x20 ADD KECCAK256 PUSH2 0x100 DUP2 DUP2 MSTORE POP POP CHAINID PUSH1 0xA0 DUP2 DUP2 MSTORE POP POP PUSH3 0x248 PUSH3 0x3A7 PUSH1 0x20 SHL PUSH1 0x20 SHR JUMP JUMPDEST PUSH1 0x80 DUP2 DUP2 MSTORE POP POP ADDRESS PUSH20 0xFFFFFFFFFFFFFFFFFFFFFFFFFFFFFFFFFFFFFFFF AND PUSH1 0xC0 DUP2 PUSH20 0xFFFFFFFFFFFFFFFFFFFFFFFFFFFFFFFFFFFFFFFF AND DUP2 MSTORE POP POP POP POP POP POP PUSH3 0xA4F JUMP JUMPDEST PUSH0 PUSH1 0x5 PUSH1 0x1 SWAP1 SLOAD SWAP1 PUSH2 0x100 EXP SWAP1 DIV PUSH20 0xFFFFFFFFFFFFFFFFFFFFFFFFFFFFFFFFFFFFFFFF AND SWAP1 POP DUP2 PUSH1 0x5 PUSH1 0x1 PUSH2 0x100 EXP DUP2 SLOAD DUP2 PUSH20 0xFFFFFFFFFFFFFFFFFFFFFFFFFFFFFFFFFFFFFFFF MUL NOT AND SWAP1 DUP4 PUSH20 0xFFFFFFFFFFFFFFFFFFFFFFFFFFFFFFFFFFFFFFFF AND MUL OR SWAP1 SSTORE POP DUP2 PUSH20 0xFFFFFFFFFFFFFFFFFFFFFFFFFFFFFFFFFFFFFFFF AND DUP2 PUSH20 0xFFFFFFFFFFFFFFFFFFFFFFFFFFFFFFFFFFFFFFFF AND PUSH32 0x8BE0079C531659141344CD1FD0A4F28419497F9722A3DAAFE3B4186F6B6457E0 PUSH1 0x40 MLOAD PUSH1 0x40 MLOAD DUP1 SWAP2 SUB SWAP1 LOG3 POP POP JUMP JUMPDEST PUSH0 PUSH1 0x20 DUP4 MLOAD LT ISZERO PUSH3 0x377 JUMPI PUSH3 0x36F DUP4 PUSH3 0x403 PUSH1 0x20 SHL PUSH1 0x20 SHR JUMP JUMPDEST SWAP1 POP PUSH3 0x3A1 JUMP JUMPDEST DUP3 PUSH3 0x389 DUP4 PUSH3 0x46D PUSH1 0x20 SHL PUSH1 0x20 SHR JUMP JUMPDEST PUSH0 ADD SWAP1 DUP2 PUSH3 0x399 SWAP2 SWAP1 PUSH3 0x76F JUMP JUMPDEST POP PUSH1 0xFF PUSH0 SHL SWAP1 POP JUMPDEST SWAP3 SWAP2 POP POP JUMP JUMPDEST PUSH0 PUSH32 0x8B73C3C69BB8FE3D512ECC4CF759CC79239F7B179B0FFACAA9A75D522B39400F PUSH1 0xE0 MLOAD PUSH2 0x100 MLOAD CHAINID ADDRESS PUSH1 0x40 MLOAD PUSH1 0x20 ADD PUSH3 0x3E8 SWAP6 SWAP5 SWAP4 SWAP3 SWAP2 SWAP1 PUSH3 0x8AA JUMP JUMPDEST PUSH1 0x40 MLOAD PUSH1 0x20 DUP2 DUP4 SUB SUB DUP2 MSTORE SWAP1 PUSH1 0x40 MSTORE DUP1 MLOAD SWAP1 PUSH1 0x20 ADD KECCAK256 SWAP1 POP SWAP1 JUMP JUMPDEST PUSH0 DUP1 DUP3 SWAP1 POP PUSH1 0x1F DUP2 MLOAD GT ISZERO PUSH3 0x452 JUMPI DUP3 PUSH1 0x40 MLOAD PUSH32 0x305A27A900000000000000000000000000000000000000000000000000000000 DUP2 MSTORE PUSH1 0x4 ADD PUSH3 0x449 SWAP2 SWAP1 PUSH3 0x98F JUMP JUMPDEST PUSH1 0x40 MLOAD DUP1 SWAP2 SUB SWAP1 REVERT JUMPDEST DUP1 MLOAD DUP2 PUSH3 0x460 SWAP1 PUSH3 0x9E0 JUMP JUMPDEST PUSH0 SHR OR PUSH0 SHL SWAP2 POP POP SWAP2 SWAP1 POP JUMP JUMPDEST PUSH0 DUP2 SWAP1 POP SWAP2 SWAP1 POP JUMP JUMPDEST PUSH0 DUP1 REVERT JUMPDEST PUSH0 PUSH20 0xFFFFFFFFFFFFFFFFFFFFFFFFFFFFFFFFFFFFFFFF DUP3 AND SWAP1 POP SWAP2 SWAP1 POP JUMP JUMPDEST PUSH0 PUSH3 0x4A5 DUP3 PUSH3 0x47A JUMP JUMPDEST SWAP1 POP SWAP2 SWAP1 POP JUMP JUMPDEST PUSH3 0x4B7 DUP2 PUSH3 0x499 JUMP JUMPDEST DUP2 EQ PUSH3 0x4C2 JUMPI PUSH0 DUP1 REVERT JUMPDEST POP JUMP JUMPDEST PUSH0 DUP2 MLOAD SWAP1 POP PUSH3 0x4D5 DUP2 PUSH3 0x4AC JUMP JUMPDEST SWAP3 SWAP2 POP POP JUMP JUMPDEST PUSH0 PUSH1 0x20 DUP3 DUP5 SUB SLT ISZERO PUSH3 0x4F3 JUMPI PUSH3 0x4F2 PUSH3 0x476 JUMP JUMPDEST JUMPDEST PUSH0 PUSH3 0x502 DUP5 DUP3 DUP6 ADD PUSH3 0x4C5 JUMP JUMPDEST SWAP2 POP POP SWAP3 SWAP2 POP POP JUMP JUMPDEST PUSH0 DUP2 MLOAD SWAP1 POP SWAP2 SWAP1 POP JUMP JUMPDEST PUSH32 0x4E487B7100000000000000000000000000000000000000000000000000000000 PUSH0 MSTORE PUSH1 0x41 PUSH1 0x4 MSTORE PUSH1 0x24 PUSH0 REVERT JUMPDEST PUSH32 0x4E487B7100000000000000000000000000000000000000000000000000000000 PUSH0 MSTORE PUSH1 0x22 PUSH1 0x4 MSTORE PUSH1 0x24 PUSH0 REVERT JUMPDEST PUSH0 PUSH1 0x2 DUP3 DIV SWAP1 POP PUSH1 0x1 DUP3 AND DUP1 PUSH3 0x587 JUMPI PUSH1 0x7F DUP3 AND SWAP2 POP JUMPDEST PUSH1 0x20 DUP3 LT DUP2 SUB PUSH3 0x59D JUMPI PUSH3 0x59C PUSH3 0x542 JUMP JUMPDEST JUMPDEST POP SWAP2 SWAP1 POP JUMP JUMPDEST PUSH0 DUP2 SWAP1 POP DUP2 PUSH0 MSTORE PUSH1 0x20 PUSH0 KECCAK256 SWAP1 POP SWAP2 SWAP1 POP JUMP JUMPDEST PUSH0 PUSH1 0x20 PUSH1 0x1F DUP4 ADD DIV SWAP1 POP SWAP2 SWAP1 POP JUMP JUMPDEST PUSH0 DUP3 DUP3 SHL SWAP1 POP SWAP3 SWAP2 POP POP JUMP JUMPDEST PUSH0 PUSH1 0x8 DUP4 MUL PUSH3 0x601 PUSH32 0xFFFFFFFFFFFFFFFFFFFFFFFFFFFFFFFFFFFFFFFFFFFFFFFFFFFFFFFFFFFFFFFF DUP3 PUSH3 0x5C4 JUMP JUMPDEST PUSH3 0x60D DUP7 DUP4 PUSH3 0x5C4 JUMP JUMPDEST SWAP6 POP DUP1 NOT DUP5 AND SWAP4 POP DUP1 DUP7 AND DUP5 OR SWAP3 POP POP POP SWAP4 SWAP3 POP POP POP JUMP JUMPDEST PUSH0 DUP2 SWAP1 POP SWAP2 SWAP1 POP JUMP JUMPDEST PUSH0 DUP2 SWAP1 POP SWAP2 SWAP1 POP JUMP JUMPDEST PUSH0 PUSH3 0x657 PUSH3 0x651 PUSH3 0x64B DUP5 PUSH3 0x625 JUMP JUMPDEST PUSH3 0x62E JUMP JUMPDEST PUSH3 0x625 JUMP JUMPDEST SWAP1 POP SWAP2 SWAP1 POP JUMP JUMPDEST PUSH0 DUP2 SWAP1 POP SWAP2 SWAP1 POP JUMP JUMPDEST PUSH3 0x672 DUP4 PUSH3 0x637 JUMP JUMPDEST PUSH3 0x68A PUSH3 0x681 DUP3 PUSH3 0x65E JUMP JUMPDEST DUP5 DUP5 SLOAD PUSH3 0x5D0 JUMP JUMPDEST DUP3 SSTORE POP POP POP POP JUMP JUMPDEST PUSH0 SWAP1 JUMP JUMPDEST PUSH3 0x6A0 PUSH3 0x692 JUMP JUMPDEST PUSH3 0x6AD DUP2 DUP5 DUP5 PUSH3 0x667 JUMP JUMPDEST POP POP POP JUMP JUMPDEST JUMPDEST DUP2 DUP2 LT ISZERO PUSH3 0x6D4 JUMPI PUSH3 0x6C8 PUSH0 DUP3 PUSH3 0x696 JUMP JUMPDEST PUSH1 0x1 DUP2 ADD SWAP1 POP PUSH3 0x6B3 JUMP JUMPDEST POP POP JUMP JUMPDEST PUSH1 0x1F DUP3 GT ISZERO PUSH3 0x723 JUMPI PUSH3 0x6ED DUP2 PUSH3 0x5A3 JUMP JUMPDEST PUSH3 0x6F8 DUP5 PUSH3 0x5B5 JUMP JUMPDEST DUP2 ADD PUSH1 0x20 DUP6 LT ISZERO PUSH3 0x708 JUMPI DUP2 SWAP1 POP JUMPDEST PUSH3 0x720 PUSH3 0x717 DUP6 PUSH3 0x5B5 JUMP JUMPDEST DUP4 ADD DUP3 PUSH3 0x6B2 JUMP JUMPDEST POP POP JUMPDEST POP POP POP JUMP JUMPDEST PUSH0 DUP3 DUP3 SHR SWAP1 POP SWAP3 SWAP2 POP POP JUMP JUMPDEST PUSH0 PUSH3 0x745 PUSH0 NOT DUP5 PUSH1 0x8 MUL PUSH3 0x728 JUMP JUMPDEST NOT DUP1 DUP4 AND SWAP2 POP POP SWAP3 SWAP2 POP POP JUMP JUMPDEST PUSH0 PUSH3 0x75F DUP4 DUP4 PUSH3 0x734 JUMP JUMPDEST SWAP2 POP DUP3 PUSH1 0x2 MUL DUP3 OR SWAP1 POP SWAP3 SWAP2 POP POP JUMP JUMPDEST PUSH3 0x77A DUP3 PUSH3 0x50B JUMP JUMPDEST PUSH8 0xFFFFFFFFFFFFFFFF DUP2 GT ISZERO PUSH3 0x796 JUMPI PUSH3 0x795 PUSH3 0x515 JUMP JUMPDEST JUMPDEST PUSH3 0x7A2 DUP3 SLOAD PUSH3 0x56F JUMP JUMPDEST PUSH3 0x7AF DUP3 DUP3 DUP6 PUSH3 0x6D8 JUMP JUMPDEST PUSH0 PUSH1 0x20 SWAP1 POP PUSH1 0x1F DUP4 GT PUSH1 0x1 DUP2 EQ PUSH3 0x7E5 JUMPI PUSH0 DUP5 ISZERO PUSH3 0x7D0 JUMPI DUP3 DUP8 ADD MLOAD SWAP1 POP JUMPDEST PUSH3 0x7DC DUP6 DUP3 PUSH3 0x752 JUMP JUMPDEST DUP7 SSTORE POP PUSH3 0x84B JUMP JUMPDEST PUSH1 0x1F NOT DUP5 AND PUSH3 0x7F5 DUP7 PUSH3 0x5A3 JUMP JUMPDEST PUSH0 JUMPDEST DUP3 DUP2 LT ISZERO PUSH3 0x81E JUMPI DUP5 DUP10 ADD MLOAD DUP3 SSTORE PUSH1 0x1 DUP3 ADD SWAP2 POP PUSH1 0x20 DUP6 ADD SWAP5 POP PUSH1 0x20 DUP2 ADD SWAP1 POP PUSH3 0x7F7 JUMP JUMPDEST DUP7 DUP4 LT ISZERO PUSH3 0x83E JUMPI DUP5 DUP10 ADD MLOAD PUSH3 0x83A PUSH1 0x1F DUP10 AND DUP3 PUSH3 0x734 JUMP JUMPDEST DUP4 SSTORE POP JUMPDEST PUSH1 0x1 PUSH1 0x2 DUP9 MUL ADD DUP9 SSTORE POP POP POP JUMPDEST POP POP POP POP POP POP JUMP JUMPDEST PUSH3 0x85E DUP2 PUSH3 0x499 JUMP JUMPDEST DUP3 MSTORE POP POP JUMP JUMPDEST PUSH0 PUSH1 0x20 DUP3 ADD SWAP1 POP PUSH3 0x879 PUSH0 DUP4 ADD DUP5 PUSH3 0x853 JUMP JUMPDEST SWAP3 SWAP2 POP POP JUMP JUMPDEST PUSH0 DUP2 SWAP1 POP SWAP2 SWAP1 POP JUMP JUMPDEST PUSH3 0x893 DUP2 PUSH3 0x87F JUMP JUMPDEST DUP3 MSTORE POP POP JUMP JUMPDEST PUSH3 0x8A4 DUP2 PUSH3 0x625 JUMP JUMPDEST DUP3 MSTORE POP POP JUMP JUMPDEST PUSH0 PUSH1 0xA0 DUP3 ADD SWAP1 POP PUSH3 0x8BF PUSH0 DUP4 ADD DUP9 PUSH3 0x888 JUMP JUMPDEST PUSH3 0x8CE PUSH1 0x20 DUP4 ADD DUP8 PUSH3 0x888 JUMP JUMPDEST PUSH3 0x8DD PUSH1 0x40 DUP4 ADD DUP7 PUSH3 0x888 JUMP JUMPDEST PUSH3 0x8EC PUSH1 0x60 DUP4 ADD DUP6 PUSH3 0x899 JUMP JUMPDEST PUSH3 0x8FB PUSH1 0x80 DUP4 ADD DUP5 PUSH3 0x853 JUMP JUMPDEST SWAP7 SWAP6 POP POP POP POP POP POP JUMP JUMPDEST PUSH0 DUP3 DUP3 MSTORE PUSH1 0x20 DUP3 ADD SWAP1 POP SWAP3 SWAP2 POP POP JUMP JUMPDEST PUSH0 JUMPDEST DUP4 DUP2 LT ISZERO PUSH3 0x934 JUMPI DUP1 DUP3 ADD MLOAD DUP2 DUP5 ADD MSTORE PUSH1 0x20 DUP2 ADD SWAP1 POP PUSH3 0x917 JUMP JUMPDEST PUSH0 DUP5 DUP5 ADD MSTORE POP POP POP POP JUMP JUMPDEST PUSH0 PUSH1 0x1F NOT PUSH1 0x1F DUP4 ADD AND SWAP1 POP SWAP2 SWAP1 POP JUMP JUMPDEST PUSH0 PUSH3 0x95B DUP3 PUSH3 0x50B JUMP JUMPDEST PUSH3 0x967 DUP2 DUP6 PUSH3 0x905 JUMP JUMPDEST SWAP4 POP PUSH3 0x979 DUP2 DUP6 PUSH1 0x20 DUP7 ADD PUSH3 0x915 JUMP JUMPDEST PUSH3 0x984 DUP2 PUSH3 0x93F JUMP JUMPDEST DUP5 ADD SWAP2 POP POP SWAP3 SWAP2 POP POP JUMP JUMPDEST PUSH0 PUSH1 0x20 DUP3 ADD SWAP1 POP DUP2 DUP2 SUB PUSH0 DUP4 ADD MSTORE PUSH3 0x9A9 DUP2 DUP5 PUSH3 0x94F JUMP JUMPDEST SWAP1 POP SWAP3 SWAP2 POP POP JUMP JUMPDEST PUSH0 DUP2 MLOAD SWAP1 POP SWAP2 SWAP1 POP JUMP JUMPDEST PUSH0 DUP2 SWAP1 POP PUSH1 0x20 DUP3 ADD SWAP1 POP SWAP2 SWAP1 POP JUMP JUMPDEST PUSH0 PUSH3 0x9D7 DUP3 MLOAD PUSH3 0x87F JUMP JUMPDEST DUP1 SWAP2 POP POP SWAP2 SWAP1 POP JUMP JUMPDEST PUSH0 PUSH3 0x9EC DUP3 PUSH3 0x9B1 JUMP JUMPDEST DUP3 PUSH3 0x9F8 DUP5 PUSH3 0x9BB JUMP JUMPDEST SWAP1 POP PUSH3 0xA05 DUP2 PUSH3 0x9CA JUMP JUMPDEST SWAP3 POP PUSH1 0x20 DUP3 LT ISZERO PUSH3 0xA48 JUMPI PUSH3 0xA43 PUSH32 0xFFFFFFFFFFFFFFFFFFFFFFFFFFFFFFFFFFFFFFFFFFFFFFFFFFFFFFFFFFFFFFFF DUP4 PUSH1 0x20 SUB PUSH1 0x8 MUL PUSH3 0x5C4 JUMP JUMPDEST DUP4 AND SWAP3 POP JUMPDEST POP POP SWAP2 SWAP1 POP JUMP JUMPDEST PUSH1 0x80 MLOAD PUSH1 0xA0 MLOAD PUSH1 0xC0 MLOAD PUSH1 0xE0 MLOAD PUSH2 0x100 MLOAD PUSH2 0x120 MLOAD PUSH2 0x140 MLOAD PUSH2 0x22AF PUSH3 0xAA1 PUSH0 CODECOPY PUSH0 PUSH2 0xFA2 ADD MSTORE PUSH0 PUSH2 0xF67 ADD MSTORE PUSH0 PUSH2 0x130A ADD MSTORE PUSH0 PUSH2 0x12E9 ADD MSTORE PUSH0 PUSH2 0xB58 ADD MSTORE PUSH0 PUSH2 0xBAE ADD MSTORE PUSH0 PUSH2 0xBD7 ADD MSTORE PUSH2 0x22AF PUSH0 RETURN INVALID PUSH1 0x80 PUSH1 0x40 MSTORE CALLVALUE DUP1 ISZERO PUSH2 0xF JUMPI PUSH0 DUP1 REVERT JUMPDEST POP PUSH1 0x4 CALLDATASIZE LT PUSH2 0x140 JUMPI PUSH0 CALLDATALOAD PUSH1 0xE0 SHR DUP1 PUSH4 0x715018A6 GT PUSH2 0xB6 JUMPI DUP1 PUSH4 0x8DA5CB5B GT PUSH2 0x7A JUMPI DUP1 PUSH4 0x8DA5CB5B EQ PUSH2 0x330 JUMPI DUP1 PUSH4 0x95D89B41 EQ PUSH2 0x34E JUMPI DUP1 PUSH4 0xA9059CBB EQ PUSH2 0x36C JUMPI DUP1 PUSH4 0xD505ACCF EQ PUSH2 0x39C JUMPI DUP1 PUSH4 0xDD62ED3E EQ PUSH2 0x3B8 JUMPI DUP1 PUSH4 0xF2FDE38B EQ PUSH2 0x3E8 JUMPI PUSH2 0x140 JUMP JUMPDEST DUP1 PUSH4 0x715018A6 EQ PUSH2 0x2AC JUMPI DUP1 PUSH4 0x79CC6790 EQ PUSH2 0x2B6 JUMPI DUP1 PUSH4 0x7ECEBE00 EQ PUSH2 0x2D2 JUMPI DUP1 PUSH4 0x8456CB59 EQ PUSH2 0x302 JUMPI DUP1 PUSH4 0x84B0196E EQ PUSH2 0x30C JUMPI PUSH2 0x140 JUMP JUMPDEST DUP1 PUSH4 0x3644E515 GT PUSH2 0x108 JUMPI DUP1 PUSH4 0x3644E515 EQ PUSH2 0x1FE JUMPI DUP1 PUSH4 0x3F4BA83A EQ PUSH2 0x21C JUMPI DUP1 PUSH4 0x40C10F19 EQ PUSH2 0x226 JUMPI DUP1 PUSH4 0x42966C68 EQ PUSH2 0x242 JUMPI DUP1 PUSH4 0x5C975ABB EQ PUSH2 0x25E JUMPI DUP1 PUSH4 0x70A08231 EQ PUSH2 0x27C JUMPI PUSH2 0x140 JUMP JUMPDEST DUP1 PUSH4 0x6FDDE03 EQ PUSH2 0x144 JUMPI DUP1 PUSH4 0x95EA7B3 EQ PUSH2 0x162 JUMPI DUP1 PUSH4 0x18160DDD EQ PUSH2 0x192 JUMPI DUP1 PUSH4 0x23B872DD EQ PUSH2 0x1B0 JUMPI DUP1 PUSH4 0x313CE567 EQ PUSH2 0x1E0 JUMPI JUMPDEST PUSH0 DUP1 REVERT JUMPDEST PUSH2 0x14C PUSH2 0x404 JUMP JUMPDEST PUSH1 0x40 MLOAD PUSH2 0x159 SWAP2 SWAP1 PUSH2 0x1A8C JUMP JUMPDEST PUSH1 0x40 MLOAD DUP1 SWAP2 SUB SWAP1 RETURN JUMPDEST PUSH2 0x17C PUSH1 0x4 DUP1 CALLDATASIZE SUB DUP2 ADD SWAP1 PUSH2 0x177 SWAP2 SWAP1 PUSH2 0x1B3D JUMP JUMPDEST PUSH2 0x494 JUMP JUMPDEST PUSH1 0x40 MLOAD PUSH2 0x189 SWAP2 SWAP1 PUSH2 0x1B95 JUMP JUMPDEST PUSH1 0x40 MLOAD DUP1 SWAP2 SUB SWAP1 RETURN JUMPDEST PUSH2 0x19A PUSH2 0x4B6 JUMP JUMPDEST PUSH1 0x40 MLOAD PUSH2 0x1A7 SWAP2 SWAP1 PUSH2 0x1BBD JUMP JUMPDEST PUSH1 0x40 MLOAD DUP1 SWAP2 SUB SWAP1 RETURN JUMPDEST PUSH2 0x1CA PUSH1 0x4 DUP1 CALLDATASIZE SUB DUP2 ADD SWAP1 PUSH2 0x1C5 SWAP2 SWAP1 PUSH2 0x1BD6 JUMP JUMPDEST PUSH2 0x4BF JUMP JUMPDEST PUSH1 0x40 MLOAD PUSH2 0x1D7 SWAP2 SWAP1 PUSH2 0x1B95 JUMP JUMPDEST PUSH1 0x40 MLOAD DUP1 SWAP2 SUB SWAP1 RETURN JUMPDEST PUSH2 0x1E8 PUSH2 0x4ED JUMP JUMPDEST PUSH1 0x40 MLOAD PUSH2 0x1F5 SWAP2 SWAP1 PUSH2 0x1C41 JUMP JUMPDEST PUSH1 0x40 MLOAD DUP1 SWAP2 SUB SWAP1 RETURN JUMPDEST PUSH2 0x206 PUSH2 0x4F5 JUMP JUMPDEST PUSH1 0x40 MLOAD PUSH2 0x213 SWAP2 SWAP1 PUSH2 0x1C72 JUMP JUMPDEST PUSH1 0x40 MLOAD DUP1 SWAP2 SUB SWAP1 RETURN JUMPDEST PUSH2 0x224 PUSH2 0x503 JUMP JUMPDEST STOP JUMPDEST PUSH2 0x240 PUSH1 0x4 DUP1 CALLDATASIZE SUB DUP2 ADD SWAP1 PUSH2 0x23B SWAP2 SWAP1 PUSH2 0x1B3D JUMP JUMPDEST PUSH2 0x515 JUMP JUMPDEST STOP JUMPDEST PUSH2 0x25C PUSH1 0x4 DUP1 CALLDATASIZE SUB DUP2 ADD SWAP1 PUSH2 0x257 SWAP2 SWAP1 PUSH2 0x1C8B JUMP JUMPDEST PUSH2 0x52B JUMP JUMPDEST STOP JUMPDEST PUSH2 0x266 PUSH2 0x53F JUMP JUMPDEST PUSH1 0x40 MLOAD PUSH2 0x273 SWAP2 SWAP1 PUSH2 0x1B95 JUMP JUMPDEST PUSH1 0x40 MLOAD DUP1 SWAP2 SUB SWAP1 RETURN JUMPDEST PUSH2 0x296 PUSH1 0x4 DUP1 CALLDATASIZE SUB DUP2 ADD SWAP1 PUSH2 0x291 SWAP2 SWAP1 PUSH2 0x1CB6 JUMP JUMPDEST PUSH2 0x554 JUMP JUMPDEST PUSH1 0x40 MLOAD PUSH2 0x2A3 SWAP2 SWAP1 PUSH2 0x1BBD JUMP JUMPDEST PUSH1 0x40 MLOAD DUP1 SWAP2 SUB SWAP1 RETURN JUMPDEST PUSH2 0x2B4 PUSH2 0x599 JUMP JUMPDEST STOP JUMPDEST PUSH2 0x2D0 PUSH1 0x4 DUP1 CALLDATASIZE SUB DUP2 ADD SWAP1 PUSH2 0x2CB SWAP2 SWAP1 PUSH2 0x1B3D JUMP JUMPDEST PUSH2 0x5AC JUMP JUMPDEST STOP JUMPDEST PUSH2 0x2EC PUSH1 0x4 DUP1 CALLDATASIZE SUB DUP2 ADD SWAP1 PUSH2 0x2E7 SWAP2 SWAP1 PUSH2 0x1CB6 JUMP JUMPDEST PUSH2 0x5CC JUMP JUMPDEST PUSH1 0x40 MLOAD PUSH2 0x2F9 SWAP2 SWAP1 PUSH2 0x1BBD JUMP JUMPDEST PUSH1 0x40 MLOAD DUP1 SWAP2 SUB SWAP1 RETURN JUMPDEST PUSH2 0x30A PUSH2 0x5DD JUMP JUMPDEST STOP JUMPDEST PUSH2 0x314 PUSH2 0x5EF JUMP JUMPDEST PUSH1 0x40 MLOAD PUSH2 0x327 SWAP8 SWAP7 SWAP6 SWAP5 SWAP4 SWAP3 SWAP2 SWAP1 PUSH2 0x1DE1 JUMP JUMPDEST PUSH1 0x40 MLOAD DUP1 SWAP2 SUB SWAP1 RETURN JUMPDEST PUSH2 0x338 PUSH2 0x694 JUMP JUMPDEST PUSH1 0x40 MLOAD PUSH2 0x345 SWAP2 SWAP1 PUSH2 0x1E63 JUMP JUMPDEST PUSH1 0x40 MLOAD DUP1 SWAP2 SUB SWAP1 RETURN JUMPDEST PUSH2 0x356 PUSH2 0x6BD JUMP JUMPDEST PUSH1 0x40 MLOAD PUSH2 0x363 SWAP2 SWAP1 PUSH2 0x1A8C JUMP JUMPDEST PUSH1 0x40 MLOAD DUP1 SWAP2 SUB SWAP1 RETURN JUMPDEST PUSH2 0x386 PUSH1 0x4 DUP1 CALLDATASIZE SUB DUP2 ADD SWAP1 PUSH2 0x381 SWAP2 SWAP1 PUSH2 0x1B3D JUMP JUMPDEST PUSH2 0x74D JUMP JUMPDEST PUSH1 0x40 MLOAD PUSH2 0x393 SWAP2 SWAP1 PUSH2 0x1B95 JUMP JUMPDEST PUSH1 0x40 MLOAD DUP1 SWAP2 SUB SWAP1 RETURN JUMPDEST PUSH2 0x3B6 PUSH1 0x4 DUP1 CALLDATASIZE SUB DUP2 ADD SWAP1 PUSH2 0x3B1 SWAP2 SWAP1 PUSH2 0x1ED0 JUMP JUMPDEST PUSH2 0x76F JUMP JUMPDEST STOP JUMPDEST PUSH2 0x3D2 PUSH1 0x4 DUP1 CALLDATASIZE SUB DUP2 ADD SWAP1 PUSH2 0x3CD SWAP2 SWAP1 PUSH2 0x1F6D JUMP JUMPDEST PUSH2 0x8B4 JUMP JUMPDEST PUSH1 0x40 MLOAD PUSH2 0x3DF SWAP2 SWAP1 PUSH2 0x1BBD JUMP JUMPDEST PUSH1 0x40 MLOAD DUP1 SWAP2 SUB SWAP1 RETURN JUMPDEST PUSH2 0x402 PUSH1 0x4 DUP1 CALLDATASIZE SUB DUP2 ADD SWAP1 PUSH2 0x3FD SWAP2 SWAP1 PUSH2 0x1CB6 JUMP JUMPDEST PUSH2 0x936 JUMP JUMPDEST STOP JUMPDEST PUSH1 0x60 PUSH1 0x3 DUP1 SLOAD PUSH2 0x413 SWAP1 PUSH2 0x1FD8 JUMP JUMPDEST DUP1 PUSH1 0x1F ADD PUSH1 0x20 DUP1 SWAP2 DIV MUL PUSH1 0x20 ADD PUSH1 0x40 MLOAD SWAP1 DUP2 ADD PUSH1 0x40 MSTORE DUP1 SWAP3 SWAP2 SWAP1 DUP2 DUP2 MSTORE PUSH1 0x20 ADD DUP3 DUP1 SLOAD PUSH2 0x43F SWAP1 PUSH2 0x1FD8 JUMP JUMPDEST DUP1 ISZERO PUSH2 0x48A JUMPI DUP1 PUSH1 0x1F LT PUSH2 0x461 JUMPI PUSH2 0x100 DUP1 DUP4 SLOAD DIV MUL DUP4 MSTORE SWAP2 PUSH1 0x20 ADD SWAP2 PUSH2 0x48A JUMP JUMPDEST DUP3 ADD SWAP2 SWAP1 PUSH0 MSTORE PUSH1 0x20 PUSH0 KECCAK256 SWAP1 JUMPDEST DUP2 SLOAD DUP2 MSTORE SWAP1 PUSH1 0x1 ADD SWAP1 PUSH1 0x20 ADD DUP1 DUP4 GT PUSH2 0x46D JUMPI DUP3 SWAP1 SUB PUSH1 0x1F AND DUP3 ADD SWAP2 JUMPDEST POP POP POP POP POP SWAP1 POP SWAP1 JUMP JUMPDEST PUSH0 DUP1 PUSH2 0x49E PUSH2 0x9BA JUMP JUMPDEST SWAP1 POP PUSH2 0x4AB DUP2 DUP6 DUP6 PUSH2 0x9C1 JUMP JUMPDEST PUSH1 0x1 SWAP2 POP POP SWAP3 SWAP2 POP POP JUMP JUMPDEST PUSH0 PUSH1 0x2 SLOAD SWAP1 POP SWAP1 JUMP JUMPDEST PUSH0 DUP1 PUSH2 0x4C9 PUSH2 0x9BA JUMP JUMPDEST SWAP1 POP PUSH2 0x4D6 DUP6 DUP3 DUP6 PUSH2 0x9D3 JUMP JUMPDEST PUSH2 0x4E1 DUP6 DUP6 DUP6 PUSH2 0xA65 JUMP JUMPDEST PUSH1 0x1 SWAP2 POP POP SWAP4 SWAP3 POP POP POP JUMP JUMPDEST PUSH0 PUSH1 0x12 SWAP1 POP SWAP1 JUMP JUMPDEST PUSH0 PUSH2 0x4FE PUSH2 0xB55 JUMP JUMPDEST SWAP1 POP SWAP1 JUMP JUMPDEST PUSH2 0x50B PUSH2 0xC0B JUMP JUMPDEST PUSH2 0x513 PUSH2 0xC92 JUMP JUMPDEST JUMP JUMPDEST PUSH2 0x51D PUSH2 0xC0B JUMP JUMPDEST PUSH2 0x527 DUP3 DUP3 PUSH2 0xCF3 JUMP JUMPDEST POP POP JUMP JUMPDEST PUSH2 0x53C PUSH2 0x536 PUSH2 0x9BA JUMP JUMPDEST DUP3 PUSH2 0xD72 JUMP JUMPDEST POP JUMP JUMPDEST PUSH0 PUSH1 0x5 PUSH0 SWAP1 SLOAD SWAP1 PUSH2 0x100 EXP SWAP1 DIV PUSH1 0xFF AND SWAP1 POP SWAP1 JUMP JUMPDEST PUSH0 DUP1 PUSH0 DUP4 PUSH20 0xFFFFFFFFFFFFFFFFFFFFFFFFFFFFFFFFFFFFFFFF AND PUSH20 0xFFFFFFFFFFFFFFFFFFFFFFFFFFFFFFFFFFFFFFFF AND DUP2 MSTORE PUSH1 0x20 ADD SWAP1 DUP2 MSTORE PUSH1 0x20 ADD PUSH0 KECCAK256 SLOAD SWAP1 POP SWAP2 SWAP1 POP JUMP JUMPDEST PUSH2 0x5A1 PUSH2 0xC0B JUMP JUMPDEST PUSH2 0x5AA PUSH0 PUSH2 0xDF1 JUMP JUMPDEST JUMP JUMPDEST PUSH2 0x5BE DUP3 PUSH2 0x5B8 PUSH2 0x9BA JUMP JUMPDEST DUP4 PUSH2 0x9D3 JUMP JUMPDEST PUSH2 0x5C8 DUP3 DUP3 PUSH2 0xD72 JUMP JUMPDEST POP POP JUMP JUMPDEST PUSH0 PUSH2 0x5D6 DUP3 PUSH2 0xEB6 JUMP JUMPDEST SWAP1 POP SWAP2 SWAP1 POP JUMP JUMPDEST PUSH2 0x5E5 PUSH2 0xC0B JUMP JUMPDEST PUSH2 0x5ED PUSH2 0xEFC JUMP JUMPDEST JUMP JUMPDEST PUSH0 PUSH1 0x60 DUP1 PUSH0 DUP1 PUSH0 PUSH1 0x60 PUSH2 0x600 PUSH2 0xF5E JUMP JUMPDEST PUSH2 0x608 PUSH2 0xF99 JUMP JUMPDEST CHAINID ADDRESS PUSH0 DUP1 SHL PUSH0 PUSH8 0xFFFFFFFFFFFFFFFF DUP2 GT ISZERO PUSH2 0x627 JUMPI PUSH2 0x626 PUSH2 0x2008 JUMP JUMPDEST JUMPDEST PUSH1 0x40 MLOAD SWAP1 DUP1 DUP3 MSTORE DUP1 PUSH1 0x20 MUL PUSH1 0x20 ADD DUP3 ADD PUSH1 0x40 MSTORE DUP1 ISZERO PUSH2 0x655 JUMPI DUP2 PUSH1 0x20 ADD PUSH1 0x20 DUP3 MUL DUP1 CALLDATASIZE DUP4 CALLDATACOPY DUP1 DUP3 ADD SWAP2 POP POP SWAP1 POP JUMPDEST POP PUSH32 0xF00000000000000000000000000000000000000000000000000000000000000 SWAP6 SWAP5 SWAP4 SWAP3 SWAP2 SWAP1 SWAP7 POP SWAP7 POP SWAP7 POP SWAP7 POP SWAP7 POP SWAP7 POP SWAP7 POP SWAP1 SWAP2 SWAP3 SWAP4 SWAP5 SWAP6 SWAP7 JUMP JUMPDEST PUSH0 PUSH1 0x5 PUSH1 0x1 SWAP1 SLOAD SWAP1 PUSH2 0x100 EXP SWAP1 DIV PUSH20 0xFFFFFFFFFFFFFFFFFFFFFFFFFFFFFFFFFFFFFFFF AND SWAP1 POP SWAP1 JUMP JUMPDEST PUSH1 0x60 PUSH1 0x4 DUP1 SLOAD PUSH2 0x6CC SWAP1 PUSH2 0x1FD8 JUMP JUMPDEST DUP1 PUSH1 0x1F ADD PUSH1 0x20 DUP1 SWAP2 DIV MUL PUSH1 0x20 ADD PUSH1 0x40 MLOAD SWAP1 DUP2 ADD PUSH1 0x40 MSTORE DUP1 SWAP3 SWAP2 SWAP1 DUP2 DUP2 MSTORE PUSH1 0x20 ADD DUP3 DUP1 SLOAD PUSH2 0x6F8 SWAP1 PUSH2 0x1FD8 JUMP JUMPDEST DUP1 ISZERO PUSH2 0x743 JUMPI DUP1 PUSH1 0x1F LT PUSH2 0x71A JUMPI PUSH2 0x100 DUP1 DUP4 SLOAD DIV MUL DUP4 MSTORE SWAP2 PUSH1 0x20 ADD SWAP2 PUSH2 0x743 JUMP JUMPDEST DUP3 ADD SWAP2 SWAP1 PUSH0 MSTORE PUSH1 0x20 PUSH0 KECCAK256 SWAP1 JUMPDEST DUP2 SLOAD DUP2 MSTORE SWAP1 PUSH1 0x1 ADD SWAP1 PUSH1 0x20 ADD DUP1 DUP4 GT PUSH2 0x726 JUMPI DUP3 SWAP1 SUB PUSH1 0x1F AND DUP3 ADD SWAP2 JUMPDEST POP POP POP POP POP SWAP1 POP SWAP1 JUMP JUMPDEST PUSH0 DUP1 PUSH2 0x757 PUSH2 0x9BA JUMP JUMPDEST SWAP1 POP PUSH2 0x764 DUP2 DUP6 DUP6 PUSH2 0xA65 JUMP JUMPDEST PUSH1 0x1 SWAP2 POP POP SWAP3 SWAP2 POP POP JUMP JUMPDEST DUP4 TIMESTAMP GT ISZERO PUSH2 0x7B4 JUMPI DUP4 PUSH1 0x40 MLOAD PUSH32 0x6279130200000000000000000000000000000000000000000000000000000000 DUP2 MSTORE PUSH1 0x4 ADD PUSH2 0x7AB SWAP2 SWAP1 PUSH2 0x1BBD JUMP JUMPDEST PUSH1 0x40 MLOAD DUP1 SWAP2 SUB SWAP1 REVERT JUMPDEST PUSH0 PUSH32 0x6E71EDAE12B1B97F4D1F60370FEF10105FA2FAAE0126114A169C64845D6126C9 DUP9 DUP9 DUP9 PUSH2 0x7E2 DUP13 PUSH2 0xFD4 JUMP JUMPDEST DUP10 PUSH1 0x40 MLOAD PUSH1 0x20 ADD PUSH2 0x7F8 SWAP7 SWAP6 SWAP5 SWAP4 SWAP3 SWAP2 SWAP1 PUSH2 0x2035 JUMP JUMPDEST PUSH1 0x40 MLOAD PUSH1 0x20 DUP2 DUP4 SUB SUB DUP2 MSTORE SWAP1 PUSH1 0x40 MSTORE DUP1 MLOAD SWAP1 PUSH1 0x20 ADD KECCAK256 SWAP1 POP PUSH0 PUSH2 0x81A DUP3 PUSH2 0x1027 JUMP JUMPDEST SWAP1 POP PUSH0 PUSH2 0x829 DUP3 DUP8 DUP8 DUP8 PUSH2 0x1040 JUMP JUMPDEST SWAP1 POP DUP10 PUSH20 0xFFFFFFFFFFFFFFFFFFFFFFFFFFFFFFFFFFFFFFFF AND DUP2 PUSH20 0xFFFFFFFFFFFFFFFFFFFFFFFFFFFFFFFFFFFFFFFF AND EQ PUSH2 0x89D JUMPI DUP1 DUP11 PUSH1 0x40 MLOAD PUSH32 0x4B800E4600000000000000000000000000000000000000000000000000000000 DUP2 MSTORE PUSH1 0x4 ADD PUSH2 0x894 SWAP3 SWAP2 SWAP1 PUSH2 0x2094 JUMP JUMPDEST PUSH1 0x40 MLOAD DUP1 SWAP2 SUB SWAP1 REVERT JUMPDEST PUSH2 0x8A8 DUP11 DUP11 DUP11 PUSH2 0x9C1 JUMP JUMPDEST POP POP POP POP POP POP POP POP POP POP JUMP JUMPDEST PUSH0 PUSH1 0x1 PUSH0 DUP5 PUSH20 0xFFFFFFFFFFFFFFFFFFFFFFFFFFFFFFFFFFFFFFFF AND PUSH20 0xFFFFFFFFFFFFFFFFFFFFFFFFFFFFFFFFFFFFFFFF AND DUP2 MSTORE PUSH1 0x20 ADD SWAP1 DUP2 MSTORE PUSH1 0x20 ADD PUSH0 KECCAK256 PUSH0 DUP4 PUSH20 0xFFFFFFFFFFFFFFFFFFFFFFFFFFFFFFFFFFFFFFFF AND PUSH20 0xFFFFFFFFFFFFFFFFFFFFFFFFFFFFFFFFFFFFFFFF AND DUP2 MSTORE PUSH1 0x20 ADD SWAP1 DUP2 MSTORE PUSH1 0x20 ADD PUSH0 KECCAK256 SLOAD SWAP1 POP SWAP3 SWAP2 POP POP JUMP JUMPDEST PUSH2 0x93E PUSH2 0xC0B JUMP JUMPDEST PUSH0 PUSH20 0xFFFFFFFFFFFFFFFFFFFFFFFFFFFFFFFFFFFFFFFF AND DUP2 PUSH20 0xFFFFFFFFFFFFFFFFFFFFFFFFFFFFFFFFFFFFFFFF AND SUB PUSH2 0x9AE JUMPI PUSH0 PUSH1 0x40 MLOAD PUSH32 0x1E4FBDF700000000000000000000000000000000000000000000000000000000 DUP2 MSTORE PUSH1 0x4 ADD PUSH2 0x9A5 SWAP2 SWAP1 PUSH2 0x1E63 JUMP JUMPDEST PUSH1 0x40 MLOAD DUP1 SWAP2 SUB SWAP1 REVERT JUMPDEST PUSH2 0x9B7 DUP2 PUSH2 0xDF1 JUMP JUMPDEST POP JUMP JUMPDEST PUSH0 CALLER SWAP1 POP SWAP1 JUMP JUMPDEST PUSH2 0x9CE DUP4 DUP4 DUP4 PUSH1 0x1 PUSH2 0x106E JUMP JUMPDEST POP POP POP JUMP JUMPDEST PUSH0 PUSH2 0x9DE DUP5 DUP5 PUSH2 0x8B4 JUMP JUMPDEST SWAP1 POP PUSH32 0xFFFFFFFFFFFFFFFFFFFFFFFFFFFFFFFFFFFFFFFFFFFFFFFFFFFFFFFFFFFFFFFF DUP2 EQ PUSH2 0xA5F JUMPI DUP2 DUP2 LT ISZERO PUSH2 0xA50 JUMPI DUP3 DUP2 DUP4 PUSH1 0x40 MLOAD PUSH32 0xFB8F41B200000000000000000000000000000000000000000000000000000000 DUP2 MSTORE PUSH1 0x4 ADD PUSH2 0xA47 SWAP4 SWAP3 SWAP2 SWAP1 PUSH2 0x20BB JUMP JUMPDEST PUSH1 0x40 MLOAD DUP1 SWAP2 SUB SWAP1 REVERT JUMPDEST PUSH2 0xA5E DUP5 DUP5 DUP5 DUP5 SUB PUSH0 PUSH2 0x106E JUMP JUMPDEST JUMPDEST POP POP POP POP JUMP JUMPDEST PUSH0 PUSH20 0xFFFFFFFFFFFFFFFFFFFFFFFFFFFFFFFFFFFFFFFF AND DUP4 PUSH20 0xFFFFFFFFFFFFFFFFFFFFFFFFFFFFFFFFFFFFFFFF AND SUB PUSH2 0xAD5 JUMPI PUSH0 PUSH1 0x40 MLOAD PUSH32 0x96C6FD1E00000000000000000000000000000000000000000000000000000000 DUP2 MSTORE PUSH1 0x4 ADD PUSH2 0xACC SWAP2 SWAP1 PUSH2 0x1E63 JUMP JUMPDEST PUSH1 0x40 MLOAD DUP1 SWAP2 SUB SWAP1 REVERT JUMPDEST PUSH0 PUSH20 0xFFFFFFFFFFFFFFFFFFFFFFFFFFFFFFFFFFFFFFFF AND DUP3 PUSH20 0xFFFFFFFFFFFFFFFFFFFFFFFFFFFFFFFFFFFFFFFF AND SUB PUSH2 0xB45 JUMPI PUSH0 PUSH1 0x40 MLOAD PUSH32 0xEC442F0500000000000000000000000000000000000000000000000000000000 DUP2 MSTORE PUSH1 0x4 ADD PUSH2 0xB3C SWAP2 SWAP1 PUSH2 0x1E63 JUMP JUMPDEST PUSH1 0x40 MLOAD DUP1 SWAP2 SUB SWAP1 REVERT JUMPDEST PUSH2 0xB50 DUP4 DUP4 DUP4 PUSH2 0x123D JUMP JUMPDEST POP POP POP JUMP JUMPDEST PUSH0 PUSH32 0x0 PUSH20 0xFFFFFFFFFFFFFFFFFFFFFFFFFFFFFFFFFFFFFFFF AND ADDRESS PUSH20 0xFFFFFFFFFFFFFFFFFFFFFFFFFFFFFFFFFFFFFFFF AND EQ DUP1 ISZERO PUSH2 0xBD0 JUMPI POP PUSH32 0x0 CHAINID EQ JUMPDEST ISZERO PUSH2 0xBFD JUMPI PUSH32 0x0 SWAP1 POP PUSH2 0xC08 JUMP JUMPDEST PUSH2 0xC05 PUSH2 0x12C5 JUMP JUMPDEST SWAP1 POP JUMPDEST SWAP1 JUMP JUMPDEST PUSH2 0xC13 PUSH2 0x9BA JUMP JUMPDEST PUSH20 0xFFFFFFFFFFFFFFFFFFFFFFFFFFFFFFFFFFFFFFFF AND PUSH2 0xC31 PUSH2 0x694 JUMP JUMPDEST PUSH20 0xFFFFFFFFFFFFFFFFFFFFFFFFFFFFFFFFFFFFFFFF AND EQ PUSH2 0xC90 JUMPI PUSH2 0xC54 PUSH2 0x9BA JUMP JUMPDEST PUSH1 0x40 MLOAD PUSH32 0x118CDAA700000000000000000000000000000000000000000000000000000000 DUP2 MSTORE PUSH1 0x4 ADD PUSH2 0xC87 SWAP2 SWAP1 PUSH2 0x1E63 JUMP JUMPDEST PUSH1 0x40 MLOAD DUP1 SWAP2 SUB SWAP1 REVERT JUMPDEST JUMP JUMPDEST PUSH2 0xC9A PUSH2 0x135A JUMP JUMPDEST PUSH0 PUSH1 0x5 PUSH0 PUSH2 0x100 EXP DUP2 SLOAD DUP2 PUSH1 0xFF MUL NOT AND SWAP1 DUP4 ISZERO ISZERO MUL OR SWAP1 SSTORE POP PUSH32 0x5DB9EE0A495BF2E6FF9C91A7834C1BA4FDD244A5E8AA4E537BD38AEAE4B073AA PUSH2 0xCDC PUSH2 0x9BA JUMP JUMPDEST PUSH1 0x40 MLOAD PUSH2 0xCE9 SWAP2 SWAP1 PUSH2 0x1E63 JUMP JUMPDEST PUSH1 0x40 MLOAD DUP1 SWAP2 SUB SWAP1 LOG1 JUMP JUMPDEST PUSH0 PUSH20 0xFFFFFFFFFFFFFFFFFFFFFFFFFFFFFFFFFFFFFFFF AND DUP3 PUSH20 0xFFFFFFFFFFFFFFFFFFFFFFFFFFFFFFFFFFFFFFFF AND SUB PUSH2 0xD63 JUMPI PUSH0 PUSH1 0x40 MLOAD PUSH32 0xEC442F0500000000000000000000000000000000000000000000000000000000 DUP2 MSTORE PUSH1 0x4 ADD PUSH2 0xD5A SWAP2 SWAP1 PUSH2 0x1E63 JUMP JUMPDEST PUSH1 0x40 MLOAD DUP1 SWAP2 SUB SWAP1 REVERT JUMPDEST PUSH2 0xD6E PUSH0 DUP4 DUP4 PUSH2 0x123D JUMP JUMPDEST POP POP JUMP JUMPDEST PUSH0 PUSH20 0xFFFFFFFFFFFFFFFFFFFFFFFFFFFFFFFFFFFFFFFF AND DUP3 PUSH20 0xFFFFFFFFFFFFFFFFFFFFFFFFFFFFFFFFFFFFFFFF AND SUB PUSH2 0xDE2 JUMPI PUSH0 PUSH1 0x40 MLOAD PUSH32 0x96C6FD1E00000000000000000000000000000000000000000000000000000000 DUP2 MSTORE PUSH1 0x4 ADD PUSH2 0xDD9 SWAP2 SWAP1 PUSH2 0x1E63 JUMP JUMPDEST PUSH1 0x40 MLOAD DUP1 SWAP2 SUB SWAP1 REVERT JUMPDEST PUSH2 0xDED DUP3 PUSH0 DUP4 PUSH2 0x123D JUMP JUMPDEST POP POP JUMP JUMPDEST PUSH0 PUSH1 0x5 PUSH1 0x1 SWAP1 SLOAD SWAP1 PUSH2 0x100 EXP SWAP1 DIV PUSH20 0xFFFFFFFFFFFFFFFFFFFFFFFFFFFFFFFFFFFFFFFF AND SWAP1 POP DUP2 PUSH1 0x5 PUSH1 0x1 PUSH2 0x100 EXP DUP2 SLOAD DUP2 PUSH20 0xFFFFFFFFFFFFFFFFFFFFFFFFFFFFFFFFFFFFFFFF MUL NOT AND SWAP1 DUP4 PUSH20 0xFFFFFFFFFFFFFFFFFFFFFFFFFFFFFFFFFFFFFFFF AND MUL OR SWAP1 SSTORE POP DUP2 PUSH20 0xFFFFFFFFFFFFFFFFFFFFFFFFFFFFFFFFFFFFFFFF AND DUP2 PUSH20 0xFFFFFFFFFFFFFFFFFFFFFFFFFFFFFFFFFFFFFFFF AND PUSH32 0x8BE0079C531659141344CD1FD0A4F28419497F9722A3DAAFE3B4186F6B6457E0 PUSH1 0x40 MLOAD PUSH1 0x40 MLOAD DUP1 SWAP2 SUB SWAP1 LOG3 POP POP JUMP JUMPDEST PUSH0 PUSH1 0x8 PUSH0 DUP4 PUSH20 0xFFFFFFFFFFFFFFFFFFFFFFFFFFFFFFFFFFFFFFFF AND PUSH20 0xFFFFFFFFFFFFFFFFFFFFFFFFFFFFFFFFFFFFFFFF AND DUP2 MSTORE PUSH1 0x20 ADD SWAP1 DUP2 MSTORE PUSH1 0x20 ADD PUSH0 KECCAK256 SLOAD SWAP1 POP SWAP2 SWAP1 POP JUMP JUMPDEST PUSH2 0xF04 PUSH2 0x139A JUMP JUMPDEST PUSH1 0x1 PUSH1 0x5 PUSH0 PUSH2 0x100 EXP DUP2 SLOAD DUP2 PUSH1 0xFF MUL NOT AND SWAP1 DUP4 ISZERO ISZERO MUL OR SWAP1 SSTORE POP PUSH32 0x62E78CEA01BEE320CD4E420270B5EA74000D11B0C9F74754EBDBFC544B05A258 PUSH2 0xF47 PUSH2 0x9BA JUMP JUMPDEST PUSH1 0x40 MLOAD PUSH2 0xF54 SWAP2 SWAP1 PUSH2 0x1E63 JUMP JUMPDEST PUSH1 0x40 MLOAD DUP1 SWAP2 SUB SWAP1 LOG1 JUMP JUMPDEST PUSH1 0x60 PUSH2 0xF94 PUSH1 0x6 PUSH32 0x0 PUSH2 0x13DB SWAP1 SWAP2 SWAP1 PUSH4 0xFFFFFFFF AND JUMP JUMPDEST SWAP1 POP SWAP1 JUMP JUMPDEST PUSH1 0x60 PUSH2 0xFCF PUSH1 0x7 PUSH32 0x0 PUSH2 0x13DB SWAP1 SWAP2 SWAP1 PUSH4 0xFFFFFFFF AND JUMP JUMPDEST SWAP1 POP SWAP1 JUMP JUMPDEST PUSH0 PUSH1 0x8 PUSH0 DUP4 PUSH20 0xFFFFFFFFFFFFFFFFFFFFFFFFFFFFFFFFFFFFFFFF AND PUSH20 0xFFFFFFFFFFFFFFFFFFFFFFFFFFFFFFFFFFFFFFFF AND DUP2 MSTORE PUSH1 0x20 ADD SWAP1 DUP2 MSTORE PUSH1 0x20 ADD PUSH0 KECCAK256 PUSH0 DUP2 SLOAD DUP1 SWAP3 SWAP2 SWAP1 PUSH1 0x1 ADD SWAP2 SWAP1 POP SSTORE SWAP1 POP SWAP2 SWAP1 POP JUMP JUMPDEST PUSH0 PUSH2 0x1039 PUSH2 0x1033 PUSH2 0xB55 JUMP JUMPDEST DUP4 PUSH2 0x1488 JUMP JUMPDEST SWAP1 POP SWAP2 SWAP1 POP JUMP JUMPDEST PUSH0 DUP1 PUSH0 DUP1 PUSH2 0x1050 DUP9 DUP9 DUP9 DUP9 PUSH2 0x14C8 JUMP JUMPDEST SWAP3 POP SWAP3 POP SWAP3 POP PUSH2 0x1060 DUP3 DUP3 PUSH2 0x15AF JUMP JUMPDEST DUP3 SWAP4 POP POP POP POP SWAP5 SWAP4 POP POP POP POP JUMP JUMPDEST PUSH0 PUSH20 0xFFFFFFFFFFFFFFFFFFFFFFFFFFFFFFFFFFFFFFFF AND DUP5 PUSH20 0xFFFFFFFFFFFFFFFFFFFFFFFFFFFFFFFFFFFFFFFF AND SUB PUSH2 0x10DE JUMPI PUSH0 PUSH1 0x40 MLOAD PUSH32 0xE602DF0500000000000000000000000000000000000000000000000000000000 DUP2 MSTORE PUSH1 0x4 ADD PUSH2 0x10D5 SWAP2 SWAP1 PUSH2 0x1E63 JUMP JUMPDEST PUSH1 0x40 MLOAD DUP1 SWAP2 SUB SWAP1 REVERT JUMPDEST PUSH0 PUSH20 0xFFFFFFFFFFFFFFFFFFFFFFFFFFFFFFFFFFFFFFFF AND DUP4 PUSH20 0xFFFFFFFFFFFFFFFFFFFFFFFFFFFFFFFFFFFFFFFF AND SUB PUSH2 0x114E JUMPI PUSH0 PUSH1 0x40 MLOAD PUSH32 0x94280D6200000000000000000000000000000000000000000000000000000000 DUP2 MSTORE PUSH1 0x4 ADD PUSH2 0x1145 SWAP2 SWAP1 PUSH2 0x1E63 JUMP JUMPDEST PUSH1 0x40 MLOAD DUP1 SWAP2 SUB SWAP1 REVERT JUMPDEST DUP2 PUSH1 0x1 PUSH0 DUP7 PUSH20 0xFFFFFFFFFFFFFFFFFFFFFFFFFFFFFFFFFFFFFFFF AND PUSH20 0xFFFFFFFFFFFFFFFFFFFFFFFFFFFFFFFFFFFFFFFF AND DUP2 MSTORE PUSH1 0x20 ADD SWAP1 DUP2 MSTORE PUSH1 0x20 ADD PUSH0 KECCAK256 PUSH0 DUP6 PUSH20 0xFFFFFFFFFFFFFFFFFFFFFFFFFFFFFFFFFFFFFFFF AND PUSH20 0xFFFFFFFFFFFFFFFFFFFFFFFFFFFFFFFFFFFFFFFF AND DUP2 MSTORE PUSH1 0x20 ADD SWAP1 DUP2 MSTORE PUSH1 0x20 ADD PUSH0 KECCAK256 DUP2 SWAP1 SSTORE POP DUP1 ISZERO PUSH2 0x1237 JUMPI DUP3 PUSH20 0xFFFFFFFFFFFFFFFFFFFFFFFFFFFFFFFFFFFFFFFF AND DUP5 PUSH20 0xFFFFFFFFFFFFFFFFFFFFFFFFFFFFFFFFFFFFFFFF AND PUSH32 0x8C5BE1E5EBEC7D5BD14F71427D1E84F3DD0314C0F7B2291E5B200AC8C7C3B925 DUP5 PUSH1 0x40 MLOAD PUSH2 0x122E SWAP2 SWAP1 PUSH2 0x1BBD JUMP JUMPDEST PUSH1 0x40 MLOAD DUP1 SWAP2 SUB SWAP1 LOG3 JUMPDEST POP POP POP POP JUMP JUMPDEST PUSH0 PUSH20 0xFFFFFFFFFFFFFFFFFFFFFFFFFFFFFFFFFFFFFFFF AND DUP4 PUSH20 0xFFFFFFFFFFFFFFFFFFFFFFFFFFFFFFFFFFFFFFFF AND EQ PUSH2 0x12B5 JUMPI PUSH1 0x64 DUP2 GT ISZERO PUSH2 0x12B4 JUMPI PUSH1 0x40 MLOAD PUSH32 0x8C379A000000000000000000000000000000000000000000000000000000000 DUP2 MSTORE PUSH1 0x4 ADD PUSH2 0x12AB SWAP1 PUSH2 0x213A JUMP JUMPDEST PUSH1 0x40 MLOAD DUP1 SWAP2 SUB SWAP1 REVERT JUMPDEST JUMPDEST PUSH2 0x12C0 DUP4 DUP4 DUP4 PUSH2 0x1711 JUMP JUMPDEST POP POP POP JUMP JUMPDEST PUSH0 PUSH32 0x8B73C3C69BB8FE3D512ECC4CF759CC79239F7B179B0FFACAA9A75D522B39400F PUSH32 0x0 PUSH32 0x0 CHAINID ADDRESS PUSH1 0x40 MLOAD PUSH1 0x20 ADD PUSH2 0x133F SWAP6 SWAP5 SWAP4 SWAP3 SWAP2 SWAP1 PUSH2 0x2158 JUMP JUMPDEST PUSH1 0x40 MLOAD PUSH1 0x20 DUP2 DUP4 SUB SUB DUP2 MSTORE SWAP1 PUSH1 0x40 MSTORE DUP1 MLOAD SWAP1 PUSH1 0x20 ADD KECCAK256 SWAP1 POP SWAP1 JUMP JUMPDEST PUSH2 0x1362 PUSH2 0x53F JUMP JUMPDEST PUSH2 0x1398 JUMPI PUSH1 0x40 MLOAD PUSH32 0x8DFC202B00000000000000000000000000000000000000000000000000000000 DUP2 MSTORE PUSH1 0x4 ADD PUSH1 0x40 MLOAD DUP1 SWAP2 SUB SWAP1 REVERT JUMPDEST JUMP JUMPDEST PUSH2 0x13A2 PUSH2 0x53F JUMP JUMPDEST ISZERO PUSH2 0x13D9 JUMPI PUSH1 0x40 MLOAD PUSH32 0xD93C066500000000000000000000000000000000000000000000000000000000 DUP2 MSTORE PUSH1 0x4 ADD PUSH1 0x40 MLOAD DUP1 SWAP2 SUB SWAP1 REVERT JUMPDEST JUMP JUMPDEST PUSH1 0x60 PUSH1 0xFF PUSH0 SHL DUP4 EQ PUSH2 0x13F7 JUMPI PUSH2 0x13F0 DUP4 PUSH2 0x1729 JUMP JUMPDEST SWAP1 POP PUSH2 0x1482 JUMP JUMPDEST DUP2 DUP1 SLOAD PUSH2 0x1403 SWAP1 PUSH2 0x1FD8 JUMP JUMPDEST DUP1 PUSH1 0x1F ADD PUSH1 0x20 DUP1 SWAP2 DIV MUL PUSH1 0x20 ADD PUSH1 0x40 MLOAD SWAP1 DUP2 ADD PUSH1 0x40 MSTORE DUP1 SWAP3 SWAP2 SWAP1 DUP2 DUP2 MSTORE PUSH1 0x20 ADD DUP3 DUP1 SLOAD PUSH2 0x142F SWAP1 PUSH2 0x1FD8 JUMP JUMPDEST DUP1 ISZERO PUSH2 0x147A JUMPI DUP1 PUSH1 0x1F LT PUSH2 0x1451 JUMPI PUSH2 0x100 DUP1 DUP4 SLOAD DIV MUL DUP4 MSTORE SWAP2 PUSH1 0x20 ADD SWAP2 PUSH2 0x147A JUMP JUMPDEST DUP3 ADD SWAP2 SWAP1 PUSH0 MSTORE PUSH1 0x20 PUSH0 KECCAK256 SWAP1 JUMPDEST DUP2 SLOAD DUP2 MSTORE SWAP1 PUSH1 0x1 ADD SWAP1 PUSH1 0x20 ADD DUP1 DUP4 GT PUSH2 0x145D JUMPI DUP3 SWAP1 SUB PUSH1 0x1F AND DUP3 ADD SWAP2 JUMPDEST POP POP POP POP POP SWAP1 POP JUMPDEST SWAP3 SWAP2 POP POP JUMP JUMPDEST PUSH0 PUSH1 0x40 MLOAD PUSH32 0x1901000000000000000000000000000000000000000000000000000000000000 DUP2 MSTORE DUP4 PUSH1 0x2 DUP3 ADD MSTORE DUP3 PUSH1 0x22 DUP3 ADD MSTORE PUSH1 0x42 DUP2 KECCAK256 SWAP2 POP POP SWAP3 SWAP2 POP POP JUMP JUMPDEST PUSH0 DUP1 PUSH0 PUSH32 0x7FFFFFFFFFFFFFFFFFFFFFFFFFFFFFFF5D576E7357A4501DDFE92F46681B20A0 DUP5 PUSH0 SHR GT ISZERO PUSH2 0x1504 JUMPI PUSH0 PUSH1 0x3 DUP6 SWAP3 POP SWAP3 POP SWAP3 POP PUSH2 0x15A5 JUMP JUMPDEST PUSH0 PUSH1 0x1 DUP9 DUP9 DUP9 DUP9 PUSH1 0x40 MLOAD PUSH0 DUP2 MSTORE PUSH1 0x20 ADD PUSH1 0x40 MSTORE PUSH1 0x40 MLOAD PUSH2 0x1527 SWAP5 SWAP4 SWAP3 SWAP2 SWAP1 PUSH2 0x21A9 JUMP JUMPDEST PUSH1 0x20 PUSH1 0x40 MLOAD PUSH1 0x20 DUP2 SUB SWAP1 DUP1 DUP5 SUB SWAP1 DUP6 GAS STATICCALL ISZERO DUP1 ISZERO PUSH2 0x1547 JUMPI RETURNDATASIZE PUSH0 DUP1 RETURNDATACOPY RETURNDATASIZE PUSH0 REVERT JUMPDEST POP POP POP PUSH1 0x20 PUSH1 0x40 MLOAD SUB MLOAD SWAP1 POP PUSH0 PUSH20 0xFFFFFFFFFFFFFFFFFFFFFFFFFFFFFFFFFFFFFFFF AND DUP2 PUSH20 0xFFFFFFFFFFFFFFFFFFFFFFFFFFFFFFFFFFFFFFFF AND SUB PUSH2 0x1598 JUMPI PUSH0 PUSH1 0x1 PUSH0 DUP1 SHL SWAP4 POP SWAP4 POP SWAP4 POP POP PUSH2 0x15A5 JUMP JUMPDEST DUP1 PUSH0 DUP1 PUSH0 SHL SWAP4 POP SWAP4 POP SWAP4 POP POP JUMPDEST SWAP5 POP SWAP5 POP SWAP5 SWAP2 POP POP JUMP JUMPDEST PUSH0 PUSH1 0x3 DUP2 GT ISZERO PUSH2 0x15C2 JUMPI PUSH2 0x15C1 PUSH2 0x21EC JUMP JUMPDEST JUMPDEST DUP3 PUSH1 0x3 DUP2 GT ISZERO PUSH2 0x15D5 JUMPI PUSH2 0x15D4 PUSH2 0x21EC JUMP JUMPDEST JUMPDEST SUB ISZERO PUSH2 0x170D JUMPI PUSH1 0x1 PUSH1 0x3 DUP2 GT ISZERO PUSH2 0x15EF JUMPI PUSH2 0x15EE PUSH2 0x21EC JUMP JUMPDEST JUMPDEST DUP3 PUSH1 0x3 DUP2 GT ISZERO PUSH2 0x1602 JUMPI PUSH2 0x1601 PUSH2 0x21EC JUMP JUMPDEST JUMPDEST SUB PUSH2 0x1639 JUMPI PUSH1 0x40 MLOAD PUSH32 0xF645EEDF00000000000000000000000000000000000000000000000000000000 DUP2 MSTORE PUSH1 0x4 ADD PUSH1 0x40 MLOAD DUP1 SWAP2 SUB SWAP1 REVERT JUMPDEST PUSH1 0x2 PUSH1 0x3 DUP2 GT ISZERO PUSH2 0x164D JUMPI PUSH2 0x164C PUSH2 0x21EC JUMP JUMPDEST JUMPDEST DUP3 PUSH1 0x3 DUP2 GT ISZERO PUSH2 0x1660 JUMPI PUSH2 0x165F PUSH2 0x21EC JUMP JUMPDEST JUMPDEST SUB PUSH2 0x16A4 JUMPI DUP1 PUSH0 SHR PUSH1 0x40 MLOAD PUSH32 0xFCE698F700000000000000000000000000000000000000000000000000000000 DUP2 MSTORE PUSH1 0x4 ADD PUSH2 0x169B SWAP2 SWAP1 PUSH2 0x1BBD JUMP JUMPDEST PUSH1 0x40 MLOAD DUP1 SWAP2 SUB SWAP1 REVERT JUMPDEST PUSH1 0x3 DUP1 DUP2 GT ISZERO PUSH2 0x16B7 JUMPI PUSH2 0x16B6 PUSH2 0x21EC JUMP JUMPDEST JUMPDEST DUP3 PUSH1 0x3 DUP2 GT ISZERO PUSH2 0x16CA JUMPI PUSH2 0x16C9 PUSH2 0x21EC JUMP JUMPDEST JUMPDEST SUB PUSH2 0x170C JUMPI DUP1 PUSH1 0x40 MLOAD PUSH32 0xD78BCE0C00000000000000000000000000000000000000000000000000000000 DUP2 MSTORE PUSH1 0x4 ADD PUSH2 0x1703 SWAP2 SWAP1 PUSH2 0x1C72 JUMP JUMPDEST PUSH1 0x40 MLOAD DUP1 SWAP2 SUB SWAP1 REVERT JUMPDEST JUMPDEST POP POP JUMP JUMPDEST PUSH2 0x1719 PUSH2 0x139A JUMP JUMPDEST PUSH2 0x1724 DUP4 DUP4 DUP4 PUSH2 0x179B JUMP JUMPDEST POP POP POP JUMP JUMPDEST PUSH1 0x60 PUSH0 PUSH2 0x1735 DUP4 PUSH2 0x19B4 JUMP JUMPDEST SWAP1 POP PUSH0 PUSH1 0x20 PUSH8 0xFFFFFFFFFFFFFFFF DUP2 GT ISZERO PUSH2 0x1753 JUMPI PUSH2 0x1752 PUSH2 0x2008 JUMP JUMPDEST JUMPDEST PUSH1 0x40 MLOAD SWAP1 DUP1 DUP3 MSTORE DUP1 PUSH1 0x1F ADD PUSH1 0x1F NOT AND PUSH1 0x20 ADD DUP3 ADD PUSH1 0x40 MSTORE DUP1 ISZERO PUSH2 0x1785 JUMPI DUP2 PUSH1 0x20 ADD PUSH1 0x1 DUP3 MUL DUP1 CALLDATASIZE DUP4 CALLDATACOPY DUP1 DUP3 ADD SWAP2 POP POP SWAP1 POP JUMPDEST POP SWAP1 POP DUP2 DUP2 MSTORE DUP4 PUSH1 0x20 DUP3 ADD MSTORE DUP1 SWAP3 POP POP POP SWAP2 SWAP1 POP JUMP JUMPDEST PUSH0 PUSH20 0xFFFFFFFFFFFFFFFFFFFFFFFFFFFFFFFFFFFFFFFF AND DUP4 PUSH20 0xFFFFFFFFFFFFFFFFFFFFFFFFFFFFFFFFFFFFFFFF AND SUB PUSH2 0x17EB JUMPI DUP1 PUSH1 0x2 PUSH0 DUP3 DUP3 SLOAD PUSH2 0x17DF SWAP2 SWAP1 PUSH2 0x2246 JUMP JUMPDEST SWAP3 POP POP DUP2 SWAP1 SSTORE POP PUSH2 0x18B9 JUMP JUMPDEST PUSH0 DUP1 PUSH0 DUP6 PUSH20 0xFFFFFFFFFFFFFFFFFFFFFFFFFFFFFFFFFFFFFFFF AND PUSH20 0xFFFFFFFFFFFFFFFFFFFFFFFFFFFFFFFFFFFFFFFF AND DUP2 MSTORE PUSH1 0x20 ADD SWAP1 DUP2 MSTORE PUSH1 0x20 ADD PUSH0 KECCAK256 SLOAD SWAP1 POP DUP2 DUP2 LT ISZERO PUSH2 0x1874 JUMPI DUP4 DUP2 DUP4 PUSH1 0x40 MLOAD PUSH32 0xE450D38C00000000000000000000000000000000000000000000000000000000 DUP2 MSTORE PUSH1 0x4 ADD PUSH2 0x186B SWAP4 SWAP3 SWAP2 SWAP1 PUSH2 0x20BB JUMP JUMPDEST PUSH1 0x40 MLOAD DUP1 SWAP2 SUB SWAP1 REVERT JUMPDEST DUP2 DUP2 SUB PUSH0 DUP1 DUP7 PUSH20 0xFFFFFFFFFFFFFFFFFFFFFFFFFFFFFFFFFFFFFFFF AND PUSH20 0xFFFFFFFFFFFFFFFFFFFFFFFFFFFFFFFFFFFFFFFF AND DUP2 MSTORE PUSH1 0x20 ADD SWAP1 DUP2 MSTORE PUSH1 0x20 ADD PUSH0 KECCAK256 DUP2 SWAP1 SSTORE POP POP JUMPDEST PUSH0 PUSH20 0xFFFFFFFFFFFFFFFFFFFFFFFFFFFFFFFFFFFFFFFF AND DUP3 PUSH20 0xFFFFFFFFFFFFFFFFFFFFFFFFFFFFFFFFFFFFFFFF AND SUB PUSH2 0x1900 JUMPI DUP1 PUSH1 0x2 PUSH0 DUP3 DUP3 SLOAD SUB SWAP3 POP POP DUP2 SWAP1 SSTORE POP PUSH2 0x194A JUMP JUMPDEST DUP1 PUSH0 DUP1 DUP5 PUSH20 0xFFFFFFFFFFFFFFFFFFFFFFFFFFFFFFFFFFFFFFFF AND PUSH20 0xFFFFFFFFFFFFFFFFFFFFFFFFFFFFFFFFFFFFFFFF AND DUP2 MSTORE PUSH1 0x20 ADD SWAP1 DUP2 MSTORE PUSH1 0x20 ADD PUSH0 KECCAK256 PUSH0 DUP3 DUP3 SLOAD ADD SWAP3 POP POP DUP2 SWAP1 SSTORE POP JUMPDEST DUP2 PUSH20 0xFFFFFFFFFFFFFFFFFFFFFFFFFFFFFFFFFFFFFFFF AND DUP4 PUSH20 0xFFFFFFFFFFFFFFFFFFFFFFFFFFFFFFFFFFFFFFFF AND PUSH32 0xDDF252AD1BE2C89B69C2B068FC378DAA952BA7F163C4A11628F55A4DF523B3EF DUP4 PUSH1 0x40 MLOAD PUSH2 0x19A7 SWAP2 SWAP1 PUSH2 0x1BBD JUMP JUMPDEST PUSH1 0x40 MLOAD DUP1 SWAP2 SUB SWAP1 LOG3 POP POP POP JUMP JUMPDEST PUSH0 DUP1 PUSH1 0xFF DUP4 PUSH0 SHR AND SWAP1 POP PUSH1 0x1F DUP2 GT ISZERO PUSH2 0x19F9 JUMPI PUSH1 0x40 MLOAD PUSH32 0xB3512B0C00000000000000000000000000000000000000000000000000000000 DUP2 MSTORE PUSH1 0x4 ADD PUSH1 0x40 MLOAD DUP1 SWAP2 SUB SWAP1 REVERT JUMPDEST DUP1 SWAP2 POP POP SWAP2 SWAP1 POP JUMP JUMPDEST PUSH0 DUP2 MLOAD SWAP1 POP SWAP2 SWAP1 POP JUMP JUMPDEST PUSH0 DUP3 DUP3 MSTORE PUSH1 0x20 DUP3 ADD SWAP1 POP SWAP3 SWAP2 POP POP JUMP JUMPDEST PUSH0 JUMPDEST DUP4 DUP2 LT ISZERO PUSH2 0x1A39 JUMPI DUP1 DUP3 ADD MLOAD DUP2 DUP5 ADD MSTORE PUSH1 0x20 DUP2 ADD SWAP1 POP PUSH2 0x1A1E JUMP JUMPDEST PUSH0 DUP5 DUP5 ADD MSTORE POP POP POP POP JUMP JUMPDEST PUSH0 PUSH1 0x1F NOT PUSH1 0x1F DUP4 ADD AND SWAP1 POP SWAP2 SWAP1 POP JUMP JUMPDEST PUSH0 PUSH2 0x1A5E DUP3 PUSH2 0x1A02 JUMP JUMPDEST PUSH2 0x1A68 DUP2 DUP6 PUSH2 0x1A0C JUMP JUMPDEST SWAP4 POP PUSH2 0x1A78 DUP2 DUP6 PUSH1 0x20 DUP7 ADD PUSH2 0x1A1C JUMP JUMPDEST PUSH2 0x1A81 DUP2 PUSH2 0x1A44 JUMP JUMPDEST DUP5 ADD SWAP2 POP POP SWAP3 SWAP2 POP POP JUMP JUMPDEST PUSH0 PUSH1 0x20 DUP3 ADD SWAP1 POP DUP2 DUP2 SUB PUSH0 DUP4 ADD MSTORE PUSH2 0x1AA4 DUP2 DUP5 PUSH2 0x1A54 JUMP JUMPDEST SWAP1 POP SWAP3 SWAP2 POP POP JUMP JUMPDEST PUSH0 DUP1 REVERT JUMPDEST PUSH0 PUSH20 0xFFFFFFFFFFFFFFFFFFFFFFFFFFFFFFFFFFFFFFFF DUP3 AND SWAP1 POP SWAP2 SWAP1 POP JUMP JUMPDEST PUSH0 PUSH2 0x1AD9 DUP3 PUSH2 0x1AB0 JUMP JUMPDEST SWAP1 POP SWAP2 SWAP1 POP JUMP JUMPDEST PUSH2 0x1AE9 DUP2 PUSH2 0x1ACF JUMP JUMPDEST DUP2 EQ PUSH2 0x1AF3 JUMPI PUSH0 DUP1 REVERT JUMPDEST POP JUMP JUMPDEST PUSH0 DUP2 CALLDATALOAD SWAP1 POP PUSH2 0x1B04 DUP2 PUSH2 0x1AE0 JUMP JUMPDEST SWAP3 SWAP2 POP POP JUMP JUMPDEST PUSH0 DUP2 SWAP1 POP SWAP2 SWAP1 POP JUMP JUMPDEST PUSH2 0x1B1C DUP2 PUSH2 0x1B0A JUMP JUMPDEST DUP2 EQ PUSH2 0x1B26 JUMPI PUSH0 DUP1 REVERT JUMPDEST POP JUMP JUMPDEST PUSH0 DUP2 CALLDATALOAD SWAP1 POP PUSH2 0x1B37 DUP2 PUSH2 0x1B13 JUMP JUMPDEST SWAP3 SWAP2 POP POP JUMP JUMPDEST PUSH0 DUP1 PUSH1 0x40 DUP4 DUP6 SUB SLT ISZERO PUSH2 0x1B53 JUMPI PUSH2 0x1B52 PUSH2 0x1AAC JUMP JUMPDEST JUMPDEST PUSH0 PUSH2 0x1B60 DUP6 DUP3 DUP7 ADD PUSH2 0x1AF6 JUMP JUMPDEST SWAP3 POP POP PUSH1 0x20 PUSH2 0x1B71 DUP6 DUP3 DUP7 ADD PUSH2 0x1B29 JUMP JUMPDEST SWAP2 POP POP SWAP3 POP SWAP3 SWAP1 POP JUMP JUMPDEST PUSH0 DUP2 ISZERO ISZERO SWAP1 POP SWAP2 SWAP1 POP JUMP JUMPDEST PUSH2 0x1B8F DUP2 PUSH2 0x1B7B JUMP JUMPDEST DUP3 MSTORE POP POP JUMP JUMPDEST PUSH0 PUSH1 0x20 DUP3 ADD SWAP1 POP PUSH2 0x1BA8 PUSH0 DUP4 ADD DUP5 PUSH2 0x1B86 JUMP JUMPDEST SWAP3 SWAP2 POP POP JUMP JUMPDEST PUSH2 0x1BB7 DUP2 PUSH2 0x1B0A JUMP JUMPDEST DUP3 MSTORE POP POP JUMP JUMPDEST PUSH0 PUSH1 0x20 DUP3 ADD SWAP1 POP PUSH2 0x1BD0 PUSH0 DUP4 ADD DUP5 PUSH2 0x1BAE JUMP JUMPDEST SWAP3 SWAP2 POP POP JUMP JUMPDEST PUSH0 DUP1 PUSH0 PUSH1 0x60 DUP5 DUP7 SUB SLT ISZERO PUSH2 0x1BED JUMPI PUSH2 0x1BEC PUSH2 0x1AAC JUMP JUMPDEST JUMPDEST PUSH0 PUSH2 0x1BFA DUP7 DUP3 DUP8 ADD PUSH2 0x1AF6 JUMP JUMPDEST SWAP4 POP POP PUSH1 0x20 PUSH2 0x1C0B DUP7 DUP3 DUP8 ADD PUSH2 0x1AF6 JUMP JUMPDEST SWAP3 POP POP PUSH1 0x40 PUSH2 0x1C1C DUP7 DUP3 DUP8 ADD PUSH2 0x1B29 JUMP JUMPDEST SWAP2 POP POP SWAP3 POP SWAP3 POP SWAP3 JUMP JUMPDEST PUSH0 PUSH1 0xFF DUP3 AND SWAP1 POP SWAP2 SWAP1 POP JUMP JUMPDEST PUSH2 0x1C3B DUP2 PUSH2 0x1C26 JUMP JUMPDEST DUP3 MSTORE POP POP JUMP JUMPDEST PUSH0 PUSH1 0x20 DUP3 ADD SWAP1 POP PUSH2 0x1C54 PUSH0 DUP4 ADD DUP5 PUSH2 0x1C32 JUMP JUMPDEST SWAP3 SWAP2 POP POP JUMP JUMPDEST PUSH0 DUP2 SWAP1 POP SWAP2 SWAP1 POP JUMP JUMPDEST PUSH2 0x1C6C DUP2 PUSH2 0x1C5A JUMP JUMPDEST DUP3 MSTORE POP POP JUMP JUMPDEST PUSH0 PUSH1 0x20 DUP3 ADD SWAP1 POP PUSH2 0x1C85 PUSH0 DUP4 ADD DUP5 PUSH2 0x1C63 JUMP JUMPDEST SWAP3 SWAP2 POP POP JUMP JUMPDEST PUSH0 PUSH1 0x20 DUP3 DUP5 SUB SLT ISZERO PUSH2 0x1CA0 JUMPI PUSH2 0x1C9F PUSH2 0x1AAC JUMP JUMPDEST JUMPDEST PUSH0 PUSH2 0x1CAD DUP5 DUP3 DUP6 ADD PUSH2 0x1B29 JUMP JUMPDEST SWAP2 POP POP SWAP3 SWAP2 POP POP JUMP JUMPDEST PUSH0 PUSH1 0x20 DUP3 DUP5 SUB SLT ISZERO PUSH2 0x1CCB JUMPI PUSH2 0x1CCA PUSH2 0x1AAC JUMP JUMPDEST JUMPDEST PUSH0 PUSH2 0x1CD8 DUP5 DUP3 DUP6 ADD PUSH2 0x1AF6 JUMP JUMPDEST SWAP2 POP POP SWAP3 SWAP2 POP POP JUMP JUMPDEST PUSH0 PUSH32 0xFF00000000000000000000000000000000000000000000000000000000000000 DUP3 AND SWAP1 POP SWAP2 SWAP1 POP JUMP JUMPDEST PUSH2 0x1D15 DUP2 PUSH2 0x1CE1 JUMP JUMPDEST DUP3 MSTORE POP POP JUMP JUMPDEST PUSH2 0x1D24 DUP2 PUSH2 0x1ACF JUMP JUMPDEST DUP3 MSTORE POP POP JUMP JUMPDEST PUSH0 DUP2 MLOAD SWAP1 POP SWAP2 SWAP1 POP JUMP JUMPDEST PUSH0 DUP3 DUP3 MSTORE PUSH1 0x20 DUP3 ADD SWAP1 POP SWAP3 SWAP2 POP POP JUMP JUMPDEST PUSH0 DUP2 SWAP1 POP PUSH1 0x20 DUP3 ADD SWAP1 POP SWAP2 SWAP1 POP JUMP JUMPDEST PUSH2 0x1D5C DUP2 PUSH2 0x1B0A JUMP JUMPDEST DUP3 MSTORE POP POP JUMP JUMPDEST PUSH0 PUSH2 0x1D6D DUP4 DUP4 PUSH2 0x1D53 JUMP JUMPDEST PUSH1 0x20 DUP4 ADD SWAP1 POP SWAP3 SWAP2 POP POP JUMP JUMPDEST PUSH0 PUSH1 0x20 DUP3 ADD SWAP1 POP SWAP2 SWAP1 POP JUMP JUMPDEST PUSH0 PUSH2 0x1D8F DUP3 PUSH2 0x1D2A JUMP JUMPDEST PUSH2 0x1D99 DUP2 DUP6 PUSH2 0x1D34 JUMP JUMPDEST SWAP4 POP PUSH2 0x1DA4 DUP4 PUSH2 0x1D44 JUMP JUMPDEST DUP1 PUSH0 JUMPDEST DUP4 DUP2 LT ISZERO PUSH2 0x1DD4 JUMPI DUP2 MLOAD PUSH2 0x1DBB DUP9 DUP3 PUSH2 0x1D62 JUMP JUMPDEST SWAP8 POP PUSH2 0x1DC6 DUP4 PUSH2 0x1D79 JUMP JUMPDEST SWAP3 POP POP PUSH1 0x1 DUP2 ADD SWAP1 POP PUSH2 0x1DA7 JUMP JUMPDEST POP DUP6 SWAP4 POP POP POP POP SWAP3 SWAP2 POP POP JUMP JUMPDEST PUSH0 PUSH1 0xE0 DUP3 ADD SWAP1 POP PUSH2 0x1DF4 PUSH0 DUP4 ADD DUP11 PUSH2 0x1D0C JUMP JUMPDEST DUP2 DUP2 SUB PUSH1 0x20 DUP4 ADD MSTORE PUSH2 0x1E06 DUP2 DUP10 PUSH2 0x1A54 JUMP JUMPDEST SWAP1 POP DUP2 DUP2 SUB PUSH1 0x40 DUP4 ADD MSTORE PUSH2 0x1E1A DUP2 DUP9 PUSH2 0x1A54 JUMP JUMPDEST SWAP1 POP PUSH2 0x1E29 PUSH1 0x60 DUP4 ADD DUP8 PUSH2 0x1BAE JUMP JUMPDEST PUSH2 0x1E36 PUSH1 0x80 DUP4 ADD DUP7 PUSH2 0x1D1B JUMP JUMPDEST PUSH2 0x1E43 PUSH1 0xA0 DUP4 ADD DUP6 PUSH2 0x1C63 JUMP JUMPDEST DUP2 DUP2 SUB PUSH1 0xC0 DUP4 ADD MSTORE PUSH2 0x1E55 DUP2 DUP5 PUSH2 0x1D85 JUMP JUMPDEST SWAP1 POP SWAP9 SWAP8 POP POP POP POP POP POP POP POP JUMP JUMPDEST PUSH0 PUSH1 0x20 DUP3 ADD SWAP1 POP PUSH2 0x1E76 PUSH0 DUP4 ADD DUP5 PUSH2 0x1D1B JUMP JUMPDEST SWAP3 SWAP2 POP POP JUMP JUMPDEST PUSH2 0x1E85 DUP2 PUSH2 0x1C26 JUMP JUMPDEST DUP2 EQ PUSH2 0x1E8F JUMPI PUSH0 DUP1 REVERT JUMPDEST POP JUMP JUMPDEST PUSH0 DUP2 CALLDATALOAD SWAP1 POP PUSH2 0x1EA0 DUP2 PUSH2 0x1E7C JUMP JUMPDEST SWAP3 SWAP2 POP POP JUMP JUMPDEST PUSH2 0x1EAF DUP2 PUSH2 0x1C5A JUMP JUMPDEST DUP2 EQ PUSH2 0x1EB9 JUMPI PUSH0 DUP1 REVERT JUMPDEST POP JUMP JUMPDEST PUSH0 DUP2 CALLDATALOAD SWAP1 POP PUSH2 0x1ECA DUP2 PUSH2 0x1EA6 JUMP JUMPDEST SWAP3 SWAP2 POP POP JUMP JUMPDEST PUSH0 DUP1 PUSH0 DUP1 PUSH0 DUP1 PUSH0 PUSH1 0xE0 DUP9 DUP11 SUB SLT ISZERO PUSH2 0x1EEB JUMPI PUSH2 0x1EEA PUSH2 0x1AAC JUMP JUMPDEST JUMPDEST PUSH0 PUSH2 0x1EF8 DUP11 DUP3 DUP12 ADD PUSH2 0x1AF6 JUMP JUMPDEST SWAP8 POP POP PUSH1 0x20 PUSH2 0x1F09 DUP11 DUP3 DUP12 ADD PUSH2 0x1AF6 JUMP JUMPDEST SWAP7 POP POP PUSH1 0x40 PUSH2 0x1F1A DUP11 DUP3 DUP12 ADD PUSH2 0x1B29 JUMP JUMPDEST SWAP6 POP POP PUSH1 0x60 PUSH2 0x1F2B DUP11 DUP3 DUP12 ADD PUSH2 0x1B29 JUMP JUMPDEST SWAP5 POP POP PUSH1 0x80 PUSH2 0x1F3C DUP11 DUP3 DUP12 ADD PUSH2 0x1E92 JUMP JUMPDEST SWAP4 POP POP PUSH1 0xA0 PUSH2 0x1F4D DUP11 DUP3 DUP12 ADD PUSH2 0x1EBC JUMP JUMPDEST SWAP3 POP POP PUSH1 0xC0 PUSH2 0x1F5E DUP11 DUP3 DUP12 ADD PUSH2 0x1EBC JUMP JUMPDEST SWAP2 POP POP SWAP3 SWAP6 SWAP9 SWAP2 SWAP5 SWAP8 POP SWAP3 SWAP6 POP JUMP JUMPDEST PUSH0 DUP1 PUSH1 0x40 DUP4 DUP6 SUB SLT ISZERO PUSH2 0x1F83 JUMPI PUSH2 0x1F82 PUSH2 0x1AAC JUMP JUMPDEST JUMPDEST PUSH0 PUSH2 0x1F90 DUP6 DUP3 DUP7 ADD PUSH2 0x1AF6 JUMP JUMPDEST SWAP3 POP POP PUSH1 0x20 PUSH2 0x1FA1 DUP6 DUP3 DUP7 ADD PUSH2 0x1AF6 JUMP JUMPDEST SWAP2 POP POP SWAP3 POP SWAP3 SWAP1 POP JUMP JUMPDEST PUSH32 0x4E487B7100000000000000000000000000000000000000000000000000000000 PUSH0 MSTORE PUSH1 0x22 PUSH1 0x4 MSTORE PUSH1 0x24 PUSH0 REVERT JUMPDEST PUSH0 PUSH1 0x2 DUP3 DIV SWAP1 POP PUSH1 0x1 DUP3 AND DUP1 PUSH2 0x1FEF JUMPI PUSH1 0x7F DUP3 AND SWAP2 POP JUMPDEST PUSH1 0x20 DUP3 LT DUP2 SUB PUSH2 0x2002 JUMPI PUSH2 0x2001 PUSH2 0x1FAB JUMP JUMPDEST JUMPDEST POP SWAP2 SWAP1 POP JUMP JUMPDEST PUSH32 0x4E487B7100000000000000000000000000000000000000000000000000000000 PUSH0 MSTORE PUSH1 0x41 PUSH1 0x4 MSTORE PUSH1 0x24 PUSH0 REVERT JUMPDEST PUSH0 PUSH1 0xC0 DUP3 ADD SWAP1 POP PUSH2 0x2048 PUSH0 DUP4 ADD DUP10 PUSH2 0x1C63 JUMP JUMPDEST PUSH2 0x2055 PUSH1 0x20 DUP4 ADD DUP9 PUSH2 0x1D1B JUMP JUMPDEST PUSH2 0x2062 PUSH1 0x40 DUP4 ADD DUP8 PUSH2 0x1D1B JUMP JUMPDEST PUSH2 0x206F PUSH1 0x60 DUP4 ADD DUP7 PUSH2 0x1BAE JUMP JUMPDEST PUSH2 0x207C PUSH1 0x80 DUP4 ADD DUP6 PUSH2 0x1BAE JUMP JUMPDEST PUSH2 0x2089 PUSH1 0xA0 DUP4 ADD DUP5 PUSH2 0x1BAE JUMP JUMPDEST SWAP8 SWAP7 POP POP POP POP POP POP POP JUMP JUMPDEST PUSH0 PUSH1 0x40 DUP3 ADD SWAP1 POP PUSH2 0x20A7 PUSH0 DUP4 ADD DUP6 PUSH2 0x1D1B JUMP JUMPDEST PUSH2 0x20B4 PUSH1 0x20 DUP4 ADD DUP5 PUSH2 0x1D1B JUMP JUMPDEST SWAP4 SWAP3 POP POP POP JUMP JUMPDEST PUSH0 PUSH1 0x60 DUP3 ADD SWAP1 POP PUSH2 0x20CE PUSH0 DUP4 ADD DUP7 PUSH2 0x1D1B JUMP JUMPDEST PUSH2 0x20DB PUSH1 0x20 DUP4 ADD DUP6 PUSH2 0x1BAE JUMP JUMPDEST PUSH2 0x20E8 PUSH1 0x40 DUP4 ADD DUP5 PUSH2 0x1BAE JUMP JUMPDEST SWAP5 SWAP4 POP POP POP POP JUMP JUMPDEST PUSH32 0x76616C756520697320746F6F206D6F7265210000000000000000000000000000 PUSH0 DUP3 ADD MSTORE POP JUMP JUMPDEST PUSH0 PUSH2 0x2124 PUSH1 0x12 DUP4 PUSH2 0x1A0C JUMP JUMPDEST SWAP2 POP PUSH2 0x212F DUP3 PUSH2 0x20F0 JUMP JUMPDEST PUSH1 0x20 DUP3 ADD SWAP1 POP SWAP2 SWAP1 POP JUMP JUMPDEST PUSH0 PUSH1 0x20 DUP3 ADD SWAP1 POP DUP2 DUP2 SUB PUSH0 DUP4 ADD MSTORE PUSH2 0x2151 DUP2 PUSH2 0x2118 JUMP JUMPDEST SWAP1 POP SWAP2 SWAP1 POP JUMP JUMPDEST PUSH0 PUSH1 0xA0 DUP3 ADD SWAP1 POP PUSH2 0x216B PUSH0 DUP4 ADD DUP9 PUSH2 0x1C63 JUMP JUMPDEST PUSH2 0x2178 PUSH1 0x20 DUP4 ADD DUP8 PUSH2 0x1C63 JUMP JUMPDEST PUSH2 0x2185 PUSH1 0x40 DUP4 ADD DUP7 PUSH2 0x1C63 JUMP JUMPDEST PUSH2 0x2192 PUSH1 0x60 DUP4 ADD DUP6 PUSH2 0x1BAE JUMP JUMPDEST PUSH2 0x219F PUSH1 0x80 DUP4 ADD DUP5 PUSH2 0x1D1B JUMP JUMPDEST SWAP7 SWAP6 POP POP POP POP POP POP JUMP JUMPDEST PUSH0 PUSH1 0x80 DUP3 ADD SWAP1 POP PUSH2 0x21BC PUSH0 DUP4 ADD DUP8 PUSH2 0x1C63 JUMP JUMPDEST PUSH2 0x21C9 PUSH1 0x20 DUP4 ADD DUP7 PUSH2 0x1C32 JUMP JUMPDEST PUSH2 0x21D6 PUSH1 0x40 DUP4 ADD DUP6 PUSH2 0x1C63 JUMP JUMPDEST PUSH2 0x21E3 PUSH1 0x60 DUP4 ADD DUP5 PUSH2 0x1C63 JUMP JUMPDEST SWAP6 SWAP5 POP POP POP POP POP JUMP JUMPDEST PUSH32 0x4E487B7100000000000000000000000000000000000000000000000000000000 PUSH0 MSTORE PUSH1 0x21 PUSH1 0x4 MSTORE PUSH1 0x24 PUSH0 REVERT JUMPDEST PUSH32 0x4E487B7100000000000000000000000000000000000000000000000000000000 PUSH0 MSTORE PUSH1 0x11 PUSH1 0x4 MSTORE PUSH1 0x24 PUSH0 REVERT JUMPDEST PUSH0 PUSH2 0x2250 DUP3 PUSH2 0x1B0A JUMP JUMPDEST SWAP2 POP PUSH2 0x225B DUP4 PUSH2 0x1B0A JUMP JUMPDEST SWAP3 POP DUP3 DUP3 ADD SWAP1 POP DUP1 DUP3 GT ISZERO PUSH2 0x2273 JUMPI PUSH2 0x2272 PUSH2 0x2219 JUMP JUMPDEST JUMPDEST SWAP3 SWAP2 POP POP JUMP INVALID LOG2 PUSH5 0x6970667358 0x22 SLT KECCAK256 0xBD PC 0xF7 RETURNDATASIZE MUL 0xC4 0xB2 0xCD BYTE SWAP10 ADDRESS 0xB2 DUP9 0xE1 0xE MLOAD 0xC5 0xE4 0xE5 PUSH14 0xA4E796E4925BC619861D72936473 PUSH16 0x6C634300081800330000000000000000 "
				},
				"gasEstimates": {
					"creation": {
						"codeDepositCost": "1775800",
						"executionCost": "infinite",
						"totalCost": "infinite"
					},
					"external": {
						"DOMAIN_SEPARATOR()": "infinite",
						"allowance(address,address)": "infinite",
						"approve(address,uint256)": "infinite",
						"balanceOf(address)": "2962",
						"burn(uint256)": "infinite",
						"burnFrom(address,uint256)": "infinite",
						"decimals()": "450",
						"eip712Domain()": "infinite",
						"mint(address,uint256)": "infinite",
						"name()": "infinite",
						"nonces(address)": "2938",
						"owner()": "2588",
						"pause()": "infinite",
						"paused()": "2584",
						"permit(address,address,uint256,uint256,uint8,bytes32,bytes32)": "infinite",
						"renounceOwnership()": "infinite",
						"symbol()": "infinite",
						"totalSupply()": "2500",
						"transfer(address,uint256)": "infinite",
						"transferFrom(address,address,uint256)": "infinite",
						"transferOwnership(address)": "infinite",
						"unpause()": "infinite"
					},
					"internal": {
						"_update(address,address,uint256)": "infinite"
					}
				},
				"methodIdentifiers": {
					"DOMAIN_SEPARATOR()": "3644e515",
					"allowance(address,address)": "dd62ed3e",
					"approve(address,uint256)": "095ea7b3",
					"balanceOf(address)": "70a08231",
					"burn(uint256)": "42966c68",
					"burnFrom(address,uint256)": "79cc6790",
					"decimals()": "313ce567",
					"eip712Domain()": "84b0196e",
					"mint(address,uint256)": "40c10f19",
					"name()": "06fdde03",
					"nonces(address)": "7ecebe00",
					"owner()": "8da5cb5b",
					"pause()": "8456cb59",
					"paused()": "5c975abb",
					"permit(address,address,uint256,uint256,uint8,bytes32,bytes32)": "d505accf",
					"renounceOwnership()": "715018a6",
					"symbol()": "95d89b41",
					"totalSupply()": "18160ddd",
					"transfer(address,uint256)": "a9059cbb",
					"transferFrom(address,address,uint256)": "23b872dd",
					"transferOwnership(address)": "f2fde38b",
					"unpause()": "3f4ba83a"
				}
			},
			"storageLayout": {
				"storage": [
					{
						"astId": 332,
						"contract": "contracts/MyToken.sol:MyToken",
						"label": "_balances",
						"offset": 0,
						"slot": "0",
						"type": "t_mapping(t_address,t_uint256)"
					},
					{
						"astId": 338,
						"contract": "contracts/MyToken.sol:MyToken",
						"label": "_allowances",
						"offset": 0,
						"slot": "1",
						"type": "t_mapping(t_address,t_mapping(t_address,t_uint256))"
					},
					{
						"astId": 340,
						"contract": "contracts/MyToken.sol:MyToken",
						"label": "_totalSupply",
						"offset": 0,
						"slot": "2",
						"type": "t_uint256"
					},
					{
						"astId": 342,
						"contract": "contracts/MyToken.sol:MyToken",
						"label": "_name",
						"offset": 0,
						"slot": "3",
						"type": "t_string_storage"
					},
					{
						"astId": 344,
						"contract": "contracts/MyToken.sol:MyToken",
						"label": "_symbol",
						"offset": 0,
						"slot": "4",
						"type": "t_string_storage"
					},
					{
						"astId": 1305,
						"contract": "contracts/MyToken.sol:MyToken",
						"label": "_paused",
						"offset": 0,
						"slot": "5",
						"type": "t_bool"
					},
					{
						"astId": 8,
						"contract": "contracts/MyToken.sol:MyToken",
						"label": "_owner",
						"offset": 1,
						"slot": "5",
						"type": "t_address"
					},
					{
						"astId": 2380,
						"contract": "contracts/MyToken.sol:MyToken",
						"label": "_nameFallback",
						"offset": 0,
						"slot": "6",
						"type": "t_string_storage"
					},
					{
						"astId": 2382,
						"contract": "contracts/MyToken.sol:MyToken",
						"label": "_versionFallback",
						"offset": 0,
						"slot": "7",
						"type": "t_string_storage"
					},
					{
						"astId": 1242,
						"contract": "contracts/MyToken.sol:MyToken",
						"label": "_nonces",
						"offset": 0,
						"slot": "8",
						"type": "t_mapping(t_address,t_uint256)"
					}
				],
				"types": {
					"t_address": {
						"encoding": "inplace",
						"label": "address",
						"numberOfBytes": "20"
					},
					"t_bool": {
						"encoding": "inplace",
						"label": "bool",
						"numberOfBytes": "1"
					},
					"t_mapping(t_address,t_mapping(t_address,t_uint256))": {
						"encoding": "mapping",
						"key": "t_address",
						"label": "mapping(address => mapping(address => uint256))",
						"numberOfBytes": "32",
						"value": "t_mapping(t_address,t_uint256)"
					},
					"t_mapping(t_address,t_uint256)": {
						"encoding": "mapping",
						"key": "t_address",
						"label": "mapping(address => uint256)",
						"numberOfBytes": "32",
						"value": "t_uint256"
					},
					"t_string_storage": {
						"encoding": "bytes",
						"label": "string",
						"numberOfBytes": "32"
					},
					"t_uint256": {
						"encoding": "inplace",
						"label": "uint256",
						"numberOfBytes": "32"
					}
				}
			},
			"userdoc": {
				"kind": "user",
				"methods": {},
				"version": 1
			}
		}
	}
}